:02000004080AE8
:101000001013002069120A089D5A0A083D440A0874
:10101000C54A0A084D190A08A9720A08000000000A
:1010200000000000000000000000000049600A0805
:10103000C9260A08000000000D5D0A0885650A0837
:1010400083120A0883120A0883120A0883120A0804
:1010500083120A0883120A0883120A0883120A08F4
:1010600083120A0883120A0883120A0883120A08E4
:1010700083120A08D5230A0883120A080D240A08D5
:1010800021240A0861240A0825160A0883120A087E
:1010900051190A0883120A0883120A0883120A08DF
:1010A00083120A0883120A0883120A0883120A08A4
:1010B000E1650A0815660A0883120A0883120A08FD
:1010C00083120A0883120A0883120A0883120A0884
:1010D00083120A08796E0A08D56F0A0883120A0873
:1010E00083120A0883120A0883120A0883120A0864
:1010F00083120A0883120A0883120A0883120A0854
:1011000083120A0883120A085D660A0883120A0815
:10111000756C0A0883120A0883120A0883120A08E7
:1011200075240A0883120A0883120A0883120A081F
:1011300083120A08000000000000000083120A0861
:1011400083120A0883120A0883120A0883120A0803
:1011500089240A0883120A08B5240A0883120A0897
:1011600083120A0883120A0883120A0883120A08E3
:1011700083120A0883120A08000000000000000021
:1011800083120A0883120A0800F002F800F05CF8E3
:101190000AA090E8000C82448344AAF10107DA45D2
:1011A00001D100F051F8AFF2090EBAE80F0013F0C8
:1011B000010F18BFFB1A43F0010318476C880000A9
:1011C0008C8800000A444FF0000C10F8013B13F02B
:1011D000070408BF10F8014B1D1108BF10F8015B90
:1011E000641E05D010F8016B641E01F8016BF9D183
:1011F00013F0080F1EBF10F8014BAD1C0C1B09D1DA
:101200006D1E58BF01F801CBFAD505E014F8016B4B
:1012100001F8016B6D1EF9D59142D6D370470000DD
:101220000023002400250026103A28BF78C1FBD8EF
:10123000520728BF30C148BF0B6070471FB508F088
:101240009DFA1FBD10B510BD00F020F91146FFF743
:10125000F5FF06F057F800F03EF903B4FFF7F2FF90
:1012600003BC00F045F900000948804709480047E1
:10127000FEE7FEE7FEE7FEE7FEE7FEE7FEE7FEE746
:10128000FEE7FEE704480549054A064B70470000A3
:1012900089650A0889110A08100D00201013002022
:1012A000100F0020100F002053EA020C00F069809C
:1012B0002DE9F04B4FF00006002B1FBFB3FA83F56A
:1012C00003FA05F424FA05F65E4012BF1643B2FA9B
:1012D00082F502FA05F4C5F120051EBF22FA05FCCD
:1012E00044EA0C04203556EA044C4FEA144418BF73
:1012F000641C4FF000084FF00009904271EB030CA2
:1013000039D3002919BFB1FA81F701FA07F6B0FA0B
:1013100080F700FA07F6C7F120071EBF20FA07FC86
:1013200046EA0C062037B6FBF4FCA7EB0507103F96
:1013300007F01F0BCBF120062CFA06F60CFA0BFB7C
:1013400044BFB3460026202FA4BF5E464FF0000BDB
:101350005BEA060C08BF4FF0010B19EB0B0948EBD9
:101360000608ABFB027C06FB02CC0BFB03CCC01BCC
:1013700071EB0C01C1E70B46024641464846BDE809
:10138000F08B13B5084318BF4FF0FF300146AFF3A1
:101390000080BDE81C407047032A40F2308010F006
:1013A000030C00F0158011F8013BBCF1020F624400
:1013B00098BF11F801CB00F8013B38BF11F8013B91
:1013C000A2F1040298BF00F801CB38BF00F8013B3E
:1013D00011F0030300F02580083AC0F0088051F8AE
:1013E000043B083A51F804CBA0E80810F5E7121DB9
:1013F0005CBF51F8043B40F8043BAFF30080D207D8
:1014000024BF11F8013B11F801CB48BF11F8012BA3
:1014100024BF00F8013B00F801CB48BF00F8012BC6
:10142000704710B5203AC0F00B80B1E81850A0E822
:101430001850B1E81850A0E81850203ABFF4F5AFA2
:101440005FEA027C24BFB1E81850A0E8185044BFFE
:1014500018C918C0BDE810405FEA827C24BF51F86B
:10146000043B40F8043B08BF7047D20728BF31F85F
:10147000023B48BF11F8012B28BF20F8023B48BFB0
:1014800000F8012B7047704770477047754600F0B1
:101490002BF8AE4605006946534620F00700854606
:1014A00018B020B5FFF7EEFEBDE820404FF0000673
:1014B0004FF000074FF000084FF0000BAC46ACE8CF
:1014C000C009ACE8C009ACE8C009ACE8C00921F02B
:1014D00007018D46704710B50446AFF300802046E3
:1014E000BDE81040FFF7B9BE004870471803002060
:1014F00001491820ABBEFEE726000200704700003D
:10150000B0B540F27834C2F2000420684CF6CD4504
:101510000130CCF6CC4500FB05F1B1F1333F206042
:1015200008D840F62C40C2F200004FF47A6104F073
:10153000C7F8206800FB05F101F13331B1F1333F09
:1015400008D240F62C40C2F200004FF47A6104F059
:1015500033FA2068684300F1993046F266614FEA39
:10156000F000C0F26661884212D840F62C40C2F208
:1015700000004FF4FA7104F06DFA40F6DC40C2F25C
:101580000000017940F25C40C2F2000001F0ECF989
:1015900040F62C40C2F2000044F6206104F0AEF8A0
:1015A00040F27C40C2F200000078012818BFB0BDB4
:1015B00040F60950C2F20000007801280BD140F635
:1015C0002C4040F61841C2F20000C2F20001BDE812
:1015D000B04001F075BAB0BD062807D840F66C419E
:1015E000C2F2000131F8100080B2704709280BD018
:1015F000082810D0072811BF002042F23C00C4F296
:101600000100006880B2704742F23C00C4F2010061
:10161000806880B2704742F23C00C4F2010040682A
:1016200080B2704742F20000C4F20100016821F06C
:1016300004010160FFF764BF2DE9F04387B040F279
:1016400000070320C2F200070390386802AC0025AF
:1016500002264FF00108214604950596CDF8088032
:1016600002F0E0FA78684FF010092146CDF80890B2
:1016700002F0D8FAB8682146CDF8088002F0D2FA14
:10168000F8682146029602F0CDFA042138690291E9
:10169000214602F0C7FA082178690291214602F03A
:1016A000C1FAB8692146CDF8089002F0BBFAF86992
:1016B0002146029602F0B6FA2021386A02912146AC
:1016C00002F0B0FA786A2146CDF8088002F0AAFA52
:1016D00043F630000195C4F20200416942F234043D
:1016E00041F4807141614169C4F2010401F48071E7
:1016F0000191019949F24921C0F2241144F8281CB2
:1017000001F1006144F8241C0295016846F210467C
:1017100041F4800101600168C4F2020601F4800115
:101720000291029954F82C1C002221F0010144F886
:101730002C1C4FF4C07144F8301C40F20031C6F646
:10174000100144F82C1C0521C4F8D0124FF4C0013C
:1017500044F8205C44F8081C44F8045C25602168C7
:101760002160216841F080012160216841F420510D
:101770002160216841F4B0212160216841F44001D9
:101780002160216841F0D051216054F8041C41F0DF
:101790000E0144F8041C43F62051C0F2240161609C
:1017A0000295016841F4800101600068052100F4A0
:1017B00080000290029842F61050C0F2010035609D
:1017C000306040F66C40C2F20000F06004F1180096
:1017D000B060072070603820756102F077FB382018
:1017E00002F064FB3068012140F0010030601220FB
:1017F000002202F06BFB122002F058FB54F82C0C74
:1018000040F0010044F82C0C07B0BDE8F083000064
:1018100010B5016848F20004B1F5004FCFF6FE7430
:1018200020DD0B46B1F5C03FA8BF4FF4C033A1EB9C
:10183000030C4FF6FF730CEB030E4FEA1E4C6323B1
:1018400004F50042BCF1630F38BF4FEA1E4303FBAF
:1018500002110122A1F5803152FA83F30160632B5A
:1018600003D910BD0023632BFBD804F580329142CD
:10187000A8BF10BDA142C8BF0C46621A4FF6FF7444
:101880002244C3F16303B3EB124F88BF130C01EB87
:10189000034101F58031016010BD000010B5016801
:1018A0000024B1F1011FCFF6FF741EDB0B46B1F52A
:1018B000003FA8BF4FF40033A1EB030C4FF6FF73BA
:1018C0000CEB030E4FEA1E4C6323BCF1630F38BFD1
:1018D0004FEA1E4303FB04110122A1F5803152FAA5
:1018E00083F30160632B03D910BD0023632BFBD866
:1018F000B1F1FF3FC8BF10BDA142C8BF0C46621A7C
:101900004FF6FF742244C3F16303B3EB124F88BF59
:10191000130C01EB034101F58031016010BD0000A3
:1019200000680968431A084448BF5B42B3F5004F9A
:10193000C8BFA0F5803040101060704704F0FEFC76
:10194000EFF3108072B605F0B1FC0000FEE7000076
:1019500080B540F28C30C2F2000001F07DFEBDE89F
:10196000804000F019BA0000B0B546F20045C4F25C
:101970000005A86900F00700072818BFB0BD40F2B5
:10198000AC10C2F200000078400621D540F6944227
:10199000C2F20002107840F0400340F68440C2F2E8
:1019A0000000B0F8011040F6F440C2F20000C90691
:1019B0000168137040F284025CBF01310160C2F221
:1019C00000025278D20603D5062924BF0021016007
:1019D00040F28C34C2F200042046012101F08AFC5E
:1019E0002046022101F086FC2046042101F082FC01
:1019F000286840F400402860286820F00300286030
:101A0000B0BD000040F61840C2F2000040F238516C
:101A10004278C2F200010A8040F2305240F62C4C6B
:101A2000C2F20002C2F2000C80785288BCF81C306E
:101A30004A808B80C88040F6844040F69441C2F2D0
:101A40000000C2F200010068096840F20852C2F2C8
:101A50000002C2E9000140F2E040DCE90321C2F2E9
:101A6000000041801109BCF8382003808180C280C9
:101A70007047000080B540F28831C2F2000108686A
:101A800049F69A12013008604CF6CD41CCF6CC41B3
:101A900041434FEA7101C1F69912914240F2D4518B
:101AA000C2F200011FD348F21F52C5F2EB12A0FB95
:101AB00002235A0964235A43D243104408283BD8CE
:101AC000DFE800F0053A563A623A6E3A7A0040F2A0
:101AD0000852C2F200024FF482600823D2E9002EBD
:101AE00008604B6073E040F6EE4040F2385EC2F2B0
:101AF0000000C2F2000E0388BEF8022040F6EC4C53
:101B00009342C2F2000C03D1BCF8003023B909E0C3
:101B10000A23ACF8003002800120AEF80600581EFF
:101B2000ACF800004FF480604FF0080CDEE9002EA6
:101B30000860C1F804C04AE040F68240C2F20000EA
:101B40000288022A4CD1002240F2A053028040F2C7
:101B500001400822C2F20003C1E900021A68D3F86A
:101B600004E040F25853C2F20003C3E9002E2EE015
:101B700040F26052C2F2000240F211400823D2E962
:101B8000002E08604B6022E040F2E042C2F2000208
:101B900040F212400823D2E9002E08604B6016E0A4
:101BA00040F2E842C2F2000240F213400823D2E9B8
:101BB000002E08604B600AE040F2F042C2F20002E0
:101BC000D2E9002E40F21440082308604B6041F82F
:101BD000082F0822C1F804E0BDE8804000F0A2B957
:101BE00040F67A40C2F200000288022A13D1002295
:101BF000028040F202400822C1E9000240F2F842AD
:101C0000C2F20002D2E9002E40F20053C2F20003F9
:101C1000C3E9002EDBE740F67E40C2F200000288F6
:101C2000022A0DD10022028008224A6040F2285286
:101C3000C2F2000240F20340D2E9002E0860C6E77B
:101C400040F67C40C2F200000288012A13D1002233
:101C5000028040F204400822C1E9000240F2105222
:101C6000C2F20002D2E9002E40F21853C2F2000381
:101C7000C3E9002EABE740F68040C2F200000288C4
:101C8000012A18BF80BD40F24052C2F20002138800
:101C9000092B9CBF0A2313800023038040F20540D8
:101CA0000823C1E90003D2E9002E40F24853C2F2F2
:101CB0000003C3E9002E8AE780B58AB0014640F2EE
:101CC0008C3046F20042C2F20000C4F2000240F240
:101CD000280C02604FF08072C2F2000C8261BCF8E6
:101CE000002000238A428383836011D0BCF8142033
:101CF0008A4201D101230BE0BCF828208A4201D19D
:101D0000022305E0BCF83C2004238A4208BF0323D9
:101D100003EB83010CEB810101F1040C9CE80C1036
:101D2000098AC0E90323C0F814C0416001F0B6FD80
:101D300000284FF0010001D00AB080BD0021CDE99C
:101D40000610CDE90011CDE90211CDE9041108908A
:101D50000E20099040F28C30C2F20000694601F07A
:101D600057FB10B102200AB080BD40F28C30C2F2A5
:101D7000000001F061FE10B103200AB080BD40F206
:101D80008C30C2F20000022101F0DCFA002818BFFA
:101D9000012080000AB080BDB0B540F26855C2F2A3
:101DA000000505F10804204600F094F8A0F59871AC
:101DB0000822052928606A6011D8DFE801F0032BAA
:101DC0003C4D5E78EFF3108072B66A6840F2305096
:101DD000C2F200002146FFF724FB62B6B0BD5028D6
:101DE00040F07780EFF3108072B66A6840F2803579
:101DF000C2F2000528462146FFF713FB62B6288889
:101E0000012818BFB0BD40F6B440C2F20000022164
:101E10000170B0BDEFF3108072B66A6840F25050A6
:101E2000C2F200002146FFF7FCFA40F68240C2F2FF
:101E3000000062B638E0EFF3108072B66A6840F2D4
:101E4000F840C2F200002146FFF7EBFA40F67A4074
:101E500062B6C2F2000027E0EFF3108072B66A6843
:101E600040F22050C2F200002146FFF7DAFA40F6B5
:101E70007E4062B6C2F2000016E0EFF3108072B648
:101E80006A6840F21050C2F200002146FFF7C9FA1A
:101E900040F20C30C2F200004FF4FA7162B60180D9
:101EA00040F67C40C2F2000001210180B0BDEFF39A
:101EB000108072B66A6840F24050C2F200002146BB
:101EC000FFF7AFFA40F68040C2F20000012162B68F
:101ED0000180B0BDB0B588B0054640F28C30C2F28A
:101EE00000000021002401F005FBC0B140F28C305D
:101EF000C2F2000001AA00212B46002401F00AFBD7
:101F000068B90598082803D1039818B1002406E0A1
:101F1000002404E0049800280CBF019C0024204603
:101F200008B0B0BD10B588B0CDE901000020CDE902
:101F3000030040F2C0500C460121C2F2000007919C
:101F4000016805920131016040F28C30C2F200005C
:101F500001F06EFB00286ED140F28C30C2F200001E
:101F600001F066FB002866D140F28C30C2F200001E
:101F700001F05EFB00285ED140F28C30C2F200001E
:101F800001F056FB002856D140F28C30C2F200001E
:101F900001F04EFB00284ED140F28C30C2F200001E
:101FA00001F046FB002846D140F28C30C2F200001E
:101FB00001F03EFB00283ED140F28C30C2F200001E
:101FC00001F036FBB8BB40F28C30C2F2000001F0E9
:101FD0002FFB80BB40F28C30C2F2000001F028FBE6
:101FE00048BB40F28C30C2F2000001F021FB10BB74
:101FF00040F28C30C2F2000001F01AFBD8B940F276
:102000008C30C2F2000001F013FBA0B940F28C301A
:10201000C2F2000001F00CFB68B940F28C30C2F251
:10202000000001F005FB30B940F28C30C2F2000034
:1020300001F0FEFAE8B140F2C850C2F200000168B7
:1020400007AB0131016040F28C30C2F2000001A9FF
:10205000224601F08BF908B1012407E040F2C45098
:10206000C2F200000168002401310160204608B07E
:1020700010BD40F28C30C2F200000121012401F0B9
:1020800039F9F3E740F20860C2F2000000687047D7
:102090002DE9F04F87B04FF0000843F6300ACDF835
:1020A0000480C4F2020ADAF81010814641F40021DB
:1020B000CAF81010DAF8101040F6000501F40020FC
:1020C00001900198022401274FF48060C4F20205B8
:1020D00001AE0294CDE9037401904FF0080B28463D
:1020E0003146CDF814B001F09DFD4FF40060CDE90C
:1020F00002470190284631460494CDF814B001F00F
:1021000091FD042005F58065CDE902770190284610
:102110003146049401F086FD28460421002201F096
:102120005BFE44F60C45C4F2000540F2A810C5F869
:102130000080C2F2000000684FF6FF718008B0FB1B
:10214000F9F0002280B245F8040C28688843286022
:10215000686847F66F7188436860A86840F6FF7149
:102160008843A8602868002140F05C002860A868C7
:1021700040F0C000A860286840F400502860342077
:1021800001F0A4FE342001F091FECDF81880DAF8B9
:10219000000046F2400440F40010CAF80000DAF8EB
:1021A000000040F2044600F4001006900698CDF8B6
:1021B0001880DAF80000C4F2020440F40010CAF8F3
:1021C0000000DAF80000C0F6010600F400100690E6
:1021D000069840F61200C2F20000C4F800802660A3
:1021E000E060083DFF20A560606080270D20002191
:1021F0000022676101F06AFE0D2001F057FE2068A1
:10220000002140F00100206006F15000C4F8308049
:10221000206340F61830C2F20000E0630F20002275
:10222000A563C4F83480676401F050FE0F2001F00C
:102230003DFE07B0BDE8F08FB0B590B040F2584019
:10224000C2F2000001880131018001F0010001307B
:102250008DF800000320CDF8010001208DF8050065
:102260006846062102F030FC40F69944C2F20004B0
:102270002178ADF8060061BB40F6004046F27005DB
:10228000C4F2020004210122C4F2020501F0A4FDFF
:10229000DDE9000140F61832C2F20002C2E9000195
:1022A000286820F0010028602868C0071FBF286840
:1022B0005FEAC07028685FEAC07002D02868C00773
:1022C000F2D108206860286840F0010028600120F1
:1022D000207040F2CC10C2F2000001884900018059
:1022E00010B0B0BD10B5D0E9001204460069891ADB
:1022F000E16105F0BDFAA268D4E9093108449A42C7
:1023000020620ED00028024648BF424200290B46F8
:1023100048BF4B429A4204DB08464FF6705105F025
:10232000A7FAE169E2682062A0620144104605F064
:102330009FFA61696062884204DCA1698842B8BF83
:1023400008460146A16010BD70B540F2B015C2F25A
:102350000005296804460846802101F02FFD013858
:10236000B0FA80F168684E09402101F027FD01387C
:10237000B0FA80F04109A86846EA4106202101F040
:102380001DFD0138B0FA80F04109E86846EA81068F
:102390004FF4004101F012FD0138B0FA80F041091C
:1023A000286946EAC106082101F008FD0138B0FAA3
:1023B00080F04109686946EA0115402101F0FEFC00
:1023C0000138B0FA80F0400945EA40110020218030
:1023D00070BD000046F24000C4F2020050F8381C04
:1023E000002241F47C1140F8381C40F69041C2F2C2
:1023F00000010A60016821F001010160FF214160D4
:10240000016841F0010101607047000046F20C00D4
:10241000C4F20200016841F03F0101607047000012
:1024200046F28800C4F2020050F87C1C002241F4FD
:102430007C6140F87C1C40F68841C2F200010A70C1
:1024400040F68C41C2F200010A60016821F00101EE
:102450000160FF214160016841F0010101607047A6
:1024600046F20C00C4F20200016841F47C110160E4
:102470007047000046F20840C4F20200016841F0D3
:102480003F0101607047000046F28840C4F202003C
:1024900050F87C1C41F47C6140F87C1C016821F000
:1024A00001010160FF214160016841F0010101600B
:1024B0007047000046F20C40C4F20200016841F08F
:1024C0007C6101607047000080B540F2C812C2F222
:1024D000000252F8211002460846802101F07CFCDF
:1024E000002080BD2DE9F041C6B048F20008C0F6DA
:1024F000000800F0F9F940F29806C2F200064FF425
:10250000C0104FF4A012832340F63D2742F6AC25BD
:1025100040F2E83406F1380C0021C0F26667C0F6DC
:10252000B835C8F200048CE88F0040F6FF7040F226
:10253000FD2244F2506306F1580CC6E91375746528
:10254000C0F20A02C4F250638CE807004FF4004066
:10255000C6E91913A6F86C00B8F8000043F233314D
:102560008842ADF8060021D140F29804C2F200047E
:10257000002021464FF4887200F00CF900283ED16B
:10258000B4F80E5120464FF4877102F09DFA85424F
:1025900035D12088012806D16088B0F5887F02D126
:1025A000A08818282DD003F079FE2AE040F2980187
:1025B000C2F2000102A84FF48872FEF732FFBDF8A4
:1025C0000800012818D1BDF80A00B0F5887F13D1A2
:1025D000BDF80C0018280FD102AD28464FF48771C2
:1025E00002F072FAADF81601002029464FF4887205
:1025F00000F024F9002845D003F062FE01E003F06A
:102600005FFE44F24420C0F20F00F06002A8FFF722
:102610009BFEBDF8080000F007040120FEF7DCFF78
:10262000642100EB40026143920001EB1231B1F5ED
:10263000327F28BF4FF43271F1800021C0F60401CF
:1026400009684EF2D722C0F63672914228BF114671
:1026500031610021C0F60A010968914228BF114684
:10266000716143F6FC71C0F600010968ADF808001D
:10267000914238BF0A46B26101F0C2FBB06046B079
:10268000BDE8F08143F23330ADF806000DF10601EC
:102690004046012200F078FD80B103270DF10605C8
:1026A000404629460122013F00F06EFD390618BF61
:1026B0000028F5D110B103F003FEA2E7EFF310807C
:1026C00072B604F009FE0000704700002DE9F04FDB
:1026D00085B040F2B015C2F2000528686C464FF094
:1026E00000094FF0010802274FF0800A2146CDF87B
:1026F0000490CDF808800397CDF800A001F092FA7D
:10270000686840262146009601F08CFAA8684FF0D0
:10271000200B2146CDF800B001F084FA4FF40041BF
:10272000E8680091214601F07DFA082128690091AE
:10273000214601F077FA68692146009601F072FAA5
:1027400028682146CDE901970397CDF800A001F054
:1027500069FA68682146009601F064FAA868214683
:10276000CDF800B001F05EFA40F2C815C2F20005E3
:1027700028682146CDE901890397CDF800A001F032
:1027800051FA28688021002201F026FB05B0BDE83F
:10279000F08F00002DE9F04704460020B0EBD42F65
:1027A0004FF0FF0A45D11746B2F5006F41D840F20D
:1027B0000048C4F202088946404610210022002544
:1027C00001F00AFB381960400F2803D8204649461B
:1027D0003A4626E004F00F00C0F1100620464946B4
:1027E000324601F055FEBF1B8246B8B23444B5EB09
:1027F000101F4E4410D04FEA10190025A0B23146E8
:10280000102201F045FE0135824628B21034103600
:102810004845A7F11007F1DB17F00F0204D0A0B272
:10282000314601F035FE824640461021012201F07A
:10283000D3FA4FFA8AF0BDE8F08700002DE9F04F97
:1028400081B0044617180020B0EBD72F02D04FF00C
:10285000FF0B44E040F20048C4F2020816468946E5
:10286000404610210022002501F0B6FA87EA040054
:102870000F2803D820464946324628E004F00F00CE
:10288000C0F1100A20464946524601F097FFA6EBD8
:102890000A078346B8B25444B5EB101F09EB0A0689
:1028A00010D04FEA10190025A0B23146102201F0D5
:1028B00085FF0135834628B2103410364845A7F10C
:1028C0001007F1DB17F00F0204D0A0B2314601F07F
:1028D00075FF834640461021012201F07DFA4FFA30
:1028E0008BF001B0BDE8F08F2DE9F04385B040F2E8
:1028F00000444FF40070C4F202046D464FF011081A
:1029000000260227009020462946CDF80480029632
:10291000039701F087F920464FF4007101224FF030
:10292000010901F059FA4FF48070CDE90186009059
:1029300020462946039701F075F920464FF480712F
:10294000012201F049FA1020CDE9018900902046CA
:102950002946039701F066F920461021012201F073
:102960003BFA05B0BDE8F08310B5044671B160884C
:10297000A08000F0B7FC40F6DC41C2F200010A681A
:102980006080012A06D10020086008E000F0AAFC5F
:10299000608010BDA188A268401A02FA80F040F25F
:1029A0009801A060C2F20001098C4843C11700EBF6
:1029B000114040F62C410014C2F20001E060C861F1
:1029C00010BD00002DE9F04140F6BC48044643F636
:1029D0000C46C2F200080020C4F20206C8F81C002F
:1029E00001F008FA3168C90345D43068C0071CBF3C
:1029F00001203060306810F0F20F43D03068C0061C
:102A000007D5D8F81C0040F01000C8F81C001020B2
:102A100030603068800607D5D8F81C0040F0080008
:102A2000C8F81C00202030603068400607D5D8F870
:102A30001C0040F00400C8F81C00402030603068E2
:102A4000000607D5D8F81C0040F00200C8F81C00AA
:102A500080203060306880075CBF0120BDE8F081D5
:102A6000D8F81C0040F02000C8F81C00022030609C
:102A70000120BDE8F0810546671C07D0BCB90320E2
:102A8000BDE8F0810020BDE8F08100BF3068C003E0
:102A9000ABD567B93068C003A7D547B93068C00364
:102AA000A3D527B93068C0039FD5002FEED001F021
:102AB000A1F9401BA042E9D90320BDE8F081000044
:102AC0002DE9F04F81B08A46897840F2BC2804464F
:102AD0000129C2F2000840F0BE80A08F002800F05B
:102AE000BA80032004F03CF820684FF400414042D3
:102AF00004F0BEFE40F2B436C2F20006316807466A
:102B000008464FF4004104F0B3FE61683844306079
:102B100048424FF4004104F0ABFE71680746084696
:102B20004FF4004104F0A4FE316838447060F16055
:102B300001EB400049F2CD3104F09AFE40F29809D1
:102B4000C2F200093061A069B9F82810B9F82A204A
:102B5000401A110404F08CFE40F2C04BC2F2000B8C
:102B60005F4647F8080F3846FEF798FED6E903019E
:102B7000CBF800003868CBF8041004F07FFE396809
:102B8000CBF81400084604F0E3FD0146DBF8000032
:102B9000CBF8181004F06CFEDBF80420DBF81410FE
:102BA0000746104604F064FEC219DBF80400DBF8A7
:102BB0001810CBF80C2004F05BFEDBF80020DBF8EB
:102BC00014100746104604F053FE391A40F27040C4
:102BD000C2F200000288CBF81010511C8AB20A2AF7
:102BE0000180C0F0AF8000219AF80120018040F6FA
:102BF000DC40002AC2F2000059D04168012A5CD1B1
:102C000000295AD08068012800F08180002840F017
:102C10008D8040F27020C2F200008069E169B9F84D
:102C2000622040109142C8F800007DDD40F62C4043
:102C3000C2F20000C068B0F5403F40F3698140F245
:102C40007C30C2F2000001888A087C2A00F274817C
:102C50000131018070E040F27020C2F200000021DA
:102C600001628162816040F68440C2F20000007817
:102C700040F2D81240F22423C2F20002C2F2000352
:102C80004006C8F82010C8F8281011629162196235
:102C900099629160C8E90011C8F8081059609960FC
:102CA000E16054BF0120002003F05AFF94E0416826
:102CB00081B10020C8F800003CE0062A05D10029B7
:102CC00000F0D580DAF80820D9E00020C8F800002C
:102CD0000C202FE040F2702140F62C42C2F200019D
:102CE000C2F200028969D2688910B2F5403FC8F883
:102CF000001040F30D8140F27C31C2F200010A88DD
:102D000093087C2B00F2F580501C088014E040F200
:102D10007020C2F200004069E169B9F860204010FB
:102D20009142C8F8000007DB002003E00020C8F84B
:102D3000000004208AF802002069C8F80400404618
:102D400003F06EFB40F2D816DBF80C10C2F200065E
:102D50000020C6E90001B9F82A10D8F808000904D3
:102D600004F086FD40F22427DBF81010C2F20007C1
:102D7000C7E900013046FFF7B5FA3846FFF7B2FA67
:102D800040F28045B068C2F20005DBE9053105F18B
:102D90000C0CBA688CE80D00A96104F069FDD5E956
:102DA00004210646104604F063FD321AE86869699A
:102DB0002A6004F05DFD2A69A9690646104604F000
:102DC00057FD296840F278523044C2F20002686030
:102DD000C2E9011003F03AF9D4E90012A068002911
:102DE00048BF4942002A48BF52420028114448BF08
:102DF000404208444BF66431C0F2010104F0E8FCA3
:102E000040F27841C2F200010A684CF6CD43CCF69C
:102E1000CC4353434CF6CC474FEAB303C0F6CC4700
:102E2000BB42E06002F10100086084BF01B0BDE870
:102E3000F08FD8E9001240F2B8500B0BC2F200003C
:102E400009094170110B81701109C170216AA269D1
:102E500003700B0B09094171110B12090371817188
:102E60000821C27101B0BDE8F04F04F0EBB940F2A7
:102E70007022C2F2000292699210CAF8082040F251
:102E80007023C2F20003D3E90537BA42A8BF174640
:102E90009A42C8BF1F4640F62C43C2F20003DB68CB
:102EA000B2F1FF3FC8F800700CDD40F27C30B3F5A2
:102EB000403FC2F2000013DD01888A087C2A20D836
:102EC00001310EE001B3B3F5403F28DD40F27C3024
:102ED000C2F2000001888A087C2A12D8481C1FE030
:102EE0000021E269B9F8603001809A42BFF6E1AE94
:102EF00022E700220A800121C0E900118AF802209D
:102F00001AE700210180D4E6B3F5403F3FF7F3AE66
:102F100040F27C30C2F20000002101800CE700206A
:102F2000E169B9F8622040F27C33C2F200039142B9
:102F300018807FF7BEAEFFE6002101800820F9E689
:102F40002DE9F04140F29804C2F2000404F1380384
:102F500040F270250FCBC2F20005C5E90301B4F8B9
:102F6000480040F2D818B4F84A10C2F2000840F203
:102F7000BC26C8E90301B4F84C0040F22427C2F291
:102F80000006C2F20007C6E90323B4F84E20F86039
:102F9000B4F85200A18C3A6104F01AFC4142C5E930
:102FA00005014FF41670642104F012FC4142706177
:102FB000B4F8560040F28F22B161A0F28F21101AAE
:102FC000C7E90510C8E90510BDE8F08140F2F841F5
:102FD00040F27242C2F20001C2F200024888138835
:102FE000984208BF70470988108061B340F684405A
:102FF000C2F200000021016040F69440C2F20000DD
:10300000016040F20E30C2F200006421018040F203
:103010000830C2F200004FF4FA61018040F20A3039
:10302000C2F20000018040F67A40C2F2000001883E
:1030300040F20C32C2F2000201294FF4FA71118001
:1030400004BF022101807047E8B140F2744CC2F223
:10305000000C9CF800101F2918D820FA01F3DA0799
:1030600040F08B801F2913D09A0700F181801E2920
:103070000ED05A077ED41D290AD01A077CD40431F9
:103080002029EAD104E000210846704720296CD1AC
:103090000F23A3F10F0120FA01F2D20701BFA3F120
:1030A0000E0120FA01F25FEAC272A3F10D0104BF22
:1030B00020FA01F25FEAC27250D1A3F10C0120FAAA
:1030C00001F2D20702BFA3F10B0120FA01F25FEA7D
:1030D000C27243D1A3F10A0120FA01F2D20702BF62
:1030E000A3F1090120FA01F25FEAC27236D1A3F11D
:1030F000080120FA01F2D20702BFD91F20FA01F21B
:103100005FEAC2722AD1991F20FA01F2D20702BFE8
:10311000591F20FA01F25FEAC2721FD1191F20FA6B
:1031200001F2D20702BFD91E20FA01F25FEAC27291
:1031300014D1991E20FA01F2D20702BF591E20FABB
:1031400001F25FEAC27209D120FA03F1C90706D180
:1031500010332F2B4FF000019BD107E00B46581C7A
:10316000C1B28CF80000084670470021084670473D
:10317000013102E0023100E00331012050FA81F117
:1031800008468CF80010704770B50546B0F1006F26
:103190004FF0010038BF70BD0C4615F001011AD187
:1031A00005EB4206B6F1016F84BF012070BD00F04F
:1031B00021FDAE420CD900BF228801202946002300
:1031C00000F094FC40B90235B54204F10204F3D397
:1031D00000F082FC002070BD032070BD70B5054674
:1031E000B0F1006F4FF0010038BF70BD0C4615F014
:1031F00003011AD105EB8206B6F1016F84BF0120ED
:1032000070BD00F0F7FCAE420CD900BF226802206E
:103210002946002300F06AFC40B90435B54204F1A8
:103220000404F3D300F058FC002070BD032070BDEF
:103230002DE9F0410C46804600200021002203F0D9
:10324000A9FB322000F034FC40F62C454FF48036C8
:10325000C2F200054120314604F00AFB414603F06A
:1032600041F8052000F024FC2868002848BF4042AF
:10327000A04213DC6868002848BF4042A0420DDC31
:10328000A868002848BF4042A04207DC06F5803607
:10329000B6F1167FDED13846BDE8F081AF694FF454
:1032A000FA7000F005FC012604E000BF632E06F171
:1032B0000106F0D2012000F0FBFBA869C01B48BF4B
:1032C0004042B0F5004FF1DA38464FF2333104F0A6
:1032D000CFFAA9690446084640F6CC4104F0C8FA82
:1032E0000719E3E740F2DC40C2F20000006840103A
:1032F0007047000090F82020013A012A18D8CA0728
:1033000004D00268936843F0800393608A0704D571
:103310000268936843F40043936049075CBF002050
:10332000704700684FF4000200F10801002004E03B
:1033300000F1240101204FF480220B681A430A6037
:103340007047000090F82020013A012A04D8006854
:1033500000F11402002004E000F1240201204FF4E7
:1033600080211368194311607047000010B590F870
:1033700020E0D0F800C0AEF1010EBEF1010FDCF884
:1033800008E00DD81EF0E05F10D0CEF3016EBEF164
:10339000030F11D100F1240101204FF4000233E0AA
:1033A00000F1240101204FF480222DE000F12401DE
:1033B00001204FF4001227E0012000FA0EF01860FF
:1033C000886818B14B6840EAC30001E0086840050E
:1033D000D1E9033403430CEB0E10C0F88031C0F880
:1033E0008441097D012905D100F5C2710B6843F4C0
:1033F00080730B605168C0F88C11126800F5C071C1
:10340000C0F88821002001220B681A430A6010BD11
:10341000B0B590F82020013A012A2FD846F200607A
:10342000C4F20000026842F001020260026822F465
:103430007C520260D1F814E0CC694A6A0368012C1E
:1034400043EA022202600EF01F024FF0010303FA6A
:1034500002F2C3696FEA020C23EA0203C36113D0CC
:103460002CBBC36803EA0C03C360CB688C8844EAB6
:10347000034300EBCE0423640B4611E0416A41F4A0
:10348000802141620120B0BDC3681343C3600B6853
:103490008C8844EA034300EBCE04236401F10C035F
:1034A0008C681B8843EA044300EBCE0463644368E2
:1034B0008D6943EA0204D1F810E0096A002D08BFC3
:1034C00003EA0C0444604369BEF1000F43EA0204BE
:1034D00008BF03EA0C040129446102D1C169114308
:1034E000C161016821F0010101600020B0BD000050
:1034F0007047000090F82020013A012A84BF002084
:10350000704700681022002908BF0C22805800F084
:103510000300704710B590F82040013C012C0CD8F6
:10352000D0F800C079B1DCF81040A4070FD100F149
:10353000240101204FF400126FE000F1240101206A
:103540004FF4802269E0DCF80C40A40769D00CEB52
:10355000011CDCF8B0410CF5D87E14F00404946032
:10356000DCF8B04119BFE4085460640D1460DEF863
:1035700000400029C4F34004D460DCF8B44104F0F6
:103580000F041461DCF8B441C4F307249461DCF83F
:10359000B4414FEA14445461DCF8B8211A7002684F
:1035A00002EB0112D2F8B8214FEA12225A700268D7
:1035B00002EB0112D2F8B8214FEA12429A70026867
:1035C00002EB0112D2F8B8214FEA1262DA700268F7
:1035D00002EB0112D2F8BC211A71026802EB01124F
:1035E000D2F8BC214FEA12225A71026802EB011292
:1035F000D2F8BC214FEA12429A71026802EB011222
:10360000D2F8BC214FEA1262DA71006814BF00F1EF
:10361000100100F10C01002020220B681A430A60FF
:1036200010BD00F1240101204FF40012F5E7000065
:1036300090F820100139012984BF002070470068EC
:10364000816882688068C1F38061C2F3C0621144FE
:10365000C0F30070084470472DE9F04F81B0044674
:1036600000684669D0F804908768D0F80CB0D0F8AC
:1036700010A0D0F81880F10703D1002530071CD422
:1036800023E0F90710D00121BA07816009D4780737
:1036900000F1AA80380700F1B080204600F0FAF966
:1036A00002E0204600F0F8F90025F80500F18480DA
:1036B000F80300F1AA80300707D51BF0100004D0F2
:1036C000206845F400751021C160700708D51BF013
:1036D000080005D020680821C160204600F0A2F94A
:1036E000B00706D52068C068800702D0204600F0E9
:1036F0009BF9700607D51AF0100004D0206845F435
:10370000806510210161B00608D51AF0080005D0C7
:10371000206808210161204600F088F9F00606D5EE
:1037200020680069800702D0204600F081F9B003CC
:1037300008D519F0100005D02068102141602046FE
:1037400000F078F9F00308D519F0080005D02068DA
:1037500008214160204600F0A9F9300440F18F8033
:103760005FEA497040F1888006F4807008EA102012
:1037700028435FEA8871014648BF41F00201B20563
:1037800058BF01465FEA48700D4648BF45F0040542
:10379000700558BF0D4630056ED518F070006BD01F
:1037A00010380009052862D8DFE800F003535659A5
:1037B0005C5F45F008055AE020684FF48071BA0557
:1037C00081600AD4780512D4380519D4204600F057
:1037D00065F9F8037FF56FAF17E0204600F060F958
:1037E000F8037FF568AF10E04FF400655DE705F57D
:1037F0000055F8037FF55FAF07E04FF4805554E7BD
:1038000005F58045F8037FF556AF20684FF4803109
:10381000BA0381600AD478030FD4380313D4204646
:1038200000F040F930073FF548AF4EE7204600F082
:103830003BF930073FF541AF47E705F50045300755
:103840003FF53BAF41E705F5803530073FF535AF34
:103850003BE745F010050AE045F0200507E045F09C
:10386000400504E045F0800501E045F480752068DE
:10387000816921F0700181612068042141604DB1AE
:10388000606A40EA05012046616201B0BDE8F04F80
:10389000FFF72EBE01B0BDE8F08F0000B0B5C8B193
:1038A000044690F8200010B9204600F071F8206816
:1038B000016821F00201016000F09CFA054600BF9A
:1038C00020684168890707D500F094FA401B0B284F
:1038D000F6D312E00120B0BD016841F001010160A2
:1038E00000F088FA054600BF20684168C9070DD17D
:1038F00000F080FA401B0B28F6D3606A052140F4E3
:1039000000306062012084F82010B0BD217E026882
:10391000012922F0800208BF80320260617E0268C5
:10392000012922F0400208BF40320260A17E0268F5
:10393000012922F0200208BF20320260E17E0268E5
:10394000012922F0100218BF10320260217F0268A4
:10395000012922F0080208BF08320260617F026874
:10396000012922F0040208BF04320260D4E901C236
:10397000D4E9033561691A432A431143ACF10102CA
:103980001143C16100200121606284F82010B0BDA4
:103990002DE9F04385B0002043F630010090C4F2D9
:1039A00002010A69002442F000720A610A69C4F245
:1039B000020402F000720092009A009008686D46BE
:1039C00040F00100086008684FF0020800F00100B4
:1039D000009000984FF4805000904FF003090126AA
:1039E000092720462946CDF80480CDF80C90029690
:1039F000049700F017F94FF40060CDE90008204665
:103A00002946CDE90269049700F00CF91420012140
:103A1000002200F05BFA142000F048FA05B0BDE87F
:103A2000F0830000704700007047000070470000FE
:103A30007047000070470000B0B5044690F82000C1
:103A400001281DD1022084F820002068016821F09F
:103A50000101016000F0CEF9054600BF2068406812
:103A6000C00713D000F0C6F9401B0B28F6D3606ADC
:103A700040F400306062052084F820000120B0BDD1
:103A8000606A40F4002060620120B0BD00206062E6
:103A9000B0BD000070470000704700007047000094
:103AA000704700007047000070470000704700003A
:103AB000B0B5044600F09EF9054640F21030C2F25F
:103AC00000000078611C18BF044400BF00F092F9A8
:103AD000401BA042FAD3B0BD43F61041C4F202012C
:103AE000086840F0004200200A6070472DE9F0436A
:103AF00081B040F6BC44C2F200049046227E012A06
:103B000003D1022001B0BDE8F083074601202076F2
:103B10004CF250301E460D46FEF754FF002864D18B
:103B200043F61049022FC4F2020915D0012F28D004
:103B3000E7BBD9F8000020F44070C9F80000D9F8BC
:103B40000000C9F80000D9F8000040F00100C9F8F1
:103B5000000085F800803EE0D9F8000020F44070B5
:103B6000C9F80000D9F8000040F40070C9F800005E
:103B7000D9F8000040F00100C9F80000C5F8008045
:103B800029E0D9F8000020F44070C9F80000D9F805
:103B9000000040F48070C9F80000D9F8000040F03F
:103BA0000100C9F80000A5F8008014E0D9F8000071
:103BB00020F44070C9F80000D9F8000040F44070CB
:103BC000C9F80000D9F8000040F00100C9F8000071
:103BD000C5F800806E604CF25030FEF7F3FED9F865
:103BE000001021F00101C9F800100021217601B078
:103BF000BDE8F08343F60440C4F20200C168B1F1AD
:103C0000FF3FC4BF0020704740F22311C4F2675148
:103C1000016048F6AB11CCF6EF510160C068C00FEF
:103C2000704700002DE9F04F82B000F13E4241F6AE
:103C3000004502F1FF77C4F2020543F6004B4FEA5C
:103C4000B7260822A842C4F2010B08BF0722072E9C
:103C50004FF0010E4FF000064FF000044FF0000847
:103C600038BF4FEAB722009209E000BF08F101080F
:103C70000434B8F1100F06F1020600F09C800F68C2
:103C80000EFA08F917EA090FF0D0D1F804C04CF089
:103C90001007122F13D16FF0030202EA58070744EE
:103CA00004F01C050F22D7F820C002FA05F30A69B8
:103CB0002CEA0303AA401A433A62D1F804C002680E
:103CC0000323B3406FEA030A9A430CF00303B340A3
:103CD0001A43BCF1120F026014D80EFA0CF212F063
:103CE000061F0FD08268CB6802EA0A02B3401A436B
:103CF000826042684FEA1C1322EA090203FA08F3C1
:103D00001A434260C2688B6802EA0A02B3401A434F
:103D10005FEACC03C260A9D5002243F644030192B6
:103D2000C4F202031A684FF6084C42F480421A604B
:103D30001A68CFF6FF7C02F480420192019A28F0C3
:103D400003025A4452F80C3004F00C070F25BD4012
:103D5000AB43009D05FA07F73B4342F80C30DBF814
:103D600000204B6842EA0907DD0358BF22EA090731
:103D7000CBF80070DBF804209D0342EA090758BF26
:103D800022EA0907CBF80470DBF80820DD0242EADA
:103D9000090743F60C4558BF22EA0907CBF808701B
:103DA000C4F201052A689B0242EA090758BF22EAC9
:103DB00009072F605AE702B0BDE8F08F006908409C
:103DC00018BF01207047000042690A408A4208BFBC
:103DD0000904816170470000002A08BF090481615D
:103DE0007047000042F20000CEF204000068000CB0
:103DF0007047000040F60C50C2F2000000687047A7
:103E000047F61020C1F6FF700068704740F210308E
:103E100040F60C51C2F20000C2F2000100780A68BC
:103E2000104408607047000080B543F60040C4F2BB
:103E30000200016841F400710160016841F4806191
:103E40000160032000F06EF80F2000F005F800F08C
:103E50002BF8002080BD0000B0B540F21032C2F255
:103E6000000240F2A8111278C2F200014FF47A73F6
:103E70000968B3FBF2F20446B1FBF2F1084600F028
:103E8000C7FA0F2C4FF001050CD858B94FF0FF308E
:103E900021460022002500F019F840F21430C2F249
:103EA000000004602846B0BD70470000002848BFED
:103EB000704700F01F01012202FA01F14EF20012D8
:103EC0004009CEF2000242F82010704710B54EF6BD
:103ED0000C5CCEF2000CDCF80030C3F3022E8EF046
:103EE0000704042C28BF0424BEF103034FF0FF3E57
:103EF0000EFA04F438BF0023A14399400EFA03F3ED
:103F00009A4300F00F03043B1143634409010C334F
:103F100000F16042B0F1FF3FC8BF02F56443197081
:103F200010BD00004EF60C51CEF200010A684FF6AB
:103F3000FF031A4060F30A2242F0806040F0FD70F7
:103F4000086070472DE9F041002800F0868043F6B4
:103F50000808C4F202080446D8F8F8030D4600F039
:103F60000F00884207D288F8F853D8F8F80300F019
:103F70000F00A84271D12068810717D5410705D5E8
:103F8000D8F8001041F4E051C8F80010010705D539
:103F9000D8F8001041F46041C8F80010D8F80010BB
:103FA000A26821F0F0011143C8F80010C0073AD10F
:103FB000D8F8F80300F00F00A84207D988F8F853A2
:103FC000D8F8F80300F00F00A84246D12068410756
:103FD00007D5D8F80010E26821F4E0511143C8F881
:103FE0000010000708D5D8F80000216920F46040CF
:103FF00040EAC100C8F8000000F04EF8D8F8001000
:1040000049F29672C1F30311C0F60A02515CC8402E
:1040100040F2A811C2F2000108600F20FFF71CFF58
:104020000020BDE8F0816068811E022907D258F89F
:10403000081C89015CBF0120BDE8F08110E0012867
:1040400007D158F8081C89035CBF0120BDE8F08146
:1040500006E058F8081C890702D40120BDE8F08169
:10406000D8F8001021F003010843C8F80000FFF75A
:10407000C1FE064641F28837D8F80000616800F0BA
:104080000C00B0EB810F93D0FFF7B4FE801BB84259
:10409000F2D90320BDE8F08110B543F60404C4F260
:1040A0000204606800F00C0142F200400829C0F2EE
:1040B000F40007D0042918BF10BD41F20020C0F25F
:1040C0007A0010BD216801F03F022168236849028F
:1040D000C3F3881105D4A1FB00010023FDF7E4F828
:1040E00006E041F20020C0F27A004843B0FBF2F053
:1040F00021680222C1F3014102EB4101B0FBF1F062
:1041000010BD00002DE9F04182B0E8B3044600780C
:1041100043F60006C007C4F2020609D0B06800F0FA
:104120000C00042871D13068800301D5606858B351
:104130002078800718D5B06810F00C0F07D0B06851
:1041400000F00C0008287AD17068400277D43068FB
:10415000800702D5E068012816D13068216920F077
:10416000F80040EAC10030602078000710D42078C1
:10417000400724D4A569002D00F01B81B06800F031
:104180000C00082840F09080012002B0BDE8F081CA
:104190006069002840F20000C4F2472074D0012179
:1041A000C0F8801EFFF726FE054600BF706F80072F
:1041B000DDD4FFF71FFE401B0228F7D9D5E0306C95
:1041C00010F080580AD100200190306C40F08050EF
:1041D0003064306C00F080500190019847F2000785
:1041E000C4F200073868C00540D4386840F48070D5
:1041F0003860FFF7FFFD05463868C00536D4FFF785
:10420000F9FD401B0228F7D9AFE0B06800F00C00C0
:10421000082803D1706840023FF585AF6068B0F5AB
:10422000803F07D0B0F5A02F40F08980306840F47F
:1042300080203060306840F48030306089E0E06891
:10424000002840F20000C4F247204ED00121016056
:10425000FFF7D0FD054600BF306880073FF57DAF12
:10426000FFF7C8FD401B0228F6D97EE0A0680128B0
:1042700005D005284AD1306F40F004003067306F18
:1042800040F0010030674BE00021C0F8801EFFF7CE
:10429000B1FD0546706F80077FF569AFFFF7AAFD96
:1042A000401B0228F6D960E00027C4F2472700200F
:1042B0003866FFF79FFD022D05460BD1306880015F
:1042C00057D5FFF797FD401B02284FF00300F5D9A3
:1042D0009BE000BF306880016BD5FFF78BFD401B72
:1042E00003284FF00300F5D38FE000210160FFF7B2
:1042F00081FD0546306880077FF536AFFFF77AFD10
:10430000401B02284FF00300F4D97EE0316F0028F3
:1043100021F001013167316F21F0040131674CD088
:10432000FFF768FD054641F2883700BF306F800710
:1043300053D4FFF75FFD401BB842F7D915E0316851
:10434000002821F480313160316821F4802131600E
:104350004CD0FFF74FFD0546306880033FF5E8AECF
:10436000FFF748FD401B6428F6D9032002B0BDE8E2
:10437000F08104F11C052FCD084340EA8210D903D7
:104380004FF6FF729143A1F5803140EA0560084382
:10439000706001203866FFF72DFD0446306880010B
:1043A00007D4FFF727FD001B02284FF00300F5D9C3
:1043B0002BE0002002B0BDE8F081FFF71BFD0546B1
:1043C00041F28837306F800707D5FFF713FD401B98
:1043D000B8424FF00300F5D917E0B8F1000F7FF4B1
:1043E000C9AE306C20F080503064C3E6FFF702FDA8
:1043F000054600BF306880037FF59AAEFFF7FAFCF0
:10440000401B64284FF00300F4D902B0BDE8F081EE
:10441000411E0020B0EB116F1CBF012070474EF20F
:104420001002CEF2000251604EF62351CEF200018E
:10443000F0230B700721906011607047FEE70000C9
:1044400080B5042816D8DFE800F007161E03030025
:10445000BDE8804001F010BF40F60950C2F20000F4
:104460000078012818BF80BD40F6B440C2F20000B9
:104470000121017080BDFDF7C5FAFDF7FBFABDE82B
:104480008040FDF771BABDE88040FDF757BA0000E3
:104490002DE9F04381B0884640F218490E21C4F25C
:1044A000020901EAD0114FF4807761F05F03C9F887
:1044B00000709027013F00BFFCD14FF0007761F002
:1044C0005E01C9F800709027013F00BFFCD14FF09A
:1044D0008077C9F800709027013F00BFFCD100240D
:1044E0004FF480764FF080775DB2B5F1FF3F4FF427
:1044F0000075C8BF4FF00075C9F80050902500BF87
:10450000013D00BFFCD19025C9F80060013D00BF0E
:10451000FCD19025C9F80070013D00BFFCD15B00C3
:10452000072C04F10104DFD34FF40073C9F8003005
:10453000902300BF013B00BFFCD14FF48073C9F84A
:1045400000309023013B00BFFCD159F8083C4FF0EC
:1045500080779B05C9F8007000F10F81902300BFA0
:10456000013B00BFFCD100234FF480764FF08077F1
:1045700045B2B5F1FF3F4FF40075C8BF4FF000756D
:10458000C9F80050902500BF013D00BFFCD1902527
:10459000C9F80060013D00BFFCD19025C9F800704A
:1045A000013D00BFFCD14000072B03F10103DFD325
:1045B0004FF40070C9F80000902000BF013800BF20
:1045C000FCD14FF48070C9F800009020013800BF82
:1045D000FCD159F8080C4FF0807380054FF0900023
:1045E000C9F8003000F18E80013800BFFCD14FF4D3
:1045F0008070C9F800009020013800BFFCD14FF056
:104600000070C9F800009020013800BFFCD14FF0C5
:104610008070C9F800009020013800BFFCD1002054
:104620004FF480734FF080774EB2B6F1FF3F4FF4F6
:104630000076C8BF4FF00076C9F80060902600BF32
:10464000013E00BFFCD19026C9F80030013E00BFFA
:10465000FCD19026C9F80070013E00BFFCD1490092
:10466000072800F10100DFD34FF40070C9F8000003
:10467000902000BF013800BFFCD14FF48070C9F812
:1046800000009020013800BFFCD159F8080C4FF011
:10469000807180054FF09000C9F8001050D400BF21
:1046A000013800BFFCD1022AA2F101040AD3002084
:1046B000002600BF4044012101F02AFB0136B0B2C0
:1046C0008442F7DC08EB0400002101F021FB4FF0ED
:1046D0000070C9F800009020013800BFFCD14FF4F1
:1046E0008070C9F800009020013800BFFCD14FF461
:1046F0000070C9F800009020013800BFFCD10020F4
:1047000058E000BF013800BFFCD14FF00070C9F87D
:1047100000009020013800BFFCD14FF48070C9F830
:1047200000009020013800BFFCD14FF40070C9F8A0
:1047300000009020013800BFFCD1FB203AE000BF10
:10474000013800BFFCD14FF00070C9F80000902084
:10475000013800BFFCD14FF48070C9F800009020F0
:10476000013800BFFCD14FF40070C9F80000902060
:10477000013800BFFCD1FB201CE09020013800BFB5
:10478000FCD14FF00070C9F800009020013800BF44
:10479000FCD14FF48070C9F800009020013800BFB0
:1047A000FCD14FF40070C9F800009020013800BF20
:1047B000FCD1FB2040B201B0BDE8F083F0B540F27F
:1047C00018450E23C4F2020503EAD0134FF4807794
:1047D00090262F60013E00BFFCD163F05F044FF0D4
:1047E00000732B60902300BF013B00BFFCD14FF052
:1047F00080732B60902300BF013B00BFFCD10023DE
:104800004FF4807C4FF0807E66B2B6F1FF3F4FF4EC
:104810000076C8BF4FF000762E609026013E00BFA4
:10482000FCD19026C5F800C0013E00BFFCD1902607
:10483000C5F800E0013E00BFFCD16400072B03F186
:104840000103E1D34FF400732B609023013B00BFC1
:10485000FCD14FF480732B60902300BF013B00BF5D
:10486000FCD155F8083C4FF080779B052F6000F194
:10487000EB809023013B00BFFCD100244FF4807CEF
:104880004FF0807643B2B3F1FF3F4FF40073C8BFDF
:104890004FF000732B609023013B00BFFCD19023AD
:1048A000C5F800C0013B00BFFCD190232E6000BFC3
:1048B000013B00BFFCD14000072C04F10104E1D30F
:1048C0004FF4007028609020013800BFFCD14FF4F5
:1048D00080702860902000BF013800BFFCD155F8DF
:1048E000080C4FF0807380054FF090002B6000F1B2
:1048F0008F8000BF013800BFFCD1002A45D04FF0A7
:10490000000E4FF4007C4FF480704FF0807400BFB5
:1049100011F80E30002600BF5FB2B7F1FF3F4FF431
:104920000077C8BF4FF000772F609027013F00BF8E
:10493000FCD19027286000BF013F00BFFCD1902729
:104940002C6000BF013F00BFFCD15B00072E06F1C9
:104950000106E1D39023C5F800C000BF013B00BFB2
:10496000FCD19023286000BF013B00BFFCD155F86B
:10497000083C2C609B0500F187809023013B00BF21
:10498000FCD10EF1010E9645C2D14FF000702860A7
:10499000902000BF013800BFFCD14FF48070286028
:1049A000902000BF013800BFFCD14FF40070286098
:1049B000902000BF013800BFFCD1002043F6FF71FA
:1049C000884200F1010000BFFAD3002043F6FF71D6
:1049D000884200F1010000BFFAD3002043F6FF71C6
:1049E000884200F1010000BFFAD3002043F6FF71B6
:1049F000884200F1010000BFFAD3002043F6FF71A6
:104A0000884200F1010000BFFAD3002040B2F0BD9F
:104A1000013800BFFCD14FF000702860902000BF2B
:104A2000013800BFFCD14FF480702860902000BF97
:104A3000013800BFFCD14FF400702860902000BF07
:104A4000013800BFFCD11CE0902000BF013800BF3E
:104A5000FCD14FF000702860902000BF013800BFEB
:104A6000FCD14FF480702860902000BF013800BF57
:104A7000FCD14FF400702860902000BF013800BFC7
:104A8000FCD1FB2040B2F0BD902000BF013800BF38
:104A9000FCD14FF000702860902000BF013800BFAB
:104AA000FCD14FF480702860902000BF013800BF17
:104AB000FCD14FF400702860902000BF013800BF87
:104AC000FCD1DEE7FEE7000089B170B54A1E92B264
:104AD00049F6260349F6261E01F0030C032AC0F608
:104AE0000A03C0F60A0E06D2FF21FF2228E0FF21AA
:104AF0004FF47F4048E021F00304FF21FF2200BF74
:104B000010F8045B043C69405D5C10F8036C6A407B
:104B100072401EF801109D5C10F8026C69407140F3
:104B20001EF802205D5C10F8016C6A4072401EF8AD
:104B300001109D5C1EF80220260481EA0501DFD1E8
:104B4000BCF1000F1CD00478BCF1010F84EA010411
:104B5000195D81EA02011EF8042011D04478BCF1ED
:104B6000020F81EA04015C5C84EA02041EF8012061
:104B7000E1B205D080784840195C51401EF8002011
:104B8000D0B20002BDE87040084380B27047000018
:104B90002DE9F04FCBB040F28401C2F2000141F6A2
:104BA000CF70086040F2AC1140F29806C2F20001EA
:104BB000FF20C2F200060860708C4FF200084CF231
:104BC000000B6421C0F6FF78C0F25D0B02F000FE1E
:104BD00004460620FCF700FD41F2ED27784300EA89
:104BE0000800002558454FF0010088BF0125FEF759
:104BF0005FFF0620FCF7F0FC784300EA0800584508
:104C00004FF0010088BF0135FEF752FF0620FCF788
:104C1000E3FC784300EA080058454FF0010088BFE4
:104C20000135FEF745FF0620FCF7D6FC784300EA85
:104C3000080058454FF0010088BF0135FEF738FFE6
:104C40000620FCF7C9FC784300EA080058454FF0FD
:104C5000010088BF0135FEF72BFF0620FCF7BCFCE6
:104C6000784300EA080058454FF0010088BF01353D
:104C7000FEF71EFF0620FCF7AFFC784300EA0800B1
:104C800058454FF0010088BF0135FEF711FF06209F
:104C9000FCF7A2FC784300EA080058454FF00100F9
:104CA00088BF0135FEF704FF0620FCF795FC78432A
:104CB00000EA080058454FF0010088BF0135FEF7B3
:104CC000F7FE0620FCF788FC784300EA0800584508
:104CD00088BF01350120EDB2FEF7EAFE0A2D40F053
:104CE000A9800020A71001F03BFF00200021002236
:104CF00001F050FE032001F033FF40F62C4901265D
:104D00004FF4803441F69915C2F2000940F28F2029
:104D1000214602F0ADFD28440021002201F03AFEB8
:104D20000520FEF7C5FED9F80000002848BF404224
:104D3000B84206DC01361E2E04F58034E6D11E2072
:104D400000E0B0B2409000200021002201F022FEDD
:104D50006420FEF7ADFE01264FF4803441F699152C
:104D600040F28F20214602F083FD411900200022ED
:104D700001F010FE0520FEF79BFED9F80400002884
:104D800048BF4042B84207DC01361E2E04F580348D
:104D9000E6D14FF01E0A01E01FFA86FA002000213A
:104DA000002201F0F7FD6420FEF782FE01264FF499
:104DB000803441F6991500BF40F28F20214602F061
:104DC00057FD42190020002101F0E4FD0520FEF707
:104DD0006FFED9F80800002848BF4042B84206DC00
:104DE00001361E2E04F58034E6D1012406E06FF072
:104DF0001D0010FA86F0B0FA80F04409002001F09E
:104E0000AFFE00200021002201F0C4FD409840F2D6
:104E100098061E28C2F2000618BFBAF11E0F07D16D
:104E200040F68440C2F20000017841F0040115E030
:104E3000002CF5D140F68442C2F200021178B6F996
:104E40002A0001F0FB010028117048BF40420128F0
:104E500008D140F27C40C2F20000012101704BB049
:104E6000BDE8F08F708C642102F0B2FC044606208D
:104E7000FCF7B2FB41F2ED26704300EA0800002582
:104E800058454FF0010088BF0125FEF711FE0620AE
:104E9000FCF7A2FB704300EA080058454FF0010000
:104EA00088BF0135FEF704FE0620FCF795FB704332
:104EB00000EA080058454FF0010088BF0135FEF7B1
:104EC000F7FD032D40F01781002001F049FE00207E
:104ED0000021002201F05EFD032001F041FE1E20B2
:104EE000FEF7E6FD4FF440402146FEF7A1F9002011
:104EF0002146FEF79DF906464A904FF48040214630
:104F0000FEF796F9054649904FF400402146FEF71A
:104F10008FF9824648904FF440402146FEF788F9C9
:104F20008146479000202146FEF782F946904FF4D3
:104F300040402146FEF77CF9804642904FF4004005
:104F40002146FEF775F9834643904FF48040214691
:104F5000FEF76EF90746449000202146FEF768F9F7
:104F6000459000200021002201F014FD002001F0F6
:104F7000F7FDA81B40F6CC41419048BF4042884213
:104F8000C0F2B98041A8FCF789FC44F200044198C2
:104F9000CFF6FF74012104F50046B0F5004FC8BFFD
:104FA0004FF0FF3101FB065040F29805C2F20005B8
:104FB000499049A86985FCF771FCB5F92A0004F508
:104FC000804400FB04A00DF5907A48905046FCF711
:104FD00065FCB5F92A00A0EB800009EB8030479012
:104FE00047A8FCF75BFCB5F92A000DF5887910FBA2
:104FF000067044904846FCF751FCB5F92A0043AFCF
:1050000000FB04B043903846FCF748FCB5F92A0091
:1050100042ACA0EB800008EB803042902046FCF7C9
:105020003DFC45AE304649463246FCF779FC3046F9
:10503000FCF734FC384621463A46FCF771FC38460A
:10504000FCF72CFC384631463246FCF769FC30460A
:10505000FCF724FC4AAF384649A93A46FCF760FC05
:105060003846FCF71BFC504647A95246FCF758FC53
:105070005046FCF713FC46A938463A46FCF750FC6C
:105080003846FCF70BFC384651463A46FCF748FCDC
:105090003846FCF703FC304639463A46FCF740FCFC
:1050A0003846FCF7FBFB4A9840F68444B0F5803F55
:1050B000A4BF00204A902885684605F1100140F2FF
:1050C0000012C2F2000451F8043B043A40F8043BD9
:1050D000F9D195E80F0000F0E3FC00283FF4B9AEE9
:1050E00040F28400C2F200000078C00703D02078AC
:1050F00040F00100207040F2AC10C2F200000078D5
:10510000400707D540F69440C2F20000017841F014
:10511000040101704BB0BDE8F08F000000000000FA
:105120002DE9F04381B040F28405C2F2000540F65B
:10513000095840F684442968C2F20008C2F200040B
:1051400098F8000022780B0715D5A0B1130715D4E5
:1051500040F20E37C2F20007B7F9003002F0F70252
:10516000012BA4BF013B3B809BB2B3FA83F35B09E5
:1051700042EAC30201E002F0F7022270CB0615D525
:10518000A0B1D30615D440F20837C2F20007B7F930
:10519000003002F0EF02012BA4BF013B3B809BB229
:1051A000B3FA83F35B0942EA031201E002F0EF0273
:1051B00022708B0615D5A0B1930615D440F20A379C
:1051C000C2F20007B7F9003002F0DF02012BA4BFE2
:1051D000013B3B809BB2B3FA83F35B0942EA431283
:1051E00001E002F0DF0222704B0600D510B902F098
:1051F000BF022270C9053FD540F27C41C2F20001D6
:105200000978C9B3B4F80110C90735D140F2980044
:10521000C2F20000408C04F0A0F99FEDA30B53EC08
:10522000102B04F0ADF904F069F9642102F0D0FA12
:1052300040F62C41C2F20001CB6840F2A441C2F218
:1052400000010A68834209DD013241F288330020FF
:105250009A4284BF012000220A6004E0002A1CBF99
:10526000501E08600020214631F8012F22F0010273
:10527000024498F800000A8040F2AC19C2F200091A
:1052800099F8001040F694468906C2F200060DD542
:1052900060B13178890609D401F032FA317801F031
:1052A000DF0160F3451198F800003170E1786A7809
:1052B000B4F80130920743EA014115D5A0B188073F
:1052C00018D43078800615D501F01AFA214631F845
:1052D000012F8B7842EA034222F0020260F341027E
:1052E000100C0A80887005E021F00200090CE170C2
:1052F000A4F801000620FCF76FF941F2ED214843C4
:10530000C0F30F3040F6B931884218D340F60B5243
:10531000C2F2000240F2E4501378C2F20000002111
:105320000170581CC1B26529107032D368784007EB
:1053300022D534F8010F40F0040020801CE040F238
:10534000DB5340F60B52984240F2E450C2F20002A6
:105350004FF00001C2F20000117013D80178013142
:10536000CAB2652A017014D399F80000800703D5EA
:10537000307840F00200307040F62C40C2F200005D
:10538000002105E0017040F62C40C2F2000001212E
:10539000818799F80000400763D540F2E850C2F2D7
:1053A0000000D0E9007540F69C44781BC2F200046E
:1053B00020602046FCF72CFA3078010746D440F2F2
:1053C000D011C2F20001002F48BF7F4209688F420E
:1053D00015DA40F6E842C2F2000200232168138089
:1053E00040F2D412C2F20002002948BF49421268BA
:1053F00091424BDD40F6EA41C2F2000119E0002D76
:1054000048BF6D428D4221DA40F6EA42C2F2000204
:1054100000232168138040F2D412C2F20002002956
:1054200048BF49421268914236DD40F6E841C2F277
:1054300000010A88531C652A0B8012D399F80010CA
:10544000090744BF40F0080030700AE040F6E84029
:10545000C2F200000021018040F6EA40C2F20000E2
:10546000018040F6DC40C2F20000406818B130789C
:1054700000F07F0006E099F80000000603D53078C0
:1054800060F07F00307001B0BDE8F08340F6EA4084
:10549000C2F200000021E3E740F6E840C2F200005B
:1054A0000021DDE700BF00BF333333333333F33F35
:1054B000F0B5EFF3108272B60368406840F29002D4
:1054C00040F68444C2F20002C2F20004C2E9003095
:1054D00062B6206840F2A847C2F2000730B105204A
:1054E0000B4603F8010F18E03A70F0BD4B78002B23
:1054F0004AD040F6F040C2F200000588002D4BD1A2
:105500009588002D48D05D1E052D88BFF0BD4B1C31
:10551000DFE805F00D0C0C4603880E20887020682B
:105520000522002804BF00201870DDE7DDE740F207
:10553000AC4CC2F2000CBCF80000B2F802E07045BE
:1055400003D13878012800F094801088022800F0F8
:105550008C80441E062C80F088800128187040F052
:105560008680D088B0F5AF7F486000F096800A282A
:1055700040F09D8040F6DC40C2F2000000228260D4
:10558000012088700A6172E040F6DC40C2F200003F
:10559000406840B3107842E004250B4603F8015FF1
:1055A000968800258D70AEB11488022C33D0661E0B
:1055B000062E30D2008858B9D088002818BF0120A4
:1055C000062C4FD3A11FB1FA81F14909084049D1F6
:1055D000042289E70620887040F2AC40C2F2000045
:1055E0000580042280E7387840F29803002840F2D2
:1055F000AA40C2F200001ABF002202800288C2F252
:105600000003B3F868309A4208D2013202800120C8
:105610008870002268E704228A7065E704204870D9
:10562000002261E7D0884FF6FF7290420BD001282C
:1056300014D140F29802C2F20002B2F86C200120AC
:1056400088708A600CE040F29802C2F20002B2F860
:105650006C20012088705042886001E0042018709E
:10566000062241E71C7004223EE704201870ACF8C3
:1056700000E0887801280AD140F29802C2F20002C4
:105680000869B2F86A20904203DA01300861012209
:105690002AE702208870012226E740F6DC40C2F2A9
:1056A00000000122826000208A700861DFE740F676
:1056B000DC40C2F200000222826004208870D6E73B
:1056C000B0B5044640F29800C2F20000008C4FF4DE
:1056D0008031B1FBF0F040F2B045C2F20005286025
:1056E000FDF700FE2062FDF7FDFD296890FBF1F259
:1056F00002FB110002F06CF8A061B0BDF0B581B002
:1057000004460720FBF768FF07460820FBF764FF05
:1057100006460920FBF760FF054640F6A840C2F2A6
:105720000000006839B2081A4FF4006102F050F826
:1057300040F29807C2F20007396B02F099F8206036
:1057400040F6AC40C2F20000006831B2081A4FF4D3
:10575000006102F03DF8396B02F08AF8606040F6B3
:10576000B040C2F20000006829B2081A4FF400618C
:1057700002F02EF8396B02F07BF8A0600020FBF7F6
:105780002BFF00B2206301B0F0BD00002DE9F04F07
:1057900083B040F62C4040F2C837C2F200004FF60A
:1057A000FF710024C2F20007C18700BF0120FEF78D
:1057B0007FF90720FBF710FF47F82400082007EBCC
:1057C0008405FBF709FFA8620920FBF705FF0134F8
:1057D0000A2C2865EAD140F24040C2F20000D0F81D
:1057E00000A040F24C40C2F20000D0F8008040F22D
:1057F0005040C2F20000D0F800E040F25440C2F243
:105800000000046840F2780140F244450026C2F2EC
:105810000001C2F2000508E008360C4440F27801AD
:10582000282EC2F2000100F09780BA59524505DDDA
:1058300040F24040C2F20000924602600868CDF893
:1058400004808242B8BF0A6007EB0609D9F82880B5
:1058500028687746804540F27C00C8BFC5F80080C4
:10586000C2F2000000688045BEBF40F27C00C2F278
:105870000000C0F8008040F24840C2F20000D9F8B1
:1058800050B000688345C2BF40F24840C2F20000F9
:10589000C0F800B040F28000C2F20000006802943C
:1058A0008345BEBF40F28000C2F20000C0F800B0E5
:1058B000D9F804E0D64506DD40F24040C2F20000CF
:1058C000F246C0F800E008688645BCBFC1F800E0B9
:1058D0007046D9F82C10D5F800C0009040F27C003A
:1058E0006145C4BF29608C46C2F200000068814255
:1058F00005DA40F27C00C2F200000160084640F286
:105900004843C2F20003D9F85440D3F80090019BF9
:105910004C451A4408EB070305DD40F24847C2F244
:105920000007A1463C600EEB020840F28002C2F282
:105930000002126801EB030E029940F2C83794424C
:105940005944C2F20007BFF667AF40F28002C2F2CC
:105950000002146022465FE740F24C41C2F20001AF
:10596000C1F8008040F25041C2F20001C1F800E0ED
:1059700040F25441C2F20001009B0C60A8EB0A0106
:10598000C91A40F6A843C910C2F200031960AEEB71
:105990000C01081A40F6AC41C010C2F200010860C8
:1059A000A4EB0900801A40F6B041C010C2F2000119
:1059B000086003B0BDE8F08F2DE9F0410D460446C4
:1059C000FDF790FC40F2B447C2F2000740F6A4484D
:1059D0003968C2F20008C8F80000401A10F5004FFC
:1059E000B8BF00F5803040F2BC41B0F5004FC8BFF1
:1059F000A0F58030C2F2000108606843C0EB0010DF
:105A000040F6A0468200C2F20006326048BF524211
:105A100020694FF2333140F6CC45B2F17A7FC8BFEE
:105A20004EF26661C8BF41F6991501F021FF326858
:105A300000210646C0F6B831104601F0C9FE2946DD
:105A400001F016FFD8F80010304420613960BDE83D
:105A5000F081000080B5FCF7EFFBBDE88040FCF76B
:105A600011BB000040F2B84C036BC2F2000CBCF852
:105A7000002040F233318B4208DB91084A2999BF5C
:105A8000501CACF80000012141877047002A19BF63
:105A9000501EACF80000002141877047704700009D
:105AA00084B010B50DF1080C8CE8070080B2012815
:105AB000059315D102AC6088B0F5887F12D1A0881B
:105AC000182811D120464FF48771FEF7FDFFA4F886
:105AD0000E01002021464FF48872FCF7AFFE04E06F
:105AE000012002E0012000E00120BDE8104004B0E8
:105AF00070470000F0B5C1B040F67E45C2F2000527
:105B0000288840F298040128C2F2000440F0C380C3
:105B100040F2205740F22856C2F20007C2F20006B7
:105B20007A8873883888B9889A423080B18000F0CA
:105B3000B080012972800CD0002930D14F2840F26A
:105B4000A380A0F57A71372940F295804FF0FF309D
:105B50009EE000F091FB40F61840C2F20000407851
:105B600000F0FE00042840F094803888A0F2044041
:105B70001A2800F26D80DFE800F00E6B166B1A6BCE
:105B80001E6B22262A2E6B323B6B6B6B6B6B444D6C
:105B90006B6B565F6800F8888001A06358E04FF097
:105BA000FF30308075E0F8888001E06350E0F888CD
:105BB000800120644CE0F8888001606448E0F88847
:105BC000A4F8480044E0F888A4F84A0040E0F888C7
:105BD000A4F84C003CE0F888A4F84E0038E0F888BF
:105BE00040F6B831884238BF0146A4F852102FE081
:105BF000F888B0F5967F28BF4FF49670A4F854004B
:105C000026E0F888B0F57A7F28BF4FF47A70A4F8C0
:105C100060001DE0F888B0F57A7F28BF4FF47A70F5
:105C2000A4F8620014E0F88844F62061884238BF86
:105C30000146A4F868100BE0F88844F62061884219
:105C400038BF0146A4F86A1002E0F888A4F86C0096
:105C5000684604F1100140F2001251F8043B043A86
:105C600040F8043BF9D194E80F00FFF719FF38889A
:105C7000B0F57A7F08D34FF6184104EB4000CFF619
:105C8000FF7130F8110003E004EB4000B0F8700041
:105C9000F08002202880E06940F20431C0F2021155
:105CA000884230D140F2D055C2F20005286842F255
:105CB000C0710130C0F209018842286023D341F24B
:105CC000A160C0F20300E061684604F1100140F2F7
:105CD000001251F8043B043A40F8043BF9D194E82F
:105CE0000F00FFF7DDFE40F22050C2F200000088F6
:105CF00040F2285104EB4000B0F87000C2F20001FD
:105D0000C8800020286041B0F0BD0000704700004E
:105D1000B0B540F218420023C4F2020203704FF4FF
:105D200000731360902300BF013B00BFFCD14FF014
:105D300080731360902300BF013B00BFFCD10023A0
:105D40004FF4807C4FF0807E0478640004709024CF
:105D5000C2F800C0013C00BFFCD152F8084C0578E5
:105D6000C4F340242C4304709024C2F800E000BF28
:105D7000013C00BFFCD1072B03F10103E4D339B18F
:105D80004FF0007010609020013800BFFCD106E099
:105D90004FF4007010609020013800BFFCD14FF428
:105DA00080701060902000BF013800BFFCD14FF020
:105DB00080701060902000BF013800BFFCD14FF010
:105DC00000701060902000BF013800BFFCD14FF47C
:105DD00000701060902000BF013800BFFCD1B0BD42
:105DE0002DE9F04F87B00090002043F6300A019073
:105DF000C4F2020ADAF8140040F2004540F0100044
:105E0000CAF81400DAF81400002100F01000019024
:105E1000019802264020C4F202050DF1040B46F25F
:105E2000884741F20C04CDE9026101904FF0070868
:105E300028465946C4F20207C4F201040496CDF87C
:105E40001480FDF7EFFE4FF0010980200296CDE9A6
:105E50000396019028465946CDF81480FDF7E2FEDE
:105E60004FF4805005F58065CDE9029901902846F0
:105E700059460496FDF7D6FE28464FF4805100227D
:105E8000FDF7AAFF0020206040F2A810C2F2000037
:105E9000006800994008B0FBF1F04FF6FF7180B246
:105EA00044F8040C2068002288432060606847F6AC
:105EB0006F7188436060A06840F6FF718843A060FE
:105EC0002068002140F05C002060A06840F0C00025
:105ED000A060206840F4005020602520FDF7F6FF08
:105EE0002520FDF7E3FF00210691DAF8000040F4D9
:105EF0008000CAF80000DAF8000000F48000069084
:105F000006980691DAF80000002140F48000CAF8F3
:105F10000000DAF8000000F480000690069839606E
:105F200057F87C0C40F47C6047F87C0C3868C0075C
:105F30001FBF38685FEAC07038685FEAC07002D07F
:105F40003868C007F2D140F25445C0F6010505F1AA
:105F5000B000386040F21370C2F20000F860083CF4
:105F6000FF20BC607860802078613868062140F0AE
:105F700001003860442000220026FDF7A7FF4420DE
:105F8000FDF794FF3E6357F87C0C40F07C6047F8C7
:105F90007C0C386BC00709D0386BC0071CBF386B4E
:105FA0005FEAC07002D0386BC007F2D140F614200F
:105FB000C2F200003D63F8630020BC637863802078
:105FC0007864462006210022FDF780FF4620FDF779
:105FD0006DFF002007B0BDE8F08F0000B0B540F6BF
:105FE0000854C2F20004217840F61420C2F20000E6
:105FF0000222027021BB40F6000046F2B845C4F20E
:1060000002004FF480510122C4F20205FDF7E4FEC4
:10601000286820F0010028602868C0071FBF286892
:106020005FEAC07028685FEAC07002D02868C007C5
:10603000F2D101206860296841F0010129602070D7
:1060400000202070B0BD000070470000B0B540F2E5
:106050007854C2F20004D4E901154DF6B250A5619E
:1060600001F006FCA26900EB65030321981AE361C5
:10607000002BC8BF02210028C8BF0139002A48BF31
:10608000C1F10701A1840139042920620FD8DFE89A
:1060900001F003090E030900111AC4E903311A467D
:1060A000184608E01844C4E90302114603E04142DF
:1060B0001A44C4E9030152426261BDE8B04000F0F5
:1060C00069BC00002DE9F041C0B040F2505440F2EC
:1060D000AC51C2F20004C2F2000160880A8840F2AA
:1060E000AE589042C2F200082FD022880880022ABF
:1060F00012D0012A29D1A18840F682420139C2F288
:106100000002B1FA81F113884909012BA8F80010A7
:1061100004BF022313801AE0A188012903D10121C1
:10612000A8F8021008E00021A8F8021040F2A051DF
:10613000C2F2000102228A8040F68241C2F20001CE
:106140000A88012A04BF02220A80B8F80010002938
:1061500040F2A85640F6F041C2F20006C2F2000139
:106160000FD001220A80218840F2A057C2F2000716
:106170003980318878806329BA8017D8481C3080EC
:1061800046E00020088040F27C41C2F2000109781C
:106190003080002940F2AA51C2F20001088026D0C6
:1061A00040F2A051C2F20001888031E040F2980331
:1061B000C2F2000300205885684603F1100140F246
:1061C000001251F8045B043A40F8045BF9D10FCB9C
:1061D000FFF766FC90B140F2AA50C2F200000188BD
:1061E00002290ED8013101800020308010E040F2F9
:1061F000A050C2F200000221818009E000F00AF9FB
:1062000006E00221B9800021A8F800103180018049
:10621000B8F8020078B1206840F2A051C2F2000143
:1062200008603088012263288A8014D801303080C9
:1062300040B0BDE8F08140F6DC40C2F200004168A9
:106240000020308071B140F2A051C2F2000188807C
:1062500040B0BDE8F0810020308040B0BDE8F041A2
:1062600000F0D8B840F2A050C2F2000002218180B4
:1062700040B0BDE8F081000040F28400C2F20000AE
:106280004078000758BF704740F68440C2F20000D3
:1062900030F8011F41F008010180704740F284008E
:1062A000C2F200000078800758BF704740F6844073
:1062B000C2F20000017841F0020101707047000055
:1062C00040F28400C2F200000078C00708BF7047A7
:1062D00040F68440C2F20000017841F001010170F3
:1062E00070470000F0B581B0054608460C4601F045
:1062F000C5FA0646204601F02BFA044628462146F8
:1063000001F0B6FA07462846314601F0B1FA3F1AC5
:106310002846314601F0ACFA06462846214601F0EF
:10632000A7FA40F278513044C2F20001C1E901708D
:1063300001B0BDE8F040FFF789BE0000F0B581B0C4
:1063400044F20004C0F6000440F204662188C2F260
:1063500000060320307021F0010040F27E41C2F2BD
:106360000001088020460122FCF70EFF40F2106772
:10637000C2F20007387088B1307878B140F27E45BB
:10638000C2F2000501383070204629460122FCF790
:10639000FBFE387010B130780028F3D101B0F0BDA9
:1063A000F0B581B044F2000440F20466C0F6000487
:1063B000C2F2000603203070208840F27E41C2F213
:1063C0000001420708805CBF01B0F0BD20F004006E
:1063D000088020460122FCF7D7FE40F21067C2F287
:1063E0000007387088B1307878B140F27E45C2F24B
:1063F000000501383070204629460122FCF7C4FE12
:10640000387010B130780028F3D1EFF3108072B6F5
:1064100000F04CFFEFF3108072B600F047FF000071
:1064200070B5D0E9001204460069891AE16101F0F3
:106430001FFAA268D4E9093108449A4220620ED0BA
:106440000028024648BF424200290B4648BF4B4243
:106450009A4204DB08464FF6705101F009FA2062B7
:106460002268D4E90C51A66BA062104601F000FA34
:106470006168411A304601F0FBF90146284601F0F7
:10648000F7F9626CD4E90F13821A9818C4E9112045
:1064900001F0EEF92064D4E90712A36CE06811441E
:1064A000194401F0E5F961696062884204DCA16980
:1064B0008842B8BF08460146A16070BDF0B581B002
:1064C000002440F29805C0F60A04C2F200052268D2
:1064D000E86840F20466C2F200060321824231708D
:1064E0006A611BD0294641F8140F20460122FCF7AF
:1064F00075FE40F21067C2F20007387070B1307854
:1065000060B1143501383070204629460122FCF76D
:1065100065FE387010B130780028F3D101B0F0BDBD
:10652000F0B581B0002440F29805C0F60404C2F230
:1065300000052268E86840F20466C2F20006032102
:10654000824231702A611BD0294641F8100F204643
:106550000122FCF743FE40F21067C2F200073870D8
:1065600070B1307860B1103501383070204629465E
:106570000122FCF733FE387010B130780028F3D1D7
:1065800001B0F0BDFDF742BC4EF68850CEF20000DF
:1065900001684FF0000C41F47001016043F6000106
:1065A000C4F202010A6842F001020A60C1F808C0A0
:1065B0000B684FF6FF72CFF6F6621A400A6043F29C
:1065C0001002C2F200424A600A6822F480220A6085
:1065D000C1F80CC04FF0006140F8801C704700000B
:1065E00010B54EF280201024CEF200004FF0805102
:1065F000C4F2000401602068C00708D040F60050D3
:10660000C2F2000001680131016000F03FF9002092
:10661000206010BD10B54EF2802040F21044CEF242
:1066200000004FF00051C4F2000401602068C00770
:1066300010D040F2B450C2F2000001684CF6CD42D6
:106640000131CCF6CC424A43B2F1333F016098BFEE
:10665000FFF7C4FC0020206010BD00004EF2842132
:1066600040F61040CEF200014FF48022C4F2000048
:106670000A600168C9070CD040F60451C2F200015B
:106680000A6801320A6040F60A51C2F20001012292
:106690000A7000210160704710B582B0002143F6F6
:1066A00040020191C4F20202136840F2004443F038
:1066B000020313601268C4F2000402F002020192A5
:1066C000019A20222160626040F64052C0F203022B
:1066D000B2FBF0F0616240F2A3110138A162E06206
:1066E0000120E0601D2004210022FDF7EFFB1D20AA
:1066F000FDF7DCFB206840F00100206002B010BD17
:1067000010B50220FAF768FFB0F58B7F07D840F28A
:10671000CC51C2F20001002200200A8010BD40F6D8
:106720002C7188426CD849F2A67C0022C0F60A0C73
:106730000CEB8203B3F9061081422BDCB3F90A108B
:1067400081422ADCB3F90E10814229DCB3F9121020
:10675000814228DCB3F91610814227DCB3F91A1004
:10676000814226DCB3F91E10814225DCB3F92210E8
:10677000814224DCB3F92610814223DCB3F92A10CC
:10678000814222DCB3F92E10814221DC0B32212A16
:10679000CED1BCE78BB201321CE08BB2023219E0E1
:1067A0008BB2033216E08BB2043213E08BB20532A7
:1067B00010E08BB206320DE08BB207320AE08BB2EA
:1067C000083207E08BB2093204E08BB20A3201E0F2
:1067D0008BB20B3219B20CEB82033CF8224033F936
:1067E000022C081A891A00F0F3FF01464FF4FA70E0
:1067F00001F03EF8201A00B2B0F5FA5F7FF787AFDC
:1068000040F2CC51C2F200010888421C93B2002031
:10681000B3F5FA6F84BF012000220A8010BD00008A
:1068200040F60050C2F200000068704710B582B018
:10683000002143F640020191C4F2020213684FF0B6
:10684000804443F001031360126802F001020192D8
:10685000019A4BF60052C0F20152B2FBF0F00C224A
:10686000C4F2000221609161D161106201201060C8
:106870001C2002210022FDF729FB1C20FDF716FB3E
:10688000206840F00100206002B010BD80B5FFF725
:10689000C7FF4CF6CD41CCF6CC41A0FB0112D1088C
:1068A00001EB8101A0EB4100092833D8DFE800F0BB
:1068B000050E1A26372E3232323340F6B440C2F279
:1068C00000000078BDE88040FDF7BABD40F23050CE
:1068D00040F61841C2F20000C2F20001BDE880405B
:1068E000FEF7E6BD40F60950C2F20000007801282C
:1068F00018BF80BDBDE88040FFF7E4BB40F62C40E8
:10690000C2F20000BDE88040FFF7ACB8BDE88040AF
:10691000FFF7F0B880BDBDE88040FEF701BCBDE8E0
:106920008040FCF753BB000040F60450C2F2000068
:106930000068704710B582B0002143F64002019113
:10694000C4F20202136840F6004443F008031360E7
:106950001268C4F2000402F008020192019A4BF698
:106960000052C0F20152B2FBF0F021606162A162FC
:10697000E0620120E060322003210022FDF7A6FA48
:106980003220FDF793FA206840F00100206002B049
:1069900010BD0000F0B581B048F2000310F5004FC3
:1069A000CFF6FF73D8BF1846B0F5004F4FF4004440
:1069B000A8BF204611F5004F40F22C07D8BF19465A
:1069C000B1F5004FC4F20107A8BF214612F5004FF0
:1069D000C8BF134600F5004601F50045B3F5004F6A
:1069E000A8BF23463968304603F5004400F038FF5D
:1069F0003A68396890420BD8304600F031FF0028E1
:106A000005D43968304600F02BFF014600E0002134
:106A100039613968284600F023FF3A6839689042A6
:106A20000BD8284600F01CFF002805D439682846FA
:106A300000F016FF014600E00021F96039682046A9
:106A400000F00EFF3A68396890420BD8204600F0FB
:106A500007FF002805D43968204600F001FF0146F1
:106A600000E00021B96001B0F0BD00002DE9F04761
:106A700086B0002443F630010194C4F202014A6951
:106A8000804642F001024A614A69002602F0010292
:106A90000192019A01940A684FF0010A42F0010242
:106AA0000A600A68C4F2010602F001020192019A2A
:106AB00001940A6806F5803542F002020A6009680E
:106AC0000DF1040901F002000190019802200290EA
:106AD000CDE903A04FF47060019028464946CDF8F7
