:02000004080AE8
:101000007012002069120A08C9580A08A9440A087F
:10101000314B0A0839190A087D720A0800000000DD
:10102000000000000000000000000000715F0A08DE
:1010300059260A0800000000355C0A0859650A08AC
:1010400083120A0883120A0883120A0883120A0804
:1010500083120A0883120A0883120A0883120A08F4
:1010600083120A0883120A0883120A0883120A08E4
:1010700083120A0885230A0883120A08BD230A0876
:10108000D1230A0811240A0811160A0883120A0833
:101090003D190A0883120A0883120A0883120A08F3
:1010A00083120A0883120A0883120A0883120A08A4
:1010B000B5650A08E9650A0883120A0883120A0856
:1010C00083120A0883120A0883120A0883120A0884
:1010D00083120A084D6E0A08A96F0A0883120A08CB
:1010E00083120A0883120A0883120A0883120A0864
:1010F00083120A0883120A0883120A0883120A0854
:1011000083120A0883120A0831660A0883120A0841
:10111000496C0A0883120A0883120A0883120A0813
:1011200025240A0883120A0883120A0883120A086F
:1011300083120A08000000000000000083120A0861
:1011400083120A0883120A0883120A0883120A0803
:1011500039240A0883120A0865240A0883120A0837
:1011600083120A0883120A0883120A0883120A08E3
:1011700083120A0883120A08000000000000000021
:1011800083120A0883120A0800F002F800F05CF8E3
:101190000AA090E8000C82448344AAF10107DA45D2
:1011A00001D100F051F8AFF2090EBAE80F0013F0C8
:1011B000010F18BFFB1A43F0010318472C880000E9
:1011C0004C8800000A444FF0000C10F8013B13F06B
:1011D000070408BF10F8014B1D1108BF10F8015B90
:1011E000641E05D010F8016B641E01F8016BF9D183
:1011F00013F0080F1EBF10F8014BAD1C0C1B09D1DA
:101200006D1E58BF01F801CBFAD505E014F8016B4B
:1012100001F8016B6D1EF9D59142D6D370470000DD
:101220000023002400250026103A28BF78C1FBD8EF
:10123000520728BF30C148BF0B6070471FB508F088
:101240007DFA1FBD10B510BD00F020F91146FFF763
:10125000F5FF06F041F800F03EF903B4FFF7F2FFA6
:1012600003BC00F045F900000948804709480047E1
:10127000FEE7FEE7FEE7FEE7FEE7FEE7FEE7FEE746
:10128000FEE7FEE704480549054A064B70470000A3
:101290005D650A0889110A08700C00207012002090
:1012A000700E0020700E002053EA020C00F06980DE
:1012B0002DE9F04B4FF00006002B1FBFB3FA83F56A
:1012C00003FA05F424FA05F65E4012BF1643B2FA9B
:1012D00082F502FA05F4C5F120051EBF22FA05FCCD
:1012E00044EA0C04203556EA044C4FEA144418BF73
:1012F000641C4FF000084FF00009904271EB030CA2
:1013000039D3002919BFB1FA81F701FA07F6B0FA0B
:1013100080F700FA07F6C7F120071EBF20FA07FC86
:1013200046EA0C062037B6FBF4FCA7EB0507103F96
:1013300007F01F0BCBF120062CFA06F60CFA0BFB7C
:1013400044BFB3460026202FA4BF5E464FF0000BDB
:101350005BEA060C08BF4FF0010B19EB0B0948EBD9
:101360000608ABFB027C06FB02CC0BFB03CCC01BCC
:1013700071EB0C01C1E70B46024641464846BDE809
:10138000F08B13B5084318BF4FF0FF300146AFF3A1
:101390000080BDE81C407047032A40F2308010F006
:1013A000030C00F0158011F8013BBCF1020F624400
:1013B00098BF11F801CB00F8013B38BF11F8013B91
:1013C000A2F1040298BF00F801CB38BF00F8013B3E
:1013D00011F0030300F02580083AC0F0088051F8AE
:1013E000043B083A51F804CBA0E80810F5E7121DB9
:1013F0005CBF51F8043B40F8043BAFF30080D207D8
:1014000024BF11F8013B11F801CB48BF11F8012BA3
:1014100024BF00F8013B00F801CB48BF00F8012BC6
:10142000704710B5203AC0F00B80B1E81850A0E822
:101430001850B1E81850A0E81850203ABFF4F5AFA2
:101440005FEA027C24BFB1E81850A0E8185044BFFE
:1014500018C918C0BDE810405FEA827C24BF51F86B
:10146000043B40F8043B08BF7047D20728BF31F85F
:10147000023B48BF11F8012B28BF20F8023B48BFB0
:1014800000F8012B7047704770477047754600F0B1
:101490002BF8AE4605006946534620F00700854606
:1014A00018B020B5FFF7EEFEBDE820404FF0000673
:1014B0004FF000074FF000084FF0000BAC46ACE8CF
:1014C000C009ACE8C009ACE8C009ACE8C00921F02B
:1014D00007018D46704710B50446AFF300802046E3
:1014E000BDE81040FFF7B9BE004870471803002060
:1014F00001491820ABBEFEE726000200704700003D
:10150000B0B540F27834C2F2000420684CF6CD4504
:101510000130CCF6CC4500FB05F1B1F1333F206042
:1015200008D840F68830C2F200004FF47A6104F027
:10153000F1F8206800FB05F101F13331B1F1333FDF
:1015400008D240F68830C2F200004FF47A6104F00D
:1015500043F92068684300F1993046F266614FEA2A
:10156000F000C0F26661884207D840F68830C2F2C7
:1015700000004FF4FA7104F07DF940F68830C2F2B1
:10158000000044F6206104F0E3F840F2D830C2F2E3
:1015900000000078012818BFB0BD40F66540C2F2D7
:1015A0000000007801280BD140F6883040F2B811D5
:1015B000C2F20000C2F20001BDE8B04001F01ABA68
:1015C000B0BD0000062807D840F6C831C2F20001BD
:1015D00031F8100080B2704709280BD0082810D0CD
:1015E000072811BF002042F23C00C4F2010000684D
:1015F00080B2704742F23C00C4F20100806880B2C1
:10160000704742F23C00C4F20100406880B270476B
:1016100042F20000C4F20100016821F004010160FF
:10162000FFF76EBF2DE9F04387B040F200070320BB
:10163000C2F200070390386802AC002502264FF082
:101640000108214604950596CDF8088002F020FB9C
:1016500078684FF010092146CDF8089002F018FB89
:10166000B8682146CDF8088002F012FBF8682146E0
:10167000029602F00DFB042138690291214602F026
:1016800007FB082178690291214602F001FBB86945
:101690002146CDF8089002F0FBFAF869214602963F
:1016A00002F0F6FA2021386A0291214602F0F0FA9F
:1016B000786A2146CDF8088002F0EAFA43F6300055
:1016C0000195C4F20200416942F2340441F4807190
:1016D00041614169C4F2010401F4807101910199F1
:1016E00049F24921C0F2241144F8281C01F100619B
:1016F00044F8241C0295016846F2104641F480012A
:1017000001600168C4F2020601F4800102910299AD
:1017100054F82C1C002221F0010144F82C1C4FF439
:10172000C07144F8301C40F20031C6F6100144F894
:101730002C1C0521C4F8D0124FF4C00144F8205CE1
:1017400044F8081C44F8045C256021682160216885
:1017500041F080012160216841F42051216021681D
:1017600041F4B0212160216841F4400121602168E9
:1017700041F0D051216054F8041C41F00E0144F8AE
:10178000041C43F62051C0F22401616002950168F7
:1017900041F4800101600068052100F4800002909E
:1017A000029842F61050C0F201003560306040F6F9
:1017B000C830C2F20000F06004F11800B0600720E9
:1017C00070603820756102F0B7FB382002F0A4FB8E
:1017D0003068012140F0010030601220002202F048
:1017E000ABFB122002F098FB54F82C0C40F00100E7
:1017F00044F82C0C07B0BDE8F083000010B5016878
:1018000048F20004B1F5004FCFF6FE7420DD0B4620
:10181000B1F5C03FA8BF4FF4C033A1EB030C4FF6A6
:10182000FF730CEB030E4FEA1E4C632304F50042DA
:10183000BCF1630F38BF4FEA1E4303FB02110122C4
:10184000A1F5803152FA83F30160632B03D910BDF7
:101850000023632BFBD804F580329142A8BF10BD52
:10186000A142C8BF0C46621A4FF6FF742244C3F16E
:101870006303B3EB124F88BF130C01EB034101F577
:101880008031016010BD000010B501680024B1F185
:10189000011FCFF6FF741EDB0B46B1F5003FA8BF5A
:1018A0004FF40033A1EB030C4FF6FF730CEB030E68
:1018B0004FEA1E4C6323BCF1630F38BF4FEA1E434F
:1018C00003FB04110122A1F5803152FA83F3016078
:1018D000632B03D910BD0023632BFBD8B1F1FF3F6D
:1018E000C8BF10BDA142C8BF0C46621A4FF6FF74B4
:1018F0002244C3F16303B3EB124F88BF130C01EB17
:10190000034101F58031016010BD000000680968E5
:10191000431A084448BF5B42B3F5004FC8BFA0F567
:10192000803040101060704704F0F2FCEFF310803C
:1019300072B605F0A5FC0000FEE7000080B540F29D
:101940008C30C2F2000001F0BDFEBDE8804000F026
:10195000FBB90000B0B546F20045C4F20005A86925
:1019600000F00700072818BFB0BD40F25850C2F27F
:1019700000000078400621D540F6F032C2F20002A5
:10198000107840F0400340F6E030C2F20000B0F8BA
:10199000011040F65040C2F20000C9060168137001
:1019A00040F2CC325CBF01310160C2F200025278D9
:1019B000D20603D5062924BF0021016040F28C34F1
:1019C000C2F200042046012101F0CAFC2046022197
:1019D00001F0C6FC2046042101F0C2FC286840F456
:1019E00000402860286820F003002860B0BD000097
:1019F00040F2B810C2F2000040F298414278C2F2C0
:101A000000010A8040F2904240F6883CC2F2000297
:101A1000C2F2000C80785288BCF81C304A808B805F
:101A2000C88040F6E03040F6F031C2F20000C2F269
:101A300000010068096840F26842C2F20002C2E98F
:101A4000000140F24040DCE90321C2F20000418085
:101A5000110903808180704780B540F28831C2F25D
:101A6000000108684CF6CD42013008604CF6CD41CB
:101A7000CCF6CC4141434FEAB101C0F6CC42914291
:101A800040F24051C2F200011FD348F21F52C5F28A
:101A9000EB12A0FB02235A0964235A43D243104499
:101AA000082820D8DFE800F0051F3B1F471F531F01
:101AB0005F0040F26842C2F200024FF482600823E5
:101AC000D2E9002E08604B6058E040F29842C2F222
:101AD00000024FF480604FF0080CD2E9002E08603D
:101AE000C1F804C04AE040F6DE30C2F200000288CD
:101AF000022A4CD1002240F20853028040F20140F9
:101B00000822C2F20003C1E900021A68D3F804E017
:101B100040F2B843C2F20003C3E9002E2EE040F2C7
:101B2000C042C2F2000240F211400823D2E9002E66
:101B300008604B6022E040F24042C2F2000240F2F4
:101B400012400823D2E9002E08604B6016E040F2F4
:101B50004842C2F2000240F213400823D2E9002EAC
:101B600008604B600AE040F25042C2F20002D2E943
:101B7000002E40F21440082308604B6041F8082F03
:101B80000822C1F804E0BDE8804000F0A3B940F6A7
:101B9000D630C2F200000288022A13D1002202804D
:101BA00040F202400822C1E9000240F25842C2F26B
:101BB0000002D2E9002E40F26043C2F20003C3E902
:101BC000002EDBE740F6DA30C2F200000288022A7B
:101BD0000DD10022028008224A6040F28842C2F2FF
:101BE000000240F20340D2E9002E0860C6E740F64A
:101BF000D830C2F200000288012A13D100220280EC
:101C000040F204400822C1E9000240F27042C2F2F0
:101C10000002D2E9002E40F27843C2F20003C3E989
:101C2000002EABE740F6DC30C2F200000288012A49
:101C300018BF80BD40F2A042C2F200021388092BF7
:101C40009CBF0A2313800023038040F20540082331
:101C5000C1E90003D2E9002E40F2A843C2F200031A
:101C6000C3E9002E8AE7000080B58AB0014640F241
:101C70008C3046F20042C2F20000C4F2000240F290
:101C8000280C02604FF08072C2F2000C8261BCF836
:101C9000002000238A428383836011D0BCF8142083
:101CA0008A4201D101230BE0BCF828208A4201D1ED
:101CB000022305E0BCF83C2004238A4208BF03232A
:101CC00003EB83010CEB810101F1040C9CE80C1087
:101CD000098AC0E90323C0F814C0416001F014FE72
:101CE00000284FF0010001D00AB080BD0021CDE9ED
:101CF0000610CDE90011CDE90211CDE904110890DB
:101D00000E20099040F28C30C2F20000694601F0CA
:101D1000B5FB10B102200AB080BD40F28C30C2F297
:101D2000000001F0BFFE10B103200AB080BD40F2F8
:101D30008C30C2F20000022101F03AFB002818BFEB
:101D4000012080000AB080BDB0B540F2D045C2F29B
:101D5000000505F10804204600F094F8A0F59871FC
:101D60000822052928606A6011D8DFE801F0032BFA
:101D70003C4D5E78EFF3108072B66A6840F2904096
:101D8000C2F200002146FFF74CFB62B6B0BD5028FE
:101D900040F07780EFF3108072B66A6840F28035C9
:101DA000C2F2000528462146FFF73BFB62B62888B1
:101DB000012818BFB0BD40F60440C2F20000022165
:101DC0000170B0BDEFF3108072B66A6840F2B040A7
:101DD000C2F200002146FFF724FB40F6DE30C2F2DB
:101DE000000062B638E0EFF3108072B66A6840F225
:101DF0005840C2F200002146FFF713FB40F6D630F0
:101E000062B6C2F2000027E0EFF3108072B66A6893
:101E100040F28040C2F200002146FFF702FB40F68C
:101E2000DA3062B6C2F2000016E0EFF3108072B64C
:101E30006A6840F27040C2F200002146FFF7F1FAF2
:101E400040F20C30C2F200004FF4FA7162B6018029
:101E500040F6D830C2F2000001210180B0BDEFF39E
:101E6000108072B66A6840F2A040C2F200002146BB
:101E7000FFF7D7FA40F6DC30C2F20000012162B66B
:101E80000180B0BDB0B588B0054640F28C30C2F2DA
:101E900000000021002401F063FBC0B140F28C304F
:101EA000C2F2000001AA00212B46002401F068FBC9
:101EB00068B90598082803D1039818B1002406E0F2
:101EC000002404E0049800280CBF019C0024204654
:101ED00008B0B0BD10B588B0CDE901000020CDE953
:101EE000030040F22C500C460121C2F20000079181
:101EF000016805920131016040F28C30C2F20000AD
:101F000001F0CCFB00286ED140F28C30C2F2000010
:101F100001F0C4FB002866D140F28C30C2F2000010
:101F200001F0BCFB00285ED140F28C30C2F2000010
:101F300001F0B4FB002856D140F28C30C2F2000010
:101F400001F0ACFB00284ED140F28C30C2F2000010
:101F500001F0A4FB002846D140F28C30C2F2000010
:101F600001F09CFB00283ED140F28C30C2F2000010
:101F700001F094FBB8BB40F28C30C2F2000001F0DB
:101F80008DFB80BB40F28C30C2F2000001F086FB7A
:101F900048BB40F28C30C2F2000001F07FFB10BB66
:101FA00040F28C30C2F2000001F078FBD8B940F268
:101FB0008C30C2F2000001F071FBA0B940F28C300D
:101FC000C2F2000001F06AFB68B940F28C30C2F244
:101FD000000001F063FB30B940F28C30C2F2000027
:101FE00001F05CFBE8B140F23450C2F2000001683D
:101FF00007AB0131016040F28C30C2F2000001A950
:10200000224601F0E9F908B1012407E040F230501E
:10201000C2F200000168002401310160204608B0CE
:1020200010BD40F28C30C2F200000121012401F009
:1020300097F9F3E740F27C50C2F200000068704765
:102040002DE9F04F87B04FF0000843F6300ACDF885
:102050000480C4F2020ADAF81010814641F400212B
:10206000CAF81010DAF8101040F6000501F400204C
:1020700001900198022401274FF48060C4F2020508
:1020800001AE0294CDE9037401904FF0080B28468D
:102090003146CDF814B001F0FBFD4FF40060CDE9FE
:1020A00002470190284631460494CDF814B001F05F
:1020B000EFFD042005F58065CDE902770190284603
:1020C0003146049401F0E4FD28460421002201F089
:1020D000B9FE44F60C45C4F2000540F29810C5F86C
:1020E0000080C2F2000000684FF6FF718008B0FB6C
:1020F000F9F0002280B245F8040C28688843286073
:10210000686847F66F7188436860A86840F6FF7199
:102110008843A8602868002140F05C002860A86817
:1021200040F0C000A860286840F4005028603420C7
:1021300001F002FF342001F0EFFECDF81880DAF84C
:10214000000046F2400440F40010CAF80000DAF83B
:10215000000040F2044600F4001006900698CDF806
:102160001880DAF80000C4F2020440F40010CAF843
:102170000000DAF80000C0F6010600F40010069036
:10218000069840F28670C2F20000C4F80080266013
:10219000E060083DFF20A560606080270D200021E1
:1021A0000022676101F0C8FE0D2001F0B5FE206835
:1021B000002140F00100206006F15000C4F830809A
:1021C000206340F68820C2F20000E0630F20002266
:1021D000A563C4F83480676401F0AEFE0F2001F0FF
:1021E0009BFE07B0BDE8F08FB0B590B040F2C830AC
:1021F000C2F2000001880131018001F001000130CC
:102200008DF800000320CDF8010001208DF80500B5
:102210006846062102F08EFC40F6F534C2F2000456
:102220002178ADF8060061BB40F6004046F270052B
:10223000C4F2020004210122C4F2020501F002FEF0
:10224000DDE9000140F68822C2F20002C2E9000185
:10225000286820F0010028602868C0071FBF286890
:102260005FEAC07028685FEAC07002D02868C007C3
:10227000F2D108206860286840F001002860012041
:10228000207040F2CC10C2F20000018849000180A9
:1022900010B0B0BD10B5D0E9001204460069891A2B
:1022A000E16105F0C5FAA268D4E9093108449A420F
:1022B00020620ED00028024648BF424200290B4649
:1022C00048BF4B429A4204DB08464FF6705105F076
:1022D000AFFAE169E2682062A0620144104605F0AD
:1022E000A7FA61696062884204DCA1698842B8BFCC
:1022F00008460146A16010BD70B540F29C15C2F2BF
:102300000005296804460846802101F08DFD01384A
:10231000B0FA80F168684E09402101F085FD01386E
:10232000B0FA80F04109A86846EA4106202101F090
:102330007BFD0138B0FA80F04109E86846EA810681
:102340004FF4004101F070FD0138B0FA80F041090E
:10235000286946EAC106082101F066FD0138B0FA95
:1023600080F04109686946EA0115402101F05CFDF1
:102370000138B0FA80F0400945EA40110020218080
:1023800070BD000046F24000C4F2020050F8381C54
:10239000002241F47C1140F8381C40F6EC31C2F2C6
:1023A00000010A60016821F001010160FF21416024
:1023B000016841F0010101607047000046F20C0025
:1023C000C4F20200016841F03F0101607047000063
:1023D00046F28800C4F2020050F87C1C002241F44E
:1023E0007C6140F87C1C40F6E431C2F200010A70C6
:1023F00040F6E831C2F200010A60016821F00101F3
:102400000160FF214160016841F0010101607047F6
:1024100046F20C00C4F20200016841F47C11016034
:102420007047000046F20840C4F20200016841F023
:102430003F0101607047000046F28840C4F202008C
:1024400050F87C1C41F47C6140F87C1C016821F050
:1024500001010160FF214160016841F0010101605B
:102460007047000046F20C40C4F20200016841F0DF
:102470007C6101607047000080B540F2B412C2F286
:10248000000252F8211002460846802101F0DAFCD1
:10249000002080BD2DE9F041C6B048F20008C0F62A
:1024A000000800F0E9F940F28806C2F200064FF495
:1024B000C01040F63D2742F6AC2540F2E83406F164
:1024C000380C00214FF4A0128323C0F26667C0F2DB
:1024D0000875C8F200048CE88F0040F6FF70C6E96A
:1024E00013757465B065B8F8000043F23331884263
:1024F000ADF8060021D140F28804C2F200040020A9
:1025000021464FF4887200F00DF900283ED1B4F84E
:102510000E5120464FF4877102F00CFB854235D1F5
:102520002088012806D16088B0F5887F02D1A08874
:1025300002282DD003F09CFE2AE040F28801C2F26E
:10254000000102A84FF48872FEF76BFFBDF8080087
:10255000012818D1BDF80A00B0F5887F13D1BDF865
:102560000C0002280FD102AD28464FF4877102F00B
:10257000E1FAADF81601002029464FF4887200F008
:1025800025F9002845D003F085FE01E003F082FE26
:1025900044F24220C0F20F00F06002A8FFF7ACFE48
:1025A000BDF8080000F007040120FFF70BF86421D4
:1025B00000EB40026143920001EB1231B1F5327F32
:1025C00028BF4FF43271F1800021C0F60401096880
:1025D0004EF2D722C0F63672914228BF11463161C1
:1025E0000021C0F60A010968914228BF11467161B5
:1025F00043F6FC71C0F600010968ADF8080091428D
:1026000038BF0A46B26101F031FCB06046B0BDE8A7
:10261000F08143F23330ADF806000DF1060140467B
:10262000012200F0E7FD88B103270DF1060500BF88
:10263000404629460122013F00F0DCFD390618BF63
:102640000028F5D110B103F025FEA1E7EFF31080CB
:1026500072B604F02BFE0000704700002DE9F04F29
:1026600085B040F29C15C2F2000528686C464FF018
:1026700000094FF0010802274FF0800A2146CDF8EB
:102680000490CDF808800397CDF800A001F000FB7E
:10269000686840262146009601F0FAFAA8684FF0D3
:1026A000200B2146CDF800B001F0F2FA4FF40041C2
:1026B000E8680091214601F0EBFA082128690091B1
:1026C000214601F0E5FA68692146009601F0E0FA3A
:1026D00028682146CDE901970397CDF800A001F0C5
:1026E000D7FA68682146009601F0D2FAA868214618
:1026F000CDF800B001F0CCFA40F2B415C2F20005FA
:1027000028682146CDE901890397CDF800A001F0A2
:10271000BFFA28688021002201F094FB05B0BDE8D3
:10272000F08F00002DE9F04704460020B0EBD42FD5
:102730004FF0FF0A45D11746B2F5006F41D840F27D
:102740000048C4F2020889464046102100220025B4
:1027500001F078FB381960400F2803D8204649461D
:102760003A4626E004F00F00C0F110062046494624
:10277000324601F0C3FEBF1B8246B8B23444B5EB0B
:10278000101F4E4410D04FEA10190025A0B2314658
:10279000102201F0B3FE0135824628B21034103603
:1027A0004845A7F11007F1DB17F00F0204D0A0B2E3
:1027B000314601F0A3FE824640461021012201F07D
:1027C00041FB4FFA8AF0BDE8F08700002DE9F04F99
:1027D00081B0044617180020B0EBD72F02D04FF07D
:1027E000FF0B44E040F20048C4F202081646894656
:1027F000404610210022002501F024FB87EA040056
:102800000F2803D820464946324628E004F00F003E
:10281000C0F1100A20464946524602F005F8A6EBE0
:102820000A078346B8B25444B5EB101F09EB0A06F9
:1028300010D04FEA10190025A0B23146102201F045
:10284000F3FF0135834628B2103410364845A7F10E
:102850001007F1DB17F00F0204D0A0B2314601F0EF
:10286000E3FF834640461021012201F0EBFA4FFAC4
:102870008BF001B0BDE8F08F2DE9F04385B040F258
:1028800000444FF40070C4F202046D464FF011088A
:1028900000260227009020462946CDF804800296A3
:1028A000039701F0F5F920464FF4007101224FF033
:1028B000010901F0C7FA4FF48070CDE9018600905C
:1028C00020462946039701F0E3F920464FF4807132
:1028D000012201F0B7FA1020CDE9018900902046CD
:1028E0002946039701F0D4F920461021012201F076
:1028F000A9FA05B0BDE8F0832DE9F04140F60C4897
:10290000044643F60C46C2F200080020C4F2020658
:10291000C8F81C0001F0A4FA3168C90345D4306836
:10292000C0071CBF01203060306810F0F20F43D0A8
:102930003068C00607D5D8F81C0040F01000C8F871
:102940001C00102030603068800607D5D8F81C00C5
:1029500040F00800C8F81C002020306030684006B5
:1029600007D5D8F81C0040F00400C8F81C0040202F
:1029700030603068000607D5D8F81C0040F002002F
:10298000C8F81C0080203060306880075CBF0120E0
:10299000BDE8F081D8F81C0040F02000C8F81C0009
:1029A000022030600120BDE8F0810546671C07D099
:1029B000BCB90320BDE8F0810020BDE8F08100BF74
:1029C0003068C003ABD567B93068C003A7D547B935
:1029D0003068C003A3D527B93068C0039FD5002F46
:1029E000EED001F03DFA401BA042E9D90320BDE83A
:1029F000F08100002DE9F04F81B00446887840F660
:102A00002C4840F2BC290E46C2F200080128C2F24E
:102A1000000904D0D8F81400002840F0B280A08F3C
:102A2000002800F0AE80032004F084F820684FF402
:102A30000041404204F0FCFE40F2B435C2F2000511
:102A40002968074608464FF4004104F0F1FE61682A
:102A50003844286048424FF4004104F0E9FE6968B8
:102A6000074608464FF4004104F0E2FE2968384466
:102A70006860E96001EB400049F2CD3104F0D8FE16
:102A800040F2880AC2F2000A2861A069BAF8281048
:102A9000BAF82A20401A110404F0CAFE40F21C4B76
:102AA000C2F2000B5F4647F8080F3846FEF7ECFE0F
:102AB000D5E90301CBF800003868CBF8041004F026
:102AC000BDFE3968CBF81400084604F021FE01462B
:102AD000DBF80000CBF8181004F0AAFEDBF80420A5
:102AE000DBF814100746104604F0A2FEC219DBF80A
:102AF0000400DBF81810CBF80C2004F099FEDBF88A
:102B00000020DBF814100746104604F091FE391A35
:102B100040F2CA30C2F200000288CBF81010511CFB
:102B20008AB20A2A0180C0F09C81717800220129B2
:102B3000028052D1D8F81800411C5BD0012840F027
:102B4000D78040F27020C2F2000040F68831406920
:102B5000C2F20001C9684042C9F80000B1F5403F27
:102B60004FF00100C8F8000040F3A88040F27C302C
:102B7000C2F2000001888A087C2A00F2B780481C53
:102B80009DE040F27020C2F20000002101628162EB
:102B9000816040F6E030C2F20000007840F2D812C6
:102BA00040F22423C2F20002C2F200034006C9F838
:102BB0002010C9F82810116291621962996291601F
:102BC000C9E90011C9F8081059609960E16054BF63
:102BD0000120002003F0AEFF8DE1D8F81400062993
:102BE00018BF002802D110B3B16825E00020C9F851
:102BF000000030E140F2702040F68831C2F200005F
:102C0000C2F200014069C968C9F80000B1F5403F4F
:102C10004FF0FF30C8F800005CDD40F27C30C2F2BB
:102C2000000001888A087C2A60D8481C53E04CF2D6
:102C30000001CFF6FF71B16040F27022C2F20002D3
:102C4000D2E905239942A8BF0B469142C8BF13465B
:102C5000B1F1FF3FC9F8003017DD40F68831C2F20C
:102C600000014FF0FF30C968C8F8000040F27C3026
:102C7000B1F5403FC2F2000040F38A8001888A0823
:102C80007C2A00F28D80013183E040F68831C2F267
:102C90000001C96801220028C8F8002000F08380E4
:102CA000B1F5403F40F38F8040F27C30C2F200002B
:102CB00001888A087C2A73D8481C85E00020D8F84F
:102CC0000810726840F27C33C2F20003914218800F
:102CD0000EDD0FE00020D8F8081040F27C32C2F27E
:102CE0000002B1F5D27F108002DA03E000210180FA
:102CF0000020B070D8F81020D8E900013AB140F2B5
:102D0000CC430022C2F20003C8F810201A60421C13
:102D100016D001282AD140F2C840C2F20000026851
:102D200040F68830C2F2000080698A4223DC884283
:102D300021DD40F2CC41C2F200010A68013A13E001
:102D400040F2C840C2F20000026840F68830C2F289
:102D5000000080698A420EDD88420CDC40F2CC41E2
:102D6000C2F200010A6801320A6004E040F68830CD
:102D7000C2F20000806940F2CC42C2F2000240F28E
:102D8000C8411268C2F200010860C8F8082062E079
:102D90000021D8F808200180B2F5AF7F1DDA20E0CD
:102DA0000021018019E040F27C30C2F20000B1F550
:102DB000403F40F3EB8001888A087C2A00F2E980DA
:102DC000013101800DE00020D8F8081040F27C327B
:102DD000C2F200020A29108003DC0020C9F80000BA
:102DE000B070D8F81000D8E90023002840F2CC4099
:102DF000C2F200001EBF0021C8F810100160511C73
:102E000040F2C841C2F200010ED0012A1AD140F6A8
:102E100088320F68C2F2000292699F4217DC9A4220
:102E200015DD0368013B0BE040F688320F68C2F203
:102E3000000292699F420ADD9A4208DC036801336E
:102E4000036004E040F68832C2F200029269006832
:102E50000A60C8F808002069C9F80400484603F071
:102E6000C9FA40F2D816DBF80C10C2F200060020B6
:102E7000C6E90001BAF82A10D9F80800090404F0DC
:102E8000D7FC40F22427DBF81010C2F20007C7E994
:102E900000013046FFF7FEF93846FFF7FBF940F234
:102EA000DC35B068C2F20005DBE9053105F10C0C38
:102EB000BA688CE80D00A96104F0BAFCD5E90421D8
:102EC0000646104604F0B4FC321AE86869692A60C4
:102ED00004F0AEFC2A69A9690646104604F0A8FC75
:102EE000296840F2E0423044C2F200026860C2E960
:102EF000011003F03FF8D4E90012A068002948BF90
:102F00004942002A48BF52420028114448BF40426B
:102F100008444BF66431C0F2010104F039FC40F280
:102F2000D431C2F200010A684CF6CD43CCF6CC4352
:102F300053434CF6CC474FEAB303C0F6CC47BB42F1
:102F4000E06002F10100086084BF01B0BDE8F08FCD
:102F5000D9E9001240F224500B0BC2F2000009091B
:102F60004170110B81701109C170216AA26903704F
:102F70000B0B09094171110B1209037181710821B1
:102F8000C27101B0BDE8F04F04F046B900210180E4
:102F900027E70021A26901800120C8F81000C8F8C5
:102FA0001400C8F80420B1701BE700002DE9F041BF
:102FB00040F28804C2F2000404F1380340F27025A4
:102FC0000FCBC2F20005C5E90301B4F8480040F296
:102FD000D818B4F84A1040F2BC26C2F20008C2F277
:102FE0000006C8E90301B4F84C0040F22427C6E902
:102FF0000323C2F20007B4F84E20A18CF86040F21F
:10300000DC503A6104F0C4FB4142C5E905014FF4CC
:10301000FA70642104F0BCFB41427061B4F85600C0
:1030200040F28F22B161A0F28F21101AC7E905107A
:10303000C8E90510BDE8F08140F2584140F2D032B5
:10304000C2F20001C2F2000248881388984208BF09
:1030500070470988108061B340F6E030C2F200008A
:103060000021016040F6F030C2F20000016040F241
:103070000E30C2F200006421018040F20830C2F23A
:1030800000004FF4FA61018040F20A30C2F2000001
:10309000018040F6D630C2F20000018840F20C32C6
:1030A000C2F2000201294FF4FA71118004BF02211B
:1030B00001807047E8B140F2D23CC2F2000C9CF8AB
:1030C00000101F2918D820FA01F3DA0740F08B808E
:1030D0001F2913D09A0700F181801E290ED05A07AC
:1030E0007ED41D290AD01A077CD404312029EAD1C4
:1030F00004E000210846704720296CD10F23A3F17A
:103100000F0120FA01F2D20701BFA3F10E0120FA4C
:1031100001F25FEAC272A3F10D0104BF20FA01F2CD
:103120005FEAC27250D1A3F10C0120FA01F2D2077A
:1031300002BFA3F10B0120FA01F25FEAC27243D190
:10314000A3F10A0120FA01F2D20702BFA3F109019B
:1031500020FA01F25FEAC27236D1A3F1080120FA27
:1031600001F2D20702BFD91F20FA01F25FEAC27250
:103170002AD1991F20FA01F2D20702BF591F20FA63
:1031800001F25FEAC2721FD1191F20FA01F2D207C1
:1031900002BFD91E20FA01F25FEAC27214D1991E51
:1031A00020FA01F2D20702BF591E20FA01F25FEAAB
:1031B000C27209D120FA03F1C90706D110332F2BAF
:1031C0004FF000019BD107E00B46581CC1B28CF8B0
:1031D000000008467047002108467047013102E0B0
:1031E000023100E00331012050FA81F108468CF8E9
:1031F0000010704770B50546B0F1006F4FF0010048
:1032000038BF70BD0C4615F001011AD105EB42061E
:10321000B6F1016F84BF012070BD00F021FDAE4208
:103220000CD900BF228801202946002300F094FC1D
:1032300040B90235B54204F10204F3D300F082FC38
:10324000002070BD032070BD70B50546B0F1006F61
:103250004FF0010038BF70BD0C4615F003011AD1C4
:1032600005EB8206B6F1016F84BF012070BD00F04E
:10327000F7FCAE420CD900BF226802202946002389
:1032800000F06AFC40B90435B54204F10404F3D3FC
:1032900000F058FC002070BD032070BD2DE9F04106
:1032A0000C46804600200021002203F05DFB322006
:1032B00000F034FC40F688354FF48036C2F2000549
:1032C0004120314604F0B4FA414602F0F5FF0520F2
:1032D00000F024FC2868002848BF4042A04213DCCC
:1032E0006868002848BF4042A0420DDCA86800285A
:1032F00048BF4042A04207DC06F58036B6F1167F93
:10330000DED13846BDE8F081AF694FF4FA7000F0C5
:1033100005FC012604E000BF632E06F10106F0D291
:10332000012000F0FBFBA869C01B48BF4042B0F57C
:10333000004FF1DA38464FF2333104F079FAA969D7
:103340000446084640F6CC4104F072FA0719E3E758
:1033500040F23840C2F200000068401070470000A0
:1033600090F82020013A012A18D8CA0704D0026830
:10337000936843F0800393608A0704D502689368DA
:1033800043F40043936049075CBF00207047006826
:103390004FF4000200F10801002004E000F12401D4
:1033A00001204FF480220B681A430A607047000026
:1033B00090F82020013A012A04D8006800F1140294
:1033C000002004E000F1240201204FF48021136862
:1033D000194311607047000010B590F820E0D0F854
:1033E00000C0AEF1010EBEF1010FDCF808E00DD80F
:1033F0001EF0E05F10D0CEF3016EBEF1030F11D1CD
:1034000000F1240101204FF4000233E000F1240117
:1034100001204FF480222DE000F1240101204FF41F
:10342000001227E0012000FA0EF01860886818B139
:103430004B6840EAC30001E008684005D1E9033465
:1034400003430CEB0E10C0F88031C0F88441097DB5
:10345000012905D100F5C2710B6843F480730B603C
:103460005168C0F88C11126800F5C071C0F888214D
:10347000002001220B681A430A6010BDB0B590F815
:103480002020013A012A2FD846F20060C4F2000041
:10349000026842F001020260026822F47C5202607B
:1034A000D1F814E0CC694A6A0368012C43EA02228D
:1034B00002600EF01F024FF0010303FA02F2C3692B
:1034C0006FEA020C23EA0203C36113D02CBBC3686A
:1034D00003EA0C03C360CB688C8844EA034300EB27
:1034E000CE0423640B4611E0416A41F4802141621D
:1034F0000120B0BDC3681343C3600B688C8844EAE5
:10350000034300EBCE04236401F10C038C681B8899
:1035100043EA044300EBCE04636443688D6943EAE5
:103520000204D1F810E0096A002D08BF03EA0C0478
:1035300044604369BEF1000F43EA020408BF03EA96
:103540000C040129446102D1C1691143C1610168C0
:1035500021F0010101600020B0BD000070470000B3
:1035600090F82020013A012A84BF002070470068AB
:103570001022002908BF0C22805800F00300704779
:1035800010B590F82040013C012C0CD8D0F800C0B8
:1035900079B1DCF81040A4070FD100F1240101201B
:1035A0004FF400126FE000F1240101204FF480225B
:1035B00069E0DCF80C40A40769D00CEB011CDCF8D6
:1035C000B0410CF5D87E14F004049460DCF8B041EE
:1035D00019BFE4085460640D1460DEF8004000294F
:1035E000C4F34004D460DCF8B44104F00F04146167
:1035F000DCF8B441C4F307249461DCF8B4414FEA29
:1036000014445461DCF8B8211A70026802EB01120C
:10361000D2F8B8214FEA12225A70026802EB011266
:10362000D2F8B8214FEA12429A70026802EB0112F6
:10363000D2F8B8214FEA1262DA70026802EB011286
:10364000D2F8BC211A71026802EB0112D2F8BC2137
:103650004FEA12225A71026802EB0112D2F8BC2121
:103660004FEA12429A71026802EB0112D2F8BC21B1
:103670004FEA1262DA71006814BF00F1100100F124
:103680000C01002020220B681A430A6010BD00F1D3
:10369000240101204FF40012F5E7000090F82010FB
:1036A0000139012984BF0020704700688168826861
:1036B0008068C1F38061C2F3C0621144C0F300703E
:1036C000084470472DE9F04F81B004460068466910
:1036D000D0F804908768D0F80CB0D0F810A0D0F8DB
:1036E0001880F10703D1002530071CD423E0F90727
:1036F00010D00121BA07816009D4780700F1AA80AF
:10370000380700F1B080204600F0FAF902E02046C8
:1037100000F0F8F90025F80500F18480F80300F1C5
:10372000AA80300707D51BF0100004D0206845F4AC
:1037300000751021C160700708D51BF0080005D086
:1037400020680821C160204600F0A2F9B00706D524
:103750002068C068800702D0204600F09BF9700600
:1037600007D51AF0100004D0206845F480651021B8
:103770000161B00608D51AF0080005D020680821BC
:103780000161204600F088F9F00606D5206800693E
:10379000800702D0204600F081F9B00308D519F067
:1037A000100005D0206810214160204600F078F913
:1037B000F00308D519F0080005D020680821416001
:1037C000204600F0A9F9300440F18F805FEA49708B
:1037D00040F1888006F4807008EA102028435FEAF0
:1037E0008871014648BF41F00201B20558BF014649
:1037F0005FEA48700D4648BF45F00405700558BFA4
:103800000D4630056ED518F070006BD010380009E9
:10381000052862D8DFE800F0035356595C5F45F095
:1038200008055AE020684FF48071BA0581600AD417
:10383000780512D4380519D4204600F065F9F8034C
:103840007FF56FAF17E0204600F060F9F8037FF5D1
:1038500068AF10E04FF400655DE705F50055F8032B
:103860007FF55FAF07E04FF4805554E705F58045DD
:10387000F8037FF556AF20684FF48031BA038160BA
:103880000AD478030FD4380313D4204600F040F94B
:1038900030073FF548AF4EE7204600F03BF93007D0
:1038A0003FF541AF47E705F5004530073FF53BAF32
:1038B00041E705F5803530073FF535AF3BE745F08B
:1038C00010050AE045F0200507E045F0400504E05A
:1038D00045F0800501E045F480752068816921F09C
:1038E000700181612068042141604DB1606A40EA45
:1038F00005012046616201B0BDE8F04FFFF72EBE22
:1039000001B0BDE8F08F0000B0B5C8B1044690F832
:10391000200010B9204600F071F82068016821F0FD
:103920000201016000F09CFA054600BF2068416872
:10393000890707D500F094FA401B0B28F6D312E054
:103940000120B0BD016841F00101016000F088FA7A
:10395000054600BF20684168C9070DD100F080FA14
:10396000401B0B28F6D3606A052140F400306062EA
:10397000012084F82010B0BD217E0268012922F0C8
:10398000800208BF80320260617E0268012922F055
:10399000400208BF40320260A17E0268012922F085
:1039A000200208BF20320260E17E0268012922F075
:1039B000100218BF10320260217F0268012922F034
:1039C000080208BF08320260617F0268012922F004
:1039D000040208BF04320260D4E901C2D4E903350D
:1039E00061691A432A431143ACF101021143C161D9
:1039F00000200121606284F82010B0BD2DE9F04361
:103A000085B0002043F630010090C4F202010A693B
:103A1000002442F000720A610A69C4F2020402F052
:103A200000720092009A009008686D4640F0010014
:103A3000086008684FF0020800F00100009000984C
:103A40004FF4805000904FF00309012609272046CB
:103A50002946CDF80480CDF80C900296049700F02A
:103A600017F94FF40060CDE9000820462946CDE95A
:103A70000269049700F00CF914200121002200F0E3
:103A80005BFA142000F048FA05B0BDE8F0830000AE
:103A9000704700007047000070470000704700004A
:103AA00070470000B0B5044690F8200001281DD1F1
:103AB000022084F820002068016821F001010160E3
:103AC00000F0CEF9054600BF20684068C00713D05B
:103AD00000F0C6F9401B0B28F6D3606A40F40030B2
:103AE0006062052084F820000120B0BD606A40F4C7
:103AF000002060620120B0BD00206062B0BD000007
:103B000070470000704700007047000070470000D9
:103B1000704700007047000070470000B0B50446D1
:103B200000F09EF9054640F21030C2F20000007825
:103B3000611C18BF044400BF00F092F9401BA04272
:103B4000FAD3B0BD43F61041C4F20201086840F058
:103B5000004200200A6070472DE9F04381B040F632
:103B60000C44C2F200049046227E012A03D10220B6
:103B700001B0BDE8F0830746012020764CF25030BA
:103B80001E460D46FEF7B8FE002864D143F61049E4
:103B9000022FC4F2020915D0012F28D0E7BBD9F8B3
:103BA000000020F44070C9F80000D9F80000C9F8FE
:103BB0000000D9F8000040F00100C9F8000085F8C5
:103BC00000803EE0D9F8000020F44070C9F8000001
:103BD000D9F8000040F40070C9F80000D9F80000DE
:103BE00040F00100C9F80000C5F8008029E0D9F8CC
:103BF000000020F44070C9F80000D9F8000040F43B
:103C00008070C9F80000D9F8000040F00100C9F840
:103C10000000A5F8008014E0D9F8000020F44070FE
:103C2000C9F80000D9F8000040F44070C9F800005D
:103C3000D9F8000040F00100C9F80000C5F8008084
:103C40006E604CF25030FEF757FED9F8001021F0AC
:103C50000101C9F800100021217601B0BDE8F08310
:103C600043F60440C4F20200C168B1F1FF3FC4BF93
:103C70000020704740F22311C4F26751016048F6FA
:103C8000AB11CCF6EF510160C068C00F7047000067
:103C90002DE9F04F82B000F13E4241F6004502F1BD
:103CA000FF77C4F2020543F6004B4FEAB72608221D
:103CB000A842C4F2010B08BF0722072E4FF0010EE5
:103CC0004FF000064FF000044FF0000838BF4FEAF5
:103CD000B722009209E000BF08F101080434B8F1EE
:103CE000100F06F1020600F09C800F680EFA08F92A
:103CF00017EA090FF0D0D1F804C04CF01007122FCA
:103D000013D16FF0030202EA5807074404F01C05C0
:103D10000F22D7F820C002FA05F30A692CEA030340
:103D2000AA401A433A62D1F804C002680323B340A0
:103D30006FEA030A9A430CF00303B3401A43BCF141
:103D4000120F026014D80EFA0CF212F0061F0FD0F8
:103D50008268CB6802EA0A02B3401A438260426872
:103D60004FEA1C1322EA090203FA08F31A434260DD
:103D7000C2688B6802EA0A02B3401A435FEACC03C6
:103D8000C260A9D5002243F644030192C4F20203A3
:103D90001A684FF6084C42F480421A601A68CFF64F
:103DA000FF7C02F480420192019A28F003025A44F7
:103DB00052F80C3004F00C070F25BD40AB43009DBA
:103DC00005FA07F73B4342F80C30DBF800204B685C
:103DD00042EA0907DD0358BF22EA0907CBF8007061
:103DE000DBF804209D0342EA090758BF22EA0907CD
:103DF000CBF80470DBF80820DD0242EA090743F63D
:103E00000C4558BF22EA0907CBF80870C4F2010537
:103E10002A689B0242EA090758BF22EA09072F6075
:103E20005AE702B0BDE8F08F0069084018BF0120D2
:103E30007047000042690A408A4208BF0904816154
:103E400070470000002A08BF090481617047000024
:103E500042F20000CEF204000068000C704700003F
:103E600040F66840C2F200000068704747F6102034
:103E7000C1F6FF700068704740F2103040F66841AC
:103E8000C2F20000C2F2000100780A681044086023
:103E90007047000080B543F60040C4F2020001689C
:103EA00041F400710160016841F480610160032008
:103EB00000F06EF80F2000F005F800F02BF800205D
:103EC00080BD0000B0B540F21032C2F2000240F2F4
:103ED00098111278C2F200014FF47A730968B3FBAB
:103EE000F2F20446B1FBF2F1084600F0C7FA0F2CDB
:103EF0004FF001050CD858B94FF0FF302146002291
:103F0000002500F019F840F21430C2F200000460FD
:103F10002846B0BD70470000002848BF704700F039
:103F20001F01012202FA01F14EF200124009CEF205
:103F3000000242F82010704710B54EF60C5CCEF22D
:103F4000000CDCF80030C3F3022E8EF00704042CC2
:103F500028BF0424BEF103034FF0FF3E0EFA04F421
:103F600038BF0023A14399400EFA03F39A4300F0AF
:103F70000F03043B1143634409010C3300F1604219
:103F8000B0F1FF3FC8BF02F56443197010BD0000D7
:103F90004EF60C51CEF200010A684FF6FF031A40AC
:103FA00060F30A2242F0806040F0FD7008607047C4
:103FB0002DE9F041002800F0868043F60808C4F29D
:103FC00002080446D8F8F8030D4600F00F008842B6
:103FD00007D288F8F853D8F8F80300F00F00A84289
:103FE00071D12068810717D5410705D5D8F8001091
:103FF00041F4E051C8F80010010705D5D8F80010C9
:1040000041F46041C8F80010D8F80010A26821F00F
:10401000F0011143C8F80010C0073AD1D8F8F803EE
:1040200000F00F00A84207D988F8F853D8F8F80331
:1040300000F00F00A84246D12068410707D5D8F804
:104040000010E26821F4E0511143C8F800100007A5
:1040500008D5D8F80000216920F4604040EAC1008A
:10406000C8F8000000F04EF8D8F8001049F2567277
:10407000C1F30311C0F60A02515CC84040F2981126
:10408000C2F2000108600F20FFF71CFF0020BDE80E
:10409000F0816068811E022907D258F8081C890146
:1040A0005CBF0120BDE8F08110E0012807D158F87D
:1040B000081C89035CBF0120BDE8F08106E058F8C8
:1040C000081C890702D40120BDE8F081D8F800104F
:1040D00021F003010843C8F80000FFF7C1FE0646BF
:1040E00041F28837D8F80000616800F00C00B0EBAE
:1040F000810F93D0FFF7B4FE801BB842F2D90320A2
:10410000BDE8F08110B543F60404C4F2020460680F
:1041100000F00C0142F200400829C0F2F40007D080
:10412000042918BF10BD41F20020C0F27A0010BD72
:10413000216801F03F02216823684902C3F3881116
:1041400005D4A1FB00010023FDF7AEF806E041F223
:104150000020C0F27A004843B0FBF2F0216802224E
:10416000C1F3014102EB4101B0FBF1F010BD0000D1
:104170002DE9F04182B0E8B30446007843F600062A
:10418000C007C4F2020609D0B06800F00C00042891
:1041900071D13068800301D5606858B320788007FA
:1041A00018D5B06810F00C0F07D0B06800F00C0004
:1041B00008287AD17068400277D43068800702D529
:1041C000E068012816D13068216920F0F80040EA43
:1041D000C10030602078000710D42078400724D434
:1041E000A569002D00F01B81B06800F00C000828C4
:1041F00040F09080012002B0BDE8F08160690028A5
:1042000040F20000C4F2472074D00121C0F8801EA3
:10421000FFF726FE054600BF706F8007DDD4FFF76D
:104220001FFE401B0228F7D9D5E0306C10F08058F3
:104230000AD100200190306C40F080503064306C26
:1042400000F080500190019847F20007C4F2000787
:104250003868C00540D4386840F480703860FFF793
:10426000FFFD05463868C00536D4FFF7F9FD401B51
:104270000228F7D9AFE0B06800F00C00082803D19D
:10428000706840023FF585AF6068B0F5803F07D0A9
:10429000B0F5A02F40F08980306840F48020306075
:1042A000306840F48030306089E0E068002840F2F7
:1042B0000000C4F247204ED001210160FFF7D0FD7D
:1042C000054600BF306880073FF57DAFFFF7C8FDAA
:1042D000401B0228F6D97EE0A068012805D00528F9
:1042E0004AD1306F40F004003067306F40F0010079
:1042F00030674BE00021C0F8801EFFF7B1FD054696
:10430000706F80077FF569AFFFF7AAFD401B022899
:10431000F6D960E00027C4F2472700203866FFF78F
:104320009FFD022D05460BD13068800157D5FFF760
:1043300097FD401B02284FF00300F5D99BE000BF1A
:10434000306880016BD5FFF78BFD401B03284FF0D1
:104350000300F5D38FE000210160FFF781FD0546E2
:10436000306880077FF536AFFFF77AFD401B0228E3
:104370004FF00300F4D97EE0316F002821F00101F5
:104380003167316F21F0040131674CD0FFF768FDD0
:10439000054641F2883700BF306F800753D4FFF7DE
:1043A0005FFD401BB842F7D915E03168002821F4C1
:1043B00080313160316821F4802131604CD0FFF7C9
:1043C0004FFD0546306880033FF5E8AEFFF748FD36
:1043D000401B6428F6D9032002B0BDE8F08104F147
:1043E0001C052FCD084340EA8210D9034FF6FF7217
:1043F0009143A1F5803140EA0560084370600120D7
:104400003866FFF72DFD04463068800107D4FFF7BA
:1044100027FD001B02284FF00300F5D92BE00020F8
:1044200002B0BDE8F081FFF71BFD054641F2883779
:10443000306F800707D5FFF713FD401BB8424FF0E0
:104440000300F5D917E0B8F1000F7FF4C9AE306C66
:1044500020F080503064C3E6FFF702FD054600BF40
:10446000306880037FF59AAEFFF7FAFC401B6428A2
:104470004FF00300F4D902B0BDE8F081411E0020E6
:10448000B0EB116F1CBF012070474EF21002CEF24C
:10449000000251604EF62351CEF20001F0230B7062
:1044A0000721906011607047FEE7000080B5042886
:1044B00016D8DFE800F007161E030300BDE88040B1
:1044C00001F0C4BE40F66540C2F200000078012849
:1044D00018BF80BD40F60440C2F200000121017007
:1044E00080BDFDF785FAFDF7B7FABDE88040FDF71E
:1044F00031BABDE88040FDF717BA00002DE9F0435E
:1045000081B0884640F218490E21C4F2020901EA3E
:10451000D0114FF4807761F05F03C9F800709027E5
:10452000013F00BFFCD14FF0007761F05E01C9F898
:1045300000709027013F00BFFCD14FF08077C9F891
:1045400000709027013F00BFFCD100244FF480761B
:104550004FF080775DB2B5F1FF3F4FF40075C8BFF3
:104560004FF00075C9F80050902500BF013D00BF15
:10457000FCD19025C9F80060013D00BFFCD1902519
:10458000C9F80070013D00BFFCD15B00072C04F1AD
:104590000104DFD34FF40073C9F80030902300BF4B
:1045A000013B00BFFCD14FF48073C9F80030902369
:1045B000013B00BFFCD159F8083C4FF080779B05C8
:1045C000C9F8007000F10F81902300BF013B00BFCC
:1045D000FCD100234FF480764FF0807745B2B5F1DF
:1045E000FF3F4FF40075C8BF4FF00075C9F8005089
:1045F000902500BF013D00BFFCD19025C9F80060A7
:10460000013D00BFFCD19025C9F80070013D00BFFD
:10461000FCD14000072B03F10103DFD34FF40070FE
:10462000C9F80000902000BF013800BFFCD14FF452
:104630008070C9F800009020013800BFFCD159F803
:10464000080C4FF0807380054FF09000C9F80030DF
:1046500000F18E80013800BFFCD14FF48070C9F8A2
:1046600000009020013800BFFCD14FF00070C9F865
:1046700000009020013800BFFCD14FF08070C9F8D5
:1046800000009020013800BFFCD100204FF480735F
:104690004FF080774EB2B6F1FF3F4FF40076C8BFBF
:1046A0004FF00076C9F80060902600BF013E00BFC1
:1046B000FCD19026C9F80030013E00BFFCD1902605
:1046C000C9F80070013E00BFFCD14900072800F185
:1046D0000100DFD34FF40070C9F80000902000BF44
:1046E000013800BFFCD14FF48070C9F80000902061
:1046F000013800BFFCD159F8080C4FF080718005DB
:104700004FF09000C9F8001050D400BF013800BF2E
:10471000FCD1022AA2F101040AD30020002600BF26
:104720004044012101F088FA0136B0B28442F7DC3E
:1047300008EB0400002101F07FFA4FF00070C9F887
:1047400000009020013800BFFCD14FF48070C9F800
:1047500000009020013800BFFCD14FF40070C9F870
:1047600000009020013800BFFCD1002058E000BFBD
:10477000013800BFFCD14FF00070C9F80000902054
:10478000013800BFFCD14FF48070C9F800009020C0
:10479000013800BFFCD14FF40070C9F80000902030
:1047A000013800BFFCD1FB203AE000BF013800BF58
:1047B000FCD14FF00070C9F800009020013800BF14
:1047C000FCD14FF48070C9F800009020013800BF80
:1047D000FCD14FF40070C9F800009020013800BFF0
:1047E000FCD1FB201CE09020013800BFFCD14FF031
:1047F0000070C9F800009020013800BFFCD14FF4D0
:104800008070C9F800009020013800BFFCD14FF43F
:104810000070C9F800009020013800BFFCD1FB20D7
:1048200040B201B0BDE8F083F0B540F218450E2368
:10483000C4F2020503EAD0134FF4807790262F606C
:10484000013E00BFFCD163F05F044FF000732B60AA
:10485000902300BF013B00BFFCD14FF080732B6061
:10486000902300BF013B00BFFCD100234FF4807CAC
:104870004FF0807E66B2B6F1FF3F4FF40076C8BFBE
:104880004FF000762E609026013E00BFFCD19026AE
:10489000C5F800C0013E00BFFCD19026C5F800E07D
:1048A000013E00BFFCD16400072B03F10103E1D3FB
:1048B0004FF400732B609023013B00BFFCD14FF4F9
:1048C00080732B60902300BF013B00BFFCD155F8E3
:1048D000083C4FF080779B052F6000F1EB80902320
:1048E000013B00BFFCD100244FF4807C4FF0807668
:1048F00043B2B3F1FF3F4FF40073C8BF4FF00073F2
:104900002B609023013B00BFFCD19023C5F800C071
:10491000013B00BFFCD190232E6000BF013B00BFD4
:10492000FCD14000072C04F10104E1D34FF40070E6
:1049300028609020013800BFFCD14FF480702860BF
:10494000902000BF013800BFFCD155F8080C4FF093
:10495000807380054FF090002B6000F18F8000BFC6
:10496000013800BFFCD1002A45D04FF0000E4FF4B3
:10497000007C4FF480704FF0807400BF11F80E304F
:10498000002600BF5FB2B7F1FF3F4FF40077C8BF0A
:104990004FF000772F609027013F00BFFCD1902798
:1049A000286000BF013F00BFFCD190272C6000BFF2
:1049B000013F00BFFCD15B00072E06F10106E1D3E9
:1049C0009023C5F800C000BF013B00BFFCD190237D
:1049D000286000BF013B00BFFCD155F8083C2C60AB
:1049E0009B0500F187809023013B00BFFCD10EF1B5
:1049F000010E9645C2D14FF000702860902000BF94
:104A0000013800BFFCD14FF480702860902000BFB7
:104A1000013800BFFCD14FF400702860902000BF27
:104A2000013800BFFCD1002043F6FF71884200F13D
:104A3000010000BFFAD3002043F6FF71884200F165
:104A4000010000BFFAD3002043F6FF71884200F155
:104A5000010000BFFAD3002043F6FF71884200F145
:104A6000010000BFFAD3002043F6FF71884200F135
:104A7000010000BFFAD3002040B2F0BD013800BFF2
:104A8000FCD14FF000702860902000BF013800BFBB
:104A9000FCD14FF480702860902000BF013800BF27
:104AA000FCD14FF400702860902000BF013800BF97
:104AB000FCD11CE0902000BF013800BFFCD14FF0BA
:104AC00000702860902000BF013800BFFCD14FF477
:104AD00080702860902000BF013800BFFCD14FF4E7
:104AE00000702860902000BF013800BFFCD1FB207F
:104AF00040B2F0BD902000BF013800BFFCD14FF0A4
:104B000000702860902000BF013800BFFCD14FF436
:104B100080702860902000BF013800BFFCD14FF4A6
:104B200000702860902000BF013800BFFCD1DEE794
:104B3000FEE7000089B170B54A1E92B249F2E673F1
:104B400049F6E60E01F0030C032AC0F60A03C0F68C
:104B50000A0E06D2FF21FF2228E0FF214FF47F40FA
:104B600048E021F00304FF21FF2200BF10F8045B9E
:104B7000043C69405D5C10F8036C6A4072401EF8AA
:104B800001109D5C10F8026C694071401EF8022013
:104B90005D5C10F8016C6A4072401EF801109D5C6B
:104BA0001EF80220260481EA0501DFD1BCF1000FC6
:104BB0001CD00478BCF1010F84EA0104195D81EA7C
:104BC00002011EF8042011D04478BCF1020F81EAE2
:104BD00004015C5C84EA02041EF80120E1B205D005
:104BE00080784840195C51401EF80020D0B2000285
:104BF000BDE87040084380B2704700002DE9F04FD7
:104C0000CBB040F2CC31C2F2000141F6CF70086067
:104C100040F2585140F28806C2F20001FF20C2F271
:104C200000060860708C4FF200084CF2000B642103
:104C3000C0F6FF78C0F25D0B02F0AAFD0446062024
:104C4000FCF7C0FC41F2ED27784300EA080000259C
:104C500058454FF0010088BF0125FEF75FFF062091
:104C6000FCF7B0FC784300EA080058454FF001001B
:104C700088BF0135FEF752FF0620FCF7A3FC7843FE
:104C800000EA080058454FF0010088BF0135FEF7E3
:104C900045FF0620FCF796FC784300EA08005845DB
:104CA0004FF0010088BF0135FEF738FF0620FCF702
:104CB00089FC784300EA080058454FF0010088BF9E
:104CC0000135FEF72BFF0620FCF77CFC784300EA59
:104CD000080058454FF0010088BF0135FEF71EFF60
:104CE0000620FCF76FFC784300EA080058454FF0B7
:104CF000010088BF0135FEF711FF0620FCF762FCBA
:104D0000784300EA080058454FF0010088BF01359C
:104D1000FEF704FF0620FCF755FC784300EA080084
:104D200058454FF0010088BF0135FEF7F7FE062019
:104D3000FCF748FC784300EA0800584588BF013575
:104D40000120EDB2FEF7EAFE0A2D40F0A980002016
:104D5000A71001F0EFFE00200021002201F004FE68
:104D6000032001F0E7FE40F6883901264FF4803435
:104D700041F69915C2F2000940F28F20214602F057
:104D800057FD28440021002201F0EEFD0520FEF72A
:104D9000C5FED9F80000002848BF4042B84206DCF2
:104DA00001361E2E04F58034E6D11E2000E0B0B29C
:104DB000409000200021002201F0D6FD6420FEF783
:104DC000ADFE01264FF4803441F6991540F28F2054
:104DD000214602F02DFD41190020002201F0C4FD02
:104DE0000520FEF79BFED9F80400002848BF40428A
:104DF000B84207DC01361E2E04F58034E6D14FF0B0
:104E00001E0A01E01FFA86FA00200021002201F0AC
:104E1000ABFD6420FEF782FE01264FF4803441F69C
:104E2000991500BF40F28F20214602F001FD421982
:104E30000020002101F098FD0520FEF76FFED9F853
:104E40000800002848BF4042B84206DC01361E2E4A
:104E500004F58034E6D1012406E06FF01D0010FA5D
:104E600086F0B0FA80F04409002001F063FE0020D3
:104E70000021002201F078FD409840F288061E28AB
:104E8000C2F2000618BFBAF11E0F07D140F6E0309B
:104E9000C2F20000017841F0040115E0002CF5D1C8
:104EA00040F6E032C2F200021178B6F92A0001F0B1
:104EB000FB010028117048BF4042012808D140F290
:104EC000D830C2F20000012101704BB0BDE8F08F74
:104ED000708C642102F05CFC04460620FCF772FB37
:104EE00041F2ED26704300EA0800002558454FF0D6
:104EF000010088BF0125FEF711FE0620FCF762FBCA
:104F0000704300EA080058454FF0010088BF0135A2
:104F1000FEF704FE0620FCF755FB704300EA08008C
:104F200058454FF0010088BF0135FEF7F7FD032D0E
:104F300040F01781002001F0FDFD0020002100223B
:104F400001F012FD032001F0F5FD1E20FEF7E6FD45
:104F50004FF440402146FEF7A1F900202146FEF71C
:104F60009DF906464A904FF480402146FEF796F997
:104F7000054649904FF400402146FEF78FF98246DE
:104F800048904FF440402146FEF788F9814647900B
:104F900000202146FEF782F946904FF4404021461A
:104FA000FEF77CF9804642904FF400402146FEF720
:104FB00075F9834643904FF480402146FEF76EF921
:104FC0000746449000202146FEF768F945900020EE
:104FD0000021002201F0C8FC002001F0ABFDA81B5D
:104FE00040F6CC41419048BF40428842C0F2B9806F
:104FF00041A8FCF749FC44F200044198CFF6FF7445
:10500000012104F50046B0F5004FC8BF4FF0FF3155
:1050100001FB065040F28805C2F20005499049A8FC
:105020006985FCF731FCB5F92A0004F5804400FBE2
:1050300004A00DF5907A48905046FCF725FCB5F990
:105040002A00A0EB800009EB8030479047A8FCF7CE
:105050001BFCB5F92A000DF5887910FB0670449009
:105060004846FCF711FCB5F92A0043AF00FB04B039
:1050700043903846FCF708FCB5F92A0042ACA0EB97
:10508000800008EB803042902046FCF7FDFB45AEE7
:10509000304649463246FCF739FC3046FCF7F4FB13
:1050A000384621463A46FCF731FC3846FCF7ECFB23
:1050B000384631463246FCF729FC3046FCF7E4FB23
:1050C0004AAF384649A93A46FCF720FC3846FCF777
:1050D000DBFB504647A95246FCF718FC5046FCF74C
:1050E000D3FB46A938463A46FCF710FC3846FCF795
:1050F000CBFB384651463A46FCF708FC3846FCF7ED
:10510000C3FB304639463A46FCF700FC3846FCF70C
:10511000BBFB4A9840F6E034B0F5803FA4BF0020C6
:105120004A902885684605F1100140F20012C2F24B
:10513000000451F8043B043A40F8043BF9D195E8E7
:105140000F0000F0C3FB00283FF4B9AE40F2CC30B2
:10515000C2F200000078C00703D0207840F00100C0
:10516000207040F25850C2F200000078400707D586
:1051700040F6F030C2F20000017841F00401017005
:105180004BB0BDE8F08F00002DE9F04381B040F254
:10519000CC38C2F2000840F6654740F6E034D8F853
:1051A0000020C2F20007C2F2000438782178130709
:1051B00015D5A0B10B0715D440F20E36C2F2000689
:1051C000B6F9003001F0F701012BA4BF013B338099
:1051D0009BB2B3FA83F35B0941EAC30101E001F03A
:1051E000F7012170D30615D5A0B1CB0615D440F236
:1051F0000836C2F20006B6F9003001F0EF01012BCB
:10520000A4BF013B33809BB2B3FA83F35B0941EA4D
:10521000031101E001F0EF012170930615D5A0B153
:105220008B0615D440F20A36C2F20006B6F90030F9
:1052300001F0DF01012BA4BF013B33809BB2B3FA25
:1052400083F35B0941EA431101E001F0DF012170C2
:10525000520600D510B901F0BF01217040F2585933
:10526000C2F20009D9F8001040F6F035CA06C2F2C1
:1052700000053BD540F2D832C2F200021278AAB340
:1052800040F28800C2F20000408C04F046F99FED25
:105290009E0B53EC102B04F053F904F00FF964212A
:1052A00002F076FA40F68831C2F20001CB6840F293
:1052B0000041C2F200010A68834209DD013241F275
:1052C000883300209A4284BF012000220A6004E053
:1052D000002A1CBF501E08600020297801F0EF0151
:1052E00041EA0012D9F8001038782A7089060CD5E6
:1052F00058B12978890608D401F0ECF9297801F031
:10530000DF0160F3451138782970E17898F80120C1
:10531000B4F80130920743EA014115D5A0B18807DE
:1053200018D42878800615D501F0D4F9214631F833
:10533000012F8B7842EA034222F0020260F341021D
:10534000100C0A80887005E021F00200090CE17061
:10535000A4F801000620FCF735F941F2ED2148439D
:10536000C0F30F3040F6B931884219D340F6674296
:10537000C2F2000240F254501378C2F20000002141
:105380000170581CC1B26529107033D398F8010020
:10539000400722D534F8010F40F0040020801CE0C3
:1053A00040F2DB5340F66742984240F25450C2F25A
:1053B00000024FF00001C2F20000117013D8017812
:1053C0000131CAB2652A017014D399F80000800730
:1053D00003D5287840F00200287040F68830C2F2E9
:1053E0000000002105E0017040F68830C2F20000A4
:1053F0000121818799F80000400763D540F25C5095
:10540000C2F20000D0E9006740F6F834F01BC2F2A7
:10541000000420602046FCF7F1F92878010746D403
:1054200040F2D011C2F20001002E48BF7642096856
:105430008E4215DA40F64842C2F20002002321688B
:10544000138040F2D412C2F20002002948BF494240
:10545000126891424BDD40F64A41C2F2000119E068
:10546000002F48BF7F428F4221DA40F64A42C2F203
:10547000000200232168138040F2D412C2F200021D
:10548000002948BF49421268914236DD40F6484142
:10549000C2F200010A88531C652A0B8012D399F8C6
:1054A0000010090744BF40F0080028700AE040F6E9
:1054B0004840C2F200000021018040F64A40C2F29A
:1054C0000000018040F62C40C2F20000406918B193
:1054D000287800F07F0006E099F80000000603D568
:1054E000287860F07F00287001B0BDE8F08340F6B6
:1054F0004A40C2F200000021E3E740F64840C2F211
:1055000000000021DDE700BF333333333333F33F93
:1055100010B51070EFF3108372B60B68496840F253
:10552000800E40F6E034C2F2000EC2F20004CEE972
:10553000003162B6216811B1052151700DE040F6CD
:105540004C41C2F20001098800294FF00401F4D156
:10555000BEF80430002B08BF5170411E40F2084CC9
:105560000229C2F2000C13D25078062814D8DFE8C2
:1055700000F0041813132932490040F62C40C2F2FF
:1055800000004069002800F09F809EF80000B9E00C
:10559000032804BF04205070BEF80200ACF80000DD
:1055A00010BDBCF80000BEF80210884240F2044072
:1055B000C2F2000034D10178012931D1917801295A
:1055C00057D05FE0BEF800000021072891705CD33F
:1055D0000520507071E0BCF80000BEF802100323F3
:1055E0008842937007D0206828B940F20440C2F284
:1055F00000000078507040F20440C2F20000052123
:105600000170C9E7BEF806004FF6FF71884267D007
:1056100001286DD1012090704FF40040906069E046
:10562000BEF806300121917000210A2B1C46116141
:1056300098BF0A24B3F5AF7F88BF4FF4AF745460AE
:10564000B4F5AF7F08BF4FF0FF310A2C08BF01212E
:1056500040F62C43BEF80040C2F20003996124F0EA
:105660000103611E022B08BF0424042988BF0524FE
:105670005470116942F20F739942C7BF02219170B1
:10568000013111610121017086E740F64C41C2F2FF
:105690000001098889B9BEF8041071B1BEF806107E
:1056A000431E002918BF0121052B92D3831FB3FA93
:1056B00083F35B09194018BF507040F20440C2F2F6
:1056C00000000421017067E740F20640C2F20000CA
:1056D000018842F20F73994213D80131018012E020
:1056E0000120907048F20000CFF6FF70906001E05A
:1056F0000420507040F20440C2F200000621017004
:105700004AE70420507040F20440C2F20000002139
:10571000017041E7B0B5044640F28800C2F20000D3
:10572000008C4FF48031B1FBF0F040F20C45C2F236
:1057300000052860FDF70CFE2062FDF709FE2968D0
:1057400090FBF1F202FB110002F022F8A061B0BD63
:10575000F0B581B004460720FBF734FF0646082069
:10576000FBF730FF07460920FBF72CFF054630B258
:10577000A0F500604FF4006102F00AF840F28806DC
:10578000C2F20006316B02F053F8206038B2A0F587
:1057900000604FF4006101F0FBFF316B02F048F84C
:1057A000606028B2A0F500604FF4006101F0F0FFE6
:1057B000316B02F03DF8A0600020FBF703FF00B260
:1057C000206301B0F0BD000040F68830C2F2000056
:1057D0004FF6FF71C18770472DE9F0410D46044631
:1057E000FDF7B6FD40F21047C2F2000740F6004850
:1057F0003968C2F20008C8F80000401A10F5004FDE
:10580000B8BF00F5803040F21841B0F5004FC8BF76
:10581000A0F58030C2F2000108606843C0EB0010C0
:1058200040F6FC368200C2F20006326048BF5242A7
:1058300020694FF2333140F6CC45B2F17A7FC8BFD0
:105840004EF26661C8BF41F6991501F0F1FF32686A
:1058500000210646C0F6B831104601F099FF2946EE
:1058600001F0E6FFD8F80010304420613960BDE84F
:10587000F081000010B50446FCF7B6FCFCF7DAFB3B
:1058800040F62C40C2F200008068E06110BD0000CC
:1058900040F2144C036BC2F2000CBCF8002040F242
:1058A00033318B4208DB91084A2999BF501CACF870
:1058B0000000012141877047002A19BF501EACF833
:1058C00000000021418770477047000084B010B588
:1058D0000DF1080C8CE8070080B20128059315D162
:1058E00002AC6088B0F5887F12D1A088022811D15F
:1058F00020464FF48771FFF71DF9A4F80E01002030
:1059000021464FF48872FCF761FF04E0012002E0B9
:10591000012000E00120BDE8104004B07047000005
:105920002DE9F041C0B040F6DA36C2F20006308808
:1059300040F2043840F28804C0F202180128C2F292
:10594000000452D140F28045C2F20005698840F25D
:105950008847C2F200077980A98828880129388001
:10596000B98009D0B1BB4F2838D9A0F57A71372951
:1059700027D94FF0FF3035E040F2B811C2F20001F4
:10598000497801F0FE0104292DD1A0F10C01402934
:1059900062D2E169414540F0B380E98804EB400000
:1059A000A0F87010ACE051F8043B043A40F8043B16
:1059B000F9D194E80F00FFF789FF2888B0F57A7FC6
:1059C0000CD34FF6184104EB4000CFF6FF7130F8CE
:1059D000110007E04FF0FF30388004E004EB400096
:1059E000B0F87000F88002203080E069404530D186
:1059F00040F23C55C2F20005286842F2C071013005
:105A0000C0F209018842286023D341F2A160C0F2AC
:105A10000300E061684604F1100140F2001251F801
:105A2000043B043A40F8043BF9D194E80F00FFF737
:105A30004DFF40F28040C2F20000008840F28841F1
:105A400004EB4000B0F87000C2F20001C8800020F2
:105A5000286040B0BDE8F0814E2800F26080DFE8A9
:105A600010F055006D007100750084004F00880033
:105A70009200CE00A1004F004F004F004F004F009A
:105A80004F004F004F004F004F004F004F004F009E
:105A90004F004F004F004F004F004F004F004F008E
:105AA0004F004F004F004F004F004F004F004F007E
:105AB0004F004F004F004F004F004F004F004F006E
:105AC0004F004F004F004F004F004F004F004F005E
:105AD0004F004F004F004F004F004F004F004F004E
:105AE0004F004F004F004F004F004F004F004F003E
:105AF0004F004F004F004F004F00AD00B700C100F6
:105B0000684604F1100140F200124CE7E88841F6C3
:105B10009661884238BF0146A4F87010F0E740F261
:105B2000F631884277D040F2F7318842E8D1E888F0
:105B300040F25051C2F20001488072E0E888A4F8B7
:105B40007200DDE7E888A4F87400D9E7E069404511
:105B5000D6D1E88842F228311E2898BF1E208842FC
:105B600028BF0846A4F87600CAE7E888A4F87800B9
:105B7000C6E7E888142898BF1420632828BF63204C
:105B8000A4F87C00BCE7E0694045B9D1E8880A2860
:105B900098BF0A20B0F5167F28BF4FF41670A4F8FE
:105BA0007E00ADE7E8880A2898BF0A20B0F5167F86
:105BB00028BF4FF41670A4F88200A1E7E0694045C1
:105BC0009ED1E888002808BF0120A4F8080197E7C3
:105BD000E069404594D1E888002808BF0120A4F876
:105BE0000A018DE7E06940457FF48AAFE88841F219
:105BF0008831884288BF0146A4F80C1180E7E88804
:105C000042F21071322898BF3220884228BF0846DD
:105C1000A4F8800074E7E88840F25051C2F2000115
:105C2000088008680021E06140F23C50C2F20000A8
:105C3000016065E770470000B0B540F218420023EC
:105C4000C4F2020203704FF400731360902300BF8C
:105C5000013B00BFFCD14FF080731360902300BF65
:105C6000013B00BFFCD100234FF4807C4FF0807ECD
:105C70000478640004709024C2F800C0013C00BFA6
:105C8000FCD152F8084C0578C4F340242C4304702E
:105C90009024C2F800E000BF013C00BFFCD1072BFC
:105CA00003F10103E4D339B14FF00070106090208C
:105CB000013800BFFCD106E04FF400701060902066
:105CC000013800BFFCD14FF480701060902000BFFD
:105CD000013800BFFCD14FF080701060902000BFF1
:105CE000013800BFFCD14FF000701060902000BF61
:105CF000013800BFFCD14FF400701060902000BF4D
:105D0000013800BFFCD1B0BD2DE9F04F87B0009045
:105D1000002043F6300A0190C4F2020ADAF81400B7
:105D200040F2004540F01000CAF81400DAF8140000
:105D3000002100F010000190019802264020C4F2DA
:105D400002050DF1040B46F2884741F20C04CDE93F
:105D5000026101904FF0070828465946C4F2020735
:105D6000C4F201040496CDF81480FDF791FF4FF0C2
:105D7000010980200296CDE90396019028465946F4
:105D8000CDF81480FDF784FF4FF4805005F5806551
:105D9000CDE902990190284659460496FDF778FF0F
:105DA00028464FF480510022FEF74CF80020206076
:105DB00040F29810C2F20000006800994008B0FB61
:105DC000F1F04FF6FF7180B244F8040C2068002215
:105DD00088432060606847F66F7188436060A06800
:105DE00040F6FF718843A0602068002140F05C000D
:105DF0002060A06840F0C000A060206840F400501F
:105E000020602520FEF798F82520FEF785F8002170
:105E10000691DAF8000040F48000CAF80000DAF8D1
:105E2000000000F48000069006980691DAF8000061
:105E3000002140F48000CAF80000DAF8000000F405
:105E4000800006900698396057F87C0C40F47C601E
:105E500047F87C0C3868C0071FBF38685FEAC0701D
:105E600038685FEAC07002D03868C007F2D140F2EB
:105E70005445C0F6010505F1B000386040F2876076
:105E8000C2F20000F860083CFF20BC60786080200F
:105E900078613868062140F0010038604420002213
:105EA0000026FEF749F84420FEF736F83E6357F81F
:105EB0007C0C40F07C6047F87C0C386BC00709D044
:105EC000386BC0071CBF386B5FEAC07002D0386BFC
:105ED000C007F2D140F68810C2F200003D63F863BB
:105EE0000020BC637863802078644620062100226D
:105EF000FEF722F84620FEF70FF8002007B0BDE8B5
:105F0000F08F0000B0B540F66444C2F2000421787E
:105F100040F68810C2F200000222027021BB40F657
:105F2000000046F2B845C4F202004FF4805101224D
:105F3000C4F20205FDF786FF286820F00100286002
:105F40002868C0071FBF28685FEAC07028685FEA3A
:105F5000C07002D02868C007F2D1012068602968AB
:105F600041F001012960207000202070B0BD0000C8
:105F700070470000B0B540F2E044C2F20004D4E93A
:105F800001154DF6B250A56101F052FCA26900EB7B
:105F900065030321981AE361002BC8BF0221002882
:105FA000C8BF0139002A48BFC1F10701A1840139E6
:105FB000042920620FD8DFE801F003090E0309006D
:105FC000111AC4E903311A46184608E01844C4E916
:105FD0000302114603E041421A44C4E9030152425C
:105FE0006261BDE8B04000F0BFBC00002DE9F041A7
:105FF000C0B040F2B04140F21852C2F20001C2F209
:1060000000024888138840F21A589842C2F20008E9
:106010001DD00B881080022B12D0012B17D18A883B
:1060200040F6DE33013AC2F20003B2FA82F21F8870
:106030005209012FA8F8002004BF02271F8008E0A2
:106040008A88012A14BF00220122A8F80220B8F889
:10605000002040F20855C2F200059AB1098840F2CA
:106060001456C2F200062980318840F64C42C2F232
:1060700000020123632913806880AB801CD8481C70
:10608000308044E040F64C41C2F20001002008801C
:1060900040F2145140F2D832C2F20001C2F20002C2
:1060A0001278088040F21651C2F20001002A0880DE
:1060B00008BF0220A8802AE040F28803C2F2000351
:1060C00000205885684603F1100140F2001251F893
:1060D000047B043A40F8047BF9D10FCBFFF7F6FBC1
:1060E00058B140F21650C2F200000188022907D8C8
:1060F000013101800020308009E000F075F906E0F0
:106100000221A9800021A8F8001031800180B8F890
:106110000200F0B140F21250C2F20000018842F2D7
:10612000117301318AB29A424FF00102AA800180B4
:1061300021D340F6DE30C2F2000002880221012A9B
:10614000A98008BF01800020A8F8020040B0BDE887
:10615000F08140F6DE30C2F2000040F212510288B7
:10616000C2F200010023012A0B8004BF022101803A
:1061700040B0BDE8F08140F2880640F68837C2F2B0
:106180000006C2F20007B6F85400FC68642101F072
:10619000FFFA84422CDD40F21050C2F20000018868
:1061A00001318AB2B2F57A7F0180E1D9B969012063
:1061B000F085B185684606F1100140F2001251F8F1
:1061C000043B043A40F8043BF9D196E80F00FFF78E
:1061D0007DFBB0B140F21650C2F2000001880229E6
:1061E00029D80131018040F21450C2F2000003E0CE
:1061F00040F21050C2F200000021018040B0BDE822
:10620000F08140F6DE31C2F200010A880020012A46
:10621000A88004BF02220A8040F21451C2F2000199
:10622000088040F21651C2F20001A8F8020008806E
:1062300040B0BDE8F081022140F21452A980002153
:10624000C2F20002A8F800101180D6E740F2CC306C
:10625000C2F200004078000758BF704740F6E030B7
:10626000C2F2000030F8011F41F0080101807047C0
:1062700040F2CC30C2F200000078800758BF70476F
:1062800040F6E030C2F20000017841F002010170F6
:106290007047000040F2CC30C2F200000078C00726
:1062A00008BF704740F6E030C2F20000017841F0CC
:1062B0000101017070470000F0B581B00546084645
:1062C0000C4601F0BBFA0646204601F021FA0446CE
:1062D0002846214601F0ACFA07462846314601F02F
:1062E000A7FA3F1A2846314601F0A2FA0646284688
:1062F000214601F09DFA40F2E0413044C2F2000133
:10630000C1E9017001B0BDE8F040FFF733BE000005
:10631000F0B581B044F20004C0F6000440F27856B3
:106320002188C2F200060320307021F0010040F203
:10633000DA31C2F20001088020460122FCF75AFF40
:1063400040F28457C2F20007387088B1307878B1D3
:1063500040F2DA35C2F20005013830702046294695
:106360000122FCF747FF387010B130780028F3D1D4
:1063700001B0F0BDF0B581B044F2000440F27856AF
:10638000C0F60004C2F2000603203070208840F2FC
:10639000DA31C2F20001420708805CBF01B0F0BDF3
:1063A00020F00400088020460122FCF723FF40F281
:1063B0008457C2F20007387088B1307878B140F263
:1063C000DA35C2F200050138307020462946012234
:1063D000FCF710FF387010B130780028F3D1EFF3DC
:1063E000108072B600F04CFFEFF3108072B600F030
:1063F00047FF000070B5D0E9001204460069891A11
:10640000E16101F015FAA268D4E9093108449A4221
:1064100020620ED00028024648BF424200290B46A7
:1064200048BF4B429A4204DB08464FF6705101F0D8
:10643000FFF920622268D4E90C51A66BA0621046D5
:1064400001F0F6F96168411A304601F0F1F90146B0
:10645000284601F0EDF9626CD4E90F13821A9818FE
:10646000C4E9112001F0E4F92064D4E90712A36C17
:10647000E0681144194401F0DBF961696062884207
:1064800004DCA1698842B8BF08460146A16070BD1E
:10649000F0B581B0002440F28805C0F60A04C2F2CB
:1064A00000052268E86840F27856C2F2000603212F
:1064B000824231706A611BD0294641F8140F204690
:1064C0000122FCF7C1FE40F28457C2F20007387087
:1064D00070B1307860B114350138307020462946EB
:1064E0000122FCF7B1FE387010B130780028F3D1EA
:1064F00001B0F0BDF0B581B0002440F28805C0F6CF
:106500000404C2F200052268E86840F27856C2F23C
:1065100000060321824231702A611BD0294641F8CE
:10652000100F20460122FCF78FFE40F28457C2F282
:106530000007387070B1307860B1103501383070B4
:10654000204629460122FCF77FFE387010B13078D2
:106550000028F3D101B0F0BDFDF78EBC4EF6885097
:10656000CEF2000001684FF0000C41F470010160B0
:1065700043F60001C4F202010A6842F001020A6017
:10658000C1F808C00B684FF6FF72CFF6F6621A40EA
:106590000A6043F21002C2F200424A600A6822F422
:1065A00080220A60C1F80CC04FF0006140F8801CE6
:1065B0007047000010B54EF280201024CEF200008B
:1065C0004FF08051C4F2000401602068C00708D079
:1065D00040F65C40C2F2000001680131016000F049
:1065E0003FF90020206010BD10B54EF2802040F22F
:1065F0001044CEF200004FF00051C4F200040160DC
:106600002068C00710D040F22050C2F2000001689C
:106610004CF6CD420131CCF6CC424A43B2F1333F85
:10662000016098BFFFF76EFC0020206010BD0000E5
:106630004EF2842140F61040CEF200014FF4802249
:10664000C4F200000A600168C9070CD040F660413E
:10665000C2F200010A6801320A6040F66641C2F2E5
:10666000000101220A7000210160704710B582B05C
:10667000002143F640020191C4F20202136840F285
:10668000004443F0020313601268C4F2000402F0F5
:1066900002020192019A20222160626040F640527B
:1066A000C0F20302B2FBF0F0616240F2A3110138C4
:1066B000A162E0620120E0601D2004210022FDF7BC
:1066C0003BFC1D20FDF728FC206840F00100206005
:1066D00002B010BD10B50220FAF774FFB0F58B7F41
:1066E00007D840F23851C2F20001002200200A808F
:1066F00010BD40F62C7188426CD849F2667C0022AD
:10670000C0F60A0C0CEB8203B3F9061081422BDCB5
:10671000B3F90A1081422ADCB3F90E10814229DC58
:10672000B3F91210814228DCB3F91610814227DC3C
:10673000B3F91A10814226DCB3F91E10814225DC20
:10674000B3F92210814224DCB3F92610814223DC04
:10675000B3F92A10814222DCB3F92E10814221DCE8
:106760000B32212ACED1BCE78BB201321CE08BB2B6
:10677000023219E08BB2033216E08BB2043213E01E
:106780008BB2053210E08BB206320DE08BB20732CD
:106790000AE08BB2083207E08BB2093204E08BB218
:1067A0000A3201E08BB20B3219B20CEB82033CF8D7
:1067B000224033F9022C081A891A00F0E9FF014639
:1067C0004FF4FA7001F034F8201A00B2B0F5FA5F15
:1067D0007FF787AF40F23851C2F200010888421CAF
:1067E00093B20020B3F5FA6F84BF012000220A8023
:1067F00010BD000040F65C40C2F200000068704727
:1068000010B582B0002143F640020191C4F20202A9
:1068100013684FF0804443F001031360126802F0E4
:1068200001020192019A4BF60052C0F20152B2FBF2
:10683000F0F00C22C4F2000221609161D16110627B
:10684000012010601C2002210022FDF775FB1C2096
:10685000FDF762FB206840F00100206002B010BD2F
:1068600080B5FFF7C7FF4CF6CD41CCF6CC41A0FB7D
:106870000112D10801EB8101A0EB4100092834D8B5
:10688000DFE800F0050E1B27382F3333333440F692
:106890000440C2F200000078BDE88040FDF706BE6B
:1068A00040F2904140F2B812C2F20001C2F200027E
:1068B0000120BDE88040FEF72BBE40F66540C2F2E5
:1068C00000000078012818BF80BDBDE88040FFF7B8
:1068D0008DBB40F68830C2F20000BDE88040FEF774
:1068E000D7BFBDE88040FFF71BB880BDBDE8804042
:1068F000FEF74ABCBDE88040FCF79EBB40F6604016
:10690000C2F200000068704710B582B0002143F663
:1069100040020191C4F20202136840F6004443F0C1
:10692000080313601268C4F2000402F00802019226
:10693000019A4BF60052C0F20152B2FBF0F0216016
:106940006162A162E0620120E06032200321002246
:10695000FDF7F2FA3220FDF7DFFA206840F001007F
:10696000206002B010BD0000F0B581B048F2000315
:1069700010F5004FCFF6FF73D8BF1846B0F5004FA3
:106980004FF40044A8BF204611F5004F40F22C07F9
:10699000D8BF1946B1F5004FC4F20107A8BF214680
:1069A00012F5004FC8BF134600F5004601F500453B
:1069B000B3F5004FA8BF23463968304603F50044BD
:1069C00000F02EFF3A68396890420BD8304600F04C
:1069D00027FF002805D43968304600F021FF014622
:1069E00000E0002139613968284600F019FF3A6853
:1069F000396890420BD8284600F012FF002805D4D1
:106A00003968284600F00CFF014600E00021F960DB
:106A10003968204600F004FF3A68396890420BD884
:106A2000204600F0FDFE002805D43968204600F01D
:106A3000F7FE014600E00021B96001B0F0BD0000A2
:106A40002DE9F04786B0002443F630010194C4F2EA
:106A500002014A69804642F001024A614A69002601
:106A600002F001020192019A01940A684FF0010AB2
:106A700042F001020A600A68C4F2010602F0010253
:106A80000192019A01940A6806F5803542F00202EB
:106A90000A6009680DF1040901F0020001900198F3
:106AA00002200290CDE903A04FF4706001902846C7
:106AB0004946CDF814A0FDF7EBF84FF4604006F519
:106AC0008237019038464946FDF7E2F828464FF4F0
:106AD00070610022FDF7B6F938464FF4604100229C
