:02000004080AE8
:101000008812002069120A08615A0A08B9450A08BC
:10101000414C0A084D190A0861740A0800000000D2
:1010200000000000000000000000000005630A0846
:10103000B5260A0800000000CD5D0A0841680A08CC
:1010400083120A0883120A0883120A0883120A0804
:1010500083120A0883120A0883120A0883120A08F4
:1010600083120A0883120A0883120A0883120A08E4
:1010700083120A08E1230A0883120A0819240A08BD
:101080002D240A086D240A0825160A0883120A0866
:1010900051190A0883120A0883120A0883120A08DF
:1010A00083120A0883120A0883120A0883120A08A4
:1010B0009D680A08D1680A0883120A0883120A0880
:1010C00083120A0883120A0883120A0883120A0884
:1010D00083120A0831700A088D710A0883120A08FF
:1010E00083120A0883120A0883120A0883120A0864
:1010F00083120A0883120A0883120A0883120A0854
:1011000083120A0883120A0819690A0883120A0856
:10111000496F0A0883120A0883120A0883120A0810
:1011200081240A0883120A0883120A0883120A0813
:1011300083120A08000000000000000083120A0861
:1011400083120A0883120A0883120A0883120A0803
:1011500095240A0883120A08C1240A0883120A087F
:1011600083120A0883120A0883120A0883120A08E3
:1011700083120A0883120A08000000000000000021
:1011800083120A0883120A0800F002F800F05CF8E3
:101190000AA090E8000C82448344AAF10107DA45D2
:1011A00001D100F051F8AFF2090EBAE80F0013F0C8
:1011B000010F18BFFB1A43F0010318475C750000CC
:1011C0007C7500000A444FF0000C10F8013B13F04E
:1011D000070408BF10F8014B1D1108BF10F8015B90
:1011E000641E05D010F8016B641E01F8016BF9D183
:1011F00013F0080F1EBF10F8014BAD1C0C1B09D1DA
:101200006D1E58BF01F801CBFAD505E014F8016B4B
:1012100001F8016B6D1EF9D59142D6D370470000DD
:101220000023002400250026103A28BF78C1FBD8EF
:10123000520728BF30C148BF0B6070471FB507F089
:101240000FF91FBD10B510BD00F020F91146FFF7D2
:10125000F5FF06F033F900F03EF903B4FFF7F2FFB3
:1012600003BC00F045F900000948804709480047E1
:10127000FEE7FEE7FEE7FEE7FEE7FEE7FEE7FEE746
:10128000FEE7FEE704480549054A064B70470000A3
:1012900045680A0889110A08880C00208812002075
:1012A000880E0020880E002053EA020C00F06980AE
:1012B0002DE9F04B4FF00006002B1FBFB3FA83F56A
:1012C00003FA05F424FA05F65E4012BF1643B2FA9B
:1012D00082F502FA05F4C5F120051EBF22FA05FCCD
:1012E00044EA0C04203556EA044C4FEA144418BF73
:1012F000641C4FF000084FF00009904271EB030CA2
:1013000039D3002919BFB1FA81F701FA07F6B0FA0B
:1013100080F700FA07F6C7F120071EBF20FA07FC86
:1013200046EA0C062037B6FBF4FCA7EB0507103F96
:1013300007F01F0BCBF120062CFA06F60CFA0BFB7C
:1013400044BFB3460026202FA4BF5E464FF0000BDB
:101350005BEA060C08BF4FF0010B19EB0B0948EBD9
:101360000608ABFB027C06FB02CC0BFB03CCC01BCC
:1013700071EB0C01C1E70B46024641464846BDE809
:10138000F08B13B5084318BF4FF0FF300146AFF3A1
:101390000080BDE81C407047032A40F2308010F006
:1013A000030C00F0158011F8013BBCF1020F624400
:1013B00098BF11F801CB00F8013B38BF11F8013B91
:1013C000A2F1040298BF00F801CB38BF00F8013B3E
:1013D00011F0030300F02580083AC0F0088051F8AE
:1013E000043B083A51F804CBA0E80810F5E7121DB9
:1013F0005CBF51F8043B40F8043BAFF30080D207D8
:1014000024BF11F8013B11F801CB48BF11F8012BA3
:1014100024BF00F8013B00F801CB48BF00F8012BC6
:10142000704710B5203AC0F00B80B1E81850A0E822
:101430001850B1E81850A0E81850203ABFF4F5AFA2
:101440005FEA027C24BFB1E81850A0E8185044BFFE
:1014500018C918C0BDE810405FEA827C24BF51F86B
:10146000043B40F8043B08BF7047D20728BF31F85F
:10147000023B48BF11F8012B28BF20F8023B48BFB0
:1014800000F8012B7047704770477047754600F0B1
:101490002BF8AE4605006946534620F00700854606
:1014A00018B020B5FFF7EEFEBDE820404FF0000673
:1014B0004FF000074FF000084FF0000BAC46ACE8CF
:1014C000C009ACE8C009ACE8C009ACE8C00921F02B
:1014D00007018D46704710B50446AFF300802046E3
:1014E000BDE81040FFF7B9BE004870472003002058
:1014F00001491820ABBEFEE726000200704700003D
:10150000B0B540F28034C2F2000420684CF6CD45FC
:101510000130CCF6CC4500FB05F1B1F1333F206042
:1015200008D840F6A830C2F200004FF47A6104F007
:10153000B5F9206800FB05F101F13331B1F1333F1A
:1015400008D240F6A830C2F200004FF47A6104F0ED
:1015500007FA2068684300F1993046F266614FEA65
:10156000F000C0F26661884212D840F6A830C2F29C
:1015700000004FF4FA7104F033FA40F65040C2F222
:101580000000017940F2D030C2F2000001F0DEF933
:1015900040F6A830C2F2000044F6206104F09CF945
:1015A00040F2F030C2F200000078012818BFB0BD50
:1015B00040F68140C2F20000007801280BD140F6CD
:1015C000A83040F2BC11C2F20000C2F20001BDE836
:1015D000B04001F079BAB0BD062807D840F6EC312A
:1015E000C2F2000131F8100080B2704709280BD018
:1015F000082810D0072811BF002042F23C00C4F296
:101600000100006880B2704742F23C00C4F2010061
:10161000806880B2704742F23C00C4F2010040682A
:1016200080B2704742F20000C4F20100016821F06C
:1016300004010160FFF764BF2DE9F04387B040F279
:1016400000070320C2F200070390386802AC0025AF
:1016500002264FF00108214604950596CDF8088032
:1016600002F09EFB78684FF010092146CDF80890F3
:1016700002F096FBB8682146CDF8088002F090FB96
:10168000F8682146029602F08BFB0421386902912A
:10169000214602F085FB082178690291214602F07B
:1016A0007FFBB8692146CDF8089002F079FBF86914
:1016B0002146029602F074FB2021386A02912146ED
:1016C00002F06EFB786A2146CDF8088002F068FBD4
:1016D00043F630000195C4F20200416942F234043D
:1016E00041F4807141614169C4F2010401F48071E7
:1016F0000191019949F24921C0F2241144F8281CB2
:1017000001F1006144F8241C0295016846F210467C
:1017100041F4800101600168C4F2020601F4800115
:101720000291029954F82C1C002221F0010144F886
:101730002C1C4FF4C07144F8301C40F20031C6F646
:10174000100144F82C1C0521C4F8D0124FF4C0013C
:1017500044F8205C44F8081C44F8045C25602168C7
:101760002160216841F080012160216841F420510D
:101770002160216841F4B0212160216841F44001D9
:101780002160216841F0D051216054F8041C41F0DF
:101790000E0144F8041C43F62051C0F2240161609C
:1017A0000295016841F4800101600068052100F4A0
:1017B00080000290029842F61050C0F2010035609D
:1017C000306040F6EC30C2F20000F06004F1180026
:1017D000B060072070603820756102F035FC382059
:1017E00002F022FC3068012140F00100306012203C
:1017F000002202F029FC122002F016FC54F82C0CF6
:1018000040F0010044F82C0C07B0BDE8F083000064
:1018100010B5016848F20004B1F5004FCFF6FE7430
:1018200020DD0B46B1F5C03FA8BF4FF4C033A1EB9C
:10183000030C4FF6FF730CEB030E4FEA1E4C6323B1
:1018400004F50042BCF1630F38BF4FEA1E4303FBAF
:1018500002110122A1F5803152FA83F30160632B5A
:1018600003D910BD0023632BFBD804F580329142CD
:10187000A8BF10BDA142C8BF0C46621A4FF6FF7444
:101880002244C3F16303B3EB124F88BF130C01EB87
:10189000034101F58031016010BD000010B5016801
:1018A0000024B1F1011FCFF6FF741EDB0B46B1F52A
:1018B000003FA8BF4FF40033A1EB030C4FF6FF73BA
:1018C0000CEB030E4FEA1E4C6323BCF1630F38BFD1
:1018D0004FEA1E4303FB04110122A1F5803152FAA5
:1018E00083F30160632B03D910BD0023632BFBD866
:1018F000B1F1FF3FC8BF10BDA142C8BF0C46621A7C
:101900004FF6FF742244C3F16303B3EB124F88BF59
:10191000130C01EB034101F58031016010BD0000A3
:1019200000680968431A084448BF5B42B3F5004F9A
:10193000C8BFA0F5803040101060704704F05CFE16
:10194000EFF3108072B605F08DFD0000FEE7000099
:1019500080B540F29430C2F2000001F03BFFBDE8D8
:10196000804000F059BA0000B0B546F20045C4F21C
:101970000005A86900F00700072818BFB0BD40F2B5
:101980009C10C2F200000078400621D540F61442B7
:10199000C2F20002107840F0400340F60440C2F268
:1019A0000000B0F8011040F66C40C2F20000C90619
:1019B0000168137040F278025CBF01310160C2F22D
:1019C00000025278D20603D5062924BF0021016007
:1019D00040F29434C2F200042046012101F048FD97
:1019E0002046022101F044FD2046042101F040FD83
:1019F000286840F400402860286820F00300286030
:101A0000B0BD000040F2BC10C2F2000040F2B04194
:101A10004278C2F2000180780A8040F2A84240F683
:101A2000A83CC2F20002C2F2000C5288BCF81C3082
:101A3000C88040F2B840C2F200004A808B804088E3
:101A400040F2C041C2F20001088040F29450C2F25C
:101A50000000027880784A80BCF840208880CA80E4
:101A600040F6044040F61441C2F20000C2F2000108
:101A70000068096840F28042C2F20002C2E9000137
:101A800040F25840DCE90321C2F200004180110914
:101A9000BCF8382003808180C280704780B540F256
:101AA0009031C2F2000108684CF6CD420130CCF60C
:101AB000CC42A0FB02230860D90801EB8101A0EB16
:101AC000410240F25C51C2F20001BAB1022A2BD1AC
:101AD00040F6664040F2C04EC2F20000C2F2000E74
:101AE0000388BEF8002040F6644C9342C2F2000C1A
:101AF0003AD1BCF80030002B3AD13FE040F66240CA
:101B000040F2B04EC2F20000C2F2000E0388BEF8EE
:101B1000022040F6604C9342C2F2000C38D1BCF86F
:101B20000030002B38D13DE048F21F52C5F2EB12D5
:101B3000A0FB02235A0964235A43D24310440828C5
:101B400042D8DFE800F005415D41694175418100FF
:101B500040F28042C2F200024FF444700823D2E9FE
:101B6000002E08604B6026E00A23ACF800300280AB
:101B70000120AEF80200581EACF8000040F206301A
:101B80004FF0080CDEE9002E0860C1F804C012E036
:101B90000A23ACF8003002800120AEF80600581E7F
:101BA000ACF800004FF440704FF0080CDEE9002E56
:101BB0000860C1F804C041F8082F0822C1F804E009
:101BC000BDE8804000F0FAB940F60240C2F20000E1
:101BD0000288022A44D1002240F22853028040F2B7
:101BE00001300822C2F20003C1E900021A68D3F8EA
:101BF00004E040F2E043C2F20003C3E9002EDAE75A
:101C000040F2E842C2F2000240F211300823D2E969
:101C1000002E08604B60CEE740F25842C2F200024C
:101C200040F212300823D2E9002E08604B60C2E770
:101C300040F26042C2F2000240F213300823D2E9BF
:101C4000002E08604B60B6E740F26842C2F2000224
:101C5000D2E9002E4FF44570082308604B60AAE7D4
:101C600040F6FA30C2F200000288022A13D10022A4
:101C7000028040F202300822C1E9000240F27042C4
:101C8000C2F20002D2E9002E40F27843C2F2000311
:101C9000C3E9002E8FE740F6FE30C2F20000028852
:101CA000022A0DD10022028008224A6040F2A0429E
:101CB000C2F2000240F20330D2E9002E08607AE757
:101CC00040F6FC30C2F200000288012A13D1002243
:101CD00002804FF441700822C1E9000240F28842BC
:101CE000C2F20002D2E9002E40F29043C2F2000399
:101CF000C3E9002E5FE740F60040C2F20000028810
:101D0000012A18BF80BD40F2C842C2F20002138807
:101D1000092B9CBF0A2313800023038040F2053067
:101D20000823C1E90003D2E9002E40F2D043C2F2F9
:101D30000003C3E9002E3EE780B58AB0014640F2B9
:101D4000943046F20042C2F20000C4F2000240F2B7
:101D5000280C02604FF08072C2F2000C8261BCF865
:101D6000002000238A428383836011D0BCF81420B2
:101D70008A4201D101230BE0BCF828208A4201D11C
:101D8000022305E0BCF83C2004238A4208BF032359
:101D900003EB83010CEB810101F1040C9CE80C10B6
:101DA000098AC0E90323C0F814C0416001F034FE81
:101DB00000284FF0010001D00AB080BD0021CDE91C
:101DC0000610CDE90011CDE90211CDE9041108900A
:101DD0000E20099040F29430C2F20000694601F0F2
:101DE000D5FB10B102200AB080BD40F29430C2F29F
:101DF000000001F0DFFE10B103200AB080BD40F208
:101E00009430C2F20000022101F05AFB002818BFF2
:101E1000012080000AB080BDB0B540F2F045C2F2AA
:101E2000000505F10804204600F0A0F8A0F5907127
:101E30000822062928606A6012D8DFE801F0042C25
:101E40003D4E5F778A00EFF3108072B66A6840F209
:101E5000A840C2F200002146FFF7E3FA62B6B0BD27
:101E6000502840F08280EFF3108072B66A6840F22A
:101E70008835C2F2000528462146FFF7D2FA62B63D
:101E80002888012818BFB0BD40F62840C2F20000E3
:101E900002210170B0BDEFF3108072B66A6840F2A3
:101EA000D840C2F200002146FFF7BBFA40F60240DC
:101EB000C2F2000062B649E0EFF3108072B66A68C1
:101EC00040F27040C2F200002146FFF7AAFA40F645
:101ED000FA3062B6C2F2000038E0EFF3108072B65A
:101EE0006A6840F29840C2F200002146FFF799FA72
:101EF00040F6FE3062B6C2F2000027E0EFF3108039
:101F000072B66A6840F28840C2F200002146FFF7CC
:101F100088FA40F21030C2F200004FF4FA7162B653
:101F2000018040F6FC30C2F200000FE0EFF31080B9
:101F300072B66A6840F2C840C2F200002146FFF75C
:101F400070FA40F6004062B6C2F200000121018042
:101F5000B0BDEFF3108072B66A6840F2B840C2F2CA
:101F600000002146FFF75DFA62B6B0BDB0B588B09B
:101F7000054640F29430C2F200000021002401F036
:101F800077FBC0B140F29430C2F2000001AA0021F8
:101F90002B46002401F07CFB68B90598082803D182
:101FA000039818B1002406E0002404E004980028F7
:101FB0000CBF019C0024204608B0B0BD10B588B00D
:101FC000CDE901000020CDE9030040F248500C4665
:101FD0000121C2F200000791016805920131016000
:101FE00040F29430C2F2000001F0E0FB00286ED114
:101FF00040F29430C2F2000001F0D8FB002866D114
:1020000040F29430C2F2000001F0D0FB00285ED113
:1020100040F29430C2F2000001F0C8FB002856D113
:1020200040F29430C2F2000001F0C0FB00284ED113
:1020300040F29430C2F2000001F0B8FB002846D113
:1020400040F29430C2F2000001F0B0FB00283ED113
:1020500040F29430C2F2000001F0A8FBB8BB40F29D
:102060009430C2F2000001F0A1FB80BB40F294303A
:10207000C2F2000001F09AFB48BB40F29430C2F279
:10208000000001F093FB10BB40F29430C2F200005C
:1020900001F08CFBD8B940F29430C2F2000001F09C
:1020A00085FBA0B940F29430C2F2000001F07EFB43
:1020B00068B940F29430C2F2000001F077FB30B909
:1020C00040F29430C2F2000001F070FBE8B140F23F
:1020D0005050C2F20000016807AB0131016040F2CC
:1020E0009430C2F2000001A9224601F0FDF908B1C6
:1020F000012407E040F24C50C2F2000001680024C5
:1021000001310160204608B010BD40F29430C2F2A7
:1021100000000121012401F0ABF9F3E72DE9F04FB4
:1021200087B04FF0000843F6300ACDF80480C4F2BF
:10213000020ADAF81010814641F40021CAF81010A2
:10214000DAF8101040F6000501F400200190019823
:10215000022401274FF48060C4F2020501AE02940C
:10216000CDE9037401904FF0080B28463146CDF8B5
:1021700014B001F015FE4FF40060CDE90247019064
:10218000284631460494CDF814B001F009FE04202D
:1021900005F58065CDE90277019028463146049423
:1021A00001F0FEFD28460421002201F0D3FE44F692
:1021B0000C45C4F2000540F29810C5F80080C2F248
:1021C000000000684FF6FF718008B0FBF9F00022B4
:1021D00080B245F8040C286888432860686847F690
:1021E0006F7188436860A86840F6FF718843A860F3
:1021F0002868002140F05C002860A86840F0C0001A
:10220000A860286840F400502860342001F01CFFCA
:10221000342001F009FFCDF81880DAF8000046F20A
:10222000400440F40010CAF80000DAF8000040F260
:10223000044600F4001006900698CDF81880DAF8ED
:102240000000C4F2020440F40010CAF80000DAF8FA
:102250000000C0F6010600F400100690069840F257
:10226000A670C2F20000C4F800802660E060083D5D
:10227000FF20A560606080270D200021002267619B
:1022800001F0E2FE0D2001F0CFFE2068002140F0B9
:102290000100206006F15000C4F83080206340F651
:1022A000A820C2F20000E0630F200022A563C4F85A
:1022B0003480676401F0C8FE0F2001F0B5FE07B05E
:1022C000BDE8F08F10B5D0E9001204460069891A04
:1022D000E16105F03FFBA268D4E9093108449A4264
:1022E00020620ED00028024648BF424200290B4619
:1022F00048BF4B429A4204DB08464FF6705105F046
:1023000029FBE169E2682062A0620144104605F001
:1023100021FB61696062884204DCA1698842B8BF20
:1023200008460146A16010BD70B540F2A015C2F28A
:102330000005296804460846802101F0FDFD0138AA
:10234000B0FA80F168684E09402101F0F5FD0138CE
:10235000B0FA80F04109A86846EA4106202101F060
:10236000EBFD0138B0FA80F04109E86846EA8106E1
:102370004FF4004101F0E0FD0138B0FA80F041096E
:10238000286946EAC106082101F0D6FD0138B0FAF5
:1023900080F04109686946EA0115402101F0CCFD51
:1023A0000138B0FA80F0400945EA40110020218050
:1023B00070BD000010B540F2A012C2F2000248F257
:1023C0000A7352F82120C0F60A0333F811100446AC
:1023D000104601F0B1FD01460020217010BD000043
:1023E00046F24000C4F2020050F8381C002241F4CA
:1023F0007C1140F8381C40F61041C2F200010A601E
:10240000016821F001010160FF214160016841F094
:10241000010101607047000046F20C00C4F20200A6
:10242000016841F03F0101607047000046F28800FA
:10243000C4F2020050F87C1C002241F47C6140F898
:102440007C1C40F60841C2F200010A7040F60C41C3
:10245000C2F200010A60016821F001010160FF2160
:102460004160016841F001010160704746F20C00D3
:10247000C4F20200016841F47C1101607047000061
:1024800046F20840C4F20200016841F03F010160D9
:102490007047000046F28840C4F2020050F87C1CED
:1024A00041F47C6140F87C1C016821F0010101606D
:1024B000FF214160016841F00101016070470000A7
:1024C00046F20C40C4F20200016841F07C610160F8
:1024D0007047000080B540F2B812C2F2000252F814
:1024E000211002460846802101F034FD002080BD05
:1024F0002DE9F041C6B048F20008C0F6000800F02F
:10250000E5F940F28806C2F200064FF4C01040F62A
:102510003D2742F6AC2540F2B04406F1380C0021CC
:102520004FF4A0128323C0F26667C0F20875C8F2A8
:1025300000048CE88F0040F6FF70C6E913757465DF
:10254000B065B8F8000043F233318842ADF80600B8
:1025500021D140F28804C2F20004002021464FF449
:10256000887200F009F900283ED1B4F80E512046D7
:102570004FF4877102F066FB854235D1208801282F
:1025800006D16088B0F5887F02D1A08817282DD0A9
:1025900003F0E2FF2AE040F28801C2F2000102A843
:1025A0004FF48872FEF73DFFBDF80800012818D1EE
:1025B000BDF80A00B0F5887F13D1BDF80C001728CC
:1025C0000FD102AD28464FF4877102F03BFBADF806
:1025D0001601002029464FF4887200F021F90028E6
:1025E00045D003F0CBFF01E003F0C8FF44F22860C0
:1025F000C0F20F00F06002A8FFF796FEBDF80800D9
:1026000000F007040120FEF7E7FF642100EB400221
:102610006143920001EB1231B1F5327F28BF4FF4D4
:102620003271F1800021C0F6040109684EF2D72210
:10263000C0F63672914228BF114631610021C0F6C2
:102640000A010968914228BF1146716143F6FC7185
:10265000C0F600010968ADF80800914238BF0A468B
:10266000B26101F08BFCB06046B0BDE8F08143F28E
:102670003330ADF806000DF106014046012200F0AE
:1026800041FE88B103270DF1060500BF40462946EB
:102690000122013F00F036FE390618BF0028F5D1AF
:1026A00010B103F06BFFA1E7EFF3108072B604F0F6
:1026B000EFFE0000704700002DE9F04786B040F2C1
:1026C000A016C2F20006306801AC4FF000090227E4
:1026D0004FF080082146CDE902990497CDF8048097
:1026E00001F05EFB706840252146019501F058FB22
:1026F000B0684FF0200A2146CDF804A001F050FB4D
:102700004FF40041F0680191214601F049FB082196
:1027100030690191214601F043FB70692146019522
:1027200001F03EFB30682146CDE902970497CDF8D1
:10273000048001F035FB70682146019501F030FB03
:10274000B0682146CDF804A001F02AFB40F2B8158C
:102750000120C2F20005CDE902092868214604974C
:10276000CDF8048001F01CFB28688021002201F0D4
:10277000F1FB06B0BDE8F0872DE9F04704460020E4
:10278000B0EBD42F4FF0FF0A45D11746B2F5006FDA
:1027900041D840F20048C4F2020889464046102160
:1027A0000022002501F0D6FB381960400F2803D81D
:1027B000204649463A4626E004F00F00C0F11006D4
:1027C00020464946324601F021FFBF1B8246B8B27F
:1027D0003444B5EB101F4E4410D04FEA10190025B9
:1027E000A0B23146102201F011FF0135824628B215
:1027F000103410364845A7F11007F1DB17F00F022F
:1028000004D0A0B2314601F001FF824640461021BB
:10281000012201F09FFB4FFA8AF0BDE8F08700002B
:102820002DE9F04F81B0044617180020B0EBD72FE8
:1028300002D04FF0FF0B44E040F20048C4F202081F
:1028400016468946404610210022002501F082FBF1
:1028500087EA04000F2803D820464946324628E07C
:1028600004F00F00C0F1100A20464946524602F01B
:1028700063F8A6EB0A078346B8B25444B5EB101FC1
:1028800009EB0A0610D04FEA10190025A0B2314614
:10289000102202F051F80135834628B21034103668
:1028A0004845A7F11007F1DB17F00F0204D0A0B2E2
:1028B000314602F041F8834640461021012201F0E2
:1028C00049FB4FFA8BF001B0BDE8F08F2DE9F043E2
:1028D00085B040F200444FF40070C4F202046D462B
:1028E0004FF0110800260227009020462946CDF817
:1028F00004800296039701F053FA20464FF40071CA
:1029000001224FF0010901F025FB4FF48070CDE961
:102910000186009020462946039701F041FA20469F
:102920004FF48071012201F015FB1020CDE90189DF
:10293000009020462946039701F032FA20461021E4
:10294000012201F007FB05B0BDE8F08310B5044695
:1029500071B16088A08000F083FD40F65041C2F262
:1029600000010A686080012A06D10020086008E0A2
:1029700000F076FD608010BDA188A268081A02FAF6
:1029800080F0C11700EB11410914A060E16040F232
:102990006B3104F0D7FFB0F5803F02DB4FF6FF70DC
:1029A0000DE0A06840F26B3104F0CCFF002805D4A4
:1029B000A06840F26B3104F0C5FF00E0002040F653
:1029C000A831C2F200012061C86110BD2DE9F041BB
:1029D00040F63048044643F60C46C2F20008002098
:1029E000C4F20206C8F81C0001F0C2FA3168C9033B
:1029F00045D43068C0071CBF01203060306810F03B
:102A0000F20F43D03068C00607D5D8F81C0040F05C
:102A10001000C8F81C00102030603068800607D510
:102A2000D8F81C0040F00800C8F81C0020203060D6
:102A30003068400607D5D8F81C0040F00400C8F8FC
:102A40001C00402030603068000607D5D8F81C0014
:102A500040F00200C8F81C00802030603068800719
:102A60005CBF0120BDE8F081D8F81C0040F02000D8
:102A7000C8F81C00022030600120BDE8F081054646
:102A8000671C07D0BCB90320BDE8F0810020BDE879
:102A9000F08100BF3068C003ABD567B93068C003B0
:102AA000A7D547B93068C003A3D527B93068C0039C
:102AB0009FD5002FEED001F05BFA401BA042E9D970
:102AC0000320BDE8F08100002DE9F04F81B0884679
:102AD000897840F2C02A40F2282906460129C2F22C
:102AE000000AC2F2000940F0C980B08F002800F04F
:102AF000C580032004F09EF930684FF40041404245
:102B000004F028FF40F2BC37C2F2000739680546DE
:102B100008464FF4004104F01DFF716828443860F6
:102B200048424FF4004104F015FF79680546084615
:102B30004FF4004104F00EFF396828447860F960D2
:102B400001EB400049F2CD3104F004FF40F2880B64
:102B5000C2F2000B3861B069BBF82810BBF82A201C
:102B6000401A110404F0F6FE40F23844C2F20004A8
:102B7000254645F8080F2846FEF790FED7E90301E1
:102B800020602868616004F0EBFE296860610846F7
:102B900004F050FE01462068A16104F0DBFE62688B
:102BA00061690546104604F0D5FE42196068A169C6
:102BB000E26004F0CFFE226861690546104604F029
:102BC000C9FE40F2E631C2F200010A88281A2061EB
:102BD000501C82B20A2A0880C0F0CC8198F801000B
:102BE000002200280A8075D040F650450128C2F224
:102BF000000579D16968002976D0D8F8040040F240
:102C00007427F169C2F20007C7E90001384603F0F2
:102C1000DFF8A868411C00F0D080012840F0FD805A
:102C200040F2E432C2F200021088013081B215296C
:102C30001080C0F071814FF48040C8F80800D7E9D7
:102C400005310025B1F5804FC8BF0846DAF80010FD
:102C5000B3F5804FB8BF1846431AA42B1580C0F2B5
:102C60004A810028024648BF424200290B4648BF1D
:102C70004B429A42C8BF01F1A3004BE140F27420DD
:102C8000C2F20000002101628162816040F60440CE
:102C9000C2F20000007840F2DC12C2F200024006EC
:102CA000CAF82010CAF8281011629162C9F82010E1
:102CB000C9F828109160CAE90011CAF80810C9F8CB
:102CC0000410C9F80810F16054BF0120002004F07E
:102CD000B1F894E140F65040C2F200004168C9B337
:102CE0000020CAF800003DE106282ED140F2E4336E
:102CF000C2F200031888013081B21429188040F212
:102D0000918040F27422C2F20002D8F80800D2E9A1
:102D100005714FF0000C8842A8BF0146DAF8002088
:102D2000B842C8BF39468F1AA42FA3F800C07CDB75
:102D300000290B4648BF4B42002A174648BF57425E
:102D4000BB42C8BF02F1A3017EE00020CAF8000028
:102D50000C2007E140F2E433C2F20003198801318C
:102D60008AB2152A1980C0F0A3804FF4804140F246
:102D70007422C8F80810C2F20002D2E905574FF0D9
:102D8000000CB7F5804FC8BF3946DAF80020B5F51A
:102D9000804FB8BF29468F1AA42FA3F800C076DB56
:102DA00000290B4648BF4B42002A174648BF5742EE
:102DB000BB42C8BF02F1A30178E040F2E432C2F2A4
:102DC00000021088013081B215291080C0F0BB804C
:102DD0004CF20000CFF6FF70C8F80800D7E90531C3
:102DE000002511F5804FC8BF0846DAF8001013F52A
:102DF000804FB8BF1846431AA42B1580C0F29280AA
:102E00000028024648BF424200290B4648BF4B42B9
:102E10009A42C8BF01F1A30093E00020CAF8000065
:102E200004209FE0D8F8080010E017F1A40F0BDC95
:102E300000290B4648BF4B42002A174648BF57425D
:102E4000BB42C8BFA2F1A301CAF80010012814DBDD
:102E500040F6A830C2F20000C068B0F5202F3BDD7C
:102E600040F28430C2F20000018840F6B73291424D
:102E700000F215810131018076E0B6F8400020B9FA
:102E8000F0694CF2503188426EDB00206AE017F1A5
:102E9000A40F0BDC00290B4648BF4B42002A174603
:102EA00048BF5742BB42C8BFA2F1A301CAF80010F5
:102EB00040F6A831C2F20001C968B1F5202F0BDD40
:102EC00040F28431C2F200010A8840F6B7339A42D8
:102ED00009D8501C088047E040F28430C2F200005C
:102EE0000021018040E000220A800121C0E9001198
:102EF00088F8022038E013F1A40F0BDC002802460A
:102F000048BF424200290B4648BF4B429A42C8BFC5
:102F1000A1F1A300CAF80000F86910F1C70FBFF6CD
:102F2000DFAE21E013F1A40F0BDC0028024648BFFE
:102F3000424200290B4648BF4B429A42C8BFA1F10A
:102F4000A300CAF8000038684FF6E851884240F004
:102F5000A180B6F84000002800F0A9800020CAF83F
:102F600000000A2088F802003069CAF804005046C0
:102F700003F0B4FB40F2DC15E168C2F2000500206A
:102F8000C5E90001BBF82A10DAF80800090404F0CA
:102F9000E1FC2169C9E900012846FFF793F9484699
:102FA000FFF790F940F2F437A868C2F20007D4E9BD
:102FB000053107F10C0CD9F808208CE80D00B96137
:102FC00004F0C8FCD7E904210546104604F0C2FC11
:102FD0002A1AF86879693A6004F0BCFC3A69B96960
:102FE0000546104604F0B6FC396840F20052284409
:102FF000C2F200027860C2E9011003F085F9D6E957
:103000000012B068002948BF4942002A48BF524216
:103010000028114448BF404208444BF66431C0F2D6
:10302000010104F047FCF06040F2EC30C2F2000015
:1030300001684CF6CD42CCF6CC424A434CF6CC4328
:103040004FEAB202C0F6CC439A4201F1010101609D
:1030500084BF01B0BDE8F08FD9E9001240F24050C2
:103060000B0BC2F2000009094170110B81701109AC
:10307000C170DAE9001203700B0B09094171110BE1
:103080001209037181710821C27101B0BDE8F04FCE
:1030900004F0B4B9F869C7287FF722AE64E70021CD
:1030A00001800120C5E9000088F802105CE7F069A2
:1030B0004CF24F3188423FF713AE55E72DE9F0410E
:1030C00040F28804C2F2000404F1380340F274278D
:1030D0000FCBC2F20007C7E90301B4F8480040F281
:1030E000DC18B4F84A1040F2C026C2F20008C2F25E
:1030F0000006C8E90301B4F84C0040F22825C6E9EF
:103100000323C2F20005B4F84E20A18CE86040F21F
:10311000DC502A6104F0CEFB41427861B4F85400DF
:10312000B961642104F0C6FB41427061B4F85600F5
:1031300040F28F22B161A0F28F21101AC5E905106B
:10314000C8E90510BDE8F08140F2704140F2E83274
:10315000C2F20001C2F2000248881388984208BFF8
:1031600070470988108061B340F60440C2F2000045
:103170000021016040F61440C2F20000016040F2FC
:103180001230C2F200006421018040F20C30C2F221
:1031900000004FF4FA61018040F20E30C2F20000EC
:1031A000018040F6FA30C2F20000018840F210328D
:1031B000C2F2000201294FF4FA71118004BF02210A
:1031C00001807047E8B140F2EA3CC2F2000C9CF882
:1031D00000101F2918D820FA01F3DA0740F08B807D
:1031E0001F2913D09A0700F181801E290ED05A079B
:1031F0007ED41D290AD01A077CD404312029EAD1B3
:1032000004E000210846704720296CD10F23A3F168
:103210000F0120FA01F2D20701BFA3F10E0120FA3B
:1032200001F25FEAC272A3F10D0104BF20FA01F2BC
:103230005FEAC27250D1A3F10C0120FA01F2D20769
:1032400002BFA3F10B0120FA01F25FEAC27243D17F
:10325000A3F10A0120FA01F2D20702BFA3F109018A
:1032600020FA01F25FEAC27236D1A3F1080120FA16
:1032700001F2D20702BFD91F20FA01F25FEAC2723F
:103280002AD1991F20FA01F2D20702BF591F20FA52
:1032900001F25FEAC2721FD1191F20FA01F2D207B0
:1032A00002BFD91E20FA01F25FEAC27214D1991E40
:1032B00020FA01F2D20702BF591E20FA01F25FEA9A
:1032C000C27209D120FA03F1C90706D110332F2B9E
:1032D0004FF000019BD107E00B46581CC1B28CF89F
:1032E000000008467047002108467047013102E09F
:1032F000023100E00331012050FA81F108468CF8D8
:103300000010704770B50546B0F1006F4FF0010036
:1033100038BF70BD0C4615F001011AD105EB42060D
:10332000B6F1016F84BF012070BD00F021FDAE42F7
:103330000CD900BF228801202946002300F094FC0C
:1033400040B90235B54204F10204F3D300F082FC27
:10335000002070BD032070BD70B50546B0F1006F50
:103360004FF0010038BF70BD0C4615F003011AD1B3
:1033700005EB8206B6F1016F84BF012070BD00F03D
:10338000F7FCAE420CD900BF226802202946002378
:1033900000F06AFC40B90435B54204F10404F3D3EB
:1033A00000F058FC002070BD032070BD2DE9F041F5
:1033B0000C46804600200021002203F055FC3220FC
:1033C00000F034FC40F6A8354FF48036C2F2000518
:1033D0004120314604F0BEFA414603F0E1F80520F1
:1033E00000F024FC2868002848BF4042A04213DCBB
:1033F0006868002848BF4042A0420DDCA868002849
:1034000048BF4042A04207DC06F58036B6F1167F81
:10341000DED13846BDE8F081AF694FF4FA7000F0B4
:1034200005FC012604E000BF632E06F10106F0D280
:10343000012000F0FBFBA869C01B48BF4042B0F56B
:10344000004FF1DA38464FF2333104F083FAA969BC
:103450000446084640F6CC4104F07CFA0719E3E73D
:1034600040F25440C2F20000006840107047000073
:1034700090F82020013A012A18D8CA0704D002681F
:10348000936843F0800393608A0704D502689368C9
:1034900043F40043936049075CBF00207047006815
:1034A0004FF4000200F10801002004E000F12401C3
:1034B00001204FF480220B681A430A607047000015
:1034C00090F82020013A012A04D8006800F1140283
:1034D000002004E000F1240201204FF48021136851
:1034E000194311607047000010B590F820E0D0F843
:1034F00000C0AEF1010EBEF1010FDCF808E00DD8FE
:103500001EF0E05F10D0CEF3016EBEF1030F11D1BB
:1035100000F1240101204FF4000233E000F1240106
:1035200001204FF480222DE000F1240101204FF40E
:10353000001227E0012000FA0EF01860886818B128
:103540004B6840EAC30001E008684005D1E9033454
:1035500003430CEB0E10C0F88031C0F88441097DA4
:10356000012905D100F5C2710B6843F480730B602B
:103570005168C0F88C11126800F5C071C0F888213C
:10358000002001220B681A430A6010BDB0B590F804
:103590002020013A012A2FD846F20060C4F2000030
:1035A000026842F001020260026822F47C5202606A
:1035B000D1F814E0CC694A6A0368012C43EA02227C
:1035C00002600EF01F024FF0010303FA02F2C3691A
:1035D0006FEA020C23EA0203C36113D02CBBC36859
:1035E00003EA0C03C360CB688C8844EA034300EB16
:1035F000CE0423640B4611E0416A41F4802141620C
:103600000120B0BDC3681343C3600B688C8844EAD3
:10361000034300EBCE04236401F10C038C681B8888
:1036200043EA044300EBCE04636443688D6943EAD4
:103630000204D1F810E0096A002D08BF03EA0C0467
:1036400044604369BEF1000F43EA020408BF03EA85
:103650000C040129446102D1C1691143C1610168AF
:1036600021F0010101600020B0BD000070470000A2
:1036700090F82020013A012A84BF0020704700689A
:103680001022002908BF0C22805800F00300704768
:1036900010B590F82040013C012C0CD8D0F800C0A7
:1036A00079B1DCF81040A4070FD100F1240101200A
:1036B0004FF400126FE000F1240101204FF480224A
:1036C00069E0DCF80C40A40769D00CEB011CDCF8C5
:1036D000B0410CF5D87E14F004049460DCF8B041DD
:1036E00019BFE4085460640D1460DEF8004000293E
:1036F000C4F34004D460DCF8B44104F00F04146156
:10370000DCF8B441C4F307249461DCF8B4414FEA17
:1037100014445461DCF8B8211A70026802EB0112FB
:10372000D2F8B8214FEA12225A70026802EB011255
:10373000D2F8B8214FEA12429A70026802EB0112E5
:10374000D2F8B8214FEA1262DA70026802EB011275
:10375000D2F8BC211A71026802EB0112D2F8BC2126
:103760004FEA12225A71026802EB0112D2F8BC2110
:103770004FEA12429A71026802EB0112D2F8BC21A0
:103780004FEA1262DA71006814BF00F1100100F113
:103790000C01002020220B681A430A6010BD00F1C2
:1037A000240101204FF40012F5E7000090F82010EA
:1037B0000139012984BF0020704700688168826850
:1037C0008068C1F38061C2F3C0621144C0F300702D
:1037D000084470472DE9F04F81B0044600684669FF
:1037E000D0F804908768D0F80CB0D0F810A0D0F8CA
:1037F0001880F10703D1002530071CD423E0F90716
:1038000010D00121BA07816009D4780700F1AA809D
:10381000380700F1B080204600F0FAF902E02046B7
:1038200000F0F8F90025F80500F18480F80300F1B4
:10383000AA80300707D51BF0100004D0206845F49B
:1038400000751021C160700708D51BF0080005D075
:1038500020680821C160204600F0A2F9B00706D513
:103860002068C068800702D0204600F09BF97006EF
:1038700007D51AF0100004D0206845F480651021A7
:103880000161B00608D51AF0080005D020680821AB
:103890000161204600F088F9F00606D5206800692D
:1038A000800702D0204600F081F9B00308D519F056
:1038B000100005D0206810214160204600F078F902
:1038C000F00308D519F0080005D0206808214160F0
:1038D000204600F0A9F9300440F18F805FEA49707A
:1038E00040F1888006F4807008EA102028435FEADF
:1038F0008871014648BF41F00201B20558BF014638
:103900005FEA48700D4648BF45F00405700558BF92
:103910000D4630056ED518F070006BD010380009D8
:10392000052862D8DFE800F0035356595C5F45F084
:1039300008055AE020684FF48071BA0581600AD406
:10394000780512D4380519D4204600F065F9F8033B
:103950007FF56FAF17E0204600F060F9F8037FF5C0
:1039600068AF10E04FF400655DE705F50055F8031A
:103970007FF55FAF07E04FF4805554E705F58045CC
:10398000F8037FF556AF20684FF48031BA038160A9
:103990000AD478030FD4380313D4204600F040F93A
:1039A00030073FF548AF4EE7204600F03BF93007BF
:1039B0003FF541AF47E705F5004530073FF53BAF21
:1039C00041E705F5803530073FF535AF3BE745F07A
:1039D00010050AE045F0200507E045F0400504E049
:1039E00045F0800501E045F480752068816921F08B
:1039F000700181612068042141604DB1606A40EA34
:103A000005012046616201B0BDE8F04FFFF72EBE10
:103A100001B0BDE8F08F0000B0B5C8B1044690F821
:103A2000200010B9204600F071F82068016821F0EC
:103A30000201016000F09CFA054600BF2068416861
:103A4000890707D500F094FA401B0B28F6D312E043
:103A50000120B0BD016841F00101016000F088FA69
:103A6000054600BF20684168C9070DD100F080FA03
:103A7000401B0B28F6D3606A052140F400306062D9
:103A8000012084F82010B0BD217E0268012922F0B7
:103A9000800208BF80320260617E0268012922F044
:103AA000400208BF40320260A17E0268012922F074
:103AB000200208BF20320260E17E0268012922F064
:103AC000100218BF10320260217F0268012922F023
:103AD000080208BF08320260617F0268012922F0F3
:103AE000040208BF04320260D4E901C2D4E90335FC
:103AF00061691A432A431143ACF101021143C161C8
:103B000000200121606284F82010B0BD2DE9F0434F
:103B100085B0002043F630010090C4F202010A692A
:103B2000002442F000720A610A69C4F2020402F041
:103B300000720092009A009008686D4640F0010003
:103B4000086008684FF0020800F00100009000983B
:103B50004FF4805000904FF00309012609272046BA
:103B60002946CDF80480CDF80C900296049700F019
:103B700017F94FF40060CDE9000820462946CDE949
:103B80000269049700F00CF914200121002200F0D2
:103B90005BFA142000F048FA05B0BDE8F08300009D
:103BA0007047000070470000704700007047000039
:103BB00070470000B0B5044690F8200001281DD1E0
:103BC000022084F820002068016821F001010160D2
:103BD00000F0CEF9054600BF20684068C00713D04A
:103BE00000F0C6F9401B0B28F6D3606A40F40030A1
:103BF0006062052084F820000120B0BD606A40F4B6
:103C0000002060620120B0BD00206062B0BD0000F5
:103C100070470000704700007047000070470000C8
:103C2000704700007047000070470000B0B50446C0
:103C300000F09EF9054640F21430C2F20000007810
:103C4000611C18BF044400BF00F092F9401BA04261
:103C5000FAD3B0BD43F61041C4F20201086840F047
:103C6000004200200A6070472DE9F04381B040F621
:103C70003044C2F200049046227E012A03D1022081
:103C800001B0BDE8F0830746012020764CF25030A9
:103C90001E460D46FEF79AFE002864D143F61049F1
:103CA000022FC4F2020915D0012F28D0E7BBD9F8A2
:103CB000000020F44070C9F80000D9F80000C9F8ED
:103CC0000000D9F8000040F00100C9F8000085F8B4
:103CD00000803EE0D9F8000020F44070C9F80000F0
:103CE000D9F8000040F40070C9F80000D9F80000CD
:103CF00040F00100C9F80000C5F8008029E0D9F8BB
:103D0000000020F44070C9F80000D9F8000040F429
:103D10008070C9F80000D9F8000040F00100C9F82F
:103D20000000A5F8008014E0D9F8000020F44070ED
:103D3000C9F80000D9F8000040F44070C9F800004C
:103D4000D9F8000040F00100C9F80000C5F8008073
:103D50006E604CF25030FEF739FED9F8001021F0B9
:103D60000101C9F800100021217601B0BDE8F083FF
:103D700043F60440C4F20200C168B1F1FF3FC4BF82
:103D80000020704740F22311C4F26751016048F6E9
:103D9000AB11CCF6EF510160C068C00F7047000056
:103DA0002DE9F04F82B000F13E4241F6004502F1AC
:103DB000FF77C4F2020543F6004B4FEAB72608220C
:103DC000A842C4F2010B08BF0722072E4FF0010ED4
:103DD0004FF000064FF000044FF0000838BF4FEAE4
:103DE000B722009209E000BF08F101080434B8F1DD
:103DF000100F06F1020600F09C800F680EFA08F919
:103E000017EA090FF0D0D1F804C04CF01007122FB8
:103E100013D16FF0030202EA5807074404F01C05AF
:103E20000F22D7F820C002FA05F30A692CEA03032F
:103E3000AA401A433A62D1F804C002680323B3408F
:103E40006FEA030A9A430CF00303B3401A43BCF130
:103E5000120F026014D80EFA0CF212F0061F0FD0E7
:103E60008268CB6802EA0A02B3401A438260426861
:103E70004FEA1C1322EA090203FA08F31A434260CC
:103E8000C2688B6802EA0A02B3401A435FEACC03B5
:103E9000C260A9D5002243F644030192C4F2020392
:103EA0001A684FF6084C42F480421A601A68CFF63E
:103EB000FF7C02F480420192019A28F003025A44E6
:103EC00052F80C3004F00C070F25BD40AB43009DA9
:103ED00005FA07F73B4342F80C30DBF800204B684B
:103EE00042EA0907DD0358BF22EA0907CBF8007050
:103EF000DBF804209D0342EA090758BF22EA0907BC
:103F0000CBF80470DBF80820DD0242EA090743F62B
:103F10000C4558BF22EA0907CBF80870C4F2010526
:103F20002A689B0242EA090758BF22EA09072F6064
:103F30005AE702B0BDE8F08F0069084018BF0120C1
:103F40007047000042690A408A4208BF0904816143
:103F500070470000002A08BF090481617047000013
:103F600042F20000CEF204000068000C704700002E
:103F700040F68440C2F200000068704747F6102007
:103F8000C1F6FF700068704740F2143040F684417B
:103F9000C2F20000C2F2000100780A681044086012
:103FA0007047000080B543F60040C4F2020001688B
:103FB00041F400710160016841F4806101600320F7
:103FC00000F06EF80F2000F005F800F02BF800204C
:103FD00080BD0000B0B540F21432C2F2000240F2DF
:103FE00098111278C2F200014FF47A730968B3FB9A
:103FF000F2F20446B1FBF2F1084600F0C7FA0F2CCA
:104000004FF001050CD858B94FF0FF30214600227F
:10401000002500F019F840F21830C2F200000460E8
:104020002846B0BD70470000002848BF704700F028
:104030001F01012202FA01F14EF200124009CEF2F4
:10404000000242F82010704710B54EF60C5CCEF21C
:10405000000CDCF80030C3F3022E8EF00704042CB1
:1040600028BF0424BEF103034FF0FF3E0EFA04F410
:1040700038BF0023A14399400EFA03F39A4300F09E
:104080000F03043B1143634409010C3300F1604208
:10409000B0F1FF3FC8BF02F56443197010BD0000C6
:1040A0004EF60C51CEF200010A684FF6FF031A409B
:1040B00060F30A2242F0806040F0FD7008607047B3
:1040C0002DE9F041002800F0868043F60808C4F28C
:1040D00002080446D8F8F8030D4600F00F008842A5
:1040E00007D288F8F853D8F8F80300F00F00A84278
:1040F00071D12068810717D5410705D5D8F8001080
:1041000041F4E051C8F80010010705D5D8F80010B7
:1041100041F46041C8F80010D8F80010A26821F0FE
:10412000F0011143C8F80010C0073AD1D8F8F803DD
:1041300000F00F00A84207D988F8F853D8F8F80320
:1041400000F00F00A84246D12068410707D5D8F8F3
:104150000010E26821F4E0511143C8F80010000794
:1041600008D5D8F80000216920F4604040EAC10079
:10417000C8F8000000F04EF8D8F8001048F27A4273
:10418000C1F30311C0F60A02515CC84040F2981115
:10419000C2F2000108600F20FFF71CFF0020BDE8FD
:1041A000F0816068811E022907D258F8081C890135
:1041B0005CBF0120BDE8F08110E0012807D158F86C
:1041C000081C89035CBF0120BDE8F08106E058F8B7
:1041D000081C890702D40120BDE8F081D8F800103E
:1041E00021F003010843C8F80000FFF7C1FE0646AE
:1041F00041F28837D8F80000616800F00C00B0EB9D
:10420000810F93D0FFF7B4FE801BB842F2D9032090
:10421000BDE8F08110B543F60404C4F202046068FE
:1042200000F00C0142F200400829C0F2F40007D06F
:10423000042918BF10BD41F20020C0F27A0010BD61
:10424000216801F03F02216823684902C3F3881105
:1042500005D4A1FB00010023FDF726F806E041F29A
:104260000020C0F27A004843B0FBF2F0216802223D
:10427000C1F3014102EB4101B0FBF1F010BD0000C0
:104280002DE9F04182B0E8B30446007843F6000619
:10429000C007C4F2020609D0B06800F00C00042880
:1042A00071D13068800301D5606858B320788007E9
:1042B00018D5B06810F00C0F07D0B06800F00C00F3
:1042C00008287AD17068400277D43068800702D518
:1042D000E068012816D13068216920F0F80040EA32
:1042E000C10030602078000710D42078400724D423
:1042F000A569002D00F01B81B06800F00C000828B3
:1043000040F09080012002B0BDE8F0816069002893
:1043100040F20000C4F2472074D00121C0F8801E92
:10432000FFF726FE054600BF706F8007DDD4FFF75C
:104330001FFE401B0228F7D9D5E0306C10F08058E2
:104340000AD100200190306C40F080503064306C15
:1043500000F080500190019847F20007C4F2000776
:104360003868C00540D4386840F480703860FFF782
:10437000FFFD05463868C00536D4FFF7F9FD401B40
:104380000228F7D9AFE0B06800F00C00082803D18C
:10439000706840023FF585AF6068B0F5803F07D098
:1043A000B0F5A02F40F08980306840F48020306064
:1043B000306840F48030306089E0E068002840F2E6
:1043C0000000C4F247204ED001210160FFF7D0FD6C
:1043D000054600BF306880073FF57DAFFFF7C8FD99
:1043E000401B0228F6D97EE0A068012805D00528E8
:1043F0004AD1306F40F004003067306F40F0010068
:1044000030674BE00021C0F8801EFFF7B1FD054684
:10441000706F80077FF569AFFFF7AAFD401B022888
:10442000F6D960E00027C4F2472700203866FFF77E
:104430009FFD022D05460BD13068800157D5FFF74F
:1044400097FD401B02284FF00300F5D99BE000BF09
:10445000306880016BD5FFF78BFD401B03284FF0C0
:104460000300F5D38FE000210160FFF781FD0546D1
:10447000306880077FF536AFFFF77AFD401B0228D2
:104480004FF00300F4D97EE0316F002821F00101E4
:104490003167316F21F0040131674CD0FFF768FDBF
:1044A000054641F2883700BF306F800753D4FFF7CD
:1044B0005FFD401BB842F7D915E03168002821F4B0
:1044C00080313160316821F4802131604CD0FFF7B8
:1044D0004FFD0546306880033FF5E8AEFFF748FD25
:1044E000401B6428F6D9032002B0BDE8F08104F136
:1044F0001C052FCD084340EA8210D9034FF6FF7206
:104500009143A1F5803140EA0560084370600120C5
:104510003866FFF72DFD04463068800107D4FFF7A9
:1045200027FD001B02284FF00300F5D92BE00020E7
:1045300002B0BDE8F081FFF71BFD054641F2883768
:10454000306F800707D5FFF713FD401BB8424FF0CF
:104550000300F5D917E0B8F1000F7FF4C9AE306C55
:1045600020F080503064C3E6FFF702FD054600BF2F
:10457000306880037FF59AAEFFF7FAFC401B642891
:104580004FF00300F4D902B0BDE8F081411E0020D5
:10459000B0EB116F1CBF012070474EF21002CEF23B
:1045A000000251604EF62351CEF20001F0230B7051
:1045B0000721906011607047FEE7000080B5042875
:1045C00016D8DFE800F007161E030300BDE88040A0
:1045D00001F0B0BF40F68140C2F20000007801282F
:1045E00018BF80BD40F62840C2F2000001210170D2
:1045F00080BDFDF707FAFDF751FABDE88040FDF7F1
:10460000B3B9BDE88040FDF799B900002DE9F0434A
:1046100081B0884640F218490E21C4F2020901EA2D
:10462000D0114FF4807761F05F03C9F800709027D4
:10463000013F00BFFCD14FF0007761F05E01C9F887
:1046400000709027013F00BFFCD14FF08077C9F880
:1046500000709027013F00BFFCD100244FF480760A
:104660004FF080775DB2B5F1FF3F4FF40075C8BFE2
:104670004FF00075C9F80050902500BF013D00BF04
:10468000FCD19025C9F80060013D00BFFCD1902508
:10469000C9F80070013D00BFFCD15B00072C04F19C
:1046A0000104DFD34FF40073C9F80030902300BF3A
:1046B000013B00BFFCD14FF48073C9F80030902358
:1046C000013B00BFFCD159F8083C4FF080779B05B7
:1046D000C9F8007000F10F81902300BF013B00BFBB
:1046E000FCD100234FF480764FF0807745B2B5F1CE
:1046F000FF3F4FF40075C8BF4FF00075C9F8005078
:10470000902500BF013D00BFFCD19025C9F8006095
:10471000013D00BFFCD19025C9F80070013D00BFEC
:10472000FCD14000072B03F10103DFD34FF40070ED
:10473000C9F80000902000BF013800BFFCD14FF441
:104740008070C9F800009020013800BFFCD159F8F2
:10475000080C4FF0807380054FF09000C9F80030CE
:1047600000F18E80013800BFFCD14FF48070C9F891
:1047700000009020013800BFFCD14FF00070C9F854
:1047800000009020013800BFFCD14FF08070C9F8C4
:1047900000009020013800BFFCD100204FF480734E
:1047A0004FF080774EB2B6F1FF3F4FF40076C8BFAE
:1047B0004FF00076C9F80060902600BF013E00BFB0
:1047C000FCD19026C9F80030013E00BFFCD19026F4
:1047D000C9F80070013E00BFFCD14900072800F174
:1047E0000100DFD34FF40070C9F80000902000BF33
:1047F000013800BFFCD14FF48070C9F80000902050
:10480000013800BFFCD159F8080C4FF080718005C9
:104810004FF09000C9F8001050D400BF013800BF1D
:10482000FCD1022AA2F101040AD30020002600BF15
:104830004044012101F0FEFA0136B0B28442F7DCB7
:1048400008EB0400002101F0F5FA4FF00070C9F800
:1048500000009020013800BFFCD14FF48070C9F8EF
:1048600000009020013800BFFCD14FF40070C9F85F
:1048700000009020013800BFFCD1002058E000BFAC
:10488000013800BFFCD14FF00070C9F80000902043
:10489000013800BFFCD14FF48070C9F800009020AF
:1048A000013800BFFCD14FF40070C9F8000090201F
:1048B000013800BFFCD1FB203AE000BF013800BF47
:1048C000FCD14FF00070C9F800009020013800BF03
:1048D000FCD14FF48070C9F800009020013800BF6F
:1048E000FCD14FF40070C9F800009020013800BFDF
:1048F000FCD1FB201CE09020013800BFFCD14FF020
:104900000070C9F800009020013800BFFCD14FF4BE
:104910008070C9F800009020013800BFFCD14FF42E
:104920000070C9F800009020013800BFFCD1FB20C6
:1049300040B201B0BDE8F083F0B540F218450E2357
:10494000C4F2020503EAD0134FF4807790262F605B
:10495000013E00BFFCD163F05F044FF000732B6099
:10496000902300BF013B00BFFCD14FF080732B6050
:10497000902300BF013B00BFFCD100234FF4807C9B
:104980004FF0807E66B2B6F1FF3F4FF40076C8BFAD
:104990004FF000762E609026013E00BFFCD190269D
:1049A000C5F800C0013E00BFFCD19026C5F800E06C
:1049B000013E00BFFCD16400072B03F10103E1D3EA
:1049C0004FF400732B609023013B00BFFCD14FF4E8
:1049D00080732B60902300BF013B00BFFCD155F8D2
:1049E000083C4FF080779B052F6000F1EB8090230F
:1049F000013B00BFFCD100244FF4807C4FF0807657
:104A000043B2B3F1FF3F4FF40073C8BF4FF00073E0
:104A10002B609023013B00BFFCD19023C5F800C060
:104A2000013B00BFFCD190232E6000BF013B00BFC3
:104A3000FCD14000072C04F10104E1D34FF40070D5
:104A400028609020013800BFFCD14FF480702860AE
:104A5000902000BF013800BFFCD155F8080C4FF082
:104A6000807380054FF090002B6000F18F8000BFB5
:104A7000013800BFFCD1002A45D04FF0000E4FF4A2
:104A8000007C4FF480704FF0807400BF11F80E303E
:104A9000002600BF5FB2B7F1FF3F4FF40077C8BFF9
:104AA0004FF000772F609027013F00BFFCD1902787
:104AB000286000BF013F00BFFCD190272C6000BFE1
:104AC000013F00BFFCD15B00072E06F10106E1D3D8
:104AD0009023C5F800C000BF013B00BFFCD190236C
:104AE000286000BF013B00BFFCD155F8083C2C609A
:104AF0009B0500F187809023013B00BFFCD10EF1A4
:104B0000010E9645C2D14FF000702860902000BF82
:104B1000013800BFFCD14FF480702860902000BFA6
:104B2000013800BFFCD14FF400702860902000BF16
:104B3000013800BFFCD1002043F6FF71884200F12C
:104B4000010000BFFAD3002043F6FF71884200F154
:104B5000010000BFFAD3002043F6FF71884200F144
:104B6000010000BFFAD3002043F6FF71884200F134
:104B7000010000BFFAD3002043F6FF71884200F124
:104B8000010000BFFAD3002040B2F0BD013800BFE1
:104B9000FCD14FF000702860902000BF013800BFAA
:104BA000FCD14FF480702860902000BF013800BF16
:104BB000FCD14FF400702860902000BF013800BF86
:104BC000FCD11CE0902000BF013800BFFCD14FF0A9
:104BD00000702860902000BF013800BFFCD14FF466
:104BE00080702860902000BF013800BFFCD14FF4D6
:104BF00000702860902000BF013800BFFCD1FB206E
:104C000040B2F0BD902000BF013800BFFCD14FF092
:104C100000702860902000BF013800BFFCD14FF425
:104C200080702860902000BF013800BFFCD14FF495
:104C300000702860902000BF013800BFFCD1DEE783
:104C4000FEE7000089B170B54A1E92B248F20A53DD
:104C500048F20A6E01F0030C032AC0F60A03C0F6FC
:104C60000A0E06D2FF21FF2228E0FF214FF47F40E9
:104C700048E021F00304FF21FF2200BF10F8045B8D
:104C8000043C69405D5C10F8036C6A4072401EF899
:104C900001109D5C10F8026C694071401EF8022002
:104CA0005D5C10F8016C6A4072401EF801109D5C5A
:104CB0001EF80220260481EA0501DFD1BCF1000FB5
:104CC0001CD00478BCF1010F84EA0104195D81EA6B
:104CD00002011EF8042011D04478BCF1020F81EAD1
:104CE00004015C5C84EA02041EF80120E1B205D0F4
:104CF00080784840195C51401EF80020D0B2000274
:104D0000BDE87040084380B2704700002DE9F04FC5
:104D1000CBB040F27801C2F2000141F6CF700860DA
:104D200040F29C1140F28806C2F20001FF20C2F25C
:104D300000060860708C4FF200084CF2000B6421F2
:104D4000C0F6FF78C0F25D0B02F0B4FD0446062009
:104D5000FCF742FC41F2ED27784300EA0800002509
:104D600058454FF0010088BF0125FEF75FFF062080
:104D7000FCF732FC784300EA080058454FF0010088
:104D800088BF0135FEF752FF0620FCF725FC78436B
:104D900000EA080058454FF0010088BF0135FEF7D2
:104DA00045FF0620FCF718FC784300EA0800584548
:104DB0004FF0010088BF0135FEF738FF0620FCF7F1
:104DC0000BFC784300EA080058454FF0010088BF0B
:104DD0000135FEF72BFF0620FCF7FEFB784300EAC7
:104DE000080058454FF0010088BF0135FEF71EFF4F
:104DF0000620FCF7F1FB784300EA080058454FF025
:104E0000010088BF0135FEF711FF0620FCF7E4FB27
:104E1000784300EA080058454FF0010088BF01358B
:104E2000FEF704FF0620FCF7D7FB784300EA0800F2
:104E300058454FF0010088BF0135FEF7F7FE062008
:104E4000FCF7CAFB784300EA0800584588BF0135E3
:104E50000120EDB2FEF7EAFE0A2D40F0A980002005
:104E6000A71001F0E7FF00200021002201F0FCFE66
:104E7000032001F0DFFF40F6A83901264FF480340B
:104E800041F69915C2F2000940F28F20214602F046
:104E900061FD28440021002201F0E6FE0520FEF716
:104EA000C5FED9F80000002848BF4042B84206DCE1
:104EB00001361E2E04F58034E6D11E2000E0B0B28B
:104EC000409000200021002201F0CEFE6420FEF779
:104ED000ADFE01264FF4803441F6991540F28F2043
:104EE000214602F037FD41190020002201F0BCFEEE
:104EF0000520FEF79BFED9F80400002848BF404279
:104F0000B84207DC01361E2E04F58034E6D14FF09E
:104F10001E0A01E01FFA86FA00200021002201F09B
:104F2000A3FE6420FEF782FE01264FF4803441F692
:104F3000991500BF40F28F20214602F00BFD421967
:104F40000020002101F090FE0520FEF76FFED9F849
:104F50000800002848BF4042B84206DC01361E2E39
:104F600004F58034E6D1012406E06FF01D0010FA4C
:104F700086F0B0FA80F04409002001F05BFF0020C9
:104F80000021002201F070FE409840F288061E28A1
:104F9000C2F2000618BFBAF11E0F07D140F6044056
:104FA000C2F20000017841F0040115E0002CF5D1B7
:104FB00040F60442C2F200021178B6F92A0001F06C
:104FC000FB010028117048BF4042012808D140F27F
:104FD000F030C2F20000012101704BB0BDE8F08F4B
:104FE000708C642102F066FC04460620FCF7F4FA9B
:104FF00041F2ED26704300EA0800002558454FF0C5
:10500000010088BF0125FEF711FE0620FCF7E4FA37
:10501000704300EA080058454FF0010088BF013591
:10502000FEF704FE0620FCF7D7FA704300EA0800FA
:1050300058454FF0010088BF0135FEF7F7FD032DFD
:1050400040F01781002001F0F5FE00200021002231
:1050500001F00AFE032001F0EDFE1E20FEF7E6FD42
:105060004FF440402146FEF7A1F900202146FEF70B
:105070009DF906464A904FF480402146FEF796F986
:10508000054649904FF400402146FEF78FF98246CD
:1050900048904FF440402146FEF788F981464790FA
:1050A00000202146FEF782F946904FF44040214609
:1050B000FEF77CF9804642904FF400402146FEF70F
:1050C00075F9834643904FF480402146FEF76EF910
:1050D0000746449000202146FEF768F945900020DD
:1050E0000021002201F0C0FD002001F0A3FEA81B5A
:1050F00040F6CC41419048BF40428842C0F2B9805E
:1051000041A8FCF7CBFB44F200044198CFF6FF74B2
:10511000012104F50046B0F5004FC8BF4FF0FF3144
:1051200001FB065040F28805C2F20005499049A8EB
:105130006985FCF7B3FBB5F92A0004F5804400FB50
:1051400004A00DF5907A48905046FCF7A7FBB5F9FE
:105150002A00A0EB800009EB8030479047A8FCF7BD
:105160009DFBB5F92A000DF5887910FB0670449077
:105170004846FCF793FBB5F92A0043AF00FB04B0A7
:1051800043903846FCF78AFBB5F92A0042ACA0EB05
:10519000800008EB803042902046FCF77FFB45AE54
:1051A000304649463246FCF7BBFB3046FCF776FBFF
:1051B000384621463A46FCF7B3FB3846FCF76EFB0F
:1051C000384631463246FCF7ABFB3046FCF766FB0F
:1051D0004AAF384649A93A46FCF7A2FB3846FCF7E5
:1051E0005DFB504647A95246FCF79AFB5046FCF738
:1051F00055FB46A938463A46FCF792FB3846FCF781
:105200004DFB384651463A46FCF78AFB3846FCF7D8
:1052100045FB304639463A46FCF782FB3846FCF7F8
:105220003DFB4A9840F60444B0F5803FA4BF0020FF
:105230004A902885684605F1100140F20012C2F23A
:10524000000451F8043B043A40F8043BF9D195E8D6
:105250000F0000F007FC00283FF4B9AE40F27800E0
:10526000C2F200000078C00703D0207840F00100AF
:10527000207040F29C10C2F200000078400707D571
:1052800040F61440C2F20000017841F004010170C0
:105290004BB0BDE8F08F00002DE9F04381B040F243
:1052A0007805C2F2000540F6814840F604442968BA
:1052B000C2F20008C2F2000498F8000022780B073E
:1052C00015D5A0B1130715D440F21237C2F200076A
:1052D000B7F9003002F0F702012BA4BF013B3B807D
:1052E0009BB2B3FA83F35B0942EAC30201E002F026
:1052F000F7022270CB0615D5A0B1D30615D440F223
:105300000C37C2F20007B7F9003002F0EF02012BB0
:10531000A4BF013B3B809BB2B3FA83F35B0942EA33
:10532000031201E002F0EF0222708B0615D5A0B146
:10533000930615D440F20E37C2F20007B7F90030D9
:1053400002F0DF02012BA4BF013B3B809BB2B3FA0A
:1053500083F35B0942EA431201E002F0DF022270AC
:105360004B0600D510B902F0BF022270C9053FD527
:1053700040F2F031C2F200010978C9B3B4F801106B
:10538000C90735D140F28800C2F20000408C02F01B
:1053900056FF9FEDA30B53EC102B02F063FF02F0BE
:1053A0001FFF642102F086FA40F6A831C2F2000124
:1053B000CB6840F21841C2F200010A68834209DD5D
:1053C000013241F2883300209A4284BF012000223A
:1053D0000A6004E0002A1CBF501E0860002021461D
:1053E00031F8012F22F00102024498F800000A80EF
:1053F00040F29C19C2F2000999F8001040F61446D8
:105400008906C2F200060DD560B13178890609D44B
:1054100001F0D4FA317801F0DF0160F3451198F81A
:1054200000003170E1786A78B4F80130920743EAFD
:10543000014115D5A0B1880718D43078800615D55C
:1054400001F0BCFA214631F8012F8B7842EA034281
:1054500022F0020260F34102100C0A80887005E01D
:1054600021F00200090CE170A4F801000620FCF70D
:10547000B3F841F2ED214843C0F30F3040F6B931A3
:10548000884218D340F68342C2F2000240F27050C4
:105490001378C2F2000000210170581CC1B26529C6
:1054A000107032D36878400722D534F8010F40F0ED
:1054B000040020801CE040F2DB5340F68342984217
:1054C00040F27050C2F200024FF00001C2F2000040
:1054D000117013D801780131CAB2652A017014D352
:1054E00099F80000800703D5307840F00200307052
:1054F00040F6A830C2F20000002105E0017040F63D
:10550000A830C2F200000121818799F8000040070D
:1055100063D540F27450C2F20000D0E9007540F645
:105520001C44781BC2F2000420602046FCF770F98E
:105530003078010746D440F2D411C2F20001002FA6
:1055400048BF7F4209688F4215DA40F65C42C2F2DA
:10555000000200232168138040F2D812C2F2000238
:10556000002948BF4942126891424BDD40F65E4136
:10557000C2F2000119E0002D48BF6D428D4221DAD0
:1055800040F65E42C2F2000200232168138040F21E
:10559000D812C2F20002002948BF49421268914263
:1055A00036DD40F65C41C2F200010A88531C652AD0
:1055B0000B8012D399F80010090744BF40F008008F
:1055C00030700AE040F65C40C2F200000021018029
:1055D00040F65E40C2F20000018040F65040C2F248
:1055E0000000406818B1307800F07F0006E099F8BC
:1055F0000000000603D5307860F07F00307001B005
:10560000BDE8F08340F65E40C2F200000021E3E70F
:1056100040F65C40C2F200000021DDE700BF00BFA1
:10562000000000000000F83FB0B51070EFF31083E9
:1056300072B60B68496840F2800E40F6044CC2F224
:10564000000EC2F2000CCEE9003162B6DCF80010A8
:1056500001B305215170431E022B15D2062988BFC4
:10566000B0BD0FF20600DFE801F0044CC3C325799A
:10567000940040F65040C2F200004068002800F05C
:105680009B809EF80000C1E0032840F0B180042018
:105690005070B0BD517859B140F66843C2F2000372
:1056A0001B881BB9BEF80430002BD4D10421D1E7EC
:1056B0000021D0E7BEF8040000210028917078D0C6
:1056C000BEF80000022800F09480411E062980F0F8
:1056D000908040F66841C2F200010988002940F03C
:1056E0008A80BEF80610002918BF01210628C0F0E4
:1056F000AB80831FB3FA83F35B09194018BF507066
:1057000079E040F22043C2F200031988BEF802009B
:1057100040F21C4C8142C2F2000C04D19CF80010F3
:10572000012900F0A280BEF8001002296AD04C1EA8
:10573000062C67D20129517040F09680BEF80650C1
:105740004FF6E85E754569D140F65041C2F200015E
:105750004FF0FF34C2F804E08C6081E040F220405A
:10576000C2F200000088BEF802100E238842937037
:1057700008D0DCF8000028B940F21C40C2F200005A
:105780000078507040F21C40C2F200000521017008
:10579000B0BDBEF806004FF6FF7188421AD001284E
:1057A0001ED10120907048F20000CFF6FF7090608B
:1057B00018E0062090701EE040F21E40C2F2000089
:1057C000018842F20F7399421FD8013101800120F4
:1057D00090701CE0012090704FF40040906001E058
:1057E0000420507040F21C40C2F2000006210170FB
:1057F000B0BD0420907040F21C40C2F200000421B1
:105800000170B0BD042151702EE00420507040F2B0
:105810001C40C2F2000000210170B0BD40F6A8316A
:10582000C2F20001C9694CF25034A54238BF2C467F
:10583000091BC929546009DB40F65041C2F200013E
:1058400001258D6095700DE05070D4E711F1C90FFE
:105850001BDC40F65041C2F200014FF0FF358D6075
:10586000012191700021116118809078012808D1E0
:10587000106942F20F718842C7BF02209070013058
:10588000106101208CF80000B0BD40F65041C2F21A
:10589000000100258D6004219170E5E7B0B5044654
:1058A00040F28800C2F20000008C4FF48031B1FB5E
:1058B000F0F040F22445C2F200052860FDF7D0FD6B
:1058C0002062FDF7CDFD296890FBF1F202FB11008B
:1058D00001F0F0FFA061B0BDF0B581B00446072033
:1058E000FBF77AFE06460820FBF776FE07460920FE
:1058F000FBF772FE054630B2A0F500604FF4006180
:1059000001F0D8FF40F28806C2F20006316B02F0C7
:1059100021F8206038B2A0F500604FF4006101F07A
:10592000C9FF316B02F016F8606028B2A0F5006084
:105930004FF4006101F0BEFF316B02F00BF8A06084
:105940000020FBF749FE00B2206301B0F0BD00006B
:1059500040F6A830C2F200004FF6FF71C1877047D1
:10596000F0B581B00D460446FDF77AFD40F22847B8
:10597000C2F2000740F624463968C2F200063060E1
:10598000401A10F5004FB8BF00F5803040F23441A6
:10599000B0F5004FC8BFA0F58030C2F2000108602A
:1059A0006843C0EB001040F620458100C2F20005BC
:1059B000206929604EF2666101F0CCFF2A6800215F
:1059C0000546C0F6B831104601F074FF41F6991152
:1059D00001F0C0FF316828442061396001B0F0BD9A
:1059E0007047000040F22C4C036BC2F2000CBCF874
:1059F000002040F233318B4208DB91084A2999BFDD
:105A0000501CACF80000012141877047002A19BFE3
:105A1000501EACF80000002141877047B0B540F23D
:105A20002E45C2F20005044628460321FCF7C2FCBD
:105A300040F230402A78C2F2000001883AB10029D1
:105A400019BF013901800020A4F84000B0BD04292D
:105A500099BF013101800120A4F84000B0BD0000D1
:105A60007047000084B010B50DF1080C8CE80700F9
:105A700080B20128059315D102AC6088B0F5887F0B
:105A800012D1A088172811D120464FF48771FFF753
:105A9000D9F8A4F80E01002021464FF48872FCF7D3
:105AA000BFFE04E0012002E0012000E00120BDE88B
:105AB000104004B0704700002DE9F041C0B040F63E
:105AC000FE36C2F20006308840F2043840F2880404
:105AD000C0F202180128C2F2000452D140F29845E7
:105AE000C2F20005698840F2A047C2F2000779803F
:105AF000A988288801293880B98009D0B1BB4F28EE
:105B000038D9A0F57A71372927D94FF0FF3035E021
:105B100040F2BC11C2F20001497801F0FE010429F3
:105B20002DD1A0F10C01402962D2E169414540F03C
:105B3000B380E98804EB4000A0F87010ACE051F8A5
:105B4000043B043A40F8043BF9D194E80F00FFF716
:105B500089FF2888B0F57A7F0CD34FF6184104EB03
:105B60004000CFF6FF7130F8110007E04FF0FF3032
:105B7000388004E004EB4000B0F87000F8800220A8
:105B80003080E069404530D140F25855C2F20005FE
:105B9000286842F2C0710130C0F2090188422860D1
:105BA00023D341F2A160C0F20300E061684604F132
:105BB000100140F2001251F8043B043A40F8043B53
:105BC000F9D194E80F00FFF74DFF40F29840C2F280
:105BD0000000008840F2A04104EB4000B0F87000E3
:105BE000C2F20001C8800020286040B0BDE8F0810A
:105BF0004E2800F26080DFE810F055006D00710063
:105C0000750084004F0088009200CE00A1004F0074
:105C10004F004F004F004F004F004F004F004F000C
:105C20004F004F004F004F004F004F004F004F00FC
:105C30004F004F004F004F004F004F004F004F00EC
:105C40004F004F004F004F004F004F004F004F00DC
:105C50004F004F004F004F004F004F004F004F00CC
:105C60004F004F004F004F004F004F004F004F00BC
:105C70004F004F004F004F004F004F004F004F00AC
:105C80004F004F004F004F004F004F004F004F009C
:105C90004F00AD00B700C100684604F1100140F2AA
:105CA00000124CE7E88841F69661884238BF014609
:105CB000A4F87010F0E740F2F631884277D040F255
:105CC000F7318842E8D1E88840F26C51C2F2000115
:105CD000488072E0E888A4F87200DDE7E888A4F85C
:105CE0007400D9E7E0694045D6D1E88842F228310E
:105CF0001E2898BF1E20884228BF0846A4F87600B8
:105D0000CAE7E888A4F87800C6E7E888142898BFAE
:105D10001420632828BF6320A4F87C00BCE7E06956
:105D20004045B9D1E8880A2898BF0A20B0F5167F07
:105D300028BF4FF41670A4F87E00ADE7E8880A2863
:105D400098BF0A20B0F5167F28BF4FF41670A4F84C
:105D50008200A1E7E06940459ED1E888002808BF9D
:105D60000120A4F8080197E7E069404594D1E8884C
:105D7000002808BF0120A4F80A018DE7E06940452A
:105D80007FF48AAFE88841F28831884288BF0146B3
:105D9000A4F80C1180E7E88842F21071322898BF0D
:105DA0003220884228BF0846A4F8800074E7E888BB
:105DB00040F26C51C2F20001088008680021E061E5
:105DC00040F25850C2F20000016065E770470000E1
:105DD00010B5D0E9001204460069891AE16101F0AA
:105DE000B9FDA268D4E9093108449A4220620ED074
:105DF0000028024648BF424200290B4648BF4B429A
:105E00009A4204DB08464FF6705101F0A3FDE169A8
:105E1000E2682062A0620144104601F09BFD6169C6
:105E20006062884204DCA1698842B8BF0846014626
:105E3000A16010BDB0B540F218420023C4F20202C6
:105E400003704FF400731360902300BF013B00BF49
:105E5000FCD14FF080731360902300BF013B00BF63
:105E6000FCD100234FF4807C4FF0807E04786400E6
:105E700004709024C2F800C0013C00BFFCD152F86D
:105E8000084C0578C4F340242C4304709024C2F8D5
:105E900000E000BF013C00BFFCD1072B03F1010370
:105EA000E4D339B14FF0007010609020013800BF8A
:105EB000FCD106E04FF4007010609020013800BF64
:105EC000FCD14FF480701060902000BF013800BFFB
:105ED000FCD14FF080701060902000BF013800BFEF
:105EE000FCD14FF000701060902000BF013800BF5F
:105EF000FCD14FF400701060902000BF013800BF4B
:105F0000FCD1B0BD2DE9F04F87B00090002043F6E2
:105F1000300A0190C4F2020ADAF8140040F2004597
:105F200040F01000CAF81400DAF81400002100F064
:105F300010000190019802264020C4F202050DF1E4
:105F4000040B46F2884741F20C04CDE9026101904E
:105F50004FF0070828465946C4F20207C4F201046C
:105F60000496CDF81480FDF71BFF4FF00109802047
:105F70000296CDE90396019028465946CDF8148043
:105F8000FDF70EFF4FF4805005F58065CDE90299CD
:105F90000190284659460496FDF702FF28464FF423
:105FA00080510022FDF7D6FF0020206040F29810BB
:105FB000C2F20000006800994008B0FBF1F04FF613
:105FC000FF7180B244F8040C2068002288432060EE
:105FD000606847F66F7188436060A06840F6FF71A3
:105FE0008843A0602068002140F05C002060A06829
:105FF00040F0C000A060206840F4005020602520E0
:10600000FEF722F82520FEF70FF800210691DAF8B6
:10601000000040F48000CAF80000DAF8000000F444
:106020008000069006980691DAF80000002140F4FE
:106030008000CAF80000DAF8000000F48000069042
:106040000698396057F87C0C40F47C6047F87C0C6B
:106050003868C0071FBF38685FEAC07038685FEAF9
:10606000C07002D03868C007F2D140F25445C0F683
:10607000010505F1B000386040F2A760C2F20000EF
:10608000F860083CFF20BC60786080207861386848
:10609000062140F001003860442000220026FDF770
:1060A000D3FF4420FDF7C0FF3E6357F87C0C40F05F
:1060B0007C6047F87C0C386BC00709D0386BC00790
:1060C0001CBF386B5FEAC07002D0386BC007F2D1DA
:1060D00040F6A810C2F200003D63F8630020BC63E4
:1060E000786380207864462006210022FDF7ACFF0B
:1060F0004620FDF799FF002007B0BDE8F08F0000B3
:10610000B0B540F68044C2F20004217840F6A810F1
:10611000C2F200000222027021BB40F6000046F2EB
:10612000B845C4F202004FF480510122C4F20205C6
:10613000FDF710FF286820F0010028602868C007DC
:106140001FBF28685FEAC07028685FEAC07002D08D
:106150002868C007F2D101206860296841F0010178
:106160002960207000202070B0BD000040F29452E1
:10617000C2F2000241889388994203D11078012825
:106180001BD07047918059B30188012928D1012182
:106190001170C18840F6C41399424FF0000388BFC4
:1061A000012301FA03F3C2E9023100794FF0000C38
:1061B00050700320C2F810C090709068012814DB62
:1061C0005178937801389942906011D1D2E9031047
:1061D000431C88421361A2BF002010707047D0E7B3
:1061E000042010700020106170470220107070476A
:1061F00048F21F52C5F2EB12A0FB02235A09642396
:1062000002FB130028B1322818BF7047062000F0A7
:1062100005B80320032100F001B8000080B586B066
:1062200001228DF80420002206288DF80500ADF823
:10623000062009D003280CD10120ADF80A0001A8DE
:1062400000F00EF806B080BD29B1022905D0012961
:10625000F2D006B080BD0020EFE70220EDE700009D
:10626000B0B590B001884288C088ADF8001011BA6E
:1062700000BA090C000CADF80210ADF80400684635
:106280000621FEF7DFFC40F61944C2F20004217833
:10629000ADF8060069BB40F6004046F27005C4F256
:1062A000020004210122C4F20205FDF753FEDDE9DC
:1062B000000140F6A822C2F20002C2E900012868EB
:1062C00020F00100286000BF2868C0071FBF2868B1
:1062D0005FEAC07028685FEAC07002D02868C00713
:1062E000F2D108206860286840F001002860012091
:1062F000207040F2D010C2F20000018849000180F5
:1063000010B0B0BD70470000B0B540F20054C2F20A
:106310000004D4E901154DF6B250A56101F01AFB55
:10632000A26900EB65030321981AE361002BC8BF43
:1063300002210028C8BF0139002A48BFC1F1070166
:10634000A1840139042920620FD8DFE801F0030994
:106350000E030900111AC4E903311A46184608E071
:106360001844C4E90302114603E041421A44C4E957
:10637000030152426261BDE8B04000F075BC00000C
:106380002DE9F041C0B040F2D84440F23451C2F29D
:106390000004C2F2000160880A8840F23658904238
:1063A000C2F200082FD022880880022A12D0012AC7
:1063B00029D1A18840F602420139C2F20002B1FAA5
:1063C00081F113884909012BA8F8001004BF0223AA
:1063D00013801AE0A188012903D10121A8F8021035
:1063E00008E00021A8F8021040F22851C2F2000192
:1063F00002228A8040F60241C2F200010A88012A84
:1064000004BF02220A80B8F80010002940F230567A
:1064100040F66841C2F20006C2F200010FD001222C
:106420000A80218840F22857C2F20007398031885B
:1064300078806329BA8017D8481C308046E0002055
:10644000088040F2F031C2F2000109783080002962
:1064500040F23251C2F20001088026D040F22851A9
:10646000C2F20001888031E040F28803C2F20003EA
:1064700000205885684603F1100140F2001251F8DF
:10648000045B043A40F8045BF9D10FCBFFF7EAFA5A
:1064900090B140F23250C2F20000018802290ED8B9
:1064A000013101800020308010E040F22850C2F21B
:1064B00000000221818009E000F00AF906E00221D3
:1064C000B9800021A8F8001031800180B8F80200DE
:1064D00078B1206840F22851C2F20001086030888B
:1064E000012263288A8014D80130308040B0BDE892
:1064F000F08140F65040C2F2000041680020308038
:1065000071B140F22851C2F20001888040B0BDE86C
:10651000F0810020308040B0BDE8F04100F0D8B8F4
:1065200040F22850C2F200000221818040B0BDE854
:10653000F081000040F27800C2F2000040780007CD
:1065400058BF704740F60440C2F2000030F8011F07
:1065500041F008010180704740F27800C2F200006B
:106560000078800758BF704740F60440C2F2000030
:10657000017841F0020101707047000040F278009C
:10658000C2F200000078C00708BF704740F6044020
:10659000C2F20000017841F0010101707047000073
:1065A000F0B581B0054608460C4601F0D9F906461B
:1065B000204601F03FF904462846214601F0CAF979
:1065C00007462846314601F0C5F93F1A28463146AC
:1065D00001F0C0F906462846214601F0BBF940F219
:1065E00000513044C2F20001C1E9017001B0BDE8C0
:1065F000F040FFF789BE0000F0B581B044F200041E
:10660000C0F6000440F290562188C2F20006032032
:10661000307021F0010040F2F231C2F20001088036
:1066200020460122FCF76EFE40F29357C2F20007AB
:10663000387088B1307878B140F2F235C2F2000596
:1066400001383070204629460122FCF75BFE387085
:1066500010B130780028F3D101B0F0BDF0B581B0B1
:1066600044F2000440F29056C0F60004C2F2000664
:1066700003203070208840F2F231C2F2000142075C
:1066800008805CBF01B0F0BD20F004000880204607
:106690000122FCF737FE40F29357C2F20007387030
:1066A00088B1307878B140F2F235C2F20005013895
:1066B0003070204629460122FCF724FE387010B1C4
:1066C00030780028F3D1EFF3108072B600F0CAFEE4
:1066D000EFF3108072B600F0C5FE000070B5D0E98F
:1066E000001204460069891AE16101F033F9A268D9
:1066F000D4E9093108449A4220620ED000280246AB
:1067000048BF424200290B4648BF4B429A4204DB35
:1067100008464FF6705101F01DF920622268D4E955
:106720000C51A66BA062104601F014F96168411A81
:10673000304601F00FF90146284601F00BF9626C72
:10674000D4E90F13821A9818C4E9112001F002F954
:106750002064D4E90712A36CE0681144194401F0E5
:10676000F9F861696062884204DCA1698842B8BFB7
:1067700008460146A16070BDF0B581B0002440F22A
:106780008805C0F60A04C2F200052268E86840F2F3
:106790009056C2F200060321824231706A611BD01A
:1067A000294641F8140F20460122FCF7D5FD40F29E
:1067B0009357C2F20007387070B1307860B1143569
:1067C00001383070204629460122FCF7C5FD38709B
:1067D00010B130780028F3D101B0F0BDF0B581B030
:1067E000002440F28805C0F60404C2F200052268C5
:1067F000E86840F29056C2F20006032182423170EE
:106800002A611BD0294641F8100F20460122FCF7CF
:10681000A3FD40F29357C2F20007387070B1307890
:1068200060B1103501383070204629460122FCF74E
:1068300093FD387010B130780028F3D101B0F0BD6D
:10684000FDF7A2BB4EF68850CEF2000001684FF073
:10685000000C41F47001016043F60001C4F2020132
:106860000A6842F001020A60C1F808C00B684FF6DE
:10687000FF72CFF6F6621A400A6043F21002C2F2CB
:1068800000424A600A6822F480220A60C1F80CC003
:106890004FF0006140F8801C7047000010B54EF2C8
:1068A00080201024CEF200004FF08051C4F200048A
:1068B00001602068C00708D040F67840C2F20000AE
:1068C00001680131016000F03FF90020206010BD37
:1068D00010B54EF2802040F21044CEF200004FF08E
:1068E0000051C4F2000401602068C00710D040F2DB
:1068F0003C50C2F2000001684CF6CD420131CCF6AA
:10690000CC424A43B2F1333F016098BFFFF7F8FB36
:106910000020206010BD00004EF2842140F610409F
:10692000CEF200014FF48022C4F200000A60016838
:10693000C9070CD040F67C41C2F200010A6801325E
:106940000A6040F68241C2F2000101220A70002171
:106950000160704710B582B0002143F640020191FA
:10696000C4F20202136840F2004443F002031360D1
:106970001268C4F2000402F002020192019A20227D
:106980002160626040F64052C0F20302B2FBF0F0B8
:10699000616240F2A3110138A162E0620120E0606F
:1069A0001D2004210022FDF74FFB1D20FDF73CFBBD
:1069B000206840F00100206002B010BD10B5022038
:1069C000FAF70AFEB0F58B7F07D840F25451C2F2B5
:1069D0000001002200200A8010BD40F62C71884280
:1069E0006CD848F28A4C0022C0F60A0C0CEB8203E9
:1069F000B3F9061081422BDCB3F90A1081422ADC7C
:106A0000B3F90E10814229DCB3F91210814228DC5F
:106A1000B3F91610814227DCB3F91A10814226DC43
:106A2000B3F91E10814225DCB3F92210814224DC27
:106A3000B3F92610814223DCB3F92A10814222DC0B
:106A4000B3F92E10814221DC0B32212ACED1BCE7D2
:106A50008BB201321CE08BB2023219E08BB20332EE
:106A600016E08BB2043213E08BB2053210E08BB229
:106A700006320DE08BB207320AE08BB2083207E033
:106A80008BB2093204E08BB20A3201E08BB20B32D6
:106A900019B20CEB82033CF8224033F9022C081A9D
:106AA000891A00F007FF01464FF4FA7000F052FF18
:106AB000201A00B2B0F5FA5F7FF787AF40F2545169
:106AC000C2F200010888421C93B20020B3F5FA6FAD
:106AD00084BF012000220A8010BD000040F67840EB
