:02000004080AE8
:101000008830002069120A0859800A0869590A08BC
:10101000197C0A08A91A0A084DAA0A08000000004B
:10102000000000000000000000000000C58E0A085B
:10103000253B0A080000000085890A0815920A0865
:1010400083120A0883120A0883120A0883120A0804
:1010500083120A0883120A0883120A0883120A08F4
:1010600083120A0883120A0883120A0859360A08EA
:1010700099360A08D9360A0819370A082D370A0896
:1010800041370A0881370A08A9150A0883120A0895
:10109000AD1A0A0883120A0883120A0883120A0882
:1010A00083120A0883120A0883120A0883120A08A4
:1010B00083120A0883120A0883120A0883120A0894
:1010C00083120A0883120A0883120A0883120A0884
:1010D000698E0A08E19F0A0855A00A08CDA00A08EF
:1010E00083120A0883120A0883120A0883120A0864
:1010F00083120A0883120A0883120A0895370A081D
:1011000083120A0883120A0871920A0883120A08D5
:10111000F19E0A08699F0A0883120A08B5920A0814
:10112000A9370A08BD370A08FD370A0883120A08DA
:101130003D380A08000000000000000083120A0881
:1011400083120A08C51A0A0883120A0883120A08B9
:1011500083120A0851380A0865380A0841A10A08AA
:1011600083120A0883120A0883120A0883120A08E3
:1011700083120A0883120A08000000000000000021
:1011800083120A0883120A0800F002F800F05CF8E3
:101190000AA090E8000C82448344AAF10107DA45D2
:1011A00001D100F051F8AFF2090EBAE80F0013F0C8
:1011B000010F18BFFB1A43F001031847C4AA00002F
:1011C000E4AA00000A444FF0000C10F8013B13F0B1
:1011D000070408BF10F8014B1D1108BF10F8015B90
:1011E000641E05D010F8016B641E01F8016BF9D183
:1011F00013F0080F1EBF10F8014BAD1C0C1B09D1DA
:101200006D1E58BF01F801CBFAD505E014F8016B4B
:1012100001F8016B6D1EF9D59142D6D370470000DD
:101220000023002400250026103A28BF78C1FBD8EF
:10123000520728BF30C148BF0B6070471FB50AF086
:10124000A1FB1FBD10B510BD00F069F91146FFF7F5
:10125000F5FF09F0C7FF00F087F903B4FFF7F2FFCD
:1012600003BC00F08FF90000094880470948004797
:10127000FEE7FEE7FEE7FEE7FEE7FEE7FEE7FEE746
:10128000FEE7FEE704480549054A064B70470000A3
:1012900019920A0889110A08882A0020883000203B
:1012A000882C0020882C002053EA020C00F0698072
:1012B0002DE9F04B4FF00006002B1FBFB3FA83F56A
:1012C00003FA05F424FA05F65E4012BF1643B2FA9B
:1012D00082F502FA05F4C5F120051EBF22FA05FCCD
:1012E00044EA0C04203556EA044C4FEA144418BF73
:1012F000641C4FF000084FF00009904271EB030CA2
:1013000039D3002919BFB1FA81F701FA07F6B0FA0B
:1013100080F700FA07F6C7F120071EBF20FA07FC86
:1013200046EA0C062037B6FBF4FCA7EB0507103F96
:1013300007F01F0BCBF120062CFA06F60CFA0BFB7C
:1013400044BFB3460026202FA4BF5E464FF0000BDB
:101350005BEA060C08BF4FF0010B19EB0B0948EBD9
:101360000608ABFB027C06FB02CC0BFB03CCC01BCC
:1013700071EB0C01C1E70B46024641464846BDE809
:10138000F08B13B5084318BF4FF0FF300146AFF3A1
:101390000080BDE81C407047032A40F2308010F006
:1013A000030C00F0158011F8013BBCF1020F624400
:1013B00098BF11F801CB00F8013B38BF11F8013B91
:1013C000A2F1040298BF00F801CB38BF00F8013B3E
:1013D00011F0030300F02580083AC0F0088051F8AE
:1013E000043B083A51F804CBA0E80810F5E7121DB9
:1013F0005CBF51F8043B40F8043BAFF30080D207D8
:1014000024BF11F8013B11F801CB48BF11F8012BA3
:1014100024BF00F8013B00F801CB48BF00F8012BC6
:10142000704710B5203AC0F00B80B1E81850A0E822
:101430001850B1E81850A0E81850203ABFF4F5AFA2
:101440005FEA027C24BFB1E81850A0E8185044BFFE
:1014500018C918C0BDE810405FEA827C24BF51F86B
:10146000043B40F8043B08BF7047D20728BF31F85F
:10147000023B48BF11F8012B28BF20F8023B48BFB0
:1014800000F8012B70474FF000020429C0F01280D1
:1014900010F0030C00F01B80CCF1040CBCF1020F27
:1014A00018BF00F8012BA8BF20F8022BA1EB0C01FC
:1014B00000F00DB85FEAC17C24BF00F8012B00F8F2
:1014C000012B48BF00F8012B70474FF0000200B518
:1014D000134694469646203922BFA0E80C50A0E857
:1014E0000C50B1F12001BFF4F7AF090728BFA0E805
:1014F0000C5048BF0CC05DF804EB890028BF40F8D1
:10150000042B08BF704748BF20F8022B11F0804F12
:1015100018BF00F8012B7047704770477047754639
:1015200000F02CF8AE4605006946534620F007004F
:10153000854618B020B5FFF7A5FEBDE820404FF066
:1015400000064FF000074FF000084FF0000BAC46CC
:10155000ACE8C009ACE8C009ACE8C009ACE8C00917
:1015600021F007018D46704710B50446AFF30080A7
:101570002046BDE81040FFF770BE000000487047ED
:101580005003002001491820ABBEFEE726000200F0
:10159000704700000C2805D842F25E21C2F200011B
:1015A00031F8101088B270477047000042F208000E
:1015B000C4F20100D0F8001241F08041C0F80012DE
:1015C000016841F08041016070470000B0B540F211
:1015D0007C4540F28044C2F200050020C2F20004C3
:1015E000288000BFC0B2FFF7D5FF298824F811007A
:1015F000481C81B20D292880F4D3D4E900E104F11C
:10160000080C40F2B0309CE82C10C2F20000C0E997
:1016100000E100F108012CC1218BC0F814C0018346
:10162000B0BD0000B0B542F65421C2F20001096815
:1016300040F20075421A40F66060C2F20005012ACD
:10164000C2F200002A601EDB40F2EE03C2F2000389
:101650001B8842F62C245A43D310C2F200042360A4
:1016600023EAE27242F67D23C2F20003FF2AA8BFFA
:10167000FF221A7040F66863C2F200031A7000225B
:101680004271012229E0B2F1FF3F07DD40F66863B5
:101690000022C2F2000342711A701EE040F2EE0313
:1016A000C2F200031B8840F668645A43D31003EB70
:1016B000E27383EAE27342F62C22C2F20002136064
:1016C00042F67D22C2F20002C82BA8BFC8231370C5
:1016D000C2F2000400222270437147F20074C0F28B
:1016E00001040271084621460AF046F941F2707180
:1016F000884205DB40F66860C2F2000000210170FC
:101700002D6864202146002D48BF6D420AF0E4F8A0
:1017100040F2CA31C2F200010A88854202F1010298
:10172000C8BF00220A80B0BD10B542F2FC21C2F24F
:101730000001096842F2F422411A40F23420C2F258
:1017400000000068C2F2000211600AF015F940F2D0
:10175000D834C2F20004216803220AF04DF84FF495
:10176000202120600AF0B8F8014640F68E508142F0
:1017700013DC20684FF420210AF0AEF84FF27221FA
:10178000CFF6FF71884203DA4FF2722000B210BD2B
:1017900020684FF420210AF09FF800B210BD00002D
:1017A000704700002DE9F04786B040F200060320A4
:1017B000C2F200060290306801AC4FF0020A4FF00E
:1017C00001092146CDE903AACDF8049003F028FCD5
:1017D00070684FF004082146CDF8048003F020FC27
:1017E0000821B0680191214603F01AFCF068102529
:1017F0002146019503F014FC30692027214601970A
:1018000003F00EFC70692146CDF8049003F008FC4B
:10181000B0692146CDF804A003F002FCF06921462E
:10182000019503F0FDFB306A2146019703F0F8FBB8
:101830008021706A0191214603F0F2FBB06A4FF4F7
:1018400080772146019703F0EBFB4FF40071F06ABB
:101850000191214603F0E4FB4FF48061306B01916C
:10186000214603F0DDFB002643F630000096C4F26B
:101870000200416942F2340441F4806141614169EE
:101880004BF2DB6201F4806100910099009641699E
:10189000C4F2010441F4807141614169C1F66D32C5
:1018A00001F48071009100994BF2DB61C0F26D315F
:1018B00044F8281C44F8242CC4F8D811C4F8DC21BE
:1018C000019601684FF4804241F480010160016893
:1018D0004FF4401301F4800101910199D4F8D4111F
:1018E00042F25E2521F00101C4F8D41154F82C1CF9
:1018F000C2F2000521F0010144F82C1C40F2003135
:10190000CEF60001C4F8D071C4F8D411C4F8D022C6
:10191000C4F8F831C4F8FC61C4F80062D4F80032AD
:1019200043F00503C4F80032D4F8003243F0C0039A
:10193000C4F80032D4F8003243F4E053C4F8003263
:10194000D4F8003243F48023C4F8003244F8307CE9
:1019500044F82C1C4FF40001C4F8D02244F8081CB1
:1019600044F8046C2660216846F2104741F00A01F1
:1019700021602168C4F2020741F4C071216021682E
:10198000002241F450512160216841F4E02121609E
:10199000216841F470012160216841F0805121608B
:1019A00054F8041C41F0090144F8041C54F8041CC8
:1019B00041F0800144F8041C54F8041C41F4A05187
:1019C00044F8041C0196016841F48001016000683C
:1019D000032100F480000190019842F61050C0F2FB
:1019E00001403E60386005F11200F86004F50670B1
:1019F000B8603820C7F804807E6103F065FC3820A9
:101A000003F052FC3868032140F00100386042F6D0
:101A10001050C0F201003E66386604F11800FD6601
:101A2000B866092078663C2000227E6703F04CFCF3
:101A30003C2003F039FC386E022140F0010038668A
:101A40001220002203F040FC122003F02DFCD4F8F9
:101A5000D40140F00100C4F8D40154F82C0C40F03B
:101A6000010044F82C0C06B0BDE8F08707F02CFA12
:101A7000EFF3108072B609F073FB000042F2685178
:101A8000C2F200010A885AB142F26C5C8B78C2F251
:101A9000000CACF8122003700020088040B27047A0
:101AA000FF2040B270470000FEE7000080B540F222
:101AB0004840C2F2000002F08FFFBDE8804001F014
:101AC00031BC000080B540F22040C2F2000002F0BC
:101AD00083FFBDE8804000F0F1BF000070B546F222
:101AE0000045C4F20005A869D5F8181400F00702F3
:101AF00040F2184601F00700C2F20006072A3060E3
:101B00001FD142F64420C2F20000016840F248446E
:101B10000131C2F2000401602046012102F0AAFD59
:101B20002046022102F0A6FD2046042102F0A2FD7B
:101B3000286840F400402860286820F003002860EE
:101B40003068072818BF70BD42F64820C2F2000076
:101B5000016840F220440131C2F2000401602046D5
:101B6000012102F087FD2046022102F083FD20467C
:101B7000042102F07FFDD5F8000440F40040C5F8D0
:101B80000004D5F8000420F00300C5F8000470BD7F
:101B900080B542F64C22C2F2000210684CF6CD41EC
:101BA0000130CCF6CC41A0FB0113190901EB8101F6
:101BB000A0EB81011329106000F26B83DFE811F0C4
:101BC00014004B00690378006903A5006903D20083
:101BD0006903FF0069033101690363016903BF0100
:101BE0006903F1016903950140F6B960C2F2000092
:101BF0000178012940F00C8240F21C41C2F2000140
:101C000040F211120A800021017041F21831C2F233
:101C1000000140F21110086042F67520C2F2000087
:101C20000078082201284A6000F0238642F67620D8
:101C3000C2F200000078012800F01B8640F6385000
:101C4000C2F20000D0E9000241F8080F40F2111082
:101C50004A6000F006BE40F21C40C2F200004FF4A1
:101C60008871018041F21831C2F200014FF488708E
:101C7000086042F67520C2F20000007808220128B0
:101C80004A6000F0F68542F67620C2F20000007845
:101C9000012800F0EE8540F64850C2F20000D0E97D
:101CA000000241F8080F4A604FF4887000F0D9BD77
:101CB00040F21C40C2F200004FF49071018041F2EA
:101CC0001831C2F200014FF49070086042F675209E
:101CD000C2F200000078082201284A6000F0C9859D
:101CE00042F67620C2F200000078012800F0C1859B
:101CF00040F6C850C2F20000D0E9000241F8080FD7
:101D00004A604FF4907000F0ACBD40F21C40C2F24B
:101D100000004FF49871018041F21831C2F20001C5
:101D20004FF49870086042F67520C2F20000007807
:101D3000082201284A6000F09C8542F67620C2F213
:101D400000000078012800F0948540F6B040C2F20F
:101D50000000D0E9000241F8080F4A604FF4987083
:101D600000F07FBD40F21C40C2F200004FF4A071B1
:101D7000018041F21831C2F200014FF4A0700860F6
:101D800042F67520C2F200000078082201284A605D
:101D900000F06F8542F67620C2F20000007801283C
:101DA00000F0678540F64040C2F20000D0E9000232
:101DB00041F8080F4A604FF4A07000F052BD40F2A5
:101DC0001C41C2F200014FF48A720A8040F6A85109
:101DD000C2F20001088041F21831C2F200014FF452
:101DE0008A70086042F67520C2F20000007808226E
:101DF00001284A6000F03D8542F67620C2F20000DC
:101E00000078012800F0358540F6A850C2F20000A5
:101E1000D0E9000241F8080F4A604FF48A7000F0E0
:101E200020BD40F21C41C2F200014FF492720A80C0
:101E300040F63061C2F20001088041F21831C2F26E
:101E400000014FF49270086042F67520C2F2000063
:101E50000078082201284A6000F00B8542F67620BF
:101E6000C2F200000078012800F0038540F63060DF
:101E7000C2F20000D0E9000241F8080F4A604FF4B6
:101E8000927000F0EEBC40F21C41C2F200014FF42F
:101E90009A720A8040F60051C2F20001088041F2B5
:101EA0001831C2F200014FF49A70086042F67520B2
:101EB000C2F200000078082201284A6000F0D984AC
:101EC00042F67620C2F200000078012800F0D184AA
:101ED00040F60050C2F20000D0E9000241F8080FBD
:101EE0004A604FF49A7000F0BCBC40F21C40C2F251
:101EF00000006021018041F21831C2F2000160202F
:101F0000086042F67520C2F200000078082201281D
:101F10004A6000F0AE8442F67620C2F200000078FB
:101F2000012800F0A68440F63050C2F20000D0E94B
:101F3000000241F8080F4A60602000F092BC40F2B5
:101F40001C41C2F200014FF4A2720A8040F6904197
:101F5000C2F20001088041F21831C2F200014FF4D0
:101F6000A270086042F67520C2F2000000780822D4
:101F700001284A6000F07D8442F67620C2F200001B
:101F80000078012800F0758440F69040C2F200000D
:101F9000D0E9000241F8080F4A604FF4A27000F047
:101FA00060BC40F6B861C2F200010A78012A65D12E
:101FB00040F21C42C2F200024FF4897313800022E7
:101FC0000A7041F21831C2F200014FF489720A60BE
:101FD00042F67522C2F2000212780823012A4B60F1
:101FE00000F0478442F67622C2F200021278012AFB
:101FF00000F03F8440F65852C2F200025080D2E90D
:10200000002041F8082F48604FF4897000F029BC87
:1020100041F2F720C2F200000178012965D140F2B7
:102020001C41C2F2000140F221120A80002101701D
:1020300041F21831C2F2000140F22110086042F66C
:102040007520C2F200000078082201284A6000F0E2
:10205000108442F67620C2F200000078012800F0D9
:10206000088440F6B850C2F20000D0E9000241F8FE
:10207000080F4A6040F2211000F0F3BB41F2F62154
:10208000C2F200010A78012A40D140F21C42C2F299
:1020900000024FF49173138000220A7041F218314C
:1020A000C2F200014FF491720A6042F67522C2F248
:1020B000000212780823012A4B6000F0DA8342F60E
:1020C0007622C2F200021278012A00F0D28340F692
:1020D000D852C2F200025080D2E9002041F8082F05
:1020E00048604FF4917000F0BCBB40F2E560C2F272
:1020F0000000017801291AD140F21C41C2F200010E
:1021000040F231120A8000210170ECE140F2E461FA
:10211000C2F200010A78012A1AD140F21C42C2F22E
:1021200000024FF49973138000220A7000E240F21B
:10213000D660C2F20000017801291AD140F21C4198
:10214000C2F2000140F241120A800021017042E215
:1021500040F2D561C2F200010A78012A11D140F2A1
:102160001C42C2F200024FF4A173138000220A70D5
:1021700056E240F21C40C2F200004FF4937101801D
:10218000FCE140F6BA61C2F200010A78012A09D1E5
:1021900040F21C40C2F2000040F215120280002002
:1021A000087063E241F2F821C2F200010A78012AC4
:1021B00009D140F21C40C2F2000040F22512028018
:1021C0000020087077E240F2E661C2F200010A786E
:1021D000012A09D140F21C40C2F2000040F235123F
:1021E0000280002008708BE240F2D761C2F2000149
:1021F0000A78012A09D140F21C40C2F2000040F2E4
:1022000045120280002008709FE240F6BB61C2F2D6
:1022100000010A78012A09D140F21C40C2F20000F4
:1022200040F2131202800020087037E141F2F921D8
:10223000C2F200010A78012A09D140F21C40C2F220
:10224000000040F22312028000200870A1E240F258
:10225000E761C2F200010A78012A09D140F21C406C
:10226000C2F2000040F23312028000200870B3E294
:1022700040F2D861C2F200010A78012A09D140F285
:102280001C40C2F2000040F243120280002008709D
:10229000C5E240F21C41C2F2000109886039E5291B
:1022A00000F2E782DFE811F0F900E502E502E5025D
:1022B000E502E502E502E502E502E502E502E502E6
:1022C000E502E502E502E502E502E502E502E502D6
:1022D000E502E502E502E502E502E502E502E502C6
:1022E000E502E502E502E502E502E502E502E502B6
:1022F000E502E502E502E502E502E502E502E502A6
:10230000E502E502E502E502E502E502E502E50295
:10231000E502E502E502E502E502E502E502E50285
:10232000E502E502E502E502E502E502E502E50275
:10233000E502E502E502E502E502E502E502E50265
:10234000E502E502E502E502E502E502E502E50255
:10235000E502E502E502E502E502E502E502E50245
:10236000E502E502E502E502E502E502E502E50235
:10237000E502E502E502E502E502E502E502E50225
:10238000E502E502E502E502E502E502E502E50215
:10239000E502E502E502E502E502E502E502E50205
:1023A000E502E502E502E502E502E502E502E502F5
:1023B000E502E502E502E502E502E502E502E502E5
:1023C000E502E502E502E502E502E502E502E502D5
:1023D000E502E502E502E502E502E502E502E502C5
:1023E000E502E502E502E502E502E502E502E502B5
:1023F000E502E502E502E502E502E502E502E502A5
:10240000E502E502E502E502F700F500F400FA0056
:10241000F200E201E502E502E502E502E502E5027D
:10242000E502E502E502E502F000EF00EE007502CC
:10243000EC0007026A01E502E502E502E502E502B9
:10244000E502E502E502E502EA001F014401980207
:10245000E9002C02E502E502E502E502E502E502FB
:10246000E502E502E502E502E7009701BC01BB02D7
:10247000E60051026FE5FFF77CBC10E5FFF74CBCAE
:10248000FFF7DBBC0AE6D3E5FFF719BCFFF7A3BCF7
:1024900097E5FFF7BABBFFF7E5BB2CE541F2183132
:1024A000C2F2000140F21310086042F67520C2F239
:1024B00000000078082201284A6000F0DA8142F624
:1024C0007620C2F200000078012800F0D28140F6A8
:1024D0007050C2F20000D0E9000241F8080F4A60D3
:1024E00040F21310BDE141F21831C2F2000140F296
:1024F0003110086042F67520C2F200000078082210
:1025000001284A6000F0B58142F67620C2F2000050
:102510000078012800F0AD8140F6A040C2F2000032
:10252000D0E9000241F8080F4A6040F2311098E10A
:1025300041F21831C2F200014FF499720A6042F67A
:102540007522C2F2000212780823012A4B6000F0C3
:10255000908142F67622C2F200021278012A00F03F
:10256000888140F6C042C2F200025080D2E90020C9
:1025700041F8082F48604FF4997072E141F2183128
:10258000C2F200014FF49370086042F67520C2F267
:1025900000000078082201284A6000F06A8142F6B3
:1025A0007620C2F200000078012808BF80BD40F606
:1025B0000060C2F20000D0E9000241F8080F4A6052
:1025C0004FF49370082200F099FD40F21441C2F2DA
:1025D000000108704DE141F21831C2F2000140F2F1
:1025E0004110086042F67520C2F20000007808220F
:1025F00001284A6000F03D8142F67620C2F20000D8
:102600000078012800F0358140F63040C2F2000029
:10261000D0E9000241F8080F4A6040F2411020E181
:1026200041F21831C2F200014FF4A1720A6042F681
:102630007522C2F2000212780823012A4B6000F0D2
:10264000188142F67622C2F200021278012A00F0C6
:10265000108140F65042C2F200025080D2E90020C0
:1026600041F8082F48604FF4A170FAE041F21831A8
:10267000C2F2000140F21510086042F67520C2F265
:1026800000000078082201284A6000F0F28042F63B
:102690007620C2F200000078012800F0EA8040F6BF
:1026A0008050C2F20000D0E9000241F8080F4A60F1
:1026B00040F21510D5E041F21831C2F2000140F2AB
:1026C0002510086042F67520C2F20000007808224A
:1026D00001284A6000F0CD8042F67620C2F2000068
:1026E0000078012800F0C58040F61060C2F20000BA
:1026F000D0E9000241F8080F4A6040F22510B0E02E
:1027000041F21831C2F2000140F23510086042F681
:102710007520C2F200000078082201284A6000F00B
:10272000A88042F67620C2F200000078012800F06E
:10273000A08040F6E840C2F20000D0E9000241F873
:10274000080F4A6040F235108BE041F21831C2F2B6
:10275000000140F24510086042F67520C2F2000008
:102760000078082201284A6000F0838042F6762033
:10277000C2F20000007801287BD040F67840C2F217
:102780000000D0E9000241F8080F4A6040F245100D
:1027900067E041F21831C2F2000140F223100860F4
:1027A00042F67520C2F200000078082201284A6033
:1027B0005FD042F67620C2F200000078012858D09F
:1027C00040F6F050C2F20000D0E9000241F8080FD4
:1027D0004A6040F2231044E041F21831C2F2000195
:1027E00040F23310086042F67520C2F20000007813
:1027F000082201284A603CD042F67620C2F200004E
:102800000078012835D040F6D840C2F20000D0E967
:10281000000241F8080F4A6040F2331021E041F213
:102820001831C2F2000140F24310086042F67520F0
:10283000C2F200000078082201284A6019D042F64E
:102840007620C2F200000078012812D040F66840DD
:10285000C2F20000D0E9000241F8080F4A6040F2DD
:102860004310082200F04AFC40F21441C2F2000179
:10287000087080BD80B540F21E4CC2F2000C9CF87E
:10288000000000224CF6CD43C82838BF421CD0B20D
:10289000CCF6CC43A0FB0331C90801EB8101A0EBCE
:1028A000410005288CF8002088BF80BDDFE800F0DB
:1028B000031A3146677C41F22051C2F2000140F216
:1028C0002620086040F66060C2F20000D0E90003F4
:1028D00008224A60CB6041F8080F40F22620082207
:1028E00000F0DAFD41F22051C2F2000140F2222054
:1028F000086040F66860C2F20000D0E900030822D8
:102900004A60CB6041F8080F40F22220082200F014
:10291000C3FD41F22051C2F2000140F2AC600860F8
:1029200040F64060C2F20000D0E9000308224A608D
:10293000CB6041F8080F40F2AC6049E041F220530F
:10294000C2F2000340F20120186040F68C60C2F22F
:102950000000D0F801100278C088C3F809101946A9
:102960004FF0070CA3F80D0001F8082F40F20120EA
:102970000722C3F804C0BDE8804000F08DBD41F2DD
:102980002051C2F2000140F20130086040F6986028
:10299000C2F20000D0E9000308224A60CB6041F88F
:1029A000080F40F2013013E041F22051C2F2000161
:1029B0004FF4F870086040F65060C2F20000D0E9B1
:1029C000000308224A60CB6041F8080F4FF4F8700A
:1029D0000822BDE8804000F05FBD000080B58AB0ED
:1029E000014640F2204046F60002C2F20000C4F266
:1029F000000240F2340C02604FF08072C2F2000C10
:102A00008261BCF8002000238A428383836011D056
:102A1000BCF814208A4201D101230BE0BCF8282025
:102A20008A4201D1022305E0BCF83C2004238A42FB
:102A300008BF032303EB83010CEB810101F1040CBC
:102A40009CE80C10098AC0E90323C0F814C0416057
:102A500002F0E4F800284FF0010001D00AB080BD78
:102A60000E2100220591CDE90620CDE90022CDE915
:102A700002220490CDE9080140F22040C2F2000099
:102A8000694601F085FE10B102200AB080BD40F217
:102A90002040C2F2000002F0CDF910B103200AB0CC
:102AA00080BD40F22040C2F20000102101F00AFE79
:102AB000002818BF012080000AB080BDB0B540F6E4
:102AC000BC65C2F2000505F10804204600F0F6FAE4
:102AD0000821B0F5407F286069602ADA602840F359
:102AE0005880A0F50071132900F2E680DFE811F0AC
:102AF0001400FE000B01180125013C0146024602AC
:102B00004602460246024602460246024602460285
:102B10004901560163017001EFF3108072B66A68D3
:102B200040F65050C2F200002146FEF77AFC62B631
:102B3000B0BDA0F5407112294ED9A0F580611229CF
:102B400040F26C80A0F5A060122888BFB0BDDFE81D
:102B500010F013004C015901660173018A0115023E
:102B600015021502150215021502150215021502AD
:102B700015029701A401B101EFF3108072B66A68E3
:102B800040F64840C2F200002146FEF74AFC62B619
:102B9000B0BD082800F06480402800F07A805028FA
:102BA00040F0EC81EFF3108072B6D5E9020141F2FA
:102BB0004072C2F20002106040F2E8005160C2F2BE
:102BC00000004FF4FA7162B6018042F67B20C2F237
:102BD000000001210170B0BDDFE811F013007901A0
:102BE00086019301A001B701C401D001D001D00139
:102BF000D001D001D001D001D001D001D101DE013E
:102C0000EB01EFF3108072B66A6840F6D050C2F262
:102C100000002146FEF705FC62B6B0BDDFE811F00A
:102C20001300D601E301F00103021A02AE01AE0166
:102C3000AE01AE01AE01AE01AE01AE01AE01AE011C
:102C4000270234024102EFF3108072B66A6840F640
:102C5000B840C2F200002146FEF7E3FB62B6B0BD09
:102C6000EFF3108072B640F2D410C2F20000C08FB1
:102C700040F2D601C2F200010880A868D5F80B1016
:102C800040F6A862C2F200021060C2F8031062B6F9
:102C9000B0BDEFF3108072B66A6840F2E030C2F265
:102CA00000002146FEF7BDFB42F67420C2F2000090
:102CB0000121017062B6B0BD612840F05F81EFF381
:102CC000108072B640F2D410C2F20000808E40F242
:102CD0003821C2F200016A68088040F62450C2F22E
:102CE00000002146FEF79DFB62B6B0BDEFF31080F9
:102CF00072B66A6840F64050C2F200002146FEF704
:102D000090FB62B6B0BDEFF3108072B66A6840F611
:102D10006050C2F200002146FEF783FB62B6B0BDF0
:102D2000EFF3108072B66A6840F67850C2F2000085
:102D30002146FEF776FB62B66EE1EFF3108072B6C5
:102D40006A6840F6B050C2F200002146FEF769FB07
:102D500040F2D410C2F20000408D40F23A31C2F28B
:102D60000001088062B6B0BDEFF3108072B66A68E9
:102D700040F68850C2F200002146FEF752FB62B6D0
:102D8000B0BDEFF3108072B66A6840F66850C2F2C8
:102D900000002146FEF745FB62B6B0BDEFF31080A0
:102DA00072B66A6840F6A050C2F200002146FEF7F3
:102DB00038FB62B6B0BDEFF3108072B66A6840F6B9
:102DC0009050C2F200002146FEF72BFB62B6B0BD68
:102DD000EFF3108072B66A6840F69850C2F20000B5
:102DE0002146FEF71EFB62B6B0BDEFF3108072B64F
:102DF0006A6840F63840C2F200002146FEF711FB37
:102E000062B6B0BDEFF3108072B66A6840F6584003
:102E1000C2F200002146FEF704FB62B6B0BDEFF33C
:102E2000108072B66A6840F67040C2F20000214617
:102E3000FEF7F7FA62B6EFE0EFF3108072B66A6859
:102E400040F69840C2F200002146FEF7EAFA40F24E
:102E5000D410C2F20000008E40F23431C2F2000100
:102E6000088062B6B0BDEFF3108072B66A6840F6B3
:102E70008040C2F200002146FEF7D3FA62B6B0BD30
:102E8000EFF3108072B66A6840F66040C2F200004C
:102E90002146FEF7C6FA62B6B0BDEFF3108072B6F7
:102EA0006A6840F66040C2F200002146FEF7B9FAB7
:102EB00062B6B0BDEFF3108072B66A6840F6884023
:102EC000C2F200002146FEF7ACFA62B6B0BDEFF3E5
:102ED000108072B66A6840F6C050C2F20000214607
:102EE000FEF79FFA62B6B0BDEFF3108072B66A6863
:102EF00040F6E050C2F200002146FEF792FA62B6B8
:102F0000B0BDEFF3108072B66A6840F6F850C2F2B6
:102F100000002146FEF785FA62B67DE0EFF31080EF
:102F200072B66A6840F63860C2F200002146FEF7C9
:102F300078FA40F2D410C2F20000808D40F23C31A9
:102F4000C2F20001088062B6B0BDEFF3108072B625
:102F50006A6840F61860C2F200002146FEF761FA86
:102F600062B6B0BDEFF3108072B66A6840F60860D2
:102F7000C2F200002146FEF754FA62B6B0BDEFF38C
:102F8000108072B66A6840F6E850C2F2000021462E
:102F9000FEF747FA62B6B0BDEFF3108072B66A680A
:102FA00040F62860C2F200002146FEF73AFA62B607
:102FB000B0BDEFF3108072B66A6840F62060C2F2CE
:102FC00000002146FEF72DFA62B6B0BDEFF3108087
:102FD00072B66A6840F6A840C2F200002146FEF7C9
:102FE00020FA62B6B0BDEFF3108072B66A6840F6A0
:102FF000C840C2F200002146FEF713FA62B6B0BD27
:10300000EFF3108072B66A6840F6E040C2F200004A
:103010002146FEF706FA62B642F27820C2F20000BC
:1030200002210180B0BDEFF3108072B66A6840F6ED
:103030000850C2F200002146FEF7F3F940F2D41026
:10304000C2F20000C08D40F23831C2F200010880A7
:1030500062B6B0BDEFF3108072B66A6840F6F04019
:10306000C2F200002146FEF7DCF962B6B0BDEFF314
:10307000108072B66A6840F6D040C2F20000214665
:10308000FEF7CFF962B6B0BDEFF3108072B66A6892
:1030900040F6D040C2F200002146FEF7C2F962B607
:1030A000B0BDEFF3108072B66A6840F6F840C2F225
:1030B00000002146FEF7B5F962B6B0BD10B588B084
:1030C000044640F22040C2F20000012101F0D2FB90
:1030D00068B140F22040C2F2000001AA012123465B
:1030E00001F0D8FB18B9039808B9049810B1002072
:1030F00008B010BD019808B010BD000010B588B030
:10310000CDE901000020CDE9030040F220400C464B
:103110000121C2F200000791059201F049FC032849
:1031200077D040F22040C2F2000001F041FC0328B9
:103130006FD040F22040C2F2000001F039FC0328B9
:1031400067D040F22040C2F2000001F031FC0328B9
:103150005FD040F22040C2F2000001F029FC0328B9
:1031600057D040F22040C2F2000001F021FC0328B9
:103170004FD040F22040C2F2000001F019FC0328B9
:1031800047D040F22040C2F2000001F011FC0328B9
:103190003FD040F22040C2F2000001F009FC0328B9
:1031A00037D040F22040C2F2000001F001FC0328B9
:1031B0002FD040F22040C2F2000001F0F9FB0328BA
:1031C00027D040F22040C2F2000001F0F1FB0328BA
:1031D0001FD040F22040C2F2000001F0E9FB0328BA
:1031E00017D040F22040C2F2000001F0E1FB0328BA
:1031F0000FD040F22040C2F2000001F0D9FB0328BA
:1032000007D040F22040C2F2000001F0D1FB0328B9
:103210000FD140F22040C2F2000001A907AB2246C4
:1032200001F064FA0446002818BF0124204608B0C3
:1032300010BD40F22040C2F200000121012401F043
:1032400019FAF3E780B58AB0014640F2484046F2E9
:103250000042C2F20000C4F2000240F2840C02609C
:103260004FF08072C2F2000C8261BCF80020002393
:103270008A428383836011D0BCF814208A4201D132
:1032800001230BE0BCF828208A4201D1022305E08B
:10329000BCF83C2004238A4208BF032303EB8301CC
:1032A0000CEB810101F1040C9CE80C10098AC0E9C7
:1032B0000323C0F814C0416001F0B0FC00284FF0B7
:1032C000010001D00AB080BD0021CDE90610CDE992
:1032D0000011CDE90211CDE9041108900E200990EA
:1032E00040F24840C2F20000694601F051FA10B1C4
:1032F00002200AB080BD40F24840C2F2000001F056
:1033000099FD10B103200AB080BD40F24840C2F2DE
:103310000000022101F0D6F9002818BF012080002A
:103320000AB080BD10B540F27044C2F200042046DD
:1033300000F08EF841F2C401C2F20001086040F2D0
:10334000D411C2F20001498E40F29422C2F200026E
:10335000B0F5F87F118026DAA0F28111262934D841
:10336000DFE801F0144141414141414141414141C6
:10337000414141414141414141414141414141413D
:103380004141414141424141414F5C00EFF31080D6
:1033900072B6D4E9000140F6A062C2F20002C2E9AE
:1033A000000162B610BD46D0B0F53D7F18BF10BD1C
:1033B000EFF3108072B6D4E9000140F64862C2F221
:1033C0000002C2E9000162B610BD88280BD1EFF3FC
:1033D000108072B6D4E9000140F6B062C2F2000279
:1033E000C2E9000162B610BDEFF3108072B6D4E9F5
:1033F000000140F68062C2F20002C2E9000162B63A
:1034000010BDEFF3108072B6D4E9000140F670628F
:10341000C2F20002C2E9000162B610BDEFF31080F3
:1034200072B6D4E9000140F67862C2F20002C2E945
:10343000000162B610BDEFF3108072B6D4E900014E
:1034400040F65862C2F20002C2E9000162B610BD45
:10345000B0B588B0054640F24840C2F200000021F5
:10346000002401F007FA98B140F24840C2F200008F
:1034700001AA00212B46002401F00CFA40B9039860
:1034800008B1002404E0049800280CBF019C00242B
:10349000204608B0B0BD000010B588B0CDE90100ED
:1034A0000020CDE9030040F248400C460121C2F261
:1034B00000000791059201F07BFA032877D040F2D3
:1034C0004840C2F2000001F073FA03286FD040F2C6
:1034D0004840C2F2000001F06BFA032867D040F2C6
:1034E0004840C2F2000001F063FA03285FD040F2C6
:1034F0004840C2F2000001F05BFA032857D040F2C6
:103500004840C2F2000001F053FA03284FD040F2C5
:103510004840C2F2000001F04BFA032847D040F2C5
:103520004840C2F2000001F043FA03283FD040F2C5
:103530004840C2F2000001F03BFA032837D040F2C5
:103540004840C2F2000001F033FA03282FD040F2C5
:103550004840C2F2000001F02BFA032827D040F2C5
:103560004840C2F2000001F023FA03281FD040F2C5
:103570004840C2F2000001F01BFA032817D040F2C5
:103580004840C2F2000001F013FA03280FD040F2C5
:103590004840C2F2000001F00BFA032807D040F2C5
:1035A0004840C2F2000001F003FA03280FD140F2B4
:1035B0004840C2F2000001A907AB224601F096F88C
:1035C0000446002818BF0124204608B010BD40F270
:1035D0004840C2F200000121012401F04BF8F3E75A
:1035E0002DE9F04381B040F298294BF636448046ED
:1035F0000025C2F20009C0F60A040126002700BF18
:1036000059F8250034F8151001F0D6FD06FA05F139
:10361000012805F1010508BF0F430E2DF0D1002050
:10362000A8F8007001B0BDE8F083000010B540F2CA
:103630009822C2F200024BF6364352F82120C0F61F
:103640000A0333F811100446104601F0B5FD014697
:103650000020217010BD000046F21000C4F20200EC
:1036600050F8081C002241F03F0140F8081C42F2CB
:103670008821C2F200010A7042F29C21C2F20001CC
:103680000A60016821F001010160FF2141600168C9
:1036900041F001010160704746F22800C4F20200C7
:1036A00050F8201C002241F47C6140F8201C42F6B6
:1036B0006C21C2F200010A7042F67021C2F20001D0
:1036C0000A60016821F001010160FF214160016889
:1036D00041F001010160704746F24000C4F202006F
:1036E00050F8381C002241F47C1140F8381C42F29A
:1036F0008C21C2F200010A7042F2A021C2F2000144
:103700000A60016821F001010160FF214160016848
:1037100041F001010160704746F20800C4F2020066
:10372000016841F07C6101607047000046F20C00C6
:10373000C4F20200016841F03F01016070470000DF
:1037400046F28800C4F2020050F87C1C002241F4CA
:103750007C6140F87C1C42F29021C2F200010A70A8
:1037600042F2A421C2F200010A60016821F00101C5
:103770000160FF214160016841F001010160704773
:1037800046F20C00C4F20200016841F47C110160B1
:103790007047000046F20C00C4F20200016841F0DC
:1037A000746101607047000046F20840C4F20200F4
:1037B000016841F03F0101607047000046F2284077
:1037C000C4F2020050F8201C002241F47C1140F8A1
:1037D000201C42F28021C2F200010A7042F29421C0
:1037E000C2F200010A60016821F001010160FF21BD
:1037F0004160016841F001010160704746F24040BC
:10380000C4F2020050F8341C002241F47C6140F8FC
:10381000341C42F28421C2F200010A7042F2982163
:10382000C2F200010A60016821F001010160FF217C
:103830004160016841F001010160704746F20C40AF
:10384000C4F20200016841F03F01016070470000CE
:1038500046F20C40C4F20200016841F47C110160A0
:103860007047000046F20C40C4F20200016841F0CB
:103870007C6101607047000080B540F2D021C2F247
:10388000000151F820204BF65241C0F60A0131F8F0
:103890001010104601F096FC002080BD80B540F26B
:1038A000D022C2F200024BF6524352F82120C0F659
:1038B0000A0333F81110034610461A4601F08AFC39
:1038C000002080BDF0B581B048F200050020C0F6B0
:1038D0000005ADF8020000F079FA288841F21111D4
:1038E00040F2D4148842C2F20004ADF8000027D19F
:1038F00040F2D415C2F2000500202946602200F0F3
:10390000B7F948B9B5F85E6028465C2104F086F93D
:10391000301A18BF6FF06300000608D1288801280C
:1039200005D16888252802D1A888152825D040F21D
:10393000CC60C2F20000417841F0200141701CE0EF
:103940002088012811D1608825280ED1A08815284B
:103950000BD120465C2104F061F9A4F85E00002040
:103960002146602200F0D8F9E0B340F2CC60C2F208
:103970000000417841F04001417046F63950C0F2F4
:103980000F00E0600DF10200FFF72AFEBDF8020013
:1039900000F0070500F042FE0022C0F604021268A3
:1039A0004EF2D723C0F636739A4228BF1A462261D8
:1039B0000022C0F60A026421126815FB010043F6DA
:1039C000FC719A4228BF1A466261C0F6000109687C
:1039D000E080994238BF0B46A36101F00FFCA06064
:1039E00001B0F0BD41F21110ADF800006946284663
:1039F000012200F09DFC68B103276E46284631463F
:103A00000122013F00F094FC390618BF0028F5D1CF
:103A10000028B2D1EFF3108072B607F0CDFB0000A2
:103A200070B540F29C4540F29C54C2F20005C2F2CF
:103A300000042846214606F0BDFB012837D1208826
:103A4000002808BF70BD02382E5A81B2284604F003
:103A5000E5F886425BD1A87914282BD00E2856D1E0
:103A600095E80E00AE8941F2C800C2F200008681DE
:103A7000C0E9001289B24AF65522914283600FD103
:103A8000C1880E290CD1D0F80210806840F6185277
:103A9000C2F20002106041F22C70C2F2000001601C
:103AA00040F62A40C2F20000012101702FE0002000
:103AB000208070BDD5E9002341F2D800C2F2000099
:103AC000D5E902162D69C0E9002392B24AF65523C2
:103AD0009A42C0E90216056119D1C288142A16D18A
:103AE0008AB240F27F118A4211D140F61852C2F2D6
:103AF00000021180D0F80210D0F80E30D0F80A0081
:103B00009360506041F22C70C2F20000016000200E
:103B1000208040F29C40C2F20000FF21FDF7D5FC5E
:103B200070BD00007047000080B500F009F801206A
:103B30000E21FFF7B3FEBDE8804003F0B1BE0000E8
:103B40002DE9F04F85B040F298274FF40040C2F2C3
:103B5000000700903868EB464FF000084FF002096C
:103B60005946CDF80480CDF80890CDF80C9001F0BE
:103B700057FA78684FF480655946009501F050FA7D
:103B80004FF40061B8680091594601F049FAF868AD
:103B90005946009501F044FA4FF48071386900915C
:103BA000594601F03DFA786980265946009601F0A1
:103BB00037FAB8694FF0200A5946CDF800A001F055
:103BC0002FFA0821F8690091594601F029FA386A5C
:103BD0005946009501F024FA786A5946009601F09A
:103BE0001FFAB86A40245946009401F019FA4FF4BC
:103BF0000071F86A0091594601F012FA386B594683
:103C0000CDF800A001F00CFA786B5946009401F051
:103C100007FA012001A981E8010340F2D020C2F295
:103C200000004BF65244061F6FF00107C0F60A046D
:103C3000E019458856F8040F5946009501F0F0F94F
:103C400030682946002201F0C5FA02372A2FEFD149
:103C500005B0BDE8F08F000030B1012818BF7047F3
:103C600000200221FFF71ABE01200221FFF716BE35
:103C70002DE9F04704460020B0EBD42F4FF0FF0AA7
:103C800045D11746B2F5006F41D840F20048C4F262
:103C900002088946404680210022002501F09AFA58
:103CA000381960400F2803D8204649463A4626E096
:103CB00004F00F00C0F1100620464946324602F0DB
:103CC0002DFEBF1B8246B8B23444B5EB101F4E44E4
:103CD00010D04FEA10190025A0B23146102202F090
:103CE0001DFE0135824628B2103410364845A7F132
:103CF0001007F1DB17F00F0204D0A0B2314602F03A
:103D00000DFE824640468021012201F063FA4FFAFF
:103D10008AF0BDE8F08700002DE9F04F81B004463D
:103D200017180020B0EBD72F02D04FF0FF0B44E064
:103D300040F20048C4F202081646894640468021F7
:103D40000022002501F046FA87EA04000F2803D874
:103D500020464946324628E004F00F00C0F1100A20
:103D600020464946524602F06FFFA6EB0A078346FB
:103D7000B8B25444B5EB101F09EB0A0610D04FEA55
:103D800010190025A0B23146102202F05DFF013566
:103D9000834628B2103410364845A7F11007F1DBEE
:103DA00017F00F0204D0A0B2314602F04DFF834657
:103DB00040468021012201F00DFA4FFA8BF001B04C
:103DC000BDE8F08FC0B2FFF747BF00002DE9F04318
:103DD00085B040F200444FF40070C4F202046D4616
:103DE0004FF0110800260227009020462946CDF802
:103DF00004800296039701F013F920464FF40071F6
:103E000001224FF0010901F0E5F94FF48070CDE98E
:103E10000186009020462946039701F001F92046CB
:103E20004FF48071012201F0D5F98020CDE901899C
:103E3000009020462946039701F0F2F820468021A1
:103E4000012201F0C7F905B0BDE8F08342F2CA5182
:103E5000C2F20001088800280FBFFF2042F26C5216
:103E6000C2F20002D0851CBF0020088040B270471B
:103E70002DE9F04740F2B037C2F20007F88849F662
:103E8000F6710404212007F027FD0146204607F0C3
:103E90006BFD044647F6C85040F6980107F01CFD3C
:103EA0000146204607F060FD40F28C6839897A8926
:103EB000C2F20008C8F80000881A0404212049F65C
:103EC000F67107F009FD0146204607F04DFD00247C
:103ED000CFF6F674214607F047FD7988C8F804004C
:103EE0000D04212049F6F67107F0F6FC014628463C
:103EF00007F03AFD054647F6C85040F6980107F02E
:103F0000EBFC0146284607F02FFD4EF2666107F0F4
:103F100033FD40F2AC69C2F20009D9F80010054641
:103F2000084641F6991107F027FDB98A7A89284495
:103F3000C9F80000881A0504212049F6F67107F037
:103F4000CBFC0146284607F00FFD214607F00CFD8B
:103F5000F989C9F804000D04212049F6F67107F02B
:103F6000BBFC0146284607F0FFFC054647F6C85053
:103F700040F6980107F0B0FC0146284607F0F4FC33
:103F800040F24C6AF98A7A89C2F2000ACAF8000043
:103F9000881A0504212049F6F67107F09DFC0146B8
:103FA000284607F0E1FC214607F0DEFC398ACAF812
:103FB00004000D04212049F6F67107F08DFC01463E
:103FC000284607F0D1FC054647F6C85040F6980150
:103FD00007F082FC0146284607F0C6FC40F26C66FA
:103FE000398B7A89C2F200063060881A05042120D4
:103FF00049F6F67107F070FC0146284607F0B4FC5C
:10400000214607F0B1FCB98970600C04212049F603
:10401000F67107F061FC0146204607F0A5FC044656
:1040200047F6C85040F6980107F056FC0146204676
:1040300007F09AFCB7F90C1040F22C62C2F20002B1
:10404000C829506001DA002004E040F2DD508142CE
:1040500005DB012040F22861C2F200010870D8E9B6
:1040600000010124C8F80C4007F07EFCD8F80C10C1
:10407000C8F8080007F078FCD8F81410C8F8100049
:104080000844C8F81400D9E90001C9F80C4007F049
:104090006BFCD9F80C10C9F8080007F065FCD9F8DA
:1040A0001410C9F810000844C9F81400DAE9000136
:1040B000CAF80C4007F058FCDAF80C10CAF80800EF
:1040C00007F052FCDAF81410CAF810000844CAF8D5
:1040D0001400D6E90001F46007F046FCF168B06016
:1040E00007F042FC7169306108447061BDE8F087F7
:1040F0002DE9F04142F20068044643F60C46C2F254
:1041000000080020C4F20206C8F81C0001F070F894
:104110003168C90345D43068C0071CBF0120306036
:10412000306810F0F20F43D03068C00607D5D8F8D9
:104130001C0040F01000C8F81C00102030603068EF
:10414000800607D5D8F81C0040F00800C8F81C000D
:10415000202030603068400607D5D8F81C0040F0B9
:104160000400C8F81C00402030603068000607D505
:10417000D8F81C0040F00200C8F81C008020306015
:10418000306880075CBF0120BDE8F081D8F81C00D2
:1041900040F02000C8F81C00022030600120BDE87B
:1041A000F0810546671C07D0BCB90320BDE8F0814B
:1041B0000020BDE8F08100BF3068C003ABD567B90F
:1041C0003068C003A7D547B93068C003A3D527B965
:1041D0003068C0039FD5002FEED001F009F8401BD6
:1041E000A042E9D90320BDE8F081000040F2CC6094
:1041F000C2F200000268002A04BF0020704740F2AB
:10420000D06CC2F2000C9CF800001F2814D822FACF
:1042100000F3D90740F086801F280FD099077CD47F
:104220001E280BD059077AD41D2807D0190778D437
:1042300004302028EBD101E020286CD10F23A3F11A
:104240000F0022FA00F1C90701BFA3F10E0022FA04
:1042500000F15FEAC171A3F10D0004BF22FA00F181
:104260005FEAC17151D1A3F10C0022FA00F1C90734
:1042700002BFA3F10B0022FA00F15FEAC17144D141
:10428000A3F10A0022FA00F1C90702BFA3F1090055
:1042900022FA00F15FEAC17137D1A3F1080022FAD6
:1042A00000F1C90702BFD81F22FA00F15FEAC1710D
:1042B0002BD1981F22FA00F1C90702BF581F22FA1A
:1042C00000F15FEAC17120D1181F22FA00F1C9077D
:1042D00002BFD81E22FA00F15FEAC17115D1981E03
:1042E00022FA00F1C90702BF581E22FA00F15FEA64
:1042F000C1710AD122FA03F0C00707D110332F2B66
:104300004FF0000008BF704799E70346591CC8B238
:104310008CF80010704700207047013002E0023036
:1043200000E00330012151FA80F08CF80000704762
:1043300070B50546B0F1006F4FF0010038BF70BD99
:104340000C4615F001011AD105EB4206B6F1016FDA
:1043500084BF012070BD00F04BFEAE420CD900BFFF
:10436000228801202946002300F0BEFD40B9023515
:10437000B54204F10204F3D300F0ACFD002070BD9F
:10438000032070BD70B50546B0F1006F4FF001001D
:1043900038BF70BD0C4615F003011AD105EB82063B
:1043A000B6F1016F84BF012070BD00F021FEAE4266
:1043B0000CD900BF226802202946002300F094FD9A
:1043C00040B90435B54204F10404F3D300F082FD92
:1043D000002070BD032070BD80B540F2EC60C2F2D9
:1043E0000000407840F2D261002840F2D460C2F26E
:1043F0000000C2F2000103D000220A8001220270F4
:1044000040F2DC62C2F200021288012A05D142F2B7
:10441000D052C2F20002528804E00278012A20D170
:104420000A8801324FF0FF3313FA82F3042B0A801B
:1044300015D8DFE803F003182634420040F2CC60C0
:10444000C2F2000000210160002004F035FD40F6BA
:104450008C60C2F200008621C180002080BD002156
:104460000170002080BD40F65850C2F200000121CA
:104470004FF0FF320180426040F6B860C2F20000A7
:1044800028E040F6D850C2F2000001214FF0FF3280
:104490000180426041F2F620C2F200001AE040F6CC
:1044A000C040C2F2000001214FF0FF3201804260A3
:1044B00040F2E460C2F200000CE040F65040C2F26C
:1044C000000001214FF0FF320180426040F2D560D0
:1044D000C2F200000170002080BD000042F2605076
:1044E000C2F200000078704710B540F28040C2F27E
:1044F0000000808841F2F421C2F200019B2808806C
:104500000CD84FF2600042F624214FF26002C2F252
:104510000001CFF6FF7200B20A8010BD40F62C7188
:10452000884206D942F62421C2F2000143F2D400A7
:1045300071E04BF6AE1C0022C0F60A0C0CEB8203B5
:10454000B3F90610814231DCB3F90A10814230DC44
:10455000B3F90E1081422FDCB3F9121081422EDC28
:10456000B3F9161081422DDCB3F91A1081422CDC0C
:10457000B3F91E1081422BDCB3F9221081422ADCF0
:10458000B3F92610814229DCB3F92A10814228DCD4
:10459000B3F92E10814227DC0B32212ACED142F60C
:1045A0002420C2F20000008800B210BD8BB201329C
:1045B0001CE08BB2023219E08BB2033216E08BB2F0
:1045C000043213E08BB2053210E08BB206320DE0FC
:1045D0008BB207320AE08BB2083207E08BB20932A5
:1045E00004E08BB20A3201E08BB20B3219B20CEB51
:1045F00082033CF8224033F9022C081A891A07F08A
:104600006BF901464FF4FA7007F0B6F942F624212F
:10461000201AC2F20001088000B210BD40F28040B2
:10462000C2F2000000880921B0F5486F88BF082158
:10463000B0F52F6F88BF0721B0F5166F88BF062130
:10464000B0F5FA6F88BF0521B0F5C86F88BF0421A7
:10465000B0F5966F88BF0321B0F5487F88BF02216F
:10466000B0F5C87F88BF0121002818BF002188B29B
:104670007047000090F82020013A012A18D8CA0794
:1046800004D00268936843F0800393608A0704D5DE
:104690000268936843F40043936049075CBF0020BD
:1046A000704700684FF4000200F10801002004E0A8
:1046B00000F1240101204FF480220B681A430A60A4
:1046C0007047000090F82020013A012A04D80068C1
:1046D00000F11402002004E000F1240201204FF454
:1046E00080211368194311607047000010B590F8DD
:1046F00020E0D0F800C0AEF1010EBEF1010FDCF8F1
:1047000008E00DD81EF0E05F10D0CEF3016EBEF1D0
:10471000030F11D100F1240101204FF4000233E016
:1047200000F1240101204FF480222DE000F124014A
:1047300001204FF4001227E0012000FA0EF018606B
:10474000886818B14B6840EAC30001E0086840057A
:10475000D1E9033403430CEB0E10C0F88031C0F8EC
:104760008441097D012905D100F5C2710B6843F42C
:1047700080730B605168C0F88C11126800F5C0712D
:10478000C0F88821002001220B681A430A6010BD7E
:10479000B0B590F82020013A012A2FD846F20060E7
:1047A000C4F20000026842F001020260026822F4D2
:1047B0007C520260D1F814E0CC694A6A0368012C8B
:1047C00043EA022202600EF01F024FF0010303FAD7
:1047D00002F2C3696FEA020C23EA0203C36113D039
:1047E0002CBBC36803EA0C03C360CB688C8844EA23
:1047F000034300EBCE0423640B4611E0416A41F40D
:10480000802141620120B0BDC3681343C3600B68BF
:104810008C8844EA034300EBCE04236401F10C03CB
:104820008C681B8843EA044300EBCE04636443684E
:104830008D6943EA0204D1F810E0096A002D08BF2F
:1048400003EA0C0444604369BEF1000F43EA02042A
:1048500008BF03EA0C040129446102D1C169114374
:10486000C161016821F0010101600020B0BD0000BC
:104870007047000090F82020013A012A84BF0020F0
:10488000704700681022002908BF0C22805800F0F1
:104890000300704710B590F82040013C012C0CD863
:1048A000D0F800C079B1DCF81040A4070FD100F1B6
:1048B000240101204FF400126FE000F124010120D7
:1048C0004FF4802269E0DCF80C40A40769D00CEBBF
:1048D000011CDCF8B0410CF5D87E14F0040494609F
:1048E000DCF8B04119BFE4085460640D1460DEF8D0
:1048F00000400029C4F34004D460DCF8B44104F063
:104900000F041461DCF8B441C4F307249461DCF8AB
:10491000B4414FEA14445461DCF8B8211A700268BB
:1049200002EB0112D2F8B8214FEA12225A70026843
:1049300002EB0112D2F8B8214FEA12429A700268D3
:1049400002EB0112D2F8B8214FEA1262DA70026863
:1049500002EB0112D2F8BC211A71026802EB0112BB
:10496000D2F8BC214FEA12225A71026802EB0112FE
:10497000D2F8BC214FEA12429A71026802EB01128E
:10498000D2F8BC214FEA1262DA71006814BF00F15C
:10499000100100F10C01002020220B681A430A606C
:1049A00010BD00F1240101204FF40012F5E70000D2
:1049B00090F820100139012984BF00207047006859
:1049C000816882688068C1F38061C2F3C06211446B
:1049D000C0F30070084470472DE9F04F81B00446E1
:1049E00000684669D0F804908768D0F80CB0D0F819
:1049F00010A0D0F81880F10703D1002530071CD48F
:104A000023E0F90710D00121BA07816009D47807A3
:104A100000F1AA80380700F1B080204600F038FA93
:104A200002E0204600F036FA0025F80500F1848007
:104A3000F80300F1AA80300707D51BF0100004D05E
:104A4000206845F400751021C160700708D51BF07F
:104A5000080005D020680821C160204600F0E0F978
:104A6000B00706D52068C068800702D0204600F055
:104A7000D9F9700607D51AF0100004D0206845F463
:104A8000806510210161B00608D51AF0080005D034
:104A9000206808210161204600F0C6F9F00606D51D
:104AA00020680069800702D0204600F0BFF9B003FB
:104AB00008D519F0100005D020681021416020466B
:104AC00000F0B6F9F00308D519F0080005D0206809
:104AD00008214160204600F0E7F9300440F18F8062
:104AE0005FEA497040F1888006F4807008EA10207F
:104AF00028435FEA8871014648BF41F00201B205D0
:104B000058BF01465FEA48700D4648BF45F00405AE
:104B1000700558BF0D4630056ED518F070006BD08B
:104B200010380009052862D8DFE800F00353565911
:104B30005C5F45F008055AE020684FF48071BA05C3
:104B400081600AD4780512D4380519D4204600F0C3
:104B5000A3F9F8037FF56FAF17E0204600F09EF948
:104B6000F8037FF568AF10E04FF400655DE705F5E9
:104B70000055F8037FF55FAF07E04FF4805554E729
:104B800005F58045F8037FF556AF20684FF4803176
:104B9000BA0381600AD478030FD4380313D42046B3
:104BA00000F07EF930073FF548AF4EE7204600F0B1
:104BB00079F930073FF541AF47E705F50045300784
:104BC0003FF53BAF41E705F5803530073FF535AFA1
:104BD0003BE745F010050AE045F0200507E045F009
:104BE000400504E045F0800501E045F4807520684B
:104BF000816921F0700181612068042141604DB11B
:104C0000606A40EA05012046616201B0BDE8F04FEC
:104C1000FFF72EBE01B0BDE8F08F0000B0B5C8B1FF
:104C2000044690F8200010B9204600F071F8206882
:104C3000016821F00201016000F0DAFA054600BFC8
:104C400020684168890707D500F0D2FA401B0B287D
:104C5000F6D312E00120B0BD016841F0010101600E
:104C600000F0C6FA054600BF20684168C9070DD1AB
:104C700000F0BEFA401B0B28F6D3606A052140F411
:104C800000306062012084F82010B0BD217E0268EF
:104C9000012922F0800208BF80320260617E026832
:104CA000012922F0400208BF40320260A17E026862
:104CB000012922F0200208BF20320260E17E026852
:104CC000012922F0100218BF10320260217F026811
:104CD000012922F0080208BF08320260617F0268E1
:104CE000012922F0040208BF04320260D4E901C2A3
:104CF000D4E9033561691A432A431143ACF1010237
:104D00001143C16100200121606284F82010B0BD10
:104D1000B0B586B00024C4F202040068A4F5CE3118
:104D2000884243F64000C4F202004FF0000136D042
:104D30000191026804F5806442F00072026002682A
:104D400002F000720192019A0191026842F08062C1
:104D50000260026802F080620192019A019150F8AB
:104D6000101C41F0020140F8101C50F8100C01A971
:104D700000F00200019001984FF4005001900220D1
:104D80000290032004900120039009200590204602
:104D900000F046F94FF480504125019029E001913F
:104DA000026842F000720260026802F00072019232
:104DB000019A019150F8101C41F0010140F8101CBB
:104DC00050F8100C01A900F00100019001984FF477
:104DD0008050019002200290032004900120039053
:104DE00009200590204600F01BF94FF40060019067
:104DF0001425022002900320049001200390092032
:104E0000059001A9204600F00BF928460421002254
:104E100000F05AFA284600F047FA06B0B0BD00008C
:104E200070470000704700007047000070470000A6
:104E300070470000B0B5044690F8200001281DD14D
:104E4000022084F820002068016821F0010101603F
:104E500000F0CEF9054600BF20684068C00713D0B7
:104E600000F0C6F9401B0B28F6D3606A40F400300E
:104E70006062052084F820000120B0BD606A40F423
:104E8000002060620120B0BD00206062B0BD000063
:104E90007047000070470000704700007047000036
:104EA000704700007047000070470000B0B504462E
:104EB00000F09EF9054640F24730C2F2000000784B
:104EC000611C18BF044400BF00F092F9401BA042CF
:104ED000FAD3B0BD43F61041C4F20201086840F0B5
:104EE000004200200A6070472DE9F04381B042F291
:104EF0000064C2F200049046227E012A03D10220FF
:104F000001B0BDE8F0830746012020764CF2503016
:104F10001E460D46FFF7ECF8002864D143F6104911
:104F2000022FC4F2020915D0012F28D0E7BBD9F80F
:104F3000000020F44070C9F80000D9F80000C9F85A
:104F40000000D9F8000040F00100C9F8000085F821
:104F500000803EE0D9F8000020F44070C9F800005D
:104F6000D9F8000040F40070C9F80000D9F800003A
:104F700040F00100C9F80000C5F8008029E0D9F828
:104F8000000020F44070C9F80000D9F8000040F497
:104F90008070C9F80000D9F8000040F00100C9F89D
:104FA0000000A5F8008014E0D9F8000020F440705B
:104FB000C9F80000D9F8000040F44070C9F80000BA
:104FC000D9F8000040F00100C9F80000C5F80080E1
:104FD0006E604CF25030FFF78BF8D9F8001021F0DA
:104FE0000101C9F800100021217601B0BDE8F0836D
:104FF00043F60440C4F20200C168B1F1FF3FC4BFF0
:105000000020704740F22311C4F26751016048F656
:10501000AB11CCF6EF510160C068C00F70470000C3
:105020002DE9F04F82B000F13E4241F6004502F119
:10503000FF77C4F2020543F6004B4FEAB726082279
:10504000A842C4F2010B08BF0722072E4FF0010E41
:105050004FF000064FF000044FF0000838BF4FEA51
:10506000B722009209E000BF08F101080434B8F14A
:10507000100F06F1020600F09C800F680EFA08F986
:1050800017EA090FF0D0D1F804C04CF01007122F26
:1050900013D16FF0030202EA5807074404F01C051D
:1050A0000F22D7F820C002FA05F30A692CEA03039D
:1050B000AA401A433A62D1F804C002680323B340FD
:1050C0006FEA030A9A430CF00303B3401A43BCF19E
:1050D000120F026014D80EFA0CF212F0061F0FD055
:1050E0008268CB6802EA0A02B3401A4382604268CF
:1050F0004FEA1C1322EA090203FA08F31A4342603A
:10510000C2688B6802EA0A02B3401A435FEACC0322
:10511000C260A9D5002243F644030192C4F20203FF
:105120001A684FF6084C42F480421A601A68CFF6AB
:10513000FF7C02F480420192019A28F003025A4453
:1051400052F80C3004F00C070F25BD40AB43009D16
:1051500005FA07F73B4342F80C30DBF800204B68B8
:1051600042EA0907DD0358BF22EA0907CBF80070BD
:10517000DBF804209D0342EA090758BF22EA090729
:10518000CBF80470DBF80820DD0242EA090743F699
:105190000C4558BF22EA0907CBF80870C4F2010594
:1051A0002A689B0242EA090758BF22EA09072F60D2
:1051B0005AE702B0BDE8F08F0069084018BF01202F
:1051C0007047000042690A408A4208BF09048161B1
:1051D00070470000002A08BF090481617047000081
:1051E00042F20000CEF204000068000C704700009C
:1051F00042F68420C2F200000068704747F6102093
:10520000C1F6FF700068704740F2473042F68421D3
:10521000C2F20000C2F2000100780A68104408607F
:105220007047000080B543F60040C4F202000168F8
:1052300041F400710160016841F480610160032064
:1052400000F06EF80F2000F005F800F02BF80020B9
:1052500080BD0000B0B540F24732C2F2000240F219
:1052600088211278C2F200014FF47A730968B3FB07
:10527000F2F20446B1FBF2F1084600F0C7FA0F2C37
:105280004FF001050CD858B94FF0FF3021460022ED
:10529000002500F019F840F24830C2F20000046026
:1052A0002846B0BD70470000002848BF704700F096
:1052B0001F01012202FA01F14EF200124009CEF262
:1052C000000242F82010704710B54EF60C5CCEF28A
:1052D000000CDCF80030C3F3022E8EF00704042C1F
:1052E00028BF0424BEF103034FF0FF3E0EFA04F47E
:1052F00038BF0023A14399400EFA03F39A4300F00C
:105300000F03043B1143634409010C3300F1604275
:10531000B0F1FF3FC8BF02F56443197010BD000033
:105320004EF60C51CEF200010A684FF6FF031A4008
:1053300060F30A2242F0806040F0FD700860704720
:105340002DE9F041002800F0868043F60808C4F2F9
:1053500002080446D8F8F8030D4600F00F00884212
:1053600007D288F8F853D8F8F80300F00F00A842E5
:1053700071D12068810717D5410705D5D8F80010ED
:1053800041F4E051C8F80010010705D5D8F8001025
:1053900041F46041C8F80010D8F80010A26821F06C
:1053A000F0011143C8F80010C0073AD1D8F8F8034B
:1053B00000F00F00A84207D988F8F853D8F8F8038E
:1053C00000F00F00A84246D12068410707D5D8F861
:1053D0000010E26821F4E0511143C8F80010000702
:1053E00008D5D8F80000216920F4604040EAC100E7
:1053F000C8F8000000F04EF8D8F800104BF69E12E6
:10540000C1F30311C0F60A02515CC84040F2882182
:10541000C2F2000108600F20FFF71CFF0020BDE86A
:10542000F0816068811E022907D258F8081C8901A2
:105430005CBF0120BDE8F08110E0012807D158F8D9
:10544000081C89035CBF0120BDE8F08106E058F824
:10545000081C890702D40120BDE8F081D8F80010AB
:1054600021F003010843C8F80000FFF7C1FE06461B
:1054700041F28837D8F80000616800F00C00B0EB0A
:10548000810F93D0FFF7B4FE801BB842F2D90320FE
:10549000BDE8F08110B543F60404C4F2020460686C
:1054A00000F00C0142F200400829C0F2F40007D0DD
:1054B000042918BF10BD41F20020C0F27A0010BDCF
:1054C000216801F03F02216823684902C3F3881173
:1054D00005D4A1FB00010023FBF7E6FE06E041F244
:1054E0000020C0F27A004843B0FBF2F021680222AB
:1054F000C1F3014102EB4101B0FBF1F010BD00002E
:105500002DE9F04182B0E8B30446007843F6000686
:10551000C007C4F2020609D0B06800F00C000428ED
:1055200071D13068800301D5606858B32078800756
:1055300018D5B06810F00C0F07D0B06800F00C0060
:1055400008287AD17068400277D43068800702D585
:10555000E068012816D13068216920F0F80040EA9F
:10556000C10030602078000710D42078400724D490
:10557000A569002D00F01B81B06800F00C00082820
:1055800040F09080012002B0BDE8F0816069002801
:1055900040F20000C4F2472074D00121C0F8801E00
:1055A000FFF726FE054600BF706F8007DDD4FFF7CA
:1055B0001FFE401B0228F7D9D5E0306C10F0805850
:1055C0000AD100200190306C40F080503064306C83
:1055D00000F080500190019847F20007C4F20007E4
:1055E0003868C00540D4386840F480703860FFF7F0
:1055F000FFFD05463868C00536D4FFF7F9FD401BAE
:105600000228F7D9AFE0B06800F00C00082803D1F9
:10561000706840023FF585AF6068B0F5803F07D005
:10562000B0F5A02F40F08980306840F480203060D1
:10563000306840F48030306089E0E068002840F253
:105640000000C4F247204ED001210160FFF7D0FDD9
:10565000054600BF306880073FF57DAFFFF7C8FD06
:10566000401B0228F6D97EE0A068012805D0052855
:105670004AD1306F40F004003067306F40F00100D5
:1056800030674BE00021C0F8801EFFF7B1FD0546F2
:10569000706F80077FF569AFFFF7AAFD401B0228F6
:1056A000F6D960E00027C4F2472700203866FFF7EC
:1056B0009FFD022D05460BD13068800157D5FFF7BD
:1056C00097FD401B02284FF00300F5D99BE000BF77
:1056D000306880016BD5FFF78BFD401B03284FF02E
:1056E0000300F5D38FE000210160FFF781FD05463F
:1056F000306880077FF536AFFFF77AFD401B022840
:105700004FF00300F4D97EE0316F002821F0010151
:105710003167316F21F0040131674CD0FFF768FD2C
:10572000054641F2883700BF306F800753D4FFF73A
:105730005FFD401BB842F7D915E03168002821F41D
:1057400080313160316821F4802131604CD0FFF725
:105750004FFD0546306880033FF5E8AEFFF748FD92
:10576000401B6428F6D9032002B0BDE8F08104F1A3
:105770001C052FCD084340EA8210D9034FF6FF7273
:105780009143A1F5803140EA056008437060012033
:105790003866FFF72DFD04463068800107D4FFF717
:1057A00027FD001B02284FF00300F5D92BE0002055
:1057B00002B0BDE8F081FFF71BFD054641F28837D6
:1057C000306F800707D5FFF713FD401BB8424FF03D
:1057D0000300F5D917E0B8F1000F7FF4C9AE306CC3
:1057E00020F080503064C3E6FFF702FD054600BF9D
:1057F000306880037FF59AAEFFF7FAFC401B6428FF
:105800004FF00300F4D902B0BDE8F081411E002042
:10581000B0EB116F1CBF012070474EF21002CEF2A8
:10582000000251604EF62351CEF20001F0230B70BE
:10583000072190601160704710B590F83C20012A54
:105840004FF0020216D080F83D2002685368D2F86B
:1058500008C023F0700ED1E900342CF0800143EA37
:105860000E032143536091600121002280F83D1016
:1058700080F83C20104610BD002804BF012070476E
:105880002DE9F047044690F83D000D4628B9002068
:1058900084F83C00204600F03FF8022084F83D00E8
:1058A000206844F20702816891438160211D03F062
:1058B0004DFD20684FF6FF7881688269D0F820C0DE
:1058C000D5E9003ED5E9026A43EA0109AB6922EA5B
:1058D000080246EA03234FF6FC46B343D5E90767BF
:1058E00042EA0A0229691A4342EA062242EA0111FF
:1058F0002CF0AA026B6942EA0E0241EA073142EA41
:105900000312C0F8089081610262012084F83D0012
:105910000020BDE8F087000070470000042905D092
:1059200049B9016801206FF0010210E00168102000
:105930006FF010020BE001686FF01002086A20F0AF
:1059400001000862086A40F00100086210200B6A3A
:105950001A400A620A6A10430862086840F00102AD
:1059600000200A6070470000FEE7000010B540F21A
:105970003230C2F20000007840F2CC640028C2F25B
:10598000000400F00081207800F0FE00207040F25A
:105990009420C2F20000B0F90010B1F5967F06DD48
:1059A0002278013902F0FD022270018009E001290C
:1059B00003DBA1F10101018003D1207840F0020056
:1059C000207040F23A30C2F20000B0F90010B1F598
:1059D000967F06DD2278013902F0FB0222700180F9
:1059E00009E0012903DBA1F10101018003D1207845
:1059F00040F00400207040F23C30C2F20000B0F9E8
:105A00000010B1F5967F06DD2278013902F0F70229
:105A10002270018009E0012903DBA1F1010101806D
:105A200003D1207840F00800207040F23830C2F2F4
:105A30000000B0F90010B1F5967F06DD227801393B
:105A400002F0EF022270018009E0012903DBA1F1DD
:105A50000101018003D1207840F01000207040F255
:105A60003430C2F20000B0F90010B1F5967F06DDC7
:105A70002278013902F0DF022270018009E0012959
:105A800003DBA1F10101018003D1207840F0200067
:105A9000207040F2E800C2F20000B0F90010B1F549
:105AA000967F0ADD41F22872C2F2000213780139B2
:105AB00003F0BF03137001800DE0012903DBA1F1A6
:105AC0000101018007D141F22870C2F20000017883
:105AD00041F04001017040F23820C2F20000B0F9FC
:105AE0000010B1F5967F0ADD41F22872C2F2000281
:105AF0001378013903F07F03137001800DE0012951
:105B000003DBA1F10101018007D141F22870C2F24B
:105B10000000017841F08001017040F2D600C2F22D
:105B20000000B0F90010B1F5967F0ADD41F228724D
:105B3000C2F200025378013903F0FE035370018072
:105B40000DE0012903DBA1F10101018007D141F240
:105B50002870C2F20000417841F00101417040F22A
:105B6000DC01C2F20001B1F900000128A4BF013834
:105B70000880000418BF10BD42F62220C2F20000C7
:105B80000021018010BD607800073FF5FCAE40F2B7
:105B9000EC60C2F20000007801287FF4F4AE40F21D
:105BA0003630C2F20000B0F90010B1F5967F06DD84
:105BB0002278013902F0FE0222700180E7E6012915
:105BC00004DBA1F1010101807FF4E1AE20783621F0
:105BD00040F00100207042F26C50C2F20000FBF76E
:105BE00052FCD4E642F26250C2F20000018871B168
:105BF00042F26C52C2F200021181817840F2DC3232
:105C0000C2F2000211700021018048B27047FF21EA
:105C100048B2704742F2A850C2F200000021018051
:105C200042F2B050C2F20000018042F2BE50C2F215
:105C30000000018042F22030C2F20000018042F2F6
:105C40006250C2F20000018042F21830C2F200003D
:105C5000018042F25030C2F20000018042F2B8509E
:105C6000C2F20000018042F2E050C2F20000018066
:105C700042F2A450C2F20000018042F26850C2F227
:105C80000000018042F25630C2F2000001807047ED
:105C900080B542F2D050C2F200000188B9B141F2A1
:105CA0000032C2F20002136840F2DC6C0133136070
:105CB00042F26C52C2F2000291830021C2F2000C47
:105CC0004FF0010E018048B2ACF800E080BDFF212A
:105CD00048B280BD10B542F27C21C2F200010A68D0
:105CE0000446501C08604FF6E161C0F20E01A0802E
:105CF00012202160E0802046122101F08FFF024631
:105D0000204614216282BDE8104004F08FBB0000E1
:105D100040F22C30C2F20000018869B1828842F260
:105D20006C53C2F20003092A19839CBF0A218180A7
:105D30000021018048B27047FF2148B2704700003F
:105D400040F2D411C2F20001098D40F2363240F225
:105D5000CC6CC2F20002C2F2000C11809CF8001060
:105D6000438801F0FE02591E62298CF8002088BF8A
:105D700070470830DFE811F06300690070007900B7
:105D80007F0085008E0094009A00A100A800B60054
:105D9000BD006F00CE00D400DA006F00E0006F009D
:105DA0006F00E600EE006F006F006F006F006F0085
:105DB0006F006F006F006F006F006F006F006F006B
:105DC0006F006F006F006F006F006F006F006F005B
:105DD0006F006F006F00F7006F006F006F006F00C3
:105DE0006F006F006F006F006F006F006F006F003B
:105DF0006F006F006F006F006F006F006F006F002B
:105E00006F006F006F006F006F006F006F006F001A
:105E10006F006F006F006F006F006F006F006F000A
:105E20006F006F006F006F006F006F006F006F00FA
:105E30006F006F006F006F006F006F0004018188BA
:105E400042F2BE52C2F2000289E0006842F2A8515A
:105E5000C2F20001086070470168406842F2B05227
:105E6000C2F20002C2E900107047818842F220327B
:105E7000C2F2000273E0818842F26252C2F2000272
:105E80006DE00168406842F21832C2F20002C2E9D5
:105E900000107047818842F25032C2F200025EE088
:105EA000818842F2B852C2F2000258E0006842F221
:105EB000A451C2F2000108607047006842F2DC5150
:105EC000C2F2000108607047818842F2D052C2F2EB
:105ED00000020068918042F26C51C2F20001106031
:105EE00088837047006842F26851C2F2000108607E
:105EF0007047018942F22C32C2F20002118101681E
:105F00004068C2E9001042F27820C2F2000001218C
:105F100001807047818842F2E052C2F200021EE026
:105F2000818842F2C452C2F2000218E0818842F233
:105F30004A32C2F2000212E0818842F22632C2F2F4
:105F400000020CE0818840F22C320368C2F20002A9
:105F500091801360818842F25632C2F200020068DA
:105F6000918010607047006842F21431C2F2000163
:105F7000086042F67720C2F20000012101707047EC
:105F8000006842F25C31C2F2000108607047000014
:105F90002DE9F04F81B042F2FC5842F26035C2F276
:105FA0000008FF20C2F20005A8F80000284641467C
:105FB00004F0FEF901284ED1B8F80070002F4DD042
:105FC00042F2B820C2F20000016842F2BC2B01315B
:105FD000016000204FF6E169C2F2000B002400BF0F
:105FE00000F10A01B9422BD8295A494524D1DBF8DE
:105FF00000102E184B1CF1883A1A881C8242CBF8EC
:1060000000301DDB92B2904216D836F801A030461F
:1060100001F004FE82450FD142F2C021C2F200011C
:1060200008680130086030460021FFF789FEF088DB
:106030002044841C01E000BF0134A0B2FF28CFD36C
:106040000020A8F8000042F26030C2F20000FF21F8
:10605000FBF73BFA02E00020A8F8000040F2DA610A
:10606000C2F2000108880023421C90B20B2828BF0E
:106070001A4600200A8001B0BDE8F08F42F2D650E7
:10608000C2F20000018831B342F26C52C2F2000247
:10609000D18441F206128388C2F20002938641F253
:1060A000FC0311860121C2F200035971D388518685
:1060B00043F04001D18040F278420021C2F2000258
:1060C000018040F204701368C2F200000180581C85
:1060D000106048B27047FF2148B2704742F2DC516D
:1060E000C2F200010A885AB14A880280088842F246
:1060F0006C52C2F2000250830020088040B2704708
:10610000FF2040B27047000080B542F2A45EC2F2A8
:10611000000EBEF800301BB342F26C5CBEF80220E9
:10612000C2F2000CACF8103002800120088041F26D
:106130000610C2F20000C18840F2784241F020010E
:10614000C2F20002C18042F2043113680020C2F2A0
:106150000001AEF800000860591C40B2116080BD1B
:10616000FF2040B280BD000010B542F2C454C2F21C
:1061700000042188F1B142F26C526088C2F2000240
:106180005184FDF71FFE40F2DC02C2F200024FF420
:10619000FA63138040F27842C2F2000240F2F23118
:1061A00013680020C2F2000120800880591C40B210
:1061B000116010BDFF2040B210BD0000B0B542F22A
:1061C000A855C2F20005298889B30446B5F9020032
:1061D00047F6E121C0F2090105F07EFB40F2F861CB
:1061E000208000B2C2F200010860288842F26C519F
:1061F00040F2DC02C2F20001C2F200024FF4FA6384
:10620000488040F2F231138040F278420020C2F21E
:106210000001C2F20002088040F2CC311368C2F2E1
:10622000000128800880591C40B21160B0BD40F2C6
:10623000CC30C2F20000018801310180FF2040B261
:10624000B0BD000042F21831C2F20001088830B33C
:1062500042F26C52C2F2000250814A8840F640433A
:10626000C2F200031A808A885880DA80012040F246
:10627000DC029880C2F200024FF4FA63138040F20D
:1062800078420020C2F20002088040F2F231136826
:10629000C2F200010880591C40B211607047FF2013
:1062A00040B2704742F22031C2F20001088830B398
:1062B00042F26C52C2F20002D0804A8840F6B043EB
:1062C000C2F200031A808A885880DA80012040F2E6
:1062D000DC029880C2F200024FF4FA63138040F2AD
:1062E00078420020C2F20002088040F2F2311368C6
:1062F000C2F200010880591C40B211607047FF20B3
:1063000040B27047B0B542F2B054C2F200042088E7
:1063100030B342F26C51C2F2000141F2061588809E
:10632000C2F2000501206881E088A188E88141F27D
:106330007070814238BF084647F20071C0F2010117
:1063400005F0CAFA2188A881298140F27841C2F279
:1063500000010A6800202080013240B20A60B0BD0E
:10636000FF2040B2B0BD000042F2B851C2F20001BD
:10637000088830B342F26C52C2F20002D0814A88DF
:1063800040F64853C2F200031A808A885880DA80A7
:10639000012040F2DC029880C2F200024FF4FA635E
:1063A000138040F278420020C2F20002088040F2DE
:1063B000F2311368C2F200010880591C40B211602A
:1063C0007047FF2040B27047B0B542F2BE55C2F2EE
:1063D00000052988C1B30446B5F904004BF67241A3
:1063E000CFF6FF718842C8BF014644F28E30814229
:1063F000A8BF01464FF4B47048434DF29C21C0F24F
:10640000010105F069FA42F26C51C2F200010B88F9
:106410002A88206093420BD040F23230C2F2000052
:10642000007828B941F2EE20C2F200000023038078
:106430000A8040F27841C2F200010A6800202880F8
:10644000013240B20A60B0BDFF2040B2B0BD0000D2
:1064500042F25030C2F20000018859B342F26C524D
:10646000C2F200029181428840F6C853C2F2000392
:106470001A8040F60062C2F2000251808288598080
:10648000DA80012140F2DC029980C2F200024FF46E
:10649000FA63138040F278420021C2F200020180C8
:1064A00040F2F2301368C2F200000180581C106004
:1064B00048B27047FF2148B27047000042F25630A0
:1064C000C2F20000018889B142F26C52C2F20002AD
:1064D000D18240F60062C2F2000201231380438899
:1064E00051800021018048B293807047FF2148B25B
:1064F000704700002DE9F04742F2B425C2F20005D2
:10650000286801302860FDF7E9FF40F2403AC2F206
:10651000000ADAF800104FF6E160C0F2650008608A
:10652000286840F2CC624FF0B4088880C2F20002C2
:1065300041F2287340F6E85540F6D040A1F80680B5
:1065400040F2010CD2F800E0C2F2000340F66857B6
:10655000C2F20005C2F20000C0F2020C1B68C2F2D7
:106560000007D5E90045D0E90020D7E90067C1E977
:1065700002CE01F1100C8CE8C800C1E907454A625F
:1065800040F66042C2F20002D2E9003240F6706486
:10659000C2F2000488626079CB6240F68063C2F286
:1065A000000381F8340042F654209B78C2F20000C8
:1065B00000680A6381F8353047F20071C0F20101CA
:1065C00005F0DAF942F2F021C2F200010860DAF8CF
:1065D0000010B4F90020C88647F6E121C0F2090195
:1065E000104605F0C9F942F630224142C2F20002DB
:1065F000B0F5004F1160C4BF48F20001CFF6FF7143
:1066000010F5004F42F6282040F65059C2F2000023
:10661000C2F20009D8BF47F6FF710180DAF8002006
:10662000B9F8040040F6D05740F6B845C2F200076A
:10663000C2F2000511875087B888A98840F64846FD
:10664000C2F200069087D187B08840F64861C2F256
:1066500000010B68A2F840008888C2F842308B79AC
:10666000A2F84600C97940F6A060C2F200000068B6
:1066700082F849104DF29C21C0F2010182F84830A5
:1066800005F072F94FF0B47105F026F942F20031CD
:10669000C2F20001086042F62621C2F20001088021
:1066A000DAF8001042F24C22C2F200021388A1F87C
:1066B0004A00D2F80200A1F84C30D2F80630D2F8E5
:1066C0000A40D2F80E20C1F84E0040F22860C2F213
:1066D0000000C1F85A20007840F22C32C2F20002C9
:1066E000927881F85E0040F65860C2F2000081F8AE
:1066F0005F20007840F23232C2F20002127881F854
:10670000600042F26C50C2F20000C1F8523081F8D1
:106710006120028B8388A1F86220A1F8643042884E
:10672000C389A1F86620A1F868308289C388A1F8DE
:106730006A20A1F86C3042890388A1F86E20A1F884
:106740007030028A438AA1F87220A1F87430428B1B
:10675000C369A1F876208B67C28A0389A1F87C20DF
:10676000A1F87E30428CF388A1F88020A1F8823015
:10677000EA88FB88A1F88420A1F88630B9F80620C1
:1067800040F23A23C2F200031B88A1F8882041F2AC
:10679000FC02C2F20002A1F88A30137A008DA1F83F
:1067A0008C3093791278A1F89800A1F8922042F6E3
:1067B0002022C2F200021288A1F89030A1F89420A1
:1067C00040F22832C2F20002128840F2D033D043A5
:1067D00042F63C22C2F20002108040F69852C2F209
:1067E00000021288C2F2000340F608671B88A1F875
:1067F0009C2040F2AC62C2F20007C2F20002A1F893
:106800009630A1F89A00F8881368A1F89E0003EB6F
:10681000830042F63E23C0F3CF30C2F2000318805B
:1068200040F28C63C2F20003BE889F68A1F8A0000A
:1068300007EB87009768C00BA1F8A20007EB870061
:1068400040F24C6740F26C65C2F20007C2F20005EC
:10685000C1F85640A1F88E60BE68AC68C00BA1F8C4
:10686000A400A01900EB80005B69C00BA1F8A60092
:1068700003EB83005269C00BA1F8A80002EB820071
:106880007A696B69C00BA1F8AA00981800EB800028
:1068900042F26044C00BC2F20004A1F8AC002046F2
:1068A000B42101F0BBF9A4F8B4002046B62103F0EE
:1068B000BDFD40F2E060C2F20000C0F8008020465A
:1068C000B421FAF702FE0020BDE8F08742F2E05260
:1068D000C2F200021388EBB1538803809088012331
:1068E000088042F20431C2F200010020086041F247
:1068F000F801C2F200010B8041F2F001C2F2000186
:106900000860118842F26C53C2F20003108040B25A
:1069100019857047FF2040B2704700002DE9F04311
:1069200081B0884640F218490E21C4F2020901EAFA
:10693000D0114FF4807761F05F03C9F800709027A1
:10694000013F00BFFCD14FF0007761F05E01C9F854
:1069500000709027013F00BFFCD14FF08077C9F84D
:1069600000709027013F00BFFCD100244FF48076D7
:106970004FF080775DB2B5F1FF3F4FF40075C8BFAF
:106980004FF00075C9F80050902500BF013D00BFD1
:10699000FCD19025C9F80060013D00BFFCD19025D5
:1069A000C9F80070013D00BFFCD15B00072C04F169
:1069B0000104DFD34FF40073C9F80030902300BF07
:1069C000013B00BFFCD14FF48073C9F80030902325
:1069D000013B00BFFCD159F8083C4FF080779B0584
:1069E000C9F8007000F10F81902300BF013B00BF88
:1069F000FCD100234FF480764FF0807745B2B5F19B
:106A0000FF3F4FF40075C8BF4FF00075C9F8005044
:106A1000902500BF013D00BFFCD19025C9F8006062
:106A2000013D00BFFCD19025C9F80070013D00BFB9
:106A3000FCD14000072B03F10103DFD34FF40070BA
:106A4000C9F80000902000BF013800BFFCD14FF40E
:106A50008070C9F800009020013800BFFCD159F8BF
:106A6000080C4FF0807380054FF09000C9F800309B
:106A700000F18E80013800BFFCD14FF48070C9F85E
:106A800000009020013800BFFCD14FF00070C9F821
:106A900000009020013800BFFCD14FF08070C9F891
:106AA00000009020013800BFFCD100204FF480731B
:106AB0004FF080774EB2B6F1FF3F4FF40076C8BF7B
:106AC0004FF00076C9F80060902600BF013E00BF7D
:106AD000FCD19026C9F80030013E00BFFCD19026C1
