:02000004080AE8
:101000005013002069120A083D5D0A08B1450A081C
:10101000394C0A084D190A089D790A080000000099
:1010200000000000000000000000000029660A081F
:10103000E5260A0800000000E55F0A08656B0A085B
:1010400083120A0883120A0883120A0883120A0804
:1010500083120A0883120A0883120A0883120A08F4
:1010600083120A0883120A0883120A0883120A08E4
:1010700083120A08E9230A0883120A0821240A08AD
:1010800035240A0875240A0825160A0883120A0856
:1010900051190A0883120A0883120A0883120A08DF
:1010A00083120A0883120A0883120A0883120A08A4
:1010B000C16B0A08F56B0A0883120A0883120A0832
:1010C00083120A0883120A0883120A0883120A0884
:1010D00083120A086D750A08C9760A0883120A087D
:1010E00083120A0883120A0883120A0883120A0864
:1010F00083120A0883120A0883120A0883120A0854
:1011000083120A0883120A083D6C0A0883120A082F
:1011100079740A0883120A0883120A0883120A08DB
:1011200089240A0883120A0883120A0883120A080B
:1011300083120A08000000000000000083120A0861
:1011400083120A0883120A0883120A0883120A0803
:101150009D240A0883120A08C9240A0883120A086F
:1011600083120A0883120A0883120A0883120A08E3
:1011700083120A0883120A08000000000000000021
:1011800083120A0883120A0800F002F800F05CF8E3
:101190000AA090E8000C82448344AAF10107DA45D2
:1011A00001D100F051F8AFF2090EBAE80F0013F0C8
:1011B000010F18BFFB1A43F001031847147E00000B
:1011C000347E00000A444FF0000C10F8013B13F08D
:1011D000070408BF10F8014B1D1108BF10F8015B90
:1011E000641E05D010F8016B641E01F8016BF9D183
:1011F00013F0080F1EBF10F8014BAD1C0C1B09D1DA
:101200006D1E58BF01F801CBFAD505E014F8016B4B
:1012100001F8016B6D1EF9D59142D6D370470000DD
:101220000023002400250026103A28BF78C1FBD8EF
:10123000520728BF30C148BF0B6070471FB507F089
:101240001DFD1FBD10B510BD00F020F91146FFF7C0
:10125000F5FF06F0D1FB00F03EF903B4FFF7F2FF13
:1012600003BC00F045F900000948804709480047E1
:10127000FEE7FEE7FEE7FEE7FEE7FEE7FEE7FEE746
:10128000FEE7FEE704480549054A064B70470000A3
:10129000696B0A0889110A08500D002050130020BC
:1012A000500F0020500F002053EA020C00F069801C
:1012B0002DE9F04B4FF00006002B1FBFB3FA83F56A
:1012C00003FA05F424FA05F65E4012BF1643B2FA9B
:1012D00082F502FA05F4C5F120051EBF22FA05FCCD
:1012E00044EA0C04203556EA044C4FEA144418BF73
:1012F000641C4FF000084FF00009904271EB030CA2
:1013000039D3002919BFB1FA81F701FA07F6B0FA0B
:1013100080F700FA07F6C7F120071EBF20FA07FC86
:1013200046EA0C062037B6FBF4FCA7EB0507103F96
:1013300007F01F0BCBF120062CFA06F60CFA0BFB7C
:1013400044BFB3460026202FA4BF5E464FF0000BDB
:101350005BEA060C08BF4FF0010B19EB0B0948EBD9
:101360000608ABFB027C06FB02CC0BFB03CCC01BCC
:1013700071EB0C01C1E70B46024641464846BDE809
:10138000F08B13B5084318BF4FF0FF300146AFF3A1
:101390000080BDE81C407047032A40F2308010F006
:1013A000030C00F0158011F8013BBCF1020F624400
:1013B00098BF11F801CB00F8013B38BF11F8013B91
:1013C000A2F1040298BF00F801CB38BF00F8013B3E
:1013D00011F0030300F02580083AC0F0088051F8AE
:1013E000043B083A51F804CBA0E80810F5E7121DB9
:1013F0005CBF51F8043B40F8043BAFF30080D207D8
:1014000024BF11F8013B11F801CB48BF11F8012BA3
:1014100024BF00F8013B00F801CB48BF00F8012BC6
:10142000704710B5203AC0F00B80B1E81850A0E822
:101430001850B1E81850A0E81850203ABFF4F5AFA2
:101440005FEA027C24BFB1E81850A0E8185044BFFE
:1014500018C918C0BDE810405FEA827C24BF51F86B
:10146000043B40F8043B08BF7047D20728BF31F85F
:10147000023B48BF11F8012B28BF20F8023B48BFB0
:1014800000F8012B7047704770477047754600F0B1
:101490002BF8AE4605006946534620F00700854606
:1014A00018B020B5FFF7EEFEBDE820404FF0000673
:1014B0004FF000074FF000084FF0000BAC46ACE8CF
:1014C000C009ACE8C009ACE8C009ACE8C00921F02B
:1014D00007018D46704710B50446AFF300802046E3
:1014E000BDE81040FFF7B9BE004870472003002058
:1014F00001491820ABBEFEE726000200704700003D
:10150000B0B540F28034C2F2000420684CF6CD45FC
:101510000130CCF6CC4500FB05F1B1F1333F206042
:1015200008D840F66440C2F200004FF47A6104F03B
:10153000DDF9206800FB05F101F13331B1F1333FF2
:1015400008D240F66440C2F200004FF47A6104F021
:1015500049FB2068684300F1993046F266614FEA22
:10156000F000C0F26661884212D840F66440C2F2D0
:1015700000004FF4FA7104F075FB40F61850C2F207
:101580000000017940F2E450C2F2000005F070FE64
:1015900040F66440C2F2000044F6206104F0C4F951
:1015A00040F26C40C2F200000078012818BFB0BDC4
:1015B00040F64950C2F20000007801280BD140F6F5
:1015C000644040F65041C2F20000C2F20001BDE8A2
:1015D000B04001F051BAB0BD062807D840F6A84186
:1015E000C2F2000131F8100080B2704709280BD018
:1015F000082810D0072811BF002042F23C00C4F296
:101600000100006880B2704742F23C00C4F2010061
:10161000806880B2704742F23C00C4F2010040682A
:1016200080B2704742F20000C4F20100016821F06C
:1016300004010160FFF764BF2DE9F04387B040F279
:1016400000070320C2F200070390386802AC0025AF
:1016500002264FF00108214604950596CDF8088032
:1016600002F09AFB78684FF010092146CDF80890F7
:1016700002F092FBB8682146CDF8088002F08CFB9E
:10168000F8682146029602F087FB0421386902912E
:10169000214602F081FB082178690291214602F07F
:1016A0007BFBB8692146CDF8089002F075FBF8691C
:1016B0002146029602F070FB2021386A02912146F1
:1016C00002F06AFB786A2146CDF8088002F064FBDC
:1016D00043F630000195C4F20200416942F234043D
:1016E00041F4807141614169C4F2010401F48071E7
:1016F0000191019949F24921C0F2241144F8281CB2
:1017000001F1006144F8241C0295016846F210467C
:1017100041F4800101600168C4F2020601F4800115
:101720000291029954F82C1C002221F0010144F886
:101730002C1C4FF4C07144F8301C40F20031C6F646
:10174000100144F82C1C0521C4F8D0124FF4C0013C
:1017500044F8205C44F8081C44F8045C25602168C7
:101760002160216841F080012160216841F420510D
:101770002160216841F4B0212160216841F44001D9
:101780002160216841F0D051216054F8041C41F0DF
:101790000E0144F8041C43F62051C0F2240161609C
:1017A0000295016841F4800101600068052100F4A0
:1017B00080000290029842F61050C0F2010035609D
:1017C000306040F6A840C2F20000F06004F118005A
:1017D000B060072070603820756102F031FC38205D
:1017E00002F01EFC3068012140F001003060122040
:1017F000002202F025FC122002F012FC54F82C0CFE
:1018000040F0010044F82C0C07B0BDE8F083000064
:1018100010B5016848F20004B1F5004FCFF6FE7430
:1018200020DD0B46B1F5C03FA8BF4FF4C033A1EB9C
:10183000030C4FF6FF730CEB030E4FEA1E4C6323B1
:1018400004F50042BCF1630F38BF4FEA1E4303FBAF
:1018500002110122A1F5803152FA83F30160632B5A
:1018600003D910BD0023632BFBD804F580329142CD
:10187000A8BF10BDA142C8BF0C46621A4FF6FF7444
:101880002244C3F16303B3EB124F88BF130C01EB87
:10189000034101F58031016010BD000010B5016801
:1018A0000024B1F1011FCFF6FF741EDB0B46B1F52A
:1018B000003FA8BF4FF40033A1EB030C4FF6FF73BA
:1018C0000CEB030E4FEA1E4C6323BCF1630F38BFD1
:1018D0004FEA1E4303FB04110122A1F5803152FAA5
:1018E00083F30160632B03D910BD0023632BFBD866
:1018F000B1F1FF3FC8BF10BDA142C8BF0C46621A7C
:101900004FF6FF742244C3F16303B3EB124F88BF59
:10191000130C01EB034101F58031016010BD0000A3
:1019200000680968431A084448BF5B42B3F5004F9A
:10193000C8BFA0F5803040101060704704F0EEFF83
:10194000EFF3108072B606F02BF80000FEE70000FF
:1019500080B540F29430C2F2000001F037FFBDE8DC
:10196000804000F05DBA0000B0B546F20045C4F218
:101970000005A86900F00700072818BFB0BD40F2B5
:10198000AC10C2F200000078400621D540F6D042EB
:10199000C2F20002107840F0400340F6C040C2F2AC
:1019A0000000B0F8011040F63450C2F20000C90641
:1019B0000168137040F284025CBF01310160C2F221
:1019C00000025278D20603D5062924BF0021016007
:1019D00040F29434C2F200042046012101F044FD9B
:1019E0002046022101F040FD2046042101F03CFD8B
:1019F000286840F400402860286820F00300286030
:101A0000B0BD000040F65040C2F2000040F230513C
:101A10004278837840F2285040F6644CC2F20001CC
:101A2000C2F20000C2F2000C0A804288BCF81C001E
:101A30004A808880CB8040F23851C2F20001498848
:101A400040F24052C2F20002118040F23461C2F210
:101A500000010B7889785380022918BF0121BCF856
:101A600040309180D38040F6C04140F6D042C2F26F
:101A70000001C2F200020968126840F20053C2F28B
:101A80000003C3E9001240F2D841C2F2000108800D
:101A9000DCE9032048801009BCF838208880CA801F
:101AA0007047000080B540F29031C2F20001086832
:101AB0004CF6CD420130CCF6CC42A0FB02230860AC
:101AC000D90801EB8101A0EB410240F2FC51C2F2C6
:101AD0000001BAB1022A2BD140F6305040F2405EEC
:101AE000C2F20000C2F2000E0388BEF8002040F6E9
:101AF0002E5C9342C2F2000C3AD1BCF80030002BAD
:101B00003AD13FE040F62C5040F2305EC2F2000085
:101B1000C2F2000E0388BEF8022040F62A5C93420F
:101B2000C2F2000C38D1BCF80030002B38D13DE0B7
:101B300048F21F52C5F2EB12A0FB02235A0964239C
:101B40005A43D2431044082842D8DFE800F0054148
:101B50005D4169417541810040F20052C2F20002CC
:101B60004FF444700823D2E9002E08604B6026E051
:101B70000A23ACF8003002800120AEF80200581EA3
:101B8000ACF8000040F206304FF0080CDEE9002E01
:101B90000860C1F804C012E00A23ACF800300280EB
:101BA0000120AEF80600581EACF800004FF440705B
:101BB0004FF0080CDEE9002E0860C1F804C041F8BF
:101BC000082F0822C1F804E0BDE8804000F0FAB90F
:101BD00040F6BE40C2F200000288022A44D1002230
:101BE00040F2B053028040F201300822C2F20003FA
:101BF000C1E900021A68D3F804E040F26053C2F26F
:101C00000003C3E9002EDAE740F26852C2F2000294
:101C100040F211300823D2E9002E08604B60CEE775
:101C200040F2D842C2F2000240F212300823D2E958
:101C3000002E08604B60C2E740F2E042C2F20002B0
:101C400040F213300823D2E9002E08604B60B6E75B
:101C500040F2E842C2F20002D2E9002E4FF4457091
:101C6000082308604B60AAE740F6B640C2F20000C5
:101C70000288022A13D10022028040F20230082298
:101C8000C1E9000240F2F042C2F20002D2E9002EA5
:101C900040F2F843C2F20003C3E9002E8FE740F69A
:101CA000BA40C2F200000288022A0DD1002202804E
:101CB00008224A6040F22052C2F2000240F2033091
:101CC000D2E9002E08607AE740F6B840C2F2000080
:101CD0000288012A13D1002202804FF441700822A9
:101CE000C1E9000240F20852C2F20002D2E9002E1D
:101CF00040F21053C2F20003C3E9002E5FE740F642
:101D0000BC40C2F200000288012A18BF80BD40F228
:101D10004852C2F200021388092B9CBF0A23138089
:101D20000023038040F205300823C1E90003D2E913
:101D3000002E40F25053C2F20003C3E9002E3EE7EA
:101D400080B58AB0014640F2943046F20042C2F2B9
:101D50000000C4F2000240F2280C02604FF08072D2
:101D6000C2F2000C8261BCF8002000238A42838307
:101D7000836011D0BCF814208A4201D101230BE00A
:101D8000BCF828208A4201D1022305E0BCF83C209F
:101D900004238A4208BF032303EB83010CEB810178
:101DA00001F1040C9CE80C10098AC0E90323C0F877
:101DB00014C0416001F02CFE00284FF0010001D05A
:101DC0000AB080BD0021CDE90610CDE90011CDE9B2
:101DD0000211CDE9041108900E20099040F29430D0
:101DE000C2F20000694601F0CDFB10B102200AB03A
:101DF00080BD40F29430C2F2000001F0D7FE10B175
:101E000003200AB080BD40F29430C2F200000221EB
:101E100001F052FB002818BF012080000AB080BDED
:101E2000B0B540F27855C2F2000505F1080420462D
:101E300000F0A0F8A0F590710822062928606A60D9
:101E400012D8DFE801F0042C3D4E5F778A00EFF3F3
:101E5000108072B66A6840F22850C2F20000214633
:101E6000FFF7DFFA62B6B0BD502840F08280EFF392
:101E7000108072B66A6840F28835C2F200052846C2
:101E80002146FFF7CEFA62B62888012818BFB0BDF8
:101E900040F6F040C2F2000002210170B0BDEFF345
:101EA000108072B66A6840F25850C2F200002146B3
:101EB000FFF7B7FA40F6BE40C2F2000062B649E052
:101EC000EFF3108072B66A6840F2F040C2F2000090
:101ED0002146FFF7A6FA40F6B64062B6C2F200000D
:101EE00038E0EFF3108072B66A6840F21850C2F220
:101EF00000002146FFF795FA40F6BA4062B6C2F2FA
:101F0000000027E0EFF3108072B66A6840F20850D4
:101F1000C2F200002146FFF784FA40F20C30C2F210
:101F200000004FF4FA7162B6018040F6B840C2F288
:101F300000000FE0EFF3108072B66A6840F248507C
:101F4000C2F200002146FFF76CFA40F6BC4062B6D0
:101F5000C2F2000001210180B0BDEFF3108072B623
:101F60006A6840F23850C2F200002146FFF759FA81
:101F700062B6B0BDB0B588B0054640F29430C2F24A
:101F800000000021002401F06FFBC0B140F294304A
:101F9000C2F2000001AA00212B46002401F074FBCC
:101FA00068B90598082803D1039818B1002406E001
:101FB000002404E0049800280CBF019C0024204663
:101FC00008B0B0BD10B588B0CDE901000020CDE962
:101FD000030040F2D0500C460121C2F200000791EC
:101FE000016805920131016040F29430C2F20000B4
:101FF00001F0D8FB00286ED140F29430C2F200000C
:1020000001F0D0FB002866D140F29430C2F200000B
:1020100001F0C8FB00285ED140F29430C2F200000B
:1020200001F0C0FB002856D140F29430C2F200000B
:1020300001F0B8FB00284ED140F29430C2F200000B
:1020400001F0B0FB002846D140F29430C2F200000B
:1020500001F0A8FB00283ED140F29430C2F200000B
:1020600001F0A0FBB8BB40F29430C2F2000001F0D6
:1020700099FB80BB40F29430C2F2000001F092FB69
:1020800048BB40F29430C2F2000001F08BFB10BB61
:1020900040F29430C2F2000001F084FBD8B940F263
:1020A0009430C2F2000001F07DFBA0B940F2943000
:1020B000C2F2000001F076FB68B940F29430C2F23F
:1020C000000001F06FFB30B940F29430C2F2000022
:1020D00001F068FBE8B140F2D850C2F2000001689C
:1020E00007AB0131016040F29430C2F2000001A957
:1020F000224601F0F5F908B1012407E040F2D4507E
:10210000C2F200000168002401310160204608B0DD
:1021100010BD40F29430C2F200000121012401F010
:10212000A3F9F3E72DE9F04F87B04FF0000843F62D
:10213000300ACDF80480C4F2020ADAF810108146A1
:1021400041F40021CAF81010DAF8101040F600052A
:1021500001F4002001900198022401274FF48060CF
:10216000C4F2020501AE0294CDE9037401904FF070
:10217000080B28463146CDF814B001F00DFE4FF49F
:102180000060CDE902470190284631460494CDF81D
:1021900014B001F001FE042005F58065CDE9027759
:1021A000019028463146049401F0F6FD28460421AA
:1021B000002201F0CBFE44F60C45C4F2000540F2CB
:1021C000A810C5F80080C2F2000000684FF6FF7149
:1021D0008008B0FBF9F0002280B245F8040C2868B2
:1021E00088432860686847F66F7188436860A8680C
:1021F00040F6FF718843A8602868002140F05C0029
:102200002860A86840F0C000A860286840F400502A
:102210002860342001F014FF342001F001FFCDF8D4
:102220001880DAF8000046F2400440F40010CAF8C2
:102230000000DAF8000040F2044600F400100690B6
:102240000698CDF81880DAF80000C4F2020440F4D1
:102250000010CAF80000DAF80000C0F6010600F429
:1022600000100690069840F64A00C2F20000C4F83A
:1022700000802660E060083DFF20A5606060802748
:102280000D2000210022676101F0DAFE0D2001F02F
:10229000C7FE2068002140F00100206006F15000D8
:1022A000C4F83080206340F65030C2F20000E06392
:1022B0000F200022A563C4F83480676401F0C0FEDB
:1022C0000F2001F0ADFE07B0BDE8F08F10B5D0E9EA
:1022D000001204460069891AE16105F0D9FDA2687F
:1022E000D4E9093108449A4220620ED000280246FF
:1022F00048BF424200290B4648BF4B429A4204DB8A
:1023000008464FF6705105F0C3FDE169E2682062AE
:10231000A0620144104605F0BBFD6169606288421D
:1023200004DCA1698842B8BF08460146A16010BD1F
:1023300070B540F2B015C2F200052968044608469F
:10234000802101F0F5FD0138B0FA80F168684E098E
:10235000402101F0EDFD0138B0FA80F04109A86894
:1023600046EA4106202101F0E3FD0138B0FA80F091
:102370004109E86846EA81064FF4004101F0D8FDC2
:102380000138B0FA80F04109286946EAC1060821FF
:1023900001F0CEFD0138B0FA80F04109686946EAE3
:1023A0000115402101F0C4FD0138B0FA80F0400968
:1023B00045EA40110020218070BD000010B540F2B8
:1023C000B012C2F2000248F6C27352F82120C0F6E1
:1023D0000A0333F811100446104601F0A9FD014626
:1023E0000020217010BD000046F24000C4F202003F
:1023F00050F8381C002241F47C1140F8381C40F69B
:10240000CC41C2F200010A60016821F001010160C3
:10241000FF214160016841F0010101607047000047
:1024200046F20C00C4F20200016841F03F01016075
:102430007047000046F28800C4F2020050F87C1C8D
:10244000002241F47C6140F87C1C40F6C441C2F299
:1024500000010A7040F6C841C2F200010A6001683A
:1024600021F001010160FF214160016841F001019B
:102470000160704746F20C00C4F20200016841F4AA
:102480007C1101607047000046F20840C4F202006F
:10249000016841F03F0101607047000046F288404A
:1024A000C4F2020050F87C1C41F47C6140F87C1CB2
:1024B000016821F001010160FF214160016841F0E4
:1024C000010101607047000046F20C40C4F20200B6
:1024D000016841F07C6101607047000080B540F206
:1024E000C812C2F2000252F82110024608468021AA
:1024F00001F02CFD002080BD2DE9F041C6B048F26E
:102500000008C0F6000800F0F9F940F29806C2F29F
:10251000000640F63D2742F6AC254FF4C010C0F24D
:102520006667C0F6B83540F2B04406F1380C0021B9
:102530004FF4A0128323C8F200048CE88F00C6E990
:10254000137540F6FF7042F2107706F1580C74656F
:102550004FF083124EF66023C2F210778CE80D0024
:102560004FF48040C6E91917A6F86C004FF0A3108D
:10257000C6F80801B8F8000043F233318842ADF8DC
:10258000060021D140F29804C2F200040020214646
:102590004FF4887200F008F900283ED1B4F80E51CB
:1025A00020464FF4877102F049FB854235D12088DF
:1025B000012806D16088B0F5887F02D1A08817284D
:1025C0002DD004F05BF92AE040F29801C2F200013C
:1025D00002A84FF48872FEF724FFBDF80800012816
:1025E00018D1BDF80A00B0F5887F13D1BDF80C00F2
:1025F00017280FD102AD28464FF4877102F01EFB59
:10260000ADF81601002029464FF4887200F020F939
:10261000002845D004F044F901E004F041F944F207
:102620002960C0F20F00F06002A8FFF781FEBDF83C
:10263000080000F007040120FEF7CEFF642100EB44
:1026400040026143920001EB1231B1F5327F28BFA5
:102650004FF43271F1800021C0F6040109684EF296
:10266000D722C0F63672914228BF1146316100214F
:10267000C0F60A010968914228BF1146716143F60C
:10268000FC71C0F600010968ADF80800914238BF3E
:102690000A46B26101F06EFCB06046B0BDE8F08160
:1026A00043F23330ADF806000DF106014046012239
:1026B00000F024FE80B103270DF1060540462946AF
:1026C0000122013F00F01AFE390618BF0028F5D19B
:1026D00010B104F0E5F8A2E7EFF3108072B605F050
:1026E00075F90000704700002DE9F04786B040F210
:1026F000B016C2F20006306801AC4FF000090227A4
:102700004FF080082146CDE902990497CDF8048066
:1027100001F042FB706840252146019501F03CFB29
:10272000B0684FF0200A2146CDF804A001F034FB38
:102730004FF40041F0680191214601F02DFB082182
:1027400030690191214601F027FB7069214601950E
:1027500001F022FB30682146CDE902970497CDF8BD
:10276000048001F019FB70682146019501F014FB0B
:10277000B0682146CDF804A001F00EFB40F2C81568
:102780000120C2F20005CDE902092868214604971C
:10279000CDF8048001F000FB28688021002201F0C0
:1027A000D5FB06B0BDE8F0872DE9F04704460020D0
:1027B000B0EBD42F4FF0FF0A45D11746B2F5006FAA
:1027C00041D840F20048C4F2020889464046102130
:1027D0000022002501F0BAFB381960400F2803D809
:1027E000204649463A4626E004F00F00C0F11006A4
:1027F00020464946324601F005FFBF1B8246B8B26B
:102800003444B5EB101F4E4410D04FEA1019002588
:10281000A0B23146102201F0F5FE0135824628B201
:10282000103410364845A7F11007F1DB17F00F02FE
:1028300004D0A0B2314601F0E5FE824640461021A8
:10284000012201F083FB4FFA8AF0BDE8F087000017
:102850002DE9F04F81B0044617180020B0EBD72FB8
:1028600002D04FF0FF0B44E040F20048C4F20208EF
:1028700016468946404610210022002501F066FBDD
:1028800087EA04000F2803D820464946324628E04C
:1028900004F00F00C0F1100A20464946524602F0EB
:1028A00047F8A6EB0A078346B8B25444B5EB101FAD
:1028B00009EB0A0610D04FEA10190025A0B23146E4
:1028C000102202F035F80135834628B21034103654
:1028D0004845A7F11007F1DB17F00F0204D0A0B2B2
:1028E000314602F025F8834640461021012201F0CE
:1028F0002DFB4FFA8BF001B0BDE8F08F2DE9F043CE
:1029000085B040F200444FF40070C4F202046D46FA
:102910004FF0110800260227009020462946CDF8E6
:1029200004800296039701F037FA20464FF40071B5
:1029300001224FF0010901F009FB4FF48070CDE94D
:102940000186009020462946039701F025FA20468B
:102950004FF48071012201F0F9FA1020CDE90189CC
:10296000009020462946039701F016FA20461021D0
:10297000012201F0EBFA05B0BDE8F0832DE9F0414A
:1029800040F6F848044643F60C46C2F20008002020
:10299000C4F20206C8F81C0001F0E6FA3168C90367
:1029A00045D43068C0071CBF01203060306810F08B
:1029B000F20F43D03068C00607D5D8F81C0040F0AD
:1029C0001000C8F81C00102030603068800607D561
:1029D000D8F81C0040F00800C8F81C002020306027
:1029E0003068400607D5D8F81C0040F00400C8F84D
:1029F0001C00402030603068000607D5D8F81C0065
:102A000040F00200C8F81C00802030603068800769
:102A10005CBF0120BDE8F081D8F81C0040F0200028
:102A2000C8F81C00022030600120BDE8F081054696
:102A3000671C07D0BCB90320BDE8F0810020BDE8C9
:102A4000F08100BF3068C003ABD567B93068C00300
:102A5000A7D547B93068C003A3D527B93068C003EC
:102A60009FD5002FEED001F07FFA401BA042E9D99C
:102A70000320BDE8F08100002DE9F04F81B08B46C6
:102A8000897840F2702840F2BC2906460129C2F23A
:102A90000008C2F2000940F0D080B08F002800F09A
:102AA000CC80032004F058FB30684FF400414042D2
:102AB00005F0EEF940F2BC37C2F20007396805466E
:102AC00008464FF4004105F0E3F971682844386086
:102AD00048424FF4004105F0DBF9796805460846A5
:102AE0004FF4004105F0D4F9396828447860F96062
:102AF00001EB400049F2CD3105F0CAF940F29804EB
:102B0000C2F200043861B069218D628D401A11044F
:102B100005F0BEF940F2B84AC2F2000A554645F83F
:102B2000080F2846FEF7BAFED7E90301CAF80000ED
:102B30002868CAF8041005F0B1F92968CAF8140029
:102B4000084605F015F90146DAF80000CAF8181031
:102B500005F09EF9DAF80420DAF81410054610465C
:102B600005F096F94219DAF80400DAF81810CAF8F4
:102B70000C2005F08DF9DAF80020DAF8141005467B
:102B8000104605F085F940F26241C2F200010A8860
:102B9000281ACAF81000501C82B20A2A0880C0F015
:102BA0008E819BF80100002200280A8070D040F638
:102BB00018550128C2F2000574D16968002971D046
:102BC000DBF80400F169C8E90001404603F00CFAA3
:102BD000A868032800F09B80012800F0CB80002823
:102BE00040F0FB8040F26040C2F2000001880131F9
:102BF0008AB2152A0180C0F038820021D8F814303A
:102C00000180B4F80811D9F8002058110029C2EB4E
:102C1000631308BF01218B42CBF8080040F32981E0
:102C20000028074648BF4742002A154648BF55427C
:102C3000AF4240F31E81501815E240F2D811002037
:102C4000C2F2000108628862886040F6C041C2F2A8
:102C5000000140F224220978C2F20002C8F82000E4
:102C6000C8F82800C9F82000C9F82800106290624E
:102C7000C9E90000C9F80800C8F808005060906071
:102C80004906F06054BF0120002004F065FA5FE1BE
:102C900040F61850C2F200004168E9B10020C9F8BE
:102CA000000004E1062812D1DBF80800B0F1FF3F74
:102CB000C9F8000040F39680B6F8400028B9F069E2
:102CC000B4F860108842C0F2F4800020EFE00020E9
:102CD000C9F800000C20EAE040F66442C2F20002AB
:102CE000D8F81810D2680911B2F5202FC9F80010D1
:102CF00040F3928040F28431C2F200010A8840F62B
:102D0000B7339A4200F28D80501C0880D1E040F227
:102D10006043C2F200031888013081B2152918807F
:102D2000C0F0BC80D8F8141000254811CBF808007A
:102D3000D8F81820B2EB611FC8BF1046B1EB611F75
:102D4000B8BF0846B4F80811D9F800200029A0EB54
:102D5000020708BF01218F421D806ADD002803465B
:102D600048BF4342002A154648BF5542AB4260DD8A
:102D7000501891E040F26043C2F20003188801301D
:102D800081B215291880C0F03A81D8F818100025B2
:102D90004811CBF80800D8E90572B2EB611FC8BF33
:102DA0001046B7EB611FB8BF3846B4F80811D9F820
:102DB00000200029A0EB020708BF01218F421D80DF
:102DC00046DD0028034648BF4342002A154648BF57
:102DD0005542AB423CDD50180FE10020C9F800001D
:102DE000042064E040F66440C2F20000C068B0F520
:102DF000202F11DD40F28430C2F20000018840F63D
:102E0000B732914240F24381002101800120C5E99F
:102E100000008BF802104CE040F28430C2F2000057
:102E20003CE100220A800121C0E900118BF8022058
:102E30003FE04B429F422FDA0028034648BF4342FF
:102E4000002A174648BF5742BB4223DD501A23E0F1
:102E50004B429F4280F2D1800028034648BF434244
:102E6000002A174648BF5742BB4240F3C480501A5D
:102E7000C3E04F42BB4280F2F6800028034648BFC1
:102E80004342002A174648BF5742BB4240F3E980FD
:102E9000501AE8E0B8BF501AC9F80000B6F8400070
:102EA000002800F0A1800020C9F800000A208BF85B
:102EB00002003069C9F80400484603F0A1FD40F261
:102EC000D815DAF80C10C2F200050020C5E900019F
:102ED000618DD9F80800090404F0DAFF40F22427D4
:102EE000DAF81010C2F20007C7E900012846FFF720
:102EF000EDF93846FFF7EAF940F27044A868C2F2EB
:102F00000004DAE9053104F10C0CBA688CE80D0014
:102F1000A16104F0BDFFD4E904210546104604F088
:102F2000B7FF2A1AE0686169226004F0B1FF2269E4
:102F3000A1690546104604F0ABFF216840F28852B3
:102F40002844C2F200026060C2E9011003F06EFB87
:102F5000D6E90012B068002948BF4942002A48BF9C
:102F600052420028114448BF404208444BF66431A5
:102F7000C0F2010104F03CFF40F26841C2F20001DE
:102F80000A684CF6CD43CCF6CC4353434CF6CC47C1
:102F90004FEAB303C0F6CC47BB4202F10102F06036
:102FA0000A6084BF01B0BDE8F08F40F2C852810BC7
:102FB000C2F200021170D8F8041080095070080B9A
:102FC00090700809D070D9E90001030B0009137152
:102FD0005071080B0B09907110460821D37101B094
:102FE000BDE8F04F04F0A8BCF069B4F86010884266
:102FF000BFF654AE5DE7B8BF501AC9F80000B4F888
:103000005E00D8F81C104042814234DC40F6644037
:10301000C2F20000C1680020B1F5202F4FF000017E
:1030200009DD40F28431C2F200010A8840F6B7336C
:103030009A420BD8511C40F28432C2F20002118035
:1030400040F62651C2F20001088032E700200880D5
:1030500040F62651C2F200010880C9F8000008209D
:1030600025E7B8BF501AC9F80000D8F81C00B4F81A
:103070005E1088420EDA40F6265040F21232C2F25A
:103080000000C2F2000201881288914209D2013187
:1030900001800EE740F62650C2F2000000210180B8
:1030A00007E700210180C9F800108BF8021000E743
:1030B0002DE9F04140F29804C2F2000404F1380313
:1030C00040F270270FCBC2F2000740F2BC26C7E9DE
:1030D000030102EB4200C2F20006C6E90303B4F8A2
:1030E000480040F2D818B4F84A10C2F20008C8E903
:1030F0000301B4F84C0040F22425C2F20005B4F8F4
:103100004E20E860B4F85200A18C2A6104F070FEF1
:1031100041427861B4F85400B961642104F068FE5A
:1031200041427061B4F8560040F28F22B161A0F2C2
:103130008F21101AC5E90510C8E90510BDE8F08116
:1031400040F2F04140F26442C2F20001C2F20002D9
:1031500048881388984208BF70470988108061B377
:1031600040F6C040C2F200000021016040F6D040AD
:10317000C2F20000016040F20E30C2F20000642191
:10318000018040F20830C2F200004FF4FA61018081
:1031900040F20A30C2F20000018040F6B640C2F2AE
:1031A0000000018840F20C32C2F2000201294FF403
:1031B000FA71118004BF022101807047E8B140F22A
:1031C000664CC2F2000C9CF800101F2918D820FA97
:1031D00001F3DA0740F08B801F2913D09A0700F122
:1031E00081801E290ED05A077ED41D290AD01A07C5
:1031F0007CD404312029EAD104E00021084670473C
:1032000020296CD10F23A3F10F0120FA01F2D2077C
:1032100001BFA3F10E0120FA01F25FEAC272A3F12D
:103220000D0104BF20FA01F25FEAC27250D1A3F18E
:103230000C0120FA01F2D20702BFA3F10B0120FA20
:1032400001F25FEAC27243D1A3F10A0120FA01F24E
:10325000D20702BFA3F1090120FA01F25FEAC272AC
:1032600036D1A3F1080120FA01F2D20702BFD91F1B
:1032700020FA01F25FEAC2722AD1991F20FA01F204
:10328000D20702BF591F20FA01F25FEAC2721FD1B2
:10329000191F20FA01F2D20702BFD91E20FA01F24B
:1032A0005FEAC27214D1991E20FA01F2D20702BF5E
:1032B000591E20FA01F25FEAC27209D120FA03F125
:1032C000C90706D110332F2B4FF000019BD107E027
:1032D0000B46581CC1B28CF800000846704700210C
:1032E00008467047013102E0023100E0033101205D
:1032F00050FA81F108468CF80010704770B5054609
:10330000B0F1006F4FF0010038BF70BD0C4615F0F2
:1033100001011AD105EB4206B6F1016F84BF01200D
:1033200070BD00F021FDAE420CD900BF2288012003
:103330002946002300F094FC40B90235B54204F15F
:103340000204F3D300F082FC002070BD032070BDA6
:1033500070B50546B0F1006F4FF0010038BF70BD89
:103360000C4615F003011AD105EB8206B6F1016F88
:1033700084BF012070BD00F0F7FCAE420CD900BF45
:10338000226802202946002300F06AFC40B9043577
:10339000B54204F10404F3D300F058FC002070BDE2
:1033A000032070BD2DE9F0410C468046002000212D
:1033B000002203F0EBFD322000F034FC40F66445BF
:1033C0004FF48036C2F200054120314604F060FD22
:1033D000414603F077FA052000F024FC2868002815
:1033E00048BF4042A04213DC6868002848BF404202
:1033F000A0420DDCA868002848BF4042A04207DC7C
:1034000006F58036B6F1167FDED13846BDE8F0818C
:10341000AF694FF4FA7000F005FC012604E000BF2C
:10342000632E06F10106F0D2012000F0FBFBA86933
:10343000C01B48BF4042B0F5004FF1DA38464FF2AA
:10344000333104F025FDA9690446084640F6CC4115
:1034500004F01EFD0719E3E740F2D440C2F2000079
:10346000006840107047000090F82020013A012ABF
:1034700018D8CA0704D00268936843F080039360A9
:103480008A0704D50268936843F4004393604907B0
:103490005CBF0020704700684FF4000200F1080193
:1034A000002004E000F1240101204FF480220B6889
:1034B0001A430A607047000090F82020013A012A60
:1034C00004D8006800F11402002004E000F1240296
:1034D00001204FF4802113681943116070470000E8
:1034E00010B590F820E0D0F800C0AEF1010EBEF1AA
:1034F000010FDCF808E00DD81EF0E05F10D0CEF32D
:10350000016EBEF1030F11D100F1240101204FF42F
:10351000000233E000F1240101204FF480222DE06D
:1035200000F1240101204FF4001227E0012000FAED
:103530000EF01860886818B14B6840EAC30001E0DB
:1035400008684005D1E9033403430CEB0E10C0F8C2
:103550008031C0F88441097D012905D100F5C2718F
:103560000B6843F480730B605168C0F88C111268CB
:1035700000F5C071C0F88821002001220B681A43B1
:103580000A6010BDB0B590F82020013A012A2FD86A
:1035900046F20060C4F20000026842F001020260DC
:1035A000026822F47C520260D1F814E0CC694A6AC5
:1035B0000368012C43EA022202600EF01F024FF062
:1035C000010303FA02F2C3696FEA020C23EA020361
:1035D000C36113D02CBBC36803EA0C03C360CB6880
:1035E0008C8844EA034300EBCE0423640B4611E0CD
:1035F000416A41F4802141620120B0BDC368134398
:10360000C3600B688C8844EA034300EBCE04236458
:1036100001F10C038C681B8843EA044300EBCE04E1
:10362000636443688D6943EA0204D1F810E0096AD3
:10363000002D08BF03EA0C0444604369BEF1000F8B
:1036400043EA020408BF03EA0C040129446102D1E1
:10365000C1691143C161016821F0010101600020CD
:10366000B0BD00007047000090F82020013A012A08
:1036700084BF0020704700681022002908BF0C2278
:10368000805800F00300704710B590F82040013CCE
:10369000012C0CD8D0F800C079B1DCF81040A40798
:1036A0000FD100F1240101204FF400126FE000F16E
:1036B000240101204FF4802269E0DCF80C40A407CB
:1036C00069D00CEB011CDCF8B0410CF5D87E14F08D
:1036D00004049460DCF8B04119BFE4085460640D40
:1036E0001460DEF800400029C4F34004D460DCF824
:1036F000B44104F00F041461DCF8B441C4F30724AE
:103700009461DCF8B4414FEA14445461DCF8B82108
:103710001A70026802EB0112D2F8B8214FEA1222A5
:103720005A70026802EB0112D2F8B8214FEA124235
:103730009A70026802EB0112D2F8B8214FEA1262C5
:10374000DA70026802EB0112D2F8BC211A71026829
:1037500002EB0112D2F8BC214FEA12225A71026820
:1037600002EB0112D2F8BC214FEA12429A710268B0
:1037700002EB0112D2F8BC214FEA1262DA71006842
:1037800014BF00F1100100F10C01002020220B6891
:103790001A430A6010BD00F1240101204FF4001209
:1037A000F5E7000090F820100139012984BF0020BE
:1037B00070470068816882688068C1F38061C2F3E5
:1037C000C0621144C0F30070084470472DE9F04F07
:1037D00081B0044600684669D0F804908768D0F844
:1037E0000CB0D0F810A0D0F81880F10703D1002554
:1037F00030071CD423E0F90710D00121BA078160FB
:1038000009D4780700F1AA80380700F1B08020467B
:1038100000F0FAF902E0204600F0F8F90025F8057A
:1038200000F18480F80300F1AA80300707D51BF06F
:10383000100004D0206845F400751021C1607007A5
:1038400008D51BF0080005D020680821C16020467B
:1038500000F0A2F9B00706D52068C068800702D042
:10386000204600F09BF9700607D51AF0100004D02E
:10387000206845F4806510210161B00608D51AF072
:10388000080005D0206808210161204600F088F971
:10389000F00606D520680069800702D0204600F0B7
:1038A00081F9B00308D519F0100005D02068102167
:1038B0004160204600F078F9F00308D519F00800BF
:1038C00005D0206808214160204600F0A9F93004A5
:1038D00040F18F805FEA497040F1888006F4807083
:1038E00008EA102028435FEA8871014648BF41F08A
:1038F0000201B20558BF01465FEA48700D4648BF55
:1039000045F00405700558BF0D4630056ED518F01A
:1039100070006BD010380009052862D8DFE800F08D
:10392000035356595C5F45F008055AE020684FF490
:103930008071BA0581600AD4780512D4380519D48B
:10394000204600F065F9F8037FF56FAF17E02046D9
:1039500000F060F9F8037FF568AF10E04FF4006500
:103960005DE705F50055F8037FF55FAF07E04FF41D
:10397000805554E705F58045F8037FF556AF20687C
:103980004FF48031BA0381600AD478030FD438032E
:1039900013D4204600F040F930073FF548AF4EE71A
:1039A000204600F03BF930073FF541AF47E705F50A
:1039B000004530073FF53BAF41E705F5803530075F
:1039C0003FF535AF3BE745F010050AE045F020052F
:1039D00007E045F0400504E045F0800501E045F4CE
:1039E00080752068816921F070018161206804215F
:1039F00041604DB1606A40EA05012046616201B054
:103A0000BDE8F04FFFF72EBE01B0BDE8F08F00001B
:103A1000B0B5C8B1044690F8200010B9204600F0B7
:103A200071F82068016821F00201016000F09CFA41
:103A3000054600BF20684168890707D500F094FA61
:103A4000401B0B28F6D312E00120B0BD016841F005
:103A50000101016000F088FA054600BF2068416856
:103A6000C9070DD100F080FA401B0B28F6D3606A1D
:103A7000052140F400306062012084F82010B0BDC0
:103A8000217E0268012922F0800208BF8032026094
:103A9000617E0268012922F0400208BF40320260C4
:103AA000A17E0268012922F0200208BF20320260B4
:103AB000E17E0268012922F0100218BF1032026074
:103AC000217F0268012922F0080208BF0832026043
:103AD000617F0268012922F0040208BF04320260FB
:103AE000D4E901C2D4E9033561691A432A43114379
:103AF000ACF101021143C16100200121606284F830
:103B00002010B0BD2DE9F04385B0002043F6300110
:103B10000090C4F202010A69002442F000720A61B6
:103B20000A69C4F2020402F000720092009A009046
:103B300008686D4640F00100086008684FF0020810
:103B400000F00100009000984FF4805000904FF07A
:103B500003090126092720462946CDF80480CDF81F
:103B60000C900296049700F017F94FF40060CDE92D
:103B7000000820462946CDE90269049700F00CF9B7
:103B800014200121002200F05BFA142000F048FA12
:103B900005B0BDE8F08300007047000070470000EA
:103BA000704700007047000070470000B0B5044641
:103BB00090F8200001281DD1022084F82000206800
:103BC000016821F00101016000F0CEF9054600BF57
:103BD00020684068C00713D000F0C6F9401B0B28CE
:103BE000F6D3606A40F400306062052084F820005B
:103BF0000120B0BD606A40F4002060620120B0BDC9
:103C000000206062B0BD00007047000070470000F7
:103C100070470000704700007047000070470000C8
:103C200070470000B0B5044600F09EF9054640F22A
:103C30001430C2F200000078611C18BF044400BFB9
:103C400000F092F9401BA042FAD3B0BD43F61041F8
:103C5000C4F20201086840F0004200200A60704788
:103C60002DE9F04381B040F6F844C2F200049046DA
:103C7000227E012A03D1022001B0BDE8F08307466D
:103C8000012020764CF250301E460D46FEF776FE9F
:103C9000002864D143F61049022FC4F2020915D05E
:103CA000012F28D0E7BBD9F8000020F44070C9F8F4
:103CB0000000D9F80000C9F80000D9F8000040F071
:103CC0000100C9F8000085F800803EE0D9F8000046
:103CD00020F44070C9F80000D9F8000040F40070EA
:103CE000C9F80000D9F8000040F00100C9F8000050
:103CF000C5F8008029E0D9F8000020F44070C9F828
:103D00000000D9F8000040F48070C9F80000D9F82C
:103D1000000040F00100C9F80000A5F8008014E0A0
:103D2000D9F8000020F44070C9F80000D9F800006C
:103D300040F44070C9F80000D9F8000040F00100DC
:103D4000C9F80000C5F800806E604CF25030FEF7F4
:103D500015FED9F8001021F00101C9F8001000216A
:103D6000217601B0BDE8F08343F60440C4F20200BE
:103D7000C168B1F1FF3FC4BF0020704740F223117A
:103D8000C4F26751016048F6AB11CCF6EF51016007
:103D9000C068C00F704700002DE9F04F82B000F1FD
:103DA0003E4241F6004502F1FF77C4F2020543F6B8
:103DB000004B4FEAB7260822A842C4F2010B08BF05
:103DC0000722072E4FF0010E4FF000064FF00004BF
:103DD0004FF0000838BF4FEAB722009209E000BF59
:103DE00008F101080434B8F1100F06F1020600F0E2
:103DF0009C800F680EFA08F917EA090FF0D0D1F885
:103E000004C04CF01007122F13D16FF0030202EA26
:103E10005807074404F01C050F22D7F820C002FA07
:103E200005F30A692CEA0303AA401A433A62D1F85F
:103E300004C002680323B3406FEA030A9A430CF0FC
:103E40000303B3401A43BCF1120F026014D80EFAF8
:103E50000CF212F0061F0FD08268CB6802EA0A0249
:103E6000B3401A43826042684FEA1C1322EA0902F7
:103E700003FA08F31A434260C2688B6802EA0A0236
:103E8000B3401A435FEACC03C260A9D5002243F6CF
:103E900044030192C4F202031A684FF6084C42F43C
:103EA00080421A601A68CFF6FF7C02F480420192C9
:103EB000019A28F003025A4452F80C3004F00C071F
:103EC0000F25BD40AB43009D05FA07F73B4342F881
:103ED0000C30DBF800204B6842EA0907DD0358BFCD
:103EE00022EA0907CBF80070DBF804209D0342EAC0
:103EF000090758BF22EA0907CBF80470DBF808204D
:103F0000DD0242EA090743F60C4558BF22EA0907D9
:103F1000CBF80870C4F201052A689B0242EA09073F
:103F200058BF22EA09072F605AE702B0BDE8F08FB8
:103F30000069084018BF01207047000042690A402C
:103F40008A4208BF0904816170470000002A08BF47
:103F5000090481617047000042F20000CEF20400C3
:103F60000068000C7047000040F64C50C2F20000A0
:103F70000068704747F61020C1F6FF700068704770
:103F800040F2143040F64C51C2F20000C2F200017F
:103F900000780A68104408607047000080B543F656
:103FA0000040C4F20200016841F400710160016840
:103FB00041F480610160032000F06EF80F2000F0F2
:103FC00005F800F02BF8002080BD0000B0B540F2ED
:103FD0001432C2F2000240F2A8111278C2F20001BB
:103FE0004FF47A730968B3FBF2F20446B1FBF2F1C5
:103FF000084600F0C7FA0F2C4FF001050CD858B94D
:104000004FF0FF3021460022002500F019F840F261
:104010001830C2F2000004602846B0BD70470000AE
:10402000002848BF704700F01F01012202FA01F189
:104030004EF200124009CEF2000242F82010704702
:1040400010B54EF60C5CCEF2000CDCF80030C3F379
:10405000022E8EF00704042C28BF0424BEF10303B3
:104060004FF0FF3E0EFA04F438BF0023A1439940FD
:104070000EFA03F39A4300F00F03043B1143634429
:1040800009010C3300F16042B0F1FF3FC8BF02F5F7
:104090006443197010BD00004EF60C51CEF20001C1
:1040A0000A684FF6FF031A4060F30A2242F080606C
:1040B00040F0FD70086070472DE9F041002800F0E5
:1040C000868043F60808C4F202080446D8F8F803CC
:1040D0000D4600F00F00884207D288F8F853D8F850
:1040E000F80300F00F00A84271D12068810717D5AE
:1040F000410705D5D8F8001041F4E051C8F8001088
:10410000010705D5D8F8001041F46041C8F8001047
:10411000D8F80010A26821F0F0011143C8F800108F
:10412000C0073AD1D8F8F80300F00F00A84207D929
:1041300088F8F853D8F8F80300F00F00A84246D1E9
:104140002068410707D5D8F80010E26821F4E05153
:104150001143C8F80010000708D5D8F800002169FD
:1041600020F4604040EAC100C8F8000000F04EF8BA
:10417000D8F8001048F69642C1F30311C0F60A02BF
:10418000515CC84040F2A811C2F2000108600F2043
:10419000FFF71CFF0020BDE8F0816068811E022946
:1041A00007D258F8081C89015CBF0120BDE8F081E6
:1041B00010E0012807D158F8081C89035CBF0120D2
:1041C000BDE8F08106E058F8081C890702D40120F8
:1041D000BDE8F081D8F8001021F003010843C8F8C9
:1041E0000000FFF7C1FE064641F28837D8F800000C
:1041F000616800F00C00B0EB810F93D0FFF7B4FEC4
:10420000801BB842F2D90320BDE8F08110B543F617
:104210000404C4F20204606800F00C0142F20040A1
:104220000829C0F2F40007D0042918BF10BD41F2DC
:104230000020C0F27A0010BD216801F03F02216821
:1042400023684902C3F3881105D4A1FB00010023B0
:10425000FDF72AF806E041F20020C0F27A00484358
:10426000B0FBF2F021680222C1F3014102EB4101EF
:10427000B0FBF1F010BD00002DE9F04182B0E8B3D1
:104280000446007843F60006C007C4F2020609D0CF
:10429000B06800F00C00042871D13068800301D5AB
:1042A000606858B32078800718D5B06810F00C0FFC
:1042B00007D0B06800F00C0008287AD1706840027E
:1042C00077D43068800702D5E068012816D13068BD
:1042D000216920F0F80040EAC10030602078000732
:1042E00010D42078400724D4A569002D00F01B814C
:1042F000B06800F00C00082840F09080012002B067
:10430000BDE8F0816069002840F20000C4F2472057
:1043100074D00121C0F8801EFFF726FE054600BFBD
:10432000706F8007DDD4FFF71FFE401B0228F7D90E
:10433000D5E0306C10F080580AD100200190306C2C
:1043400040F080503064306C00F080500190019853
:1043500047F20007C4F200073868C00540D4386847
:1043600040F480703860FFF7FFFD05463868C005EF
:1043700036D4FFF7F9FD401B0228F7D9AFE0B0684B
:1043800000F00C00082803D1706840023FF585AFAB
:104390006068B0F5803F07D0B0F5A02F40F089806D
:1043A000306840F480203060306840F48030306005
:1043B00089E0E068002840F20000C4F247204ED0B7
:1043C00001210160FFF7D0FD054600BF306880077E
:1043D0003FF57DAFFFF7C8FD401B0228F6D97EE010
:1043E000A068012805D005284AD1306F40F00400AC
:1043F0003067306F40F0010030674BE00021C0F8BB
:10440000801EFFF7B1FD0546706F80077FF569AF2D
:10441000FFF7AAFD401B0228F6D960E00027C4F28E
:10442000472700203866FFF79FFD022D05460BD178
:104430003068800157D5FFF797FD401B02284FF0E9
:104440000300F5D99BE000BF306880016BD5FFF712
:104450008BFD401B03284FF00300F5D38FE00021B4
:104460000160FFF781FD0546306880077FF536AFB4
:10447000FFF77AFD401B02284FF00300F4D97EE0DD
:10448000316F002821F001013167316F21F0040103
:1044900031674CD0FFF768FD054641F2883700BF11
:1044A000306F800753D4FFF75FFD401BB842F7D948
:1044B00015E03168002821F480313160316821F441
:1044C000802131604CD0FFF74FFD054630688003F6
:1044D0003FF5E8AEFFF748FD401B6428F6D90320FE
:1044E00002B0BDE8F08104F11C052FCD084340EA7D
:1044F0008210D9034FF6FF729143A1F5803140EA53
:1045000005600843706001203866FFF72DFD044602
:104510003068800107D4FFF727FD001B02284FF009
:104520000300F5D92BE0002002B0BDE8F081FFF7D1
:104530001BFD054641F28837306F800707D5FFF72E
:1045400013FD401BB8424FF00300F5D917E0B8F156
:10455000000F7FF4C9AE306C20F080503064C3E6A9
:10456000FFF702FD054600BF306880037FF59AAE75
:10457000FFF7FAFC401B64284FF00300F4D902B0A7
:10458000BDE8F081411E0020B0EB116F1CBF01207F
:1045900070474EF21002CEF2000251604EF62351E7
:1045A000CEF20001F0230B7007219060116070477C
:1045B000FEE7000080B5042816D8DFE800F00716F3
:1045C0001E030300BDE8804002F046B940F64950A2
:1045D000C2F200000078012818BF80BD40F6F0400C
:1045E000C2F200000121017080BDFDF70BFAFDF75A
:1045F00059FABDE88040FDF7B7B9BDE88040FDF746
:104600009DB900002DE9F04381B0884640F2184979
:104610000E21C4F2020901EAD0114FF4807761F053
:104620005F03C9F800709027013F00BFFCD14FF035
:10463000007761F05E01C9F800709027013F00BF6C
:10464000FCD14FF08077C9F800709027013F00BF80
:10465000FCD100244FF480764FF080775DB2B5F145
:10466000FF3F4FF40075C8BF4FF00075C9F8005008
:10467000902500BF013D00BFFCD19025C9F8006026
:10468000013D00BFFCD19025C9F80070013D00BF7D
:10469000FCD15B00072C04F10104DFD34FF400735D
:1046A000C9F80030902300BF013B00BFFCD14FF49C
:1046B0008073C9F800309023013B00BFFCD159F84A
:1046C000083C4FF080779B05C9F8007000F10F811E
:1046D000902300BF013B00BFFCD100234FF4807644
:1046E0004FF0807745B2B5F1FF3F4FF40075C8BF7A
:1046F0004FF00075C9F80050902500BF013D00BF84
:10470000FCD19025C9F80060013D00BFFCD1902587
:10471000C9F80070013D00BFFCD14000072B03F138
:104720000103DFD34FF40070C9F80000902000BFF0
:10473000013800BFFCD14FF48070C9F80000902010
:10474000013800BFFCD159F8080C4FF08073800588
:104750004FF09000C9F8003000F18E80013800BFA2
:10476000FCD14FF48070C9F800009020013800BFE0
:10477000FCD14FF00070C9F800009020013800BF54
:10478000FCD14FF08070C9F800009020013800BFC4
:10479000FCD100204FF480734FF080774EB2B6F119
:1047A000FF3F4FF40076C8BF4FF00076C9F80060B5
:1047B000902600BF013E00BFFCD19026C9F8003012
:1047C000013E00BFFCD19026C9F80070013E00BF39
:1047D000FCD14900072800F10100DFD34FF400703D
:1047E000C9F80000902000BF013800BFFCD14FF491
:1047F0008070C9F800009020013800BFFCD159F842
:10480000080C4FF0807180054FF09000C9F800103F
:1048100050D400BF013800BFFCD1022AA2F101042C
:104820000AD30020002600BF4044012101F00EFC05
:104830000136B0B28442F7DC08EB0400002101F03D
:1048400005FC4FF00070C9F800009020013800BF4F
:10485000FCD14FF48070C9F800009020013800BFEF
:10486000FCD14FF40070C9F800009020013800BF5F
:10487000FCD1002058E000BF013800BFFCD14FF050
:104880000070C9F800009020013800BFFCD14FF43F
:104890008070C9F800009020013800BFFCD14FF4AF
:1048A0000070C9F800009020013800BFFCD1FB2047
:1048B0003AE000BF013800BFFCD14FF00070C9F8EA
:1048C00000009020013800BFFCD14FF48070C9F87F
:1048D00000009020013800BFFCD14FF40070C9F8EF
:1048E00000009020013800BFFCD1FB201CE090208C
:1048F000013800BFFCD14FF00070C9F800009020D3
:10490000013800BFFCD14FF48070C9F8000090203E
:10491000013800BFFCD14FF40070C9F800009020AE
:10492000013800BFFCD1FB2040B201B0BDE8F083EC
:10493000F0B540F218450E23C4F2020503EAD01385
:104940004FF4807790262F60013E00BFFCD163F0CA
:104950005F044FF000732B60902300BF013B00BF4A
:10496000FCD14FF080732B60902300BF013B00BF50
:10497000FCD100234FF4807C4FF0807E66B2B6F10C
:10498000FF3F4FF40076C8BF4FF000762E609026B0
:10499000013E00BFFCD19026C5F800C0013E00BF1B
:1049A000FCD19026C5F800E0013E00BFFCD16400B8
:1049B000072B03F10103E1D34FF400732B60902325
:1049C000013B00BFFCD14FF480732B60902300BFEC
:1049D000013B00BFFCD155F8083C4FF080779B05A8
:1049E0002F6000F1EB809023013B00BFFCD100243D
:1049F0004FF4807C4FF0807643B2B3F1FF3F4FF429
:104A00000073C8BF4FF000732B609023013B00BFC1
:104A1000FCD19023C5F800C0013B00BFFCD190231E
:104A20002E6000BF013B00BFFCD14000072C04F109
:104A30000104E1D34FF4007028609020013800BFDA
:104A4000FCD14FF480702860902000BF013800BF77
:104A5000FCD155F8080C4FF0807380054FF09000A2
:104A60002B6000F18F8000BF013800BFFCD1002A0D
:104A700045D04FF0000E4FF4007C4FF480704FF0A3
:104A8000807400BF11F80E30002600BF5FB2B7F18E
:104A9000FF3F4FF40077C8BF4FF000772F6090279B
:104AA000013F00BFFCD19027286000BF013F00BF3D
:104AB000FCD190272C6000BF013F00BFFCD15B0000
:104AC000072E06F10106E1D39023C5F800C000BF10
:104AD000013B00BFFCD19023286000BF013B00BF19
:104AE000FCD155F8083C2C609B0500F18780902391
:104AF000013B00BFFCD10EF1010E9645C2D14FF033
:104B000000702860902000BF013800BFFCD14FF436
:104B100080702860902000BF013800BFFCD14FF4A6
:104B200000702860902000BF013800BFFCD1002039
:104B300043F6FF71884200F1010000BFFAD3002064
:104B400043F6FF71884200F1010000BFFAD3002054
:104B500043F6FF71884200F1010000BFFAD3002044
:104B600043F6FF71884200F1010000BFFAD3002034
:104B700043F6FF71884200F1010000BFFAD3002024
:104B800040B2F0BD013800BFFCD14FF0007028608A
:104B9000902000BF013800BFFCD14FF48070286026
:104BA000902000BF013800BFFCD14FF40070286096
:104BB000902000BF013800BFFCD11CE0902000BF56
:104BC000013800BFFCD14FF000702860902000BF7A
:104BD000013800BFFCD14FF480702860902000BFE6
:104BE000013800BFFCD14FF400702860902000BF56
:104BF000013800BFFCD1FB2040B2F0BD902000BFC7
:104C0000013800BFFCD14FF000702860902000BF39
:104C1000013800BFFCD14FF480702860902000BFA5
:104C2000013800BFFCD14FF400702860902000BF15
:104C3000013800BFFCD1DEE7FEE7000089B170B5A6
:104C40004A1E92B248F6C25348F6C26E01F0030CF7
:104C5000032AC0F60A03C0F60A0E06D2FF21FF227D
:104C600028E0FF214FF47F4048E021F00304FF21BA
:104C7000FF2200BF10F8045B043C69405D5C10F843
:104C8000036C6A4072401EF801109D5C10F8026CC3
:104C9000694071401EF802205D5C10F8016C6A40AA
:104CA00072401EF801109D5C1EF80220260481EA65
:104CB0000501DFD1BCF1000F1CD00478BCF1010F5D
:104CC00084EA0104195D81EA02011EF8042011D072
:104CD0004478BCF1020F81EA04015C5C84EA0204BE
:104CE0001EF80120E1B205D080784840195C51409F
:104CF0001EF80020D0B20002BDE87040084380B228
:104D0000704700002DE9F04FCBB040F28401C2F2B1
:104D1000000141F6CF70086040F2AC1140F29806F5
:104D2000C2F2000140F2FF10C2F200060860708C6F
:104D30004FF200084CF2000B6421C0F6FF78C0F27D
:104D40005D0B03F055F804460620FCF745FC41F2E4
:104D5000ED27784300EA0800002558454FF0010090
:104D600088BF0125FEF75EFF0620FCF735FC78437F
:104D700000EA080058454FF0010088BF0135FEF7F2
:104D800051FF0620FCF728FC784300EA080058454C
:104D90004FF0010088BF0135FEF744FF0620FCF705
:104DA0001BFC784300EA080058454FF0010088BF1B
:104DB0000135FEF737FF0620FCF70EFC784300EACA
:104DC000080058454FF0010088BF0135FEF72AFF63
:104DD0000620FCF701FC784300EA080058454FF034
:104DE000010088BF0135FEF71DFF0620FCF7F4FB2C
:104DF000784300EA080058454FF0010088BF0135AC
:104E0000FEF710FF0620FCF7E7FB784300EA0800F6
:104E100058454FF0010088BF0135FEF703FF06201B
:104E2000FCF7DAFB784300EA080058454FF0010030
:104E300088BF0135FEF7F6FE0620FCF7CDFB784370
:104E400000EA0800584588BF01350120EDB2FEF7A1
:104E5000E9FE0A2D40F0AA800020A71002F07CF99C
:104E600000200021002202F091F8032002F074F9E2
:104E700040F6644901264FF4803441F69915C2F298
:104E8000000900BF40F28F20214603F001F82844BA
:104E90000021002202F07AF80520FEF7C3FED9F8BF
:104EA0000000002848BF4042B84206DC01361E2EF2
:104EB00004F58034E6D11E2000E0B0B2409000201E
:104EC0000021002202F062F86420FEF7ABFE01260A
:104ED0004FF4803441F6991540F28F20214602F0BC
:104EE000D7FF41190020002202F050F80520FEF7FC
:104EF00099FED9F80400002848BF4042B84207DCB8
:104F000001361E2E04F58034E6D14FF01E0A01E072
:104F10001FFA86FA00200021002202F037F86420F0
:104F2000FEF780FE01264FF4803441F6991500BF4C
:104F300040F28F20214602F0ABFF421900200021F1
:104F400002F024F80520FEF76DFED9F808000028CD
:104F500048BF4042B84206DC01361E2E04F58034BC
:104F6000E6D1012406E06FF01D0010FA86F0B0FAD9
:104F700080F04409002002F0EFF800200021002218
:104F800002F004F8409840F298061E28C2F200068B
:104F900018BFBAF11E0F07D140F6C040C2F20000A0
:104FA000017841F0040115E0002CF5D140F6C04233
:104FB000C2F200021178B6F92A0001F0FB010028C4
:104FC000117048BF4042012808D140F26C40C2F243
:104FD0000000012101704BB0BDE8F08F708C64219E
:104FE00002F006FF04460620FCF7F6FA41F2ED2631
:104FF000704300EA0800002558454FF0010088BFC3
:105000000125FEF70FFE0620FCF7E6FA704300EAE2
:10501000080058454FF0010088BF0135FEF702FE39
:105020000620FCF7D9FA704300EA080058454FF013
:10503000010088BF0135FEF7F5FD032D40F0178113
:10504000002002F089F800200021002201F09EFFDC
:10505000032002F081F81E20FEF7E4FD4FF44040EB
:105060002146FEF79FF900202146FEF79BF90646F0
:105070004A904FF480402146FEF794F90546499046
:105080004FF400402146FEF78DF9824648904FF4D8
:1050900040402146FEF786F9814647900020214690
:1050A000FEF780F946904FF440402146FEF77AF92A
:1050B000804642904FF400402146FEF773F9834644
:1050C00043904FF480402146FEF76CF90746449028
:1050D00000202146FEF766F94590002000210022BD
:1050E00001F054FF002002F037F8A81B40F6CC4135
:1050F000419048BF40428842C0F2B98041A8FCF7C5
:10510000CDFB44F200044198CFF6FF74012104F571
:105110000046B0F5004FC8BF4FF0FF3101FB06500D
:1051200040F29805C2F20005499049A86985FCF74C
:10513000B5FBB5F92A0004F5804400FB04A00DF589
:10514000907A48905046FCF7A9FBB5F92A00A0EBED
:10515000800009EB8030479047A8FCF79FFBB5F92A
:105160002A000DF5887910FB067044904846FCF73C
:1051700095FBB5F92A0043AF00FB04B043903846D5
:10518000FCF78CFBB5F92A0042ACA0EB800008EBE1
:10519000803042902046FCF781FB45AE30464946C0
:1051A0003246FCF7BDFB3046FCF778FB384621461B
:1051B0003A46FCF7B5FB3846FCF770FB38463146FB
:1051C0003246FCF7ADFB3046FCF768FB4AAF384689
:1051D00049A93A46FCF7A4FB3846FCF75FFB50466A
:1051E00047A95246FCF79CFB5046FCF757FB46A9E3
:1051F00038463A46FCF794FB3846FCF74FFB3846F6
:1052000051463A46FCF78CFB3846FCF747FB3046E4
:1052100039463A46FCF784FB3846FCF73FFB4A9890
:1052200040F6C044B0F5803FA4BF00204A902885D6
:10523000684605F1100140F20012C2F2000451F874
:10524000043B043A40F8043BF9D195E80F0000F024
:1052500077FD00283FF4B9AE40F28400C2F20000AE
:105260000078C00703D0207840F00100207040F2A1
:10527000AC10C2F200000078400707D540F6D040DD
:10528000C2F20000017841F0040101704BB0BDE8AA
:10529000F08F0000000000002DE9F04740F2840488
:1052A000C2F2000440F6495840F6C04A2168C2F2F2
:1052B0000008C2F2000A98F800009AF800200B07D4
:1052C00015D5A0B1130716D440F20E37C2F200076D
:1052D000B7F9003002F0F702012BA4BF013B3B807D
:1052E0009BB2B3FA83F35B0942EAC30201E002F026
:1052F000F7028AF80020CB0615D5A0B1D30616D444
:1053000040F20837C2F20007B7F9003002F0EF02AE
:10531000012BA4BF013B3B809BB2B3FA83F35B0933
:1053200042EA031201E002F0EF028AF800208B0645
:1053300015D5A0B1930616D440F20A37C2F2000781
:10534000B7F9003002F0DF02012BA4BF013B3B8024
:105350009BB2B3FA83F35B0942EA431201E002F025
:10536000DF028AF800204B0600D518B902F0BF0210
:105370008AF80020C9053FD540F26C41C2F2000115
:105380000978C9B3BAF80110C90735D140F29800BD
:10539000C2F20000408C03F05FFB9FEDBB0B53ECAF
:1053A000102B03F06DFB03F011FB642102F020FDD4
:1053B00040F66441C2F20001CB6840F29441C2F26F
:1053C00000010A68834209DD013241F2883300207E
:1053D0009A4284BF012000220A6004E0002A1CBF18
:1053E000501E08600020514631F8012F22F00102C2
:1053F000024498F800000A8040F2AC19C2F2000999
:1054000099F8001040F6D0478906C2F200070DD582
:1054100060B13978890609D401F062FC397801F06D
:10542000DF0160F3451198F8000039709AF8031015
:105430006278BAF80130920743EA014115D5A0B16C
:10544000880719D43878800616D501F049FC5146F2
:1054500031F8012F8B7842EA034222F0020260F316
:105460004102100C0A80887006E021F00200090C4D
:105470008AF80310AAF801000620FCF7ADF841F203
:10548000ED214843C0F30F3040F6B931884219D3BB
:1054900040F64B52C2F2000240F20C601378C2F2A6
:1054A000000000210170581CC1B26529107033D36F
:1054B0006078400723D5504630F8011F41F00401C1
:1054C00001801CE040F2DB5340F64B52984240F220
:1054D0000C60C2F200024FF00001C2F20000117035
:1054E00013D801780131CAB2652A017014D399F832
:1054F0000000800703D5387840F00200387040F68D
:105500006440C2F20000002105E0017040F66440F2
:10551000C2F200000121818799F80000400763D59D
:1055200040F21060C2F20000D0E9005640F6D844C4
:10553000A81BC2F2000420602046FCF769F9387805
:10554000010746D440F2D011C2F20001002D48BF3D
:105550006D4209688D4215DA40F62452C2F200020B
:1055600000232168138040F2D412C2F20002002905
:1055700048BF49421268914279DD40F62851C2F293
:10558000000119E0002E48BF76428E4221DA40F633
:105590002852C2F2000200232168138040F2D41284
:1055A000C2F20002002948BF49421268914264DDFC
:1055B00040F62451C2F200010A88531C652A0B8070
:1055C00012D399F80010090744BF40F00800387062
:1055D0000AE040F62450C2F200000021018040F6AB
:1055E0002850C2F20000018040F61850C2F20000BC
:1055F000406828B1387800F07F01D9F8000006E053
:10560000D9F80000010603D5397841F080013970DE
:10561000C0051FD598F80000E0B19AF80000800698
:1056200048BFBDE8F08740F21031C2F20001B1F985
:1056300000000128A4BF01380880F978B7F80120DC
:1056400080B2B0FA80F042EA0141400921F0010144
:10565000084406E0F878B7F8011041EA004020F06D
:105660000100A7F80100000CF870BDE8F08740F6D3
:105670002850C2F200000021B5E740F62450C2F2E3
:1056800000000021AFE700BF000000000000F83F6D
:10569000F0B5EFF3108272B60368406840F29002F2
:1056A00040F6C044C2F20002C2F20004C2E9003077
:1056B00062B6206840F29847C2F2000730B1052078
:1056C0000B4603F8010F18E03A70F0BD4B78002B41
:1056D00046D040F63250C2F200000588002D47D176
:1056E0009588002D44D05D1E052D88BFF0BD4B1C54
:1056F000DFE805F00D0C0C4203840E208870206852
:105700000522002804BF00201870DDE7DDE740F225
:105710009C4CC2F2000CBCF80000B2F802E07045EC
:1057200003D13878012800F0C3801088022800F0E7
:105730008B80441E062C80F087800128187040F072
:10574000B580D0884FF6E852904240F0808040F615
:105750001850C2F200000322826001208870A3E08A
:1057600040F61850C2F20000406840B3107842E0A2
:1057700004250B4603F8015F968800258D70AEB1B5
:105780001488022C33D0661E062E30D2008858B9F9
:10579000D088002818BF0120062C52D3A11FB1FACF
:1057A00081F1490908404CD104228DE70620887018
:1057B00040F29C40C2F200000580042284E7387861
:1057C00040F29803002840F29A40C2F200001ABF4B
:1057D000002202800288C2F20003B3F868309A42C5
:1057E00008D2013202800120887000226CE7042276
:1057F0008A7069E704204870002265E7D0884FF678
:10580000FF7290420CD0012817D140F29802C2F2E8
:105810000002B2F86C2001208870900888600EE0C9
:105820000120887040F29800C2F20000B0F86C00CD
:105830000022A2EB9000886001E00420187006228C
:1058400042E71C7004223FE7042018702EE040F26B
:105850009802C2F20002B2F86230B2F86040984298
:1058600028BF0346A04240F66440C2F2000088BF51
:105870002346C069B2F85C20181A90424B6009DDDB
:1058800040F61850C2F200000022826001208870A9
:105890000A610BE0524290421EDA40F61850C2F202
:1058A0000000012282608A7000200861ACF800E0EC
:1058B000887801280AD140F29802C2F200020869F1
:1058C000B2F86A20904203DA013008610122FBE657
:1058D000022088700122F7E640F61850C2F200005C
:1058E0000222826004208870E0E70000B0B5044620
:1058F00040F29800C2F20000008C4FF48031B1FBFE
:10590000F0F040F2A045C2F200052860FDF7A4FDCA
:105910002062FDF7A1FD296890FBF1F202FB110066
:1059200002F066FAA061B0BDF0B581B00446072070
:10593000FBF752FE07460820FBF74EFE06460920FD
:10594000FBF74AFE054640F6E440C2F2000000685C
:1059500039B2081A4FF4006102F04AFA40F298078F
:10596000C2F20007396B02F093FA206040F6E8407B
:10597000C2F20000006831B2081A4FF4006102F070
:1059800037FA396B02F084FA606040F6EC40C2F2FC
:105990000000006829B2081A4FF4006102F028FAEA
:1059A000396B02F075FAA0600020FBF715FE00B21B
:1059B000206301B0F0BD00002DE9F04F83B040F648
:1059C000644040F2D037C2F200004FF6FF7100246D
:1059D000C2F20007C18700BF0120FEF723F90720AC
:1059E000FBF7FAFD47F82400082007EB8405FBF7D6
:1059F000F3FDA8620920FBF7EFFD01340A2C2865AE
:105A0000EAD140F24840C2F20000D0F800A040F2D3
:105A10005440C2F20000D0F8008040F25840C2F278
:105A20000000D0F800E040F25C40C2F200000468E0
:105A300040F2780140F24C450026C2F20001C2F269
:105A4000000508E008360C4440F27801282EC2F226
:105A5000000100F09780BA59524505DD40F24840F8
:105A6000C2F20000924602600868CDF804808242CB
:105A7000B8BF0A6007EB0609D9F82880286877467E
:105A8000804540F27C00C8BFC5F80080C2F200002B
:105A900000688045BEBF40F27C00C2F20000C0F842
:105AA000008040F25040C2F20000D9F850B00068C7
:105AB0008345C2BF40F25040C2F20000C0F800B0BF
:105AC00040F28000C2F20000006802948345BEBF2D
:105AD00040F28000C2F20000C0F800B0D9F804E043
:105AE000D64506DD40F24840C2F20000F246C0F85A
:105AF00000E008688645BCBFC1F800E07046D9F8F0
:105B00002C10D5F800C0009040F27C006145C4BF65
:105B100029608C46C2F200000068814205DA40F23A
:105B20007C00C2F200000160084640F25043C2F21D
:105B30000003D9F85440D3F80090019B4C451A4417
:105B400008EB070305DD40F25047C2F20007A1460B
:105B50003C600EEB020840F28002C2F200021268C2
:105B600001EB030E029940F2D03794425944C2F23D
:105B70000007BFF667AF40F28002C2F20002146075
:105B800022465FE740F25441C2F20001C1F80080B2
:105B900040F25841C2F20001C1F800E040F25C411D
:105BA000C2F20001009B0C60A8EB0A01C91A40F682
:105BB000E443C910C2F200031960AEEB0C01081AED
:105BC00040F6E841C010C2F200010860A4EB0900F1
:105BD000801A40F6EC41C010C2F20001086003B028
:105BE000BDE8F08FF0B581B00D460446FDF734FCFA
:105BF00040F2A447C2F2000740F6E0463968C2F21C
:105C000000063060401A10F5004FB8BF00F5803034
:105C100040F2B441B0F5004FC8BFA0F58030C2F2E9
:105C2000000108606843C0EB001040F6DC458100CD
:105C3000C2F20005206929604EF2666102F028F97F
:105C40002A6800210546C0F6B831104602F0D0F8A7
:105C500041F6991102F01CF931682844206139603D
:105C600001B0F0BD7047000040F2A84C036BC2F2D7
:105C7000000CBCF8002040F233318B4208DB910865
:105C80004A2999BF501CACF8000001214187704798
:105C9000002A19BF501EACF8000000214187704750
:105CA00070B540F2AA46C2F200060446304603210F
:105CB000FCF784FB40F2AB45C2F200052846042104
:105CC000FCF77CFB307840F2AC41C2F200010A885C
:105CD000002840F2B040C2F2000003D03AB1013ACD
:105CE0000A8008E0042A04D801320A8003E0002177
:105CF00000E001210170297840F2AE42C2F20002B8
:105D00001388002940F2B241C2F2000106D0002BF4
:105D100007BF00220A70013B138006E0042B02D863
:105D20000133138001E001220A70007809780843EA
:105D300000F00100A4F8400070BD000070470000B2
:105D400084B010B50DF1080C8CE8070080B2012872
:105D5000059315D102AC6088B0F5887F12D1A08878
:105D6000172811D120464FF48771FEF767FFA4F87A
:105D70000E01002021464FF48872FCF769FD04E013
:105D8000012002E0012000E00120BDE8104004B045
:105D900070470000F0B5C1B040F6BA45C2F2000548
:105DA000288840F298040128C2F2000440F0E08004
:105DB00040F2185740F22056C2F20007C2F2000625
:105DC0007A8873883888B9889A423080B18000F028
:105DD000CD80012972800CD000292FD14F2840F2AC
:105DE000C080A0F57A71372940F2B2804FF0FF30C1
:105DF000BBE000F031FD40F65040C2F200004078B8
:105E000000F0FE00042840F0B1803888A0F2044180
:105E10001A2917D8DFE801F00E891E892289268900
:105E20002A2E3236893A438989894C555E67898999
:105E300070798200F8888001A06376E04FF0FF302F
:105E4000308093E04C286DD04D286ED1F888A4F8AE
:105E50000A016AE0F8888001E06366E0F888800162
:105E6000206462E0F888800160645EE0F888A4F84D
:105E700048005AE0F888A4F84A0056E0F888A4F8E8
:105E80004C0052E0F888A4F84E004EE0F88840F646
:105E9000B831884238BF0146A4F8521045E0F8886E
:105EA000B0F57A7F28BF4FF47A70A4F854003CE034
:105EB000F88840F21E51884238BF0146A4F85C10B1
:105EC00033E0F88840F21E51884238BF0146A4F8FA
:105ED0005E102AE0F888B0F5404F28BF4FF44040EC
:105EE000A4F8600021E0F888B0F5404F28BF4FF4D7
:105EF0004040A4F8620018E0F88844F62061884227
:105F000038BF0146A4F868100FE0F88844F6206115
:105F1000884238BF0146A4F86A1006E0F888A4F861
:105F20006C0002E0F888A4F80801684604F110014A
:105F300040F2001251F8043B043A40F8043BF9D116
:105F400094E80F00FFF7FCFE3888B0F57A7F08D39D
:105F50004FF6184104EB4000CFF6FF7130F8110006
:105F600003E004EB4000B0F87000F08002202880CD
:105F7000E06940F20431C0F20211884230D140F2AF
:105F8000E055C2F20005286842F2C0710130C0F24B
:105F900009018842286023D341F2A160C0F20300C6
:105FA000E061684604F1100140F2001251F8043B30
:105FB000043A40F8043BF9D194E80F00FFF7C0FE23
:105FC00040F21850C2F20000008840F2205104EB69
:105FD0004000B0F87000C2F20001C88000202860C4
:105FE00041B0F0BD7047000010B5D0E90012044682
:105FF0000069891AE16101F04BFFA268D4E9093117
:1060000008449A4220620ED00028024648BF42420D
:1060100000290B4648BF4B429A4204DB08464FF624
:10602000705101F035FFE169E2682062A06201442D
:10603000104601F02DFF61696062884204DCA169AD
:106040008842B8BF08460146A16010BDB0B540F215
:1060500018420023C4F2020203704FF4007313606D
:10606000902300BF013B00BFFCD14FF08073136051
:10607000902300BF013B00BFFCD100234FF4807C84
:106080004FF0807E0478640004709024C2F800C051
:10609000013C00BFFCD152F8084C0578C4F3402401
:1060A0002C4304709024C2F800E000BF013C00BF04
:1060B000FCD1072B03F10103E4D339B14FF0007099
:1060C00010609020013800BFFCD106E04FF4007052
:1060D00010609020013800BFFCD14FF48070106038
:1060E000902000BF013800BFFCD14FF080701060DD
:1060F000902000BF013800BFFCD14FF0007010604D
:10610000902000BF013800BFFCD14FF40070106038
:10611000902000BF013800BFFCD1B0BD2DE9F04F89
:1061200087B00090002043F6300A0190C4F2020AC2
:10613000DAF8140040F2004540F01000CAF81400EC
:10614000DAF81400002100F01000019001980226F6
:106150004020C4F202050DF1040B46F2884741F2DB
:106160000C04CDE9026101904FF00708284659461A
:10617000C4F20207C4F201040496CDF81480FDF7BE
:106180000BFE4FF0010980200296CDE903960190A5
:1061900028465946CDF81480FDF7FEFD4FF4805097
:1061A00005F58065CDE90299019028465946049687
:1061B000FDF7F2FD28464FF480510022FDF7C6FEA0
:1061C0000020206040F2A810C2F200000068009990
:1061D0004008B0FBF1F04FF6FF7180B244F8040CB8
:1061E0002068002288432060606847F66F7188430A
:1061F0006060A06840F6FF718843A06020680021BD
:1062000040F05C002060A06840F0C000A060206802
:1062100040F4005020602520FDF712FF2520FDF7F7
:10622000FFFE00210691DAF8000040F48000CAF871
:106230000000DAF8000000F480000690069806914D
:10624000DAF80000002140F48000CAF80000DAF813
:10625000000000F4800006900698396057F87C0C26
:1062600040F47C6047F87C0C3868C0071FBF386872
:106270005FEAC07038685FEAC07002D03868C00753
:10628000F2D140F25445C0F6010505F1B000386086
:1062900040F24B70C2F20000F860083CFF20BC6086
:1062A0007860802078613868062140F0010038600D
:1062B000442000220026FDF7C3FE4420FDF7B0FE77
:1062C0003E6357F87C0C40F07C6047F87C0C386BE0
:1062D000C00709D0386BC0071CBF386B5FEAC070BD
:1062E00002D0386BC007F2D140F64C20C2F2000059
:1062F0003D63F8630020BC637863802078644620A7
:1063000006210022FDF79CFE4620FDF789FE0020B5
:1063100007B0BDE8F08F0000B0B540F64854C2F2B7
:106320000004217840F64C20C2F2000002220270E4
:1063300021BB40F6000046F2B845C4F202004FF41B
:1063400080510122C4F20205FDF700FE286820F00A
:10635000010028602868C0071FBF28685FEAC07076
:1063600028685FEAC07002D02868C007F2D1012017
:106370006860296841F001012960207000202070C8
:10638000B0BD000080B540F27651C2F200010A783B
:106390004AB3018840F2346E0029C2F2000E50D098
:1063A0004288BEF804309A424ED0002AAEF804204B
:1063B00000F0908001228EF8002042F21072808856
:1063C000CEF808204FF47A72012808BF4FF47A62A1
:1063D000CEF80C2000228EF801000320CEF8102009
:1063E0008EF8020030E040F27450C2F200000288E1
:1063F00041F26F739A4202D8511C018003E00022DF
:1064000002800120087040F24860C2F200000621BC
:1064100001800121817040F27252C2F200021088A4
:10642000312802D80130108080BD40F24861C2F2AC
:1064300000010023087889781380BDE8804000F0CF
:106440007FB80020AEF804009EF80000012847D174
:10645000DEF80820012A1CDB9EF801009EF80230BD
:10646000013A9842CEF808201ED1DEE9032040F21E
:10647000486C431CCEF81030C2F2000C0323ACF879
:10648000003090428CF80230A4BF00208EF800004B
:10649000C1E740F24860C2F200000322028082702D
:1064A00002208EF80000B6E748F21F51C5F2EB114A
:1064B000A2FB01135909642301FB132132292BD0BC
:1064C0000029A8D140F24861C2F2000106220A80E8
:1064D0008870A0E704208EF800000020CEF810009D
:1064E00040F2705CC2F2000CBCF80000002348F2DD
:1064F0001F52642838BF431C98B2C5F2EB12A0FBB0
:1065000002214909642201FB1200ACF80030322854
:1065100009D000287FF47FAF40F24860C2F200004B
:106520000321018076E79EF8020001287FF473AF13
:1065300040F24860C2F2000006210180002169E7B4
:1065400080B586B001228DF80420002206288DF83F
:106550000500ADF8062009D003280CD10120ADF8C4
:106560000A0001A800F00EF806B080BD29B102298A
:1065700005D00129F2D006B080BD0020EFE702204F
:10658000EDE70000B0B590B001884288C088ADF852
:10659000001011BA00BA090C000CADF80210ADF8E9
:1065A000040068460621FEF749FB40F6D544C2F2D6
:1065B00000042178ADF8060069BB40F6004046F2C1
:1065C0007005C4F2020004210122C4F20205FDF7A5
:1065D000BDFCDDE9000140F65032C2F20002C2E922
:1065E0000001286820F00100286000BF2868C0076B
:1065F0001FBF28685FEAC07028685FEAC07002D0D9
:106600002868C007F2D108206860286840F00100BF
:1066100028600120207040F2CC10C2F200000188F6
:106620004900018010B0B0BD70470000B0B540F225
:106630008854C2F20004D4E901154DF6B250A561A8
:1066400001F026FCA26900EB65030321981AE361BF
:10665000002BC8BF02210028C8BF0139002A48BF4B
:10666000C1F10701A1840139042920620FD8DFE8B4
:1066700001F003090E030900111AC4E903311A4697
:10668000184608E01844C4E90302114603E04142F9
:106690001A44C4E9030152426261BDE8B04000F00F
:1066A00075BC00002DE9F041C0B040F2585440F2F2
:1066B000BC51C2F20004C2F2000160880A8840F2B4
:1066C000BE589042C2F200082FD022880880022AC9
:1066D00012D0012A29D1A18840F6BE420139C2F266
:1066E0000002B1FA81F113884909012BA8F80010C2
:1066F00004BF022313801AE0A188012903D10121DC
:10670000A8F8021008E00021A8F8021040F2B051E9
:10671000C2F2000102228A8040F6BE41C2F20001AC
:106720000A88012A04BF02220A80B8F80010002952
:1067300040F2B85640F63251C2F20006C2F20001F1
:106740000FD001220A80218840F2B057C2F2000720
:106750003980318878806329BA8017D8481C308006
:1067600046E00020088040F26C41C2F20001097846
:106770003080002940F2BA51C2F20001088026D0D0
:1067800040F2B051C2F20001888031E040F298033B
:10679000C2F2000300205885684603F1100140F260
:1067A000001251F8045B043A40F8045BF9D10FCBB6
:1067B000FFF7C6FA90B140F2BA50C2F20000018869
:1067C00002290ED8013101800020308010E040F213
:1067D000B050C2F200000221818009E000F00AF905
:1067E00006E00221B9800021A8F800103180018064
:1067F000B8F8020078B1206840F2B051C2F200014E
:1068000008603088012263288A8014D801303080E3
:1068100040B0BDE8F08140F61850C2F20000416877
:106820000020308071B140F2B051C2F20001888086
:1068300040B0BDE8F0810020308040B0BDE8F041BC
:1068400000F0D8B840F2B050C2F2000002218180BE
:1068500040B0BDE8F081000040F28400C2F20000C8
:106860004078000758BF704740F6C040C2F20000B1
:1068700030F8011F41F008010180704740F28400A8
:10688000C2F200000078800758BF704740F6C04051
:10689000C2F20000017841F002010170704700006F
:1068A00040F28400C2F200000078C00708BF7047C1
:1068B00040F6C040C2F20000017841F001010170D1
:1068C00070470000F0B581B0054608460C4601F05F
:1068D000E5FA0646204601F04BFA044628462146D2
:1068E00001F0D6FA07462846314601F0D1FA3F1AA0
:1068F0002846314601F0CCFA06462846214601F0EA
:10690000C7FA40F288513044C2F20001C1E9017077
:1069100001B0BDE8F040FFF789BE0000F0B581B0DE
:1069200044F20004C0F6000440F22C662188C2F252
:1069300000060320307021F0010040F26E41C2F2E7
:106940000001088020460122FCF7D8FC40F23267A3
:10695000C2F20007387088B1307878B140F26E45E5
:10696000C2F2000501383070204629460122FCF7AA
:10697000C5FC387010B130780028F3D101B0F0BDFB
:10698000F0B581B044F2000440F22C66C0F6000479
:10699000C2F2000603203070208840F26E41C2F23D
:1069A0000001420708805CBF01B0F0BD20F0040088
:1069B000088020460122FCF7A1FC40F23267C2F2B7
:1069C0000007387088B1307878B140F26E45C2F275
:1069D000000501383070204629460122FCF78EFC64
:1069E000387010B130780028F3D1EFF3108072B610
:1069F00000F0D6FFEFF3108072B600F0D1FF000078
:106A000070B5D0E9001204460069891AE16101F00D
:106A10003FFAA268D4E9093108449A4220620ED0B4
:106A20000028024648BF424200290B4648BF4B425D
:106A30009A4204DB08464FF6705101F029FA2062B1
:106A40002268D4E90C51A66BA062104601F020FA2E
:106A50006168411A304601F01BFA0146284601F0F0
:106A600017FA626CD4E90F13821A9818C4E911203E
:106A700001F00EFA2064D4E90712A36CE068114417
:106A8000194401F005FA61696062884204DCA16979
:106A90008842B8BF08460146A16070BDF0B581B01C
:106AA000002440F29805C0F60A04C2F200052268EC
:106AB000E86840F22C66C2F200060321824231707F
:106AC0006A611BD0294641F8140F20460122FCF7C9
:106AD0003FFC40F23267C2F20007387070B1307884
