:02000004080AE8
:101000001813002069120A08355C0A08F1440A081E
:10101000794B0A084D190A08ED740A08000000000F
:101020000000000000000000000000007D620A08CF
:10103000F1260A0800000000DD5E0A08B9670A0808
:1010400083120A0883120A0883120A0883120A0804
:1010500083120A0883120A0883120A0883120A08F4
:1010600083120A0883120A0883120A0883120A08E4
:1010700083120A08F5230A0883120A082D240A0895
:1010800041240A0881240A0825160A0883120A083E
:1010900051190A0883120A0883120A0883120A08DF
:1010A00083120A0883120A0883120A0883120A08A4
:1010B00015680A0849680A0883120A0883120A0890
:1010C00083120A0883120A0883120A0883120A0884
:1010D00083120A08BD700A0819720A0883120A08E6
:1010E00083120A0883120A0883120A0883120A0864
:1010F00083120A0883120A0883120A0883120A0854
:1011000083120A0883120A0891680A0883120A08DF
:10111000B96E0A0883120A0883120A0883120A08A1
:1011200095240A0883120A0883120A0883120A08FF
:1011300083120A08000000000000000083120A0861
:1011400083120A0883120A0883120A0883120A0803
:10115000A9240A0883120A08D5240A0883120A0857
:1011600083120A0883120A0883120A0883120A08E3
:1011700083120A0883120A08000000000000000021
:1011800083120A0883120A0800F002F800F05CF8E3
:101190000AA090E8000C82448344AAF10107DA45D2
:1011A00001D100F051F8AFF2090EBAE80F0013F0C8
:1011B000010F18BFFB1A43F001031847B08A000063
:1011C000D08A00000A444FF0000C10F8013B13F0E5
:1011D000070408BF10F8014B1D1108BF10F8015B90
:1011E000641E05D010F8016B641E01F8016BF9D183
:1011F00013F0080F1EBF10F8014BAD1C0C1B09D1DA
:101200006D1E58BF01F801CBFAD505E014F8016B4B
:1012100001F8016B6D1EF9D59142D6D370470000DD
:101220000023002400250026103A28BF78C1FBD8EF
:10123000520728BF30C148BF0B6070471FB508F088
:10124000BFFB1FBD10B510BD00F020F91146FFF720
:10125000F5FF06F079F900F03EF903B4FFF7F2FF6D
:1012600003BC00F045F900000948804709480047E1
:10127000FEE7FEE7FEE7FEE7FEE7FEE7FEE7FEE746
:10128000FEE7FEE704480549054A064B70470000A3
:10129000BD670A0889110A08180D002018130020DC
:1012A000180F0020180F002053EA020C00F069808C
:1012B0002DE9F04B4FF00006002B1FBFB3FA83F56A
:1012C00003FA05F424FA05F65E4012BF1643B2FA9B
:1012D00082F502FA05F4C5F120051EBF22FA05FCCD
:1012E00044EA0C04203556EA044C4FEA144418BF73
:1012F000641C4FF000084FF00009904271EB030CA2
:1013000039D3002919BFB1FA81F701FA07F6B0FA0B
:1013100080F700FA07F6C7F120071EBF20FA07FC86
:1013200046EA0C062037B6FBF4FCA7EB0507103F96
:1013300007F01F0BCBF120062CFA06F60CFA0BFB7C
:1013400044BFB3460026202FA4BF5E464FF0000BDB
:101350005BEA060C08BF4FF0010B19EB0B0948EBD9
:101360000608ABFB027C06FB02CC0BFB03CCC01BCC
:1013700071EB0C01C1E70B46024641464846BDE809
:10138000F08B13B5084318BF4FF0FF300146AFF3A1
:101390000080BDE81C407047032A40F2308010F006
:1013A000030C00F0158011F8013BBCF1020F624400
:1013B00098BF11F801CB00F8013B38BF11F8013B91
:1013C000A2F1040298BF00F801CB38BF00F8013B3E
:1013D00011F0030300F02580083AC0F0088051F8AE
:1013E000043B083A51F804CBA0E80810F5E7121DB9
:1013F0005CBF51F8043B40F8043BAFF30080D207D8
:1014000024BF11F8013B11F801CB48BF11F8012BA3
:1014100024BF00F8013B00F801CB48BF00F8012BC6
:10142000704710B5203AC0F00B80B1E81850A0E822
:101430001850B1E81850A0E81850203ABFF4F5AFA2
:101440005FEA027C24BFB1E81850A0E8185044BFFE
:1014500018C918C0BDE810405FEA827C24BF51F86B
:10146000043B40F8043B08BF7047D20728BF31F85F
:10147000023B48BF11F8012B28BF20F8023B48BFB0
:1014800000F8012B7047704770477047754600F0B1
:101490002BF8AE4605006946534620F00700854606
:1014A00018B020B5FFF7EEFEBDE820404FF0000673
:1014B0004FF000074FF000084FF0000BAC46ACE8CF
:1014C000C009ACE8C009ACE8C009ACE8C00921F02B
:1014D00007018D46704710B50446AFF300802046E3
:1014E000BDE81040FFF7B9BE004870471003002068
:1014F00001491820ABBEFEE726000200704700003D
:10150000B0B540F27034C2F2000420684CF6CD450C
:101510000130CCF6CC4500FB05F1B1F1333F206042
:1015200008D840F62C40C2F200004FF47A6104F073
:1015300061F9206800FB05F101F13331B1F1333F6E
:1015400008D240F62C40C2F200004FF47A6104F059
:10155000CDFA2068684300F1993046F266614FEA9F
:10156000F000C0F26661884212D840F62C40C2F208
:1015700000004FF4FA7104F0F9FA40F6E040C2F2CC
:101580000000017940F25440C2F2000001F000FA7C
:1015900040F62C40C2F2000044F6206104F048F905
:1015A00040F27440C2F200000078012818BFB0BDBC
:1015B00040F60D50C2F20000007801280BD140F631
:1015C0002C4040F61841C2F20000C2F20001BDE812
:1015D000B04001F089BAB0BD062807D840F6704186
:1015E000C2F2000131F8100080B2704709280BD018
:1015F000082810D0072811BF002042F23C00C4F296
:101600000100006880B2704742F23C00C4F2010061
:10161000806880B2704742F23C00C4F2010040682A
:1016200080B2704742F20000C4F20100016821F06C
:1016300004010160FFF764BF2DE9F04387B040F279
:1016400000070320C2F200070390386802AC0025AF
:1016500002264FF00108214604950596CDF8088032
:1016600002F03AFB78684FF010092146CDF8089057
:1016700002F032FBB8682146CDF8088002F02CFB5E
:10168000F8682146029602F027FB0421386902918E
:10169000214602F021FB082178690291214602F0DF
:1016A0001BFBB8692146CDF8089002F015FBF869DC
:1016B0002146029602F010FB2021386A0291214651
:1016C00002F00AFB786A2146CDF8088002F004FB9C
:1016D00043F630000195C4F20200416942F234043D
:1016E00041F4807141614169C4F2010401F48071E7
:1016F0000191019949F24921C0F2241144F8281CB2
:1017000001F1006144F8241C0295016846F210467C
:1017100041F4800101600168C4F2020601F4800115
:101720000291029954F82C1C002221F0010144F886
:101730002C1C4FF4C07144F8301C40F20031C6F646
:10174000100144F82C1C0521C4F8D0124FF4C0013C
:1017500044F8205C44F8081C44F8045C25602168C7
:101760002160216841F080012160216841F420510D
:101770002160216841F4B0212160216841F44001D9
:101780002160216841F0D051216054F8041C41F0DF
:101790000E0144F8041C43F62051C0F2240161609C
:1017A0000295016841F4800101600068052100F4A0
:1017B00080000290029842F61050C0F2010035609D
:1017C000306040F67040C2F20000F06004F1180092
:1017D000B060072070603820756102F0D1FB3820BE
:1017E00002F0BEFB3068012140F0010030601220A1
:1017F000002202F0C5FB122002F0B2FB54F82C0CC0
:1018000040F0010044F82C0C07B0BDE8F083000064
:1018100010B5016848F20004B1F5004FCFF6FE7430
:1018200020DD0B46B1F5C03FA8BF4FF4C033A1EB9C
:10183000030C4FF6FF730CEB030E4FEA1E4C6323B1
:1018400004F50042BCF1630F38BF4FEA1E4303FBAF
:1018500002110122A1F5803152FA83F30160632B5A
:1018600003D910BD0023632BFBD804F580329142CD
:10187000A8BF10BDA142C8BF0C46621A4FF6FF7444
:101880002244C3F16303B3EB124F88BF130C01EB87
:10189000034101F58031016010BD000010B5016801
:1018A0000024B1F1011FCFF6FF741EDB0B46B1F52A
:1018B000003FA8BF4FF40033A1EB030C4FF6FF73BA
:1018C0000CEB030E4FEA1E4C6323BCF1630F38BFD1
:1018D0004FEA1E4303FB04110122A1F5803152FAA5
:1018E00083F30160632B03D910BD0023632BFBD866
:1018F000B1F1FF3FC8BF10BDA142C8BF0C46621A7C
:101900004FF6FF742244C3F16303B3EB124F88BF59
:10191000130C01EB034101F58031016010BD0000A3
:1019200000680968431A084448BF5B42B3F5004F9A
:10193000C8BFA0F5803040101060704704F018FE5A
:10194000EFF3108072B605F0D3FD0000FEE7000053
:1019500080B540F28430C2F2000001F0D7FEBDE84D
:10196000804000F029BA0000B0B546F20045C4F24C
:101970000005A86900F00700072818BFB0BD40F2B5
:10198000A010C2F200000078400621D540F698422F
:10199000C2F20002107840F0400340F68840C2F2E4
:1019A0000000B0F8011040F6F840C2F20000C9068D
:1019B0000168137040F284025CBF01310160C2F221
:1019C00000025278D20603D5062924BF0021016007
:1019D00040F28434C2F200042046012101F0E4FC0C
:1019E0002046022101F0E0FC2046042101F0DCFC4D
:1019F000286840F400402860286820F00300286030
:101A0000B0BD000080B540F6184CC2F2000C40F2A8
:101A1000305040F62C4E9CF80130C2F20000C2F269
:101A2000000E40F238524088DEF81C10C2F200026C
:101A3000032B13805080918004D1BEF8403023B135
:101A40000A2307E09CF8023004E09CF80230002BE7
:101A500018BF0123D38040F6884240F69843C2F273
:101A60000002C2F2000312681B6840F20850C2F282
:101A70000000C0E9002340F2E040C2F20000018013
:101A8000DEE9032141801109BEF838208180C2803F
:101A900080BD000080B540F28031C2F200010868CC
:101AA00049F69A12013008604CF6CD41CCF6CC4193
:101AB00041434FEA7101C1F69912914240F2D4516B
:101AC000C2F200011FD348F21F52C5F2EB12A0FB75
:101AD00002235A0964235A43D243104408283BD8AE
:101AE000DFE800F0053A563A623A6E3A7A0040F280
:101AF0000852C2F200024FF4A2600823D2E9002E7D
:101B000008604B6073E040F6F24040F2385EC2F28B
:101B10000000C2F2000E0388BEF8022040F6F04C2E
:101B20009342C2F2000C03D1BCF8003023B909E0A3
:101B30000A23ACF8003002800120AEF80600581EDF
:101B4000ACF800004FF4A0604FF0080CDEE9002E66
:101B50000860C1F804C04AE040F68640C2F20000C6
:101B60000288022A4CD1002240F2A053028040F2A7
:101B700001500822C2F20003C1E900021A68D3F83A
:101B800004E040F25853C2F20003C3E9002E2EE0F5
:101B900040F26052C2F2000240F211500823D2E932
:101BA000002E08604B6022E040F2E042C2F20002E8
:101BB00040F212500823D2E9002E08604B6016E074
:101BC00040F2E842C2F2000240F213500823D2E988
:101BD000002E08604B600AE040F2F042C2F20002C0
:101BE000D2E9002E40F21450082308604B6041F8FF
:101BF000082F0822C1F804E0BDE8804000F0A2B937
:101C000040F67E40C2F200000288022A13D1002270
:101C1000028040F202500822C1E9000240F2F8427C
:101C2000C2F20002D2E9002E40F20053C2F20003D9
:101C3000C3E9002EDBE740F68240C2F200000288D2
:101C4000022A0DD10022028008224A6040F2285266
:101C5000C2F2000240F20350D2E9002E0860C6E74B
:101C600040F68040C2F200000288012A13D100220F
:101C7000028040F204500822C1E9000240F21052F2
:101C8000C2F20002D2E9002E40F21853C2F2000361
:101C9000C3E9002EABE740F68440C2F200000288A0
:101CA000012A18BF80BD40F24052C2F200021388E0
:101CB000092B9CBF0A2313800023038040F20550A8
:101CC0000823C1E90003D2E9002E40F24853C2F2D2
:101CD0000003C3E9002E8AE780B58AB0014640F2CE
:101CE000843046F20042C2F20000C4F2000240F228
:101CF000280C02604FF08072C2F2000C8261BCF8C6
:101D0000002000238A428383836011D0BCF8142012
:101D10008A4201D101230BE0BCF828208A4201D17C
:101D2000022305E0BCF83C2004238A4208BF0323B9
:101D300003EB83010CEB810101F1040C9CE80C1016
:101D4000098AC0E90323C0F814C0416001F000FE15
:101D500000284FF0010001D00AB080BD0021CDE97C
:101D60000610CDE90011CDE90211CDE9041108906A
:101D70000E20099040F28430C2F20000694601F062
:101D8000A1FB10B102200AB080BD40F28430C2F243
:101D9000000001F0ABFE10B103200AB080BD40F29C
:101DA0008430C2F20000022101F026FB002818BF97
:101DB000012080000AB080BDB0B540F26855C2F283
:101DC000000505F10804204600F094F8A0F5A07184
:101DD0000822052928606A6011D8DFE801F0032B8A
:101DE0003C4D5E78EFF3108072B66A6840F2305076
:101DF000C2F200002146FFF714FB62B6B0BD5028C6
:101E000040F07780EFF3108072B66A6840F2783560
:101E1000C2F2000528462146FFF703FB62B6288878
:101E2000012818BFB0BD40F6B840C2F20000022140
:101E30000170B0BDEFF3108072B66A6840F2505086
:101E4000C2F200002146FFF7ECFA40F68640C2F2EB
:101E5000000062B638E0EFF3108072B66A6840F2B4
:101E6000F840C2F200002146FFF7DBFA40F67E4060
:101E700062B6C2F2000027E0EFF3108072B66A6823
:101E800040F22050C2F200002146FFF7CAFA40F6A5
:101E9000824062B6C2F2000016E0EFF3108072B624
:101EA0006A6840F21050C2F200002146FFF7B9FA0A
:101EB00040F20030C2F200004FF4FA7162B60180C5
:101EC00040F68040C2F2000001210180B0BDEFF376
:101ED000108072B66A6840F24050C2F2000021469B
:101EE000FFF79FFA40F68440C2F20000012162B67B
:101EF0000180B0BDB0B588B0054640F28430C2F272
:101F000000000021002401F04FFBC0B140F28430FA
:101F1000C2F2000001AA00212B46002401F054FB6C
:101F200068B90598082803D1039818B1002406E081
:101F3000002404E0049800280CBF019C00242046E3
:101F400008B0B0BD10B588B0CDE901000020CDE9E2
:101F5000030040F2C0500C460121C2F2000007917C
:101F6000016805920131016040F28430C2F2000044
:101F700001F0B8FB00286ED140F28430C2F20000BC
:101F800001F0B0FB002866D140F28430C2F20000BC
:101F900001F0A8FB00285ED140F28430C2F20000BC
:101FA00001F0A0FB002856D140F28430C2F20000BC
:101FB00001F098FB00284ED140F28430C2F20000BC
:101FC00001F090FB002846D140F28430C2F20000BC
:101FD00001F088FB00283ED140F28430C2F20000BC
:101FE00001F080FBB8BB40F28430C2F2000001F087
:101FF00079FB80BB40F28430C2F2000001F072FB3A
:1020000048BB40F28430C2F2000001F06BFB10BB11
:1020100040F28430C2F2000001F064FBD8B940F213
:102020008430C2F2000001F05DFBA0B940F28430C0
:10203000C2F2000001F056FB68B940F28430C2F2EF
:10204000000001F04FFB30B940F28430C2F20000D2
:1020500001F048FBE8B140F2C850C2F2000001684C
:1020600007AB0131016040F28430C2F2000001A9E7
:10207000224601F0D5F908B1012407E040F2C4502E
:10208000C2F200000168002401310160204608B05E
:1020900010BD40F28430C2F200000121012401F0A1
:1020A00083F9F3E740F20860C2F20000006870476D
:1020B0002DE9F04F87B04FF0000843F6300ACDF815
:1020C0000480C4F2020ADAF81010814641F40021BB
:1020D000CAF81010DAF8101040F6000501F40020DC
:1020E00001900198022401274FF48060C4F2020598
:1020F00001AE0294CDE9037401904FF0080B28461D
:102100003146CDF814B001F0E7FD4FF40060CDE9A1
:1021100002470190284631460494CDF814B001F0EE
:10212000DBFD042005F58065CDE9027701902846A6
:102130003146049401F0D0FD28460421002201F02C
:10214000A5FE44F60C45C4F2000540F29C10C5F80B
:102150000080C2F2000000684FF6FF718008B0FBFB
:10216000F9F0002280B245F8040C28688843286002
:10217000686847F66F7188436860A86840F6FF7129
:102180008843A8602868002140F05C002860A868A7
:1021900040F0C000A860286840F400502860342057
:1021A00001F0EEFE342001F0DBFECDF81880DAF805
:1021B000000046F2400440F40010CAF80000DAF8CB
:1021C000000040F2044600F4001006900698CDF896
:1021D0001880DAF80000C4F2020440F40010CAF8D3
:1021E0000000DAF80000C0F6010600F400100690C6
:1021F000069840F61200C2F20000C4F80080266083
:10220000E060083DFF20A560606080270D20002170
:102210000022676101F0B4FE0D2001F0A1FE2068EC
:10222000002140F00100206006F15000C4F8308029
:10223000206340F61830C2F20000E0630F20002255
:10224000A563C4F83480676401F09AFE0F2001F0A2
:1022500087FE07B0BDE8F08FB0B590B040F25040B7
:10226000C2F2000001880131018001F0010001305B
:102270008DF800000320CDF8010001208DF8050045
:102280006846062102F07AFC40F69D44C2F2000442
:102290002178ADF8060061BB40F6004046F27005BB
:1022A000C4F2020004210122C4F2020501F0EEFD95
:1022B000DDE9000140F61832C2F20002C2E9000175
:1022C000286820F0010028602868C0071FBF286820
:1022D0005FEAC07028685FEAC07002D02868C00753
:1022E000F2D108206860286840F0010028600120D1
:1022F000207040F2C010C2F2000001884900018045
:1023000010B0B0BD10B5D0E9001204460069891ABA
:10231000E16105F0CFFBA268D4E9093108449A4293
:1023200020620ED00028024648BF424200290B46D8
:1023300048BF4B429A4204DB08464FF6705105F005
:10234000B9FBE169E2682062A0620144104605F031
:10235000B1FB61696062884204DCA1698842B8BF50
:1023600008460146A16010BD70B540F2A415C2F246
:102370000005296804460846802101F079FD0138EE
:10238000B0FA80F168684E09402101F071FD013812
:10239000B0FA80F04109A86846EA4106202101F020
:1023A00067FD0138B0FA80F04109E86846EA810625
:1023B0004FF4004101F05CFD0138B0FA80F04109B2
:1023C000286946EAC106082101F052FD0138B0FA39
:1023D00080F04109686946EA0115402101F048FD95
:1023E0000138B0FA80F0400945EA40110020218010
:1023F00070BD000046F24000C4F2020050F8381CE4
:10240000002241F47C1140F8381C40F69441C2F29D
:1024100000010A60016821F001010160FF214160B3
:10242000016841F0010101607047000046F20C00B4
:10243000C4F20200016841F03F01016070470000F2
:1024400046F28800C4F2020050F87C1C002241F4DD
:102450007C6140F87C1C40F68C41C2F200010A709D
:1024600040F69041C2F200010A60016821F00101CA
:102470000160FF214160016841F001010160704786
:1024800046F20C00C4F20200016841F47C110160C4
:102490007047000046F20840C4F20200016841F0B3
:1024A0003F0101607047000046F28840C4F202001C
:1024B00050F87C1C41F47C6140F87C1C016821F0E0
:1024C00001010160FF214160016841F001010160EB
:1024D0007047000046F20C40C4F20200016841F06F
:1024E0007C6101607047000080B540F2BC12C2F20E
:1024F000000252F8211002460846802101F0C6FC75
:10250000002080BD2DE9F041C6B048F20008C0F6B9
:10251000000800F0FDF940F28C06C2F2000641F21C
:10252000C25742F6AC254FF4C0104FF4A0128323DB
:10253000C1F23337C0F6B83540F22C1406F1380C2E
:102540000021C8F200048CE88F00C6E9137540F63C
:10255000FF7040F24012322344F6206706F1580C17
:1025600074654FF00111C0F20802C0F21E03C4F6F8
:1025700020678CE88F004FF48040A6F86C00B8F814
:10258000000043F233318842ADF8060021D140F219
:102590008C04C2F20004002021464FF4887200F03F
:1025A0000DF900283ED1B4F80E5120464FF4877142
:1025B00002F0E4FA854235D12088012806D16088EE
:1025C000B0F5887F02D1A08819282DD003F080FFB4
:1025D0002AE040F28C01C2F2000102A84FF4887296
:1025E000FEF71FFFBDF80800012818D1BDF80A004A
:1025F000B0F5887F13D1BDF80C0019280FD102ADBA
:1026000028464FF4877102F0B9FAADF816010020A0
:1026100029464FF4887200F025F9002845D003F0D0
:1026200069FF01E003F066FF44F24620C0F20F00AC
:10263000F06002A8FFF798FEBDF8080000F007045C
:102640000120FEF7C9FF642100EB400261439200C4
:1026500001EB1231B1F5327F28BF4FF43271F180B6
:102660000021C0F6040109684EF2D722C0F6367286
:10267000914228BF114631610021C0F60A01096864
:10268000914228BF1146716143F6FC71C0F600010A
:102690000968ADF80800914238BF0A46B26101F0FE
:1026A00009FCB06046B0BDE8F08143F23330ADF8CC
:1026B00006000DF106014046012200F0BFFD88B181
:1026C00003270DF1060500BF404629460122013FC0
:1026D00000F0B4FD390618BF0028F5D110B103F0A1
:1026E00009FFA1E7EFF3108072B604F017FF0000B6
:1026F000704700002DE9F04F85B040F2A415C2F2FA
:10270000000528686C464FF000094FF001080227C9
:102710004FF0800A2146CDF80490CDF80880039749
:10272000CDF800A001F0D8FA68684026214600964E
:1027300001F0D2FAA8684FF0200B2146CDF800B086
:1027400001F0CAFA4FF40041E8680091214601F017
:10275000C3FA082128690091214601F0BDFA686991
:102760002146009601F0B8FA28682146CDE9019784
:102770000397CDF800A001F0AFFA686821460096F3
:1027800001F0AAFAA8682146CDF800B001F0A4FA39
:1027900040F2BC15C2F2000528682146CDE9018946
:1027A0000397CDF800A001F097FA28688021002255
:1027B00001F06CFB05B0BDE8F08F00002DE9F0479B
:1027C00004460020B0EBD42F4FF0FF0A45D1174646
:1027D000B2F5006F41D840F20048C4F202088946C1
:1027E000404610210022002501F050FB38196040BE
:1027F0000F2803D8204649463A4626E004F00F0049
:10280000C0F1100620464946324601F09BFEBF1B30
:102810008246B8B23444B5EB101F4E4410D04FEA94
:1028200010190025A0B23146102201F08BFE0135AF
:10283000824628B2103410364845A7F11007F1DB64
:1028400017F00F0204D0A0B2314601F07BFE8246A1
:1028500040461021012201F019FB4FFA8AF0BDE831
:10286000F08700002DE9F04F81B0044617180020D2
:10287000B0EBD72F02D04FF0FF0B44E040F20048FE
:10288000C4F202081646894640461021002200255F
:1028900001F0FCFA87EA04000F2803D820464946D5
:1028A000324628E004F00F00C0F1100A20464946E5
:1028B000524601F0DDFFA6EB0A078346B8B2544446
:1028C000B5EB101F09EB0A0610D04FEA10190025CE
:1028D000A0B23146102201F0CBFF0135834628B269
:1028E000103410364845A7F11007F1DB17F00F023E
:1028F00004D0A0B2314601F0BBFF83464046102110
:10290000012201F0C3FA4FFA8BF001B0BDE8F08F5D
:102910002DE9F04385B040F200444FF40070C4F25A
:1029200002046D464FF01108002602270090204651
:102930002946CDF804800296039701F0CDF9204690
:102940004FF4007101224FF0010901F09FFA4FF49A
:102950008070CDE90186009020462946039701F05A
:10296000BBF920464FF48071012201F08FFA10204C
:10297000CDE90189009020462946039701F0ACF982
:1029800020461021012201F081FA05B0BDE8F08354
:1029900010B5044671B16088A08000F0FDFC40F6DF
:1029A000E041C2F200010A686080012A06D10020DD
:1029B000086008E000F0F0FC608010BDA188A2680B
:1029C000081A02FA80F040F28C01A060C2F2000105
:1029D000098C4843C11700EB114040F62C4100140C
:1029E000C2F20001E060C86110BD00002DE9F041B5
:1029F00040F6C048044643F60C46C2F200080020E8
:102A0000C4F20206C8F81C0001F04EFA3168C9038E
:102A100045D43068C0071CBF01203060306810F01A
:102A2000F20F43D03068C00607D5D8F81C0040F03C
:102A30001000C8F81C00102030603068800607D5F0
:102A4000D8F81C0040F00800C8F81C0020203060B6
:102A50003068400607D5D8F81C0040F00400C8F8DC
:102A60001C00402030603068000607D5D8F81C00F4
:102A700040F00200C8F81C008020306030688007F9
:102A80005CBF0120BDE8F081D8F81C0040F02000B8
:102A9000C8F81C00022030600120BDE8F081054626
:102AA000671C07D0BCB90320BDE8F0810020BDE859
:102AB000F08100BF3068C003ABD567B93068C00390
:102AC000A7D547B93068C003A3D527B93068C0037C
:102AD0009FD5002FEED001F0E7F9401BA042E9D9C5
:102AE0000320BDE8F08100002DE9F04F81B08B4656
:102AF000897840F2182805460129C2F2000840F002
:102B0000BC80A88F002800F0B880032004F04AF9A8
:102B100028684FF40041404204F0CCFF40F2AC364C
:102B2000C2F200063168074608464FF4004104F03F
:102B3000C1FF69683844306048424FF4004104F0F6
:102B4000B9FF7168074608464FF4004104F0B2FF30
:102B5000316838447060F16001EB400049F2CD31DA
:102B600004F0A8FF40F28C09C2F200093061A869A4
:102B7000B9F82810B9F82A20401A110404F09AFF75
:102B800040F2C044C2F20004274647F8080F384616
:102B9000FEF784FED6E9030120603868616004F026
:102BA0008FFF39686061084604F0F4FE0146206832
:102BB000A16104F07FFF626861690746104604F076
:102BC00079FFC2196068A169E26004F073FF2268AE
:102BD00061690746104604F06DFF40F26841C2F299
:102BE00000010A88381A2061501C82B20A2A088023
:102BF000C0F06B819BF8010040F6E04A00220028FB
:102C0000C2F2000A0A8065D0DAF8041003286ED1F7
:102C100000296CD040F26420C2F20000806940F2CA
:102C2000B026B9F85410DBF80C20C010C2F2000630
:102C3000306002FB01F048F21F51C5F2EB1150FB6E
:102C400001F0411101EBD070642104F0E3FE40F685
:102C50002C42C2F20002D2684142B2F5C03F70611C
:102C6000B16171DD40F27430C2F2000001880A09DE
:102C70007C2A00F2AC80481C67E040F26420C2F27B
:102C80000000002101628162816040F68840C2F24A
:102C90000000007840F2B02240F2CC13C2F20002F1
:102CA000C2F2000340061162916219629962C8F88B
:102CB0002010C8F828109960C2E900119160C8F886
:102CC0000410C8F80810E96054BF0120002004F087
:102CD00069F842E1DAF8040000284DD040F2B02053
:102CE000C2F20000002101608BF80210E5E001282B
:102CF00036D1A9B3DBF8040040F26427E969C2F2D7
:102D00000007C7E90001384603F0EAF8B9F85400B3
:102D1000642104F07FFEDAF8082040F2B021C2F20C
:102D200000014342012A48618B615DD0002A76D1BF
:102D3000B9F85E307869FA695B4280109A4208609F
:102D40005ADD00200860B6E00020E969B9F860208B
:102D500040F27433C2F200039142188039DAACE0D9
:102D6000062839D100295ED0DBF8080040F2B021F6
:102D7000C2F2000108606DE040F26420C2F200007F
:102D8000406940F2B026C110C2F20006B9F8540002
:102D90003160642104F03EFE40F62C42C2F2000293
:102DA000D2684142B2F5C03F7061B16173DD40F25B
:102DB0007430C2F2000001880A097C2A68D9002117
:102DC00001800120CAE900008BF8021075E00021A3
:102DD0000180002030606EE040F2B020C2F20000BE
:102DE000002101600C2066E0D7E90602B9F85E30E8
:102DF00080109A420860A4DB40F62C40C2F200002A
:102E0000C068B0F5C03F46DD40F27430C2F2000049
:102E1000028813097C2B4AD8511C01804DE0002008
:102E20000860042047E040F26420C2F200004069DC
:102E300040F2B026C110C2F20006B9F85400CBF837
:102E400008103160642104F0E5FD41427061DBF857
:102E50000800B16101280BDB40F62C40DAF80410C1
:102E6000C2F20000C06841B9B0F5C03F9FDC12E07B
:102E700040F62C40C2F20000C068B0F5C03F0ADD49
:102E800040F27430C2F2000001880A097C2A09D895
:102E90000131018011E040F27430C2F200000021E3
:102EA00001800AE0002101808BF8021005E0002279
:102EB00002800A6008208BF80200296940F2B020E5
:102EC000C2F20000416003F0C5FB40F2CC16E1689D
:102ED000C2F200060020C6E9000140F2B020C2F2B2
:102EE0000000B9F82A108068090404F0E3FD2169A4
:102EF000C8E900013046FFF705FA4046FFF702FA3D
:102F000040F27847B068C2F20007D4E9053107F112
:102F10000C0CD8F808208CE80D00B96104F0CAFD4B
:102F2000D7E904210646104604F0C4FD321AF868B9
:102F300079693A6004F0BEFD3A69B96906461046FF
:102F400004F0B8FD396840F278523044C2F2000211
:102F50007860C2E9011003F093F9D5E90012A8687E
:102F6000002948BF4942002A48BF52420028114464
:102F700048BF404208444BF66431C0F2010104F0FE
:102F800049FD40F27041C2F200010A684CF6CD439F
:102F9000CCF6CC4353434CF6CC474FEAB303C0F6D0
:102FA000CC47BB4202F10102E8600A6084BF01B075
:102FB000BDE8F08F296840F2B852090BC2F2000256
:102FC0001170296809095170010B00099170D070C6
:102FD000D8E90001030B000913715071080B0B09AC
:102FE000907110460821D37101B0BDE8F04F04F094
:102FF0004BBA00002DE9F04140F28C04C2F200040B
:1030000004F1380340F264270FCBC2F20007C7E98E
:103010000301B4F8480040F2CC18B4F84A10C2F2E8
:10302000000840F2B026C8E90301B4F84C0040F2B1
:103030001825C2F20006C2F20005C6E90323B4F85F
:103040004E20E860B4F85200A18C2A6104F0E2FC42
:1030500041427861B4F85400B961642104F0DAFCAB
:1030600041427061B4F8560040F28F22B161A0F283
:103070008F21101AC5E90510C8E90510BDE8F081D7
:1030800040F2F84140F26A42C2F20001C2F200028C
:1030900048881388984208BF70470988108061B338
:1030A00040F68840C2F200000021016040F69840DE
:1030B000C2F20000016040F20230C2F2000064215E
:1030C000018040F2FC20C2F200004FF4FA6101805E
:1030D00040F2FE20C2F20000018040F67E40C2F2C3
:1030E0000000018840F20032C2F2000201294FF4D0
:1030F000FA71118004BF022101807047E8B140F2EB
:103100006C4CC2F2000C9CF800101F2918D820FA51
:1031100001F3DA0740F08B801F2913D09A0700F1E2
:1031200081801E290ED05A077ED41D290AD01A0785
:103130007CD404312029EAD104E0002108467047FC
:1031400020296CD10F23A3F10F0120FA01F2D2073D
:1031500001BFA3F10E0120FA01F25FEAC272A3F1EE
:103160000D0104BF20FA01F25FEAC27250D1A3F14F
:103170000C0120FA01F2D20702BFA3F10B0120FAE1
:1031800001F25FEAC27243D1A3F10A0120FA01F20F
:10319000D20702BFA3F1090120FA01F25FEAC2726D
:1031A00036D1A3F1080120FA01F2D20702BFD91FDC
:1031B00020FA01F25FEAC2722AD1991F20FA01F2C5
:1031C000D20702BF591F20FA01F25FEAC2721FD173
:1031D000191F20FA01F2D20702BFD91E20FA01F20C
:1031E0005FEAC27214D1991E20FA01F2D20702BF1F
:1031F000591E20FA01F25FEAC27209D120FA03F1E6
:10320000C90706D110332F2B4FF000019BD107E0E7
:103210000B46581CC1B28CF80000084670470021CC
:1032200008467047013102E0023100E0033101201D
:1032300050FA81F108468CF80010704770B50546C9
:10324000B0F1006F4FF0010038BF70BD0C4615F0B3
:1032500001011AD105EB4206B6F1016F84BF0120CE
:1032600070BD00F021FDAE420CD900BF22880120C4
:103270002946002300F094FC40B90235B54204F120
:103280000204F3D300F082FC002070BD032070BD67
:1032900070B50546B0F1006F4FF0010038BF70BD4A
:1032A0000C4615F003011AD105EB8206B6F1016F49
:1032B00084BF012070BD00F0F7FCAE420CD900BF06
:1032C000226802202946002300F06AFC40B9043538
:1032D000B54204F10404F3D300F058FC002070BDA3
:1032E000032070BD2DE9F0410C46804600200021EE
:1032F000002203F071FC322000F034FC40F62C4533
:103300004FF48036C2F200054120314604F0D2FB72
:10331000414603F001F9052000F024FC286800284C
:1033200048BF4042A04213DC6868002848BF4042C2
:10333000A0420DDCA868002848BF4042A04207DC3C
:1033400006F58036B6F1167FDED13846BDE8F0814D
:10335000AF694FF4FA7000F005FC012604E000BFED
:10336000632E06F10106F0D2012000F0FBFBA869F4
:10337000C01B48BF4042B0F5004FF1DA38464FF26B
:10338000333104F097FBA9690446084640F6CC4166
:1033900004F090FB0719E3E740F2DC40C2F20000C2
:1033A000006840107047000090F82020013A012A80
:1033B00018D8CA0704D00268936843F0800393606A
:1033C0008A0704D50268936843F400439360490771
:1033D0005CBF0020704700684FF4000200F1080154
:1033E000002004E000F1240101204FF480220B684A
:1033F0001A430A607047000090F82020013A012A21
:1034000004D8006800F11402002004E000F1240256
:1034100001204FF4802113681943116070470000A8
:1034200010B590F820E0D0F800C0AEF1010EBEF16A
:10343000010FDCF808E00DD81EF0E05F10D0CEF3ED
:10344000016EBEF1030F11D100F1240101204FF4F0
:10345000000233E000F1240101204FF480222DE02E
:1034600000F1240101204FF4001227E0012000FAAE
:103470000EF01860886818B14B6840EAC30001E09C
:1034800008684005D1E9033403430CEB0E10C0F883
:103490008031C0F88441097D012905D100F5C27150
:1034A0000B6843F480730B605168C0F88C1112688C
:1034B00000F5C071C0F88821002001220B681A4372
:1034C0000A6010BDB0B590F82020013A012A2FD82B
:1034D00046F20060C4F20000026842F0010202609D
:1034E000026822F47C520260D1F814E0CC694A6A86
:1034F0000368012C43EA022202600EF01F024FF023
:10350000010303FA02F2C3696FEA020C23EA020321
:10351000C36113D02CBBC36803EA0C03C360CB6840
:103520008C8844EA034300EBCE0423640B4611E08D
:10353000416A41F4802141620120B0BDC368134358
:10354000C3600B688C8844EA034300EBCE04236419
:1035500001F10C038C681B8843EA044300EBCE04A2
:10356000636443688D6943EA0204D1F810E0096A94
:10357000002D08BF03EA0C0444604369BEF1000F4C
:1035800043EA020408BF03EA0C040129446102D1A2
:10359000C1691143C161016821F00101016000208E
:1035A000B0BD00007047000090F82020013A012AC9
:1035B00084BF0020704700681022002908BF0C2239
:1035C000805800F00300704710B590F82040013C8F
:1035D000012C0CD8D0F800C079B1DCF81040A40759
:1035E0000FD100F1240101204FF400126FE000F12F
:1035F000240101204FF4802269E0DCF80C40A4078C
:1036000069D00CEB011CDCF8B0410CF5D87E14F04D
:1036100004049460DCF8B04119BFE4085460640D00
:103620001460DEF800400029C4F34004D460DCF8E4
:10363000B44104F00F041461DCF8B441C4F307246E
:103640009461DCF8B4414FEA14445461DCF8B821C9
:103650001A70026802EB0112D2F8B8214FEA122266
:103660005A70026802EB0112D2F8B8214FEA1242F6
:103670009A70026802EB0112D2F8B8214FEA126286
:10368000DA70026802EB0112D2F8BC211A710268EA
:1036900002EB0112D2F8BC214FEA12225A710268E1
:1036A00002EB0112D2F8BC214FEA12429A71026871
:1036B00002EB0112D2F8BC214FEA1262DA71006803
:1036C00014BF00F1100100F10C01002020220B6852
:1036D0001A430A6010BD00F1240101204FF40012CA
:1036E000F5E7000090F820100139012984BF00207F
:1036F00070470068816882688068C1F38061C2F3A6
:10370000C0621144C0F30070084470472DE9F04FC7
:1037100081B0044600684669D0F804908768D0F804
:103720000CB0D0F810A0D0F81880F10703D1002514
:1037300030071CD423E0F90710D00121BA078160BB
:1037400009D4780700F1AA80380700F1B08020463C
:1037500000F0FAF902E0204600F0F8F90025F8053B
:1037600000F18480F80300F1AA80300707D51BF030
:10377000100004D0206845F400751021C160700766
:1037800008D51BF0080005D020680821C16020463C
:1037900000F0A2F9B00706D52068C068800702D003
:1037A000204600F09BF9700607D51AF0100004D0EF
:1037B000206845F4806510210161B00608D51AF033
:1037C000080005D0206808210161204600F088F932
:1037D000F00606D520680069800702D0204600F078
:1037E00081F9B00308D519F0100005D02068102128
:1037F0004160204600F078F9F00308D519F0080080
:1038000005D0206808214160204600F0A9F9300465
:1038100040F18F805FEA497040F1888006F4807043
:1038200008EA102028435FEA8871014648BF41F04A
:103830000201B20558BF01465FEA48700D4648BF15
:1038400045F00405700558BF0D4630056ED518F0DB
:1038500070006BD010380009052862D8DFE800F04E
:10386000035356595C5F45F008055AE020684FF451
:103870008071BA0581600AD4780512D4380519D44C
:10388000204600F065F9F8037FF56FAF17E020469A
:1038900000F060F9F8037FF568AF10E04FF40065C1
:1038A0005DE705F50055F8037FF55FAF07E04FF4DE
:1038B000805554E705F58045F8037FF556AF20683D
:1038C0004FF48031BA0381600AD478030FD43803EF
:1038D00013D4204600F040F930073FF548AF4EE7DB
:1038E000204600F03BF930073FF541AF47E705F5CB
:1038F000004530073FF53BAF41E705F58035300720
:103900003FF535AF3BE745F010050AE045F02005EF
:1039100007E045F0400504E045F0800501E045F48E
:1039200080752068816921F070018161206804211F
:1039300041604DB1606A40EA05012046616201B014
:10394000BDE8F04FFFF72EBE01B0BDE8F08F0000DC
:10395000B0B5C8B1044690F8200010B9204600F078
:1039600071F82068016821F00201016000F09CFA02
:10397000054600BF20684168890707D500F094FA22
:10398000401B0B28F6D312E00120B0BD016841F0C6
:103990000101016000F088FA054600BF2068416817
:1039A000C9070DD100F080FA401B0B28F6D3606ADE
:1039B000052140F400306062012084F82010B0BD81
:1039C000217E0268012922F0800208BF8032026055
:1039D000617E0268012922F0400208BF4032026085
:1039E000A17E0268012922F0200208BF2032026075
:1039F000E17E0268012922F0100218BF1032026035
:103A0000217F0268012922F0080208BF0832026003
:103A1000617F0268012922F0040208BF04320260BB
:103A2000D4E901C2D4E9033561691A432A43114339
:103A3000ACF101021143C16100200121606284F8F0
:103A40002010B0BD2DE9F04385B0002043F63001D1
:103A50000090C4F202010A69002442F000720A6177
:103A60000A69C4F2020402F000720092009A009007
:103A700008686D4640F00100086008684FF00208D1
:103A800000F00100009000984FF4805000904FF03B
:103A900003090126092720462946CDF80480CDF8E0
:103AA0000C900296049700F017F94FF40060CDE9EE
:103AB000000820462946CDE90269049700F00CF978
:103AC00014200121002200F05BFA142000F048FAD3
:103AD00005B0BDE8F08300007047000070470000AB
:103AE000704700007047000070470000B0B5044602
:103AF00090F8200001281DD1022084F820002068C1
:103B0000016821F00101016000F0CEF9054600BF17
:103B100020684068C00713D000F0C6F9401B0B288E
:103B2000F6D3606A40F400306062052084F820001B
:103B30000120B0BD606A40F4002060620120B0BD89
:103B400000206062B0BD00007047000070470000B8
:103B50007047000070470000704700007047000089
:103B600070470000B0B5044600F09EF9054640F2EB
:103B70000430C2F200000078611C18BF044400BF8A
:103B800000F092F9401BA042FAD3B0BD43F61041B9
:103B9000C4F20201086840F0004200200A60704749
:103BA0002DE9F04381B040F6C044C2F200049046D3
:103BB000227E012A03D1022001B0BDE8F08307462E
:103BC000012020764CF250301E460D46FEF70EFFC7
:103BD000002864D143F61049022FC4F2020915D01F
:103BE000012F28D0E7BBD9F8000020F44070C9F8B5
:103BF0000000D9F80000C9F80000D9F8000040F032
:103C00000100C9F8000085F800803EE0D9F8000006
:103C100020F44070C9F80000D9F8000040F40070AA
:103C2000C9F80000D9F8000040F00100C9F8000010
:103C3000C5F8008029E0D9F8000020F44070C9F8E8
:103C40000000D9F8000040F48070C9F80000D9F8ED
:103C5000000040F00100C9F80000A5F8008014E061
:103C6000D9F8000020F44070C9F80000D9F800002D
:103C700040F44070C9F80000D9F8000040F001009D
:103C8000C9F80000C5F800806E604CF25030FEF7B5
:103C9000ADFED9F8001021F00101C9F80010002193
:103CA000217601B0BDE8F08343F60440C4F202007F
:103CB000C168B1F1FF3FC4BF0020704740F223113B
:103CC000C4F26751016048F6AB11CCF6EF510160C8
:103CD000C068C00F704700002DE9F04F82B000F1BE
:103CE0003E4241F6004502F1FF77C4F2020543F679
:103CF000004B4FEAB7260822A842C4F2010B08BFC6
:103D00000722072E4FF0010E4FF000064FF000047F
:103D10004FF0000838BF4FEAB722009209E000BF19
:103D200008F101080434B8F1100F06F1020600F0A2
:103D30009C800F680EFA08F917EA090FF0D0D1F845
:103D400004C04CF01007122F13D16FF0030202EAE7
:103D50005807074404F01C050F22D7F820C002FAC8
:103D600005F30A692CEA0303AA401A433A62D1F820
:103D700004C002680323B3406FEA030A9A430CF0BD
:103D80000303B3401A43BCF1120F026014D80EFAB9
:103D90000CF212F0061F0FD08268CB6802EA0A020A
:103DA000B3401A43826042684FEA1C1322EA0902B8
:103DB00003FA08F31A434260C2688B6802EA0A02F7
:103DC000B3401A435FEACC03C260A9D5002243F690
:103DD00044030192C4F202031A684FF6084C42F4FD
:103DE00080421A601A68CFF6FF7C02F4804201928A
:103DF000019A28F003025A4452F80C3004F00C07E0
:103E00000F25BD40AB43009D05FA07F73B4342F841
:103E10000C30DBF800204B6842EA0907DD0358BF8D
:103E200022EA0907CBF80070DBF804209D0342EA80
:103E3000090758BF22EA0907CBF80470DBF808200D
:103E4000DD0242EA090743F60C4558BF22EA09079A
:103E5000CBF80870C4F201052A689B0242EA090700
:103E600058BF22EA09072F605AE702B0BDE8F08F79
:103E70000069084018BF01207047000042690A40ED
:103E80008A4208BF0904816170470000002A08BF08
:103E9000090481617047000042F20000CEF2040084
:103EA0000068000C7047000040F61050C2F200009D
:103EB0000068704747F61020C1F6FF700068704731
:103EC00040F2043040F61051C2F20000C2F200018C
:103ED00000780A68104408607047000080B543F617
:103EE0000040C4F20200016841F400710160016801
:103EF00041F480610160032000F06EF80F2000F0B3
:103F000005F800F02BF8002080BD0000B0B540F2AD
:103F10000432C2F2000240F29C111278C2F2000197
:103F20004FF47A730968B3FBF2F20446B1FBF2F185
:103F3000084600F0C7FA0F2C4FF001050CD858B90D
:103F40004FF0FF3021460022002500F019F840F222
:103F50000830C2F2000004602846B0BD704700007F
:103F6000002848BF704700F01F01012202FA01F14A
:103F70004EF200124009CEF2000242F820107047C3
:103F800010B54EF60C5CCEF2000CDCF80030C3F33A
:103F9000022E8EF00704042C28BF0424BEF1030374
:103FA0004FF0FF3E0EFA04F438BF0023A1439940BE
:103FB0000EFA03F39A4300F00F03043B11436344EA
:103FC00009010C3300F16042B0F1FF3FC8BF02F5B8
:103FD0006443197010BD00004EF60C51CEF2000182
:103FE0000A684FF6FF031A4060F30A2242F080602D
:103FF00040F0FD70086070472DE9F041002800F0A6
:10400000868043F60808C4F202080446D8F8F8038C
:104010000D4600F00F00884207D288F8F853D8F810
:10402000F80300F00F00A84271D12068810717D56E
:10403000410705D5D8F8001041F4E051C8F8001048
:10404000010705D5D8F8001041F46041C8F8001008
:10405000D8F80010A26821F0F0011143C8F8001050
:10406000C0073AD1D8F8F80300F00F00A84207D9EA
:1040700088F8F853D8F8F80300F00F00A84246D1AA
:104080002068410707D5D8F80010E26821F4E05114
:104090001143C8F80010000708D5D8F800002169BE
:1040A00020F4604040EAC100C8F8000000F04EF87B
:1040B000D8F8001049F6DA12C1F30311C0F60A026B
:1040C000515CC84040F29C11C2F2000108600F2010
:1040D000FFF71CFF0020BDE8F0816068811E022907
:1040E00007D258F8081C89015CBF0120BDE8F081A7
:1040F00010E0012807D158F8081C89035CBF012093
:10410000BDE8F08106E058F8081C890702D40120B8
:10411000BDE8F081D8F8001021F003010843C8F889
:104120000000FFF7C1FE064641F28837D8F80000CC
:10413000616800F00C00B0EB810F93D0FFF7B4FE84
:10414000801BB842F2D90320BDE8F08110B543F6D8
:104150000404C4F20204606800F00C0142F2004062
:104160000829C0F2F40007D0042918BF10BD41F29D
:104170000020C0F27A0010BD216801F03F022168E2
:1041800023684902C3F3881105D4A1FB0001002371
:10419000FDF78AF806E041F20020C0F27A004843B9
:1041A000B0FBF2F021680222C1F3014102EB4101B0
:1041B000B0FBF1F010BD00002DE9F04182B0E8B392
:1041C0000446007843F60006C007C4F2020609D090
:1041D000B06800F00C00042871D13068800301D56C
:1041E000606858B32078800718D5B06810F00C0FBD
:1041F00007D0B06800F00C0008287AD1706840023F
:1042000077D43068800702D5E068012816D130687D
:10421000216920F0F80040EAC100306020780007F2
:1042200010D42078400724D4A569002D00F01B810C
:10423000B06800F00C00082840F09080012002B027
:10424000BDE8F0816069002840F20000C4F2472018
:1042500074D00121C0F8801EFFF726FE054600BF7E
:10426000706F8007DDD4FFF71FFE401B0228F7D9CF
:10427000D5E0306C10F080580AD100200190306CED
:1042800040F080503064306C00F080500190019814
:1042900047F20007C4F200073868C00540D4386808
:1042A00040F480703860FFF7FFFD05463868C005B0
:1042B00036D4FFF7F9FD401B0228F7D9AFE0B0680C
:1042C00000F00C00082803D1706840023FF585AF6C
:1042D0006068B0F5803F07D0B0F5A02F40F089802E
:1042E000306840F480203060306840F480303060C6
:1042F00089E0E068002840F20000C4F247204ED078
:1043000001210160FFF7D0FD054600BF306880073E
:104310003FF57DAFFFF7C8FD401B0228F6D97EE0D0
:10432000A068012805D005284AD1306F40F004006C
:104330003067306F40F0010030674BE00021C0F87B
:10434000801EFFF7B1FD0546706F80077FF569AFEE
:10435000FFF7AAFD401B0228F6D960E00027C4F24F
:10436000472700203866FFF79FFD022D05460BD139
:104370003068800157D5FFF797FD401B02284FF0AA
:104380000300F5D99BE000BF306880016BD5FFF7D3
:104390008BFD401B03284FF00300F5D38FE0002175
:1043A0000160FFF781FD0546306880077FF536AF75
:1043B000FFF77AFD401B02284FF00300F4D97EE09E
:1043C000316F002821F001013167316F21F00401C4
:1043D00031674CD0FFF768FD054641F2883700BFD2
:1043E000306F800753D4FFF75FFD401BB842F7D909
:1043F00015E03168002821F480313160316821F402
:10440000802131604CD0FFF74FFD054630688003B6
:104410003FF5E8AEFFF748FD401B6428F6D90320BE
:1044200002B0BDE8F08104F11C052FCD084340EA3D
:104430008210D9034FF6FF729143A1F5803140EA13
:1044400005600843706001203866FFF72DFD0446C3
:104450003068800107D4FFF727FD001B02284FF0CA
:104460000300F5D92BE0002002B0BDE8F081FFF792
:104470001BFD054641F28837306F800707D5FFF7EF
:1044800013FD401BB8424FF00300F5D917E0B8F117
:10449000000F7FF4C9AE306C20F080503064C3E66A
:1044A000FFF702FD054600BF306880037FF59AAE36
:1044B000FFF7FAFC401B64284FF00300F4D902B068
:1044C000BDE8F081411E0020B0EB116F1CBF012040
:1044D00070474EF21002CEF2000251604EF62351A8
:1044E000CEF20001F0230B7007219060116070473D
:1044F000FEE7000080B5042816D8DFE800F00716B4
:104500001E030300BDE8804001F0D0BF40F60D500F
:10451000C2F200000078012818BF80BD40F6B84004
:10452000C2F200000121017080BDFDF76BFAFDF7BA
:10453000B1FABDE88040FDF717BABDE88040FDF74D
:10454000FDB900002DE9F04381B0884640F21849DA
:104550000E21C4F2020901EAD0114FF4807761F014
:104560005F03C9F800709027013F00BFFCD14FF0F6
:10457000007761F05E01C9F800709027013F00BF2D
:10458000FCD14FF08077C9F800709027013F00BF41
:10459000FCD100244FF480764FF080775DB2B5F106
:1045A000FF3F4FF40075C8BF4FF00075C9F80050C9
:1045B000902500BF013D00BFFCD19025C9F80060E7
:1045C000013D00BFFCD19025C9F80070013D00BF3E
:1045D000FCD15B00072C04F10104DFD34FF400731E
:1045E000C9F80030902300BF013B00BFFCD14FF45D
:1045F0008073C9F800309023013B00BFFCD159F80B
:10460000083C4FF080779B05C9F8007000F10F81DE
:10461000902300BF013B00BFFCD100234FF4807604
:104620004FF0807745B2B5F1FF3F4FF40075C8BF3A
:104630004FF00075C9F80050902500BF013D00BF44
:10464000FCD19025C9F80060013D00BFFCD1902548
:10465000C9F80070013D00BFFCD14000072B03F1F9
:104660000103DFD34FF40070C9F80000902000BFB1
:10467000013800BFFCD14FF48070C9F800009020D1
:10468000013800BFFCD159F8080C4FF08073800549
:104690004FF09000C9F8003000F18E80013800BF63
:1046A000FCD14FF48070C9F800009020013800BFA1
:1046B000FCD14FF00070C9F800009020013800BF15
:1046C000FCD14FF08070C9F800009020013800BF85
:1046D000FCD100204FF480734FF080774EB2B6F1DA
:1046E000FF3F4FF40076C8BF4FF00076C9F8006076
:1046F000902600BF013E00BFFCD19026C9F80030D3
:10470000013E00BFFCD19026C9F80070013E00BFF9
:10471000FCD14900072800F10100DFD34FF40070FD
:10472000C9F80000902000BF013800BFFCD14FF451
:104730008070C9F800009020013800BFFCD159F802
:10474000080C4FF0807180054FF09000C9F8001000
:1047500050D400BF013800BFFCD1022AA2F10104ED
:104760000AD30020002600BF4044012101F0EAFBEB
:104770000136B0B28442F7DC08EB0400002101F0FE
:10478000E1FB4FF00070C9F800009020013800BF35
:10479000FCD14FF48070C9F800009020013800BFB0
:1047A000FCD14FF40070C9F800009020013800BF20
:1047B000FCD1002058E000BF013800BFFCD14FF011
:1047C0000070C9F800009020013800BFFCD14FF400
:1047D0008070C9F800009020013800BFFCD14FF470
:1047E0000070C9F800009020013800BFFCD1FB2008
:1047F0003AE000BF013800BFFCD14FF00070C9F8AB
:1048000000009020013800BFFCD14FF48070C9F83F
:1048100000009020013800BFFCD14FF40070C9F8AF
:1048200000009020013800BFFCD1FB201CE090204C
:10483000013800BFFCD14FF00070C9F80000902093
:10484000013800BFFCD14FF48070C9F800009020FF
:10485000013800BFFCD14FF40070C9F8000090206F
:10486000013800BFFCD1FB2040B201B0BDE8F083AD
:10487000F0B540F218450E23C4F2020503EAD01346
:104880004FF4807790262F60013E00BFFCD163F08B
:104890005F044FF000732B60902300BF013B00BF0B
:1048A000FCD14FF080732B60902300BF013B00BF11
:1048B000FCD100234FF4807C4FF0807E66B2B6F1CD
:1048C000FF3F4FF40076C8BF4FF000762E60902671
:1048D000013E00BFFCD19026C5F800C0013E00BFDC
:1048E000FCD19026C5F800E0013E00BFFCD1640079
:1048F000072B03F10103E1D34FF400732B609023E6
:10490000013B00BFFCD14FF480732B60902300BFAC
:10491000013B00BFFCD155F8083C4FF080779B0568
:104920002F6000F1EB809023013B00BFFCD10024FD
:104930004FF4807C4FF0807643B2B3F1FF3F4FF4E9
:104940000073C8BF4FF000732B609023013B00BF82
:10495000FCD19023C5F800C0013B00BFFCD19023DF
:104960002E6000BF013B00BFFCD14000072C04F1CA
:104970000104E1D34FF4007028609020013800BF9B
:10498000FCD14FF480702860902000BF013800BF38
:10499000FCD155F8080C4FF0807380054FF0900063
:1049A0002B6000F18F8000BF013800BFFCD1002ACE
:1049B00045D04FF0000E4FF4007C4FF480704FF064
:1049C000807400BF11F80E30002600BF5FB2B7F14F
:1049D000FF3F4FF40077C8BF4FF000772F6090275C
:1049E000013F00BFFCD19027286000BF013F00BFFE
:1049F000FCD190272C6000BF013F00BFFCD15B00C1
:104A0000072E06F10106E1D39023C5F800C000BFD0
:104A1000013B00BFFCD19023286000BF013B00BFD9
:104A2000FCD155F8083C2C609B0500F18780902351
:104A3000013B00BFFCD10EF1010E9645C2D14FF0F3
:104A400000702860902000BF013800BFFCD14FF4F7
:104A500080702860902000BF013800BFFCD14FF467
:104A600000702860902000BF013800BFFCD10020FA
:104A700043F6FF71884200F1010000BFFAD3002025
:104A800043F6FF71884200F1010000BFFAD3002015
:104A900043F6FF71884200F1010000BFFAD3002005
:104AA00043F6FF71884200F1010000BFFAD30020F5
:104AB00043F6FF71884200F1010000BFFAD30020E5
:104AC00040B2F0BD013800BFFCD14FF0007028604B
:104AD000902000BF013800BFFCD14FF480702860E7
:104AE000902000BF013800BFFCD14FF40070286057
:104AF000902000BF013800BFFCD11CE0902000BF17
:104B0000013800BFFCD14FF000702860902000BF3A
:104B1000013800BFFCD14FF480702860902000BFA6
:104B2000013800BFFCD14FF400702860902000BF16
:104B3000013800BFFCD1FB2040B2F0BD902000BF87
:104B4000013800BFFCD14FF000702860902000BFFA
:104B5000013800BFFCD14FF480702860902000BF66
:104B6000013800BFFCD14FF400702860902000BFD6
:104B7000013800BFFCD1DEE7FEE7000089B170B567
:104B80004A1E92B249F66A2349F66A3E01F0030CC6
:104B9000032AC0F60A03C0F60A0E06D2FF21FF223E
:104BA00028E0FF214FF47F4048E021F00304FF217B
:104BB000FF2200BF10F8045B043C69405D5C10F804
:104BC000036C6A4072401EF801109D5C10F8026C84
:104BD000694071401EF802205D5C10F8016C6A406B
:104BE00072401EF801109D5C1EF80220260481EA26
:104BF0000501DFD1BCF1000F1CD00478BCF1010F1E
:104C000084EA0104195D81EA02011EF8042011D032
:104C10004478BCF1020F81EA04015C5C84EA02047E
:104C20001EF80120E1B205D080784840195C51405F
:104C30001EF80020D0B20002BDE87040084380B2E8
:104C4000704700002DE9F04FCBB040F28401C2F272
:104C5000000141F6CF70086040F2A01140F28C06CE
:104C6000C2F20001FF20C2F200060860708C4FF211
:104C700000084CF2000B6421C0F6FF78C0F25D0B17
:104C800002F0C8FE04460620FCF7A6FC41F2ED2720
:104C9000784300EA0800002558454FF0010088BF1E
:104CA0000125FEF75FFF0620FCF796FC784300EA3B
:104CB000080058454FF0010088BF0135FEF752FF4C
:104CC0000620FCF789FC784300EA080058454FF0BD
:104CD000010088BF0135FEF745FF0620FCF77CFC8C
:104CE000784300EA080058454FF0010088BF0135BD
:104CF000FEF738FF0620FCF76FFC784300EA080057
:104D000058454FF0010088BF0135FEF72BFF062004
:104D1000FCF762FC784300EA080058454FF00100B8
:104D200088BF0135FEF71EFF0620FCF755FC7843CF
:104D300000EA080058454FF0010088BF0135FEF732
:104D400011FF0620FCF748FC784300EA08005845AC
:104D50004FF0010088BF0135FEF704FF0620FCF785
:104D60003BFC784300EA080058454FF0010088BF3B
:104D70000135FEF7F7FE0620FCF72EFC784300EA2B
:104D80000800584588BF01350120EDB2FEF7EAFE64
:104D90000A2D40F0A9800020A71002F003F800209F
:104DA0000021002201F018FF032001F0FBFF40F674
:104DB0002C4901264FF4803441F69915C2F20009BE
:104DC00040F28F20214602F075FE28440021002287
:104DD00001F002FF0520FEF7C5FED9F8000000280B
:104DE00048BF4042B84206DC01361E2E04F580342E
:104DF000E6D11E2000E0B0B2409000200021002249
:104E000001F0EAFE6420FEF7ADFE01264FF4803487
:104E100041F6991540F28F20214602F04BFE4119D0
:104E20000020002201F0D8FE0520FEF79BFED9F8F5
:104E30000400002848BF4042B84207DC01361E2E5D
:104E400004F58034E6D14FF01E0A01E01FFA86FA1D
:104E500000200021002201F0BFFE6420FEF782FE48
:104E600001264FF4803441F6991500BF40F28F209F
:104E7000214602F01FFE42190020002101F0ACFE85
:104E80000520FEF76FFED9F80800002848BF404211
:104E9000B84206DC01361E2E04F58034E6D101242A
:104EA00006E06FF01D0010FA86F0B0FA80F04409B9
:104EB000002001F077FF00200021002201F08CFE8D
:104EC000409840F28C061E28C2F2000618BFBAF1C4
:104ED0001E0F07D140F68840C2F20000017841F071
:104EE000040115E0002CF5D140F68842C2F2000220
:104EF0001178B6F92A0001F0FB010028117048BFB3
:104F00004042012808D140F27440C2F20000012161
:104F100001704BB0BDE8F08F708C642102F07AFD17
:104F200004460620FCF758FB41F2ED26704300EAE8
:104F30000800002558454FF0010088BF0125FEF705
:104F400011FE0620FCF748FB704300EA08005845B4
:104F50004FF0010088BF0135FEF704FE0620FCF784
:104F60003BFB704300EA080058454FF0010088BF42
:104F70000135FEF7F7FD032D40F01781002001F009
:104F800011FF00200021002201F026FE032001F085
:104F900009FF1E20FEF7E6FD4FF440402146FEF7D4
:104FA000A1F900202146FEF79DF906464A904FF4EC
:104FB00080402146FEF796F9054649904FF400409F
:104FC0002146FEF78FF9824648904FF44040214633
:104FD000FEF788F98146479000202146FEF782F9C6
:104FE00046904FF440402146FEF77CF980464290BF
:104FF0004FF400402146FEF775F9834643904FF485
:1050000080402146FEF76EF9074644900020214675
:10501000FEF768F9459000200021002201F0DCFD38
:10502000002001F0BFFEA81B40F6CC41419048BFD4
:1050300040428842C0F2B98041A8FCF72FFC44F2FC
:1050400000044198CFF6FF74012104F50046B0F545
:10505000004FC8BF4FF0FF3101FB065040F28C05F6
:10506000C2F20005499049A86985FCF717FCB5F91B
:105070002A0004F5804400FB04A00DF5907A4890C6
:105080005046FCF70BFCB5F92A00A0EB800009EBB9
:105090008030479047A8FCF701FCB5F92A000DF5D0
:1050A000887910FB067044904846FCF7F7FBB5F989
:1050B0002A0043AF00FB04B043903846FCF7EEFBF8
:1050C000B5F92A0042ACA0EB800008EB803042909A
:1050D0002046FCF7E3FB45AE304649463246FCF736
:1050E0001FFC3046FCF7DAFB384621463A46FCF70F
:1050F00017FC3846FCF7D2FB384631463246FCF7FF
:105100000FFC3046FCF7CAFB4AAF384649A93A467D
:10511000FCF706FC3846FCF7C1FB504647A952464F
:10512000FCF7FEFB5046FCF7B9FB46A938463A4669
:10513000FCF7F6FB3846FCF7B1FB384651463A46D9
:10514000FCF7EEFB3846FCF7A9FB304639463A46F9
:10515000FCF7E6FB3846FCF7A1FB4A9840F688448A
:10516000B0F5803FA4BF00204A902885684605F12D
:10517000100140F20012C2F2000451F8043B043A5C
:1051800040F8043BF9D195E80F0000F055FD0028E8
:105190003FF4B9AE40F28400C2F200000078C007CC
:1051A00003D0207840F00100207040F2A010C2F23D
:1051B00000000078400707D540F69840C2F2000092
:1051C000017841F0040101704BB0BDE8F08F0000A0
:1051D0002DE9F04381B040F28405C2F2000540F6AB
:1051E0000D5840F688442968C2F20008C2F2000453
:1051F00098F8000022780B0715D5A0B1130715D435
:1052000040F20237C2F20007B7F9003002F0F702AD
:10521000012BA4BF013B3B809BB2B3FA83F35B0934
:1052200042EAC30201E002F0F7022270CB0615D574
:10523000A0B1D30615D440F2FC27C2F20007B7F99B
:10524000003002F0EF02012BA4BF013B3B809BB278
:10525000B3FA83F35B0942EA031201E002F0EF02C2
:1052600022708B0615D5A0B1930615D440F2FE2707
:10527000C2F20007B7F9003002F0DF02012BA4BF31
:10528000013B3B809BB2B3FA83F35B0942EA4312D2
:1052900001E002F0DF0222704B0600D510B902F0E7
:1052A000BF022270C9053FD540F27441C2F200012D
:1052B0000978C9B3B4F80110C90735D140F28C00A0
:1052C000C2F20000408C04F06AFA9FEDA30B53EC8D
:1052D000102B04F077FA04F033FA642102F09AFB01
:1052E00040F62C41C2F20001CB6840F29C41C2F270
:1052F00000010A68834209DD013241F2883300204F
:105300009A4284BF012000220A6004E0002A1CBFE8
:10531000501E08600020214631F8012F22F00102C2
:10532000024498F800000A8040F2A019C2F2000975
:1053300099F8001040F698468906C2F200060DD58D
:1053400060B13178890609D401F0F4FA317801F0BE
:10535000DF0160F3451198F800003170E1786A7858
:10536000B4F80130920743EA014115D5A0B188078E
:1053700018D43078800615D501F0DCFA214631F8D2
:10538000012F8B7842EA034222F0020260F34102CD
:10539000100C0A80887005E021F00200090CE17011
:1053A000A4F801000620FCF717F941F2ED2148436B
:1053B000C0F30F3040F6B931884218D340F60F528F
:1053C000C2F2000240F2E4501378C2F20000002161
:1053D0000170581CC1B26529107032D3687840073B
:1053E00022D534F8010F40F0040020801CE040F288
:1053F000DB5340F60F52984240F2E450C2F20002F2
:105400004FF00001C2F20000117013D80178013191
:10541000CAB2652A017014D399F80000800703D539
:10542000307840F00200307040F62C40C2F20000AC
:10543000002105E0017040F62C40C2F2000001217D
:10544000818799F80000400763D540F2E850C2F226
:105450000000D0E9007540F6A044781BC2F20004B9
:1054600020602046FCF7D4F93078010746D440F29A
:10547000C411C2F20001002F48BF7F4209688F4269
:1054800015DA40F6EC42C2F20002002321681380D4
:1054900040F2C812C2F20002002948BF4942126815
:1054A00091424BDD40F6EE41C2F2000119E0002DC1
:1054B00048BF6D428D4221DA40F6EE42C2F2000250
:1054C00000232168138040F2C812C2F200020029B2
:1054D00048BF49421268914236DD40F6EC41C2F2C3
:1054E00000010A88531C652A0B8012D399F800101A
:1054F000090744BF40F0080030700AE040F6EC4075
:10550000C2F200000021018040F6EE40C2F200002D
:10551000018040F6E040C2F20000406818B13078E7
:1055200000F07F0006E099F80000000603D530780F
:1055300060F07F00307001B0BDE8F08340F6EE40CF
:10554000C2F200000021E3E740F6EC40C2F20000A6
:105550000021DDE700BF00BF333333333333F33F84
:10556000F0B5EFF3108272B60368406840F2A042D3
:1055700040F68844C2F20002C2F20004C2E90030E0
:1055800062B6206840F2A847C2F2000730B1052099
:105590000B4603F8010F18E03A70F0BD4B78002B72
:1055A00048D040F6F440C2F200000588002D49D1F1
:1055B0009588002D46D05D1E052D88BFF0BD4B1C83
:1055C000DFE805F00D0C774403850E208870206815
:1055D0000522002804BF00201870DDE7DDE740F257
:1055E000AC4CC2F2000CBCF80000B2F802E070450E
:1055F00002D1387801280BD01088062804D840F052
:105600000204022C40F0C48004201870ACF800E0C2
:105610008878012840F0898040F28C02C2F20002B2
:105620000869B2F86A20904280F2908001300861E7
:105630000122B1E740F6E040C2F20000406898B1B4
:10564000107833E004250B4603F8015F96880025A7
:105650008D700EB31488062C03D844F00206022E77
:1056600046D104228A7097E7387840F28C030028EC
:1056700040F2AA40C2F200001ABF00220280028853
:10568000C2F20003B3F868309A420ED201320280AF
:105690000120887000227FE70620887040F2AC402D
:1056A000C2F200000580042276E704204870002240
:1056B00072E740F2AC4CC2F2000CBCF80000548817
:1056C000A04225D13878032822D1032264E7D0886C
:1056D0004FF6FF7290422AD0012833D140F28C025B
:1056E000C2F20002B2F86C20012088708A602BE0C0
:1056F000008858B9D088002818BF0120062C29D36B
:10570000A11FB1FA81F14909084023D1042243E7DE
:105710001088062803D840F00206022E1DD104206E
:105720001870ACF80040032236E7012234E740F25B
:105730008C02C2F20002B2F86C2001208870504244
:10574000886001E004201870062225E70220887096
:10575000012221E71C7004221EE703281870E0D103
:1057600040F6E040C2F2000001238360D08840F29E
:105770008C02C2F20002B2F86660B2F86420B04255
:1057800028BF0646904288BF1646CE608B70C8E799
:10579000012818707FF43AAFD08840F28C02C2F230
:1057A0000002B2F86230B2F86020984228BF034687
:1057B000904240F62C40C2F20000C06988BF1346F8
:1057C000984240F6E040C2F200004B6005DD002246
:1057D0008260012088700A6118E705DA0122826080
:1057E00000208A70086111E702228260042088701C
:1057F0000CE70000B0B5044640F28C00C2F2000095
:10580000008C4FF48031B1FBF0F040F2B045C2F2B1
:1058100000052860FDF7C0FD2062FDF7BDFD296889
:1058200090FBF1F202FB110002F0F4F8A061B0BDB0
:10583000F0B581B004460720FBF7CEFE07460820EE
:10584000FBF7CAFE06460920FBF7C6FE054640F6F2
:10585000AC40C2F20000006839B2081A4FF400618F
:1058600002F0D8F840F28C07C2F20007396B02F060
:1058700021F9206040F6B040C2F20000006831B269
:10588000081A4FF4006102F0C5F8396B02F012F902
:10589000606040F6B440C2F20000006829B2081A05
:1058A0004FF4006102F0B6F8396B02F003F9A06022
:1058B0000020FBF791FE00B2206301B0F0BD0000B4
:1058C0002DE9F04F83B040F62C4040F2C037C2F2D1
:1058D00000004FF6FF710024C2F20007C18700BF2D
:1058E0000120FEF73FF90720FBF776FE47F824007A
:1058F000082007EB8405FBF76FFEA8620920FBF781
:105900006BFE01340A2C2865EAD140F23840C2F21D
:105910000000D0F800A040F24440C2F20000D0F8ED
:10592000008040F24840C2F20000D0F800E040F2AF
:105930004C40C2F20000046840F2780140F23C455D
:105940000026C2F20001C2F2000508E008360C444D
:1059500040F27801282EC2F2000100F09780BA5977
:10596000524505DD40F23840C2F200009246026026
:105970000868CDF804808242B8BF0A6007EB0609C8
:10598000D9F8288028687746804540F27C00C8BF57
:10599000C5F80080C2F2000000688045BEBF40F23A
:1059A0007C00C2F20000C0F8008040F24040C2F229
:1059B0000000D9F850B000688345C2BF40F24040B3
:1059C000C2F20000C0F800B040F28000C2F2000055
:1059D000006802948345BEBF40F28000C2F200001E
:1059E000C0F800B0D9F804E0D64506DD40F23840F2
:1059F000C2F20000F246C0F800E008688645BCBF6D
:105A0000C1F800E07046D9F82C10D5F800C000901D
:105A100040F27C006145C4BF29608C46C2F20000A0
:105A20000068814205DA40F27C00C2F200000160A9
:105A3000084640F24043C2F20003D9F85440D3F87C
:105A40000090019B4C451A4408EB070305DD40F22A
:105A50004047C2F20007A1463C600EEB020840F24C
:105A60008002C2F20002126801EB030E029940F2BA
:105A7000C03794425944C2F20007BFF667AF40F204
:105A80008002C2F20002146022465FE740F2444105
:105A9000C2F20001C1F8008040F24841C2F20001A8
:105AA000C1F800E040F24C41C2F20001009B0C60E2
:105AB000A8EB0A01C91A40F6AC43C910C2F20003B0
:105AC0001960AEEB0C01081A40F6B041C010C2F2EA
:105AD00000010860A4EB0900801A40F6B441C01030
:105AE000C2F20001086003B0BDE8F08FF0B581B0EC
:105AF0000D460446FDF750FC40F2B447C2F20007E1
:105B000040F6A8463968C2F200063060401A10F527
:105B1000004FB8BF00F5803040F2BC41B0F5004FF7
:105B2000C8BFA0F58030C2F2000108606843C0EB36
:105B3000001040F6A4458100C2F2000520692960EA
:105B40004EF2666101F0B6FF2A6800210546C0F6F4
:105B5000B831104601F05EFF41F6991101F0AAFF3D
:105B6000316828442061396001B0F0BD80B5FCF790
:105B700073FBBDE88040FCF795BA000040F2B84CDA
:105B8000036BC2F2000CBCF8002040F233318B42B0
:105B900008DB91084A2999BF501CACF8000001218C
:105BA00041877047002A19BF501EACF80000002141
:105BB00041877047B0B540F61841C2F200014A78FB
:105BC0000446032A24D140F28C00C2F20000B0F84F
:105BD0005400C968E568484344F6D351C1F26201F4
:105BE00050FB01F0C11001EBD070642101F012FFF5
:105BF00040F2BA41C2F200010A88854211DD9008E4
:105C00004A2899BF501C08800120A4F84000B0BD6C
:105C100040F2BA410020C2F20001A4F8400008801E
:105C2000B0BD002A19BF501E08800020A4F8400013
:105C3000B0BD00007047000084B010B50DF1080C35
:105C40008CE8070080B20128059315D102AC60886A
:105C5000B0F5887F12D1A088192811D120464FF4C1
:105C60008771FEF78BFFA4F80E01002021464FF448
:105C70008872FCF7F7FD04E0012002E0012000E05B
:105C80000120BDE8104004B070470000F0B5C1B07D
:105C900040F68245C2F20005288840F28C040128B3
:105CA000C2F2000440F0DF8040F2205740F2285654
:105CB000C2F20007C2F200067A8873883888B98871
:105CC0009A423080B18000F0CC80012972800CD0E3
:105CD000002930D14F2840F2BF80A0F57A713729D2
:105CE00040F2B1804FF0FF30BAE000F0DFFB40F649
:105CF0001840C2F20000407800F0FE00042840F096
:105D0000B0803888A0F204401A2800F28980DFE8C9
:105D100000F00E8716871A871E8722262A2E8732C2
:105D20003B878787444B525B646B727B8400F888A7
:105D30008001A06374E04FF0FF30308091E0F8887C
:105D40008001E0636CE0F8888001206468E0F888F6
:105D50008001606464E0F888A4F8480060E0F88896
:105D6000A4F84A005CE0F888A4F84C0058E0F888F1
:105D7000A4F84E0054E0F88840F6B831884238BFA5
:105D80000146A4F852104BE0F888B0F5967F28BF82
:105D90004FF49670A4F8540042E0F8880A2828BF0F
:105DA0000A20A4F85C003BE0F8880A2828BF0A20F3
:105DB000A4F85E0034E0F888B0F5B47F28BF4FF453
:105DC000B470A4F860002BE0F888B0F5B47F28BF69
:105DD0004FF4B470A4F8620022E0F888322828BF9B
:105DE0003220A4F864001BE0F888322828BF322053
:105DF000A4F8660014E0F88844F62061884238BFB1
:105E00000146A4F868100BE0F88844F62061884247
:105E100038BF0146A4F86A1002E0F888A4F86C00C4
:105E2000684604F1100140F2001251F8043B043AB4
:105E300040F8043BF9D194E80F00FFF7FDFE3888E5
:105E4000B0F57A7F08D34FF6184104EB4000CFF647
:105E5000FF7130F8110003E004EB4000B0F870006F
:105E6000F08002202880E06940F20431C0F2021183
:105E7000884230D140F2D055C2F20005286842F283
:105E8000C0710130C0F209018842286023D341F279
:105E9000A160C0F20300E061684604F1100140F225
:105EA000001251F8043B043A40F8043BF9D194E85D
:105EB0000F00FFF7C1FE40F22050C2F20000008840
:105EC00040F2285104EB4000B0F87000C2F200012B
:105ED000C8800020286041B0F0BD0000704700007D
:105EE00010B5D0E9001204460069891AE16101F099
:105EF000E1FDA268D4E9093108449A4220620ED03B
:105F00000028024648BF424200290B4648BF4B4288
:105F10009A4204DB08464FF6705101F0CBFDE1696F
:105F2000E2682062A0620144104601F0C3FD61698D
:105F30006062884204DCA1698842B8BF0846014615
:105F4000A16010BDB0B540F218420023C4F20202B5
:105F500003704FF400731360902300BF013B00BF38
:105F6000FCD14FF080731360902300BF013B00BF52
:105F7000FCD100234FF4807C4FF0807E04786400D5
:105F800004709024C2F800C0013C00BFFCD152F85C
:105F9000084C0578C4F340242C4304709024C2F8C4
:105FA00000E000BF013C00BFFCD1072B03F101035F
:105FB000E4D339B14FF0007010609020013800BF79
:105FC000FCD106E04FF4007010609020013800BF53
:105FD000FCD14FF480701060902000BF013800BFEA
:105FE000FCD14FF080701060902000BF013800BFDE
:105FF000FCD14FF000701060902000BF013800BF4E
:10600000FCD14FF400701060902000BF013800BF39
:10601000FCD1B0BD2DE9F04F87B00090002043F6D1
:10602000300A0190C4F2020ADAF8140040F2004586
:1060300040F01000CAF81400DAF81400002100F053
:1060400010000190019802264020C4F202050DF1D3
:10605000040B46F2884741F20C04CDE9026101903D
:106060004FF0070828465946C4F20207C4F201045B
:106070000496CDF81480FDF72FFE4FF00109802023
:106080000296CDE90396019028465946CDF8148032
:10609000FDF722FE4FF4805005F58065CDE90299A9
:1060A0000190284659460496FDF716FE28464FF4FF
:1060B00080510022FDF7EAFE0020206040F29C1093
:1060C000C2F20000006800994008B0FBF1F04FF602
:1060D000FF7180B244F8040C2068002288432060DD
:1060E000606847F66F7188436060A06840F6FF7192
:1060F0008843A0602068002140F05C002060A06818
:1061000040F0C000A060206840F4005020602520CE
:10611000FDF736FF2520FDF723FF00210691DAF871
:10612000000040F48000CAF80000DAF8000000F433
:106130008000069006980691DAF80000002140F4ED
:106140008000CAF80000DAF8000000F48000069031
:106150000698396057F87C0C40F47C6047F87C0C5A
:106160003868C0071FBF38685FEAC07038685FEAE8
:10617000C07002D03868C007F2D140F25445C0F672
:10618000010505F1B000386040F21370C2F2000062
:10619000F860083CFF20BC60786080207861386837
:1061A000062140F001003860442000220026FDF75F
:1061B000E7FE4420FDF7D4FE3E6357F87C0C40F028
:1061C0007C6047F87C0C386BC00709D0386BC0077F
:1061D0001CBF386B5FEAC07002D0386BC007F2D1C9
:1061E00040F61420C2F200003D63F8630020BC6357
:1061F000786380207864462006210022FDF7C0FEE7
:106200004620FDF7ADFE002007B0BDE8F08F00008E
:10621000B0B540F60C54C2F20004217840F61420C8
:10622000C2F200000222027021BB40F6000046F2DA
:10623000B845C4F202004FF480510122C4F20205B5
:10624000FDF724FE286820F0010028602868C007B8
:106250001FBF28685FEAC07028685FEAC07002D07C
:106260002868C007F2D101206860296841F0010167
:106270002960207000202070B0BD00007047000031
:10628000B0B540F27854C2F20004D4E901154DF6DD
:10629000B250A56101F00EFCA26900EB6503032179
:1062A000981AE361002BC8BF02210028C8BF01393A
:1062B000002A48BFC1F10701A184013904292062E5
:1062C0000FD8DFE801F003090E030900111AC4E931
:1062D00003311A46184608E01844C4E9030211467F
:1062E00003E041421A44C4E9030152426261BDE83D
:1062F000B04000F071BC00002DE9F041C0B040F2A8
:10630000505440F2AC51C2F20004C2F20001608865
:106310000A8840F2AE589042C2F200082FD022887C
:106320000880022A12D0012A29D1A18840F686428B
:106330000139C2F20002B1FA81F113884909012B37
:10634000A8F8001004BF022313801AE0A1880129D5
:1063500003D10121A8F8021008E00021A8F80210DA
:1063600040F2A051C2F2000102228A8040F686412A
:10637000C2F200010A88012A04BF02220A80B8F88A
:106380000010002940F2A85640F6F441C2F200067F
:10639000C2F200010FD001220A80218840F2A057EA
:1063A000C2F200073980318878806329BA8017D813
:1063B000481C308046E00020088040F27441C2F260
:1063C000000109783080002940F2AA51C2F2000190
:1063D000088026D040F2A051C2F20001888031E04E
:1063E00040F28C03C2F2000300205885684603F196
:1063F000100140F2001251F8045B043A40F8045BCB
:10640000F9D10FCBFFF718FC90B140F2AA50C2F2BD
:106410000000018802290ED801310180002030805F
:1064200010E040F2A050C2F200000221818009E099
:1064300000F00AF906E00221B9800021A8F8001056
:1064400031800180B8F8020078B1206840F2A05194
:10645000C2F2000108603088012263288A8014D8C3
:106460000130308040B0BDE8F08140F6E040C2F23B
:10647000000041680020308071B140F2A051C2F2AA
:106480000001888040B0BDE8F0810020308040B03D
:10649000BDE8F04100F0D8B840F2A050C2F20000D0
:1064A0000221818040B0BDE8F081000040F284000C
:1064B000C2F200004078000758BF704740F688409D
:1064C000C2F2000030F8011F41F00801018070475E
:1064D00040F28400C2F200000078800758BF704785
:1064E00040F68840C2F20000017841F002010170DC
:1064F0007047000040F28400C2F200000078C0073C
:1065000008BF704740F68840C2F20000017841F0B1
:106510000101017070470000F0B581B005460846E2
:106520000C4601F0CDFA0646204601F033FA044647
:106530002846214601F0BEFA07462846314601F0BA
:10654000B9FA3F1A2846314601F0B4FA0646284601
:10655000214601F0AFFA40F278513044C2F2000116
:10656000C1E9017001B0BDE8F040FFF789BE00004D
:10657000F0B581B044F20004C0F6000440F20466B5
:106580002188C2F200060320307021F0010040F2A1
:106590007641C2F20001088020460122FCF74EFE3F
:1065A00040F21067C2F20007387088B1307878B1D5
:1065B00040F27645C2F20005013830702046294687
:1065C0000122FCF73BFE387010B130780028F3D17F
:1065D00001B0F0BDF0B581B044F2000440F20466B1
:1065E000C0F60004C2F2000603203070208840F29A
:1065F0007641C2F20001420708805CBF01B0F0BDE5
:1066000020F00400088020460122FCF717FE40F22B
:106610001067C2F20007387088B1307878B140F264
:106620007645C2F200050138307020462946012225
:10663000FCF704FE387010B130780028F3D1EFF386
:10664000108072B600F054FFEFF3108072B600F0C5
:106650004FFF000070B5D0E9001204460069891AA6
:10666000E16101F027FAA268D4E9093108449A42AD
:1066700020620ED00028024648BF424200290B4645
:1066800048BF4B429A4204DB08464FF6705101F076
:1066900011FA20622268D4E90C51A66BA062104660
:1066A00001F008FA6168411A304601F003FA014628
:1066B000284601F0FFF9626CD4E90F13821A98188A
:1066C000C4E9112001F0F6F92064D4E90712A36CA3
:1066D000E0681144194401F0EDF961696062884293
:1066E00004DCA1698842B8BF08460146A16070BDBC
:1066F000F0B581B0002440F28C05C0F60A04C2F265
:1067000000052268E86840F20466C2F20006032130
:10671000824231706A611BD0294641F8140F20462D
:106720000122FCF7B5FD40F21067C2F20007387095
:1067300070B1307860B11435013830702046294688
:106740000122FCF7A5FD387010B130780028F3D194
:1067500001B0F0BDF0B581B0002440F28C05C0F668
:106760000404C2F200052268E86840F20466C2F23E
:1067700000060321824231702A611BD0294641F86C
:10678000100F20460122FCF783FD40F21067C2F291
:106790000007387070B1307860B110350138307052
:1067A000204629460122FCF773FD387010B130787D
:1067B0000028F3D101B0F0BDFDF782BB4EF6885042
:1067C000CEF2000001684FF0000C41F4700101604E
:1067D00043F60001C4F202010A6842F001020A60B5
:1067E000C1F808C00B684FF6FF72CFF6F6621A4088
:1067F0000A6043F21002C2F200424A600A6822F4C0
:1068000080220A60C1F80CC04FF0006140F8801C83
:106810007047000010B54EF280201024CEF2000028
:106820004FF08051C4F2000401602068C00708D016
:1068300040F60450C2F2000001680131016000F02E
:106840003FF90020206010BD10B54EF2802040F2CC
:106850001044CEF200004FF00051C4F20004016079
:106860002068C00710D040F2B450C2F200000168A6
:106870004CF6CD420131CCF6CC424A43B2F1333F23
:10688000016098BFFFF7C4FC0020206010BD00002D
:106890004EF2842140F61040CEF200014FF48022E7
:1068A000C4F200000A600168C9070CD040F6085124
:1068B000C2F200010A6801320A6040F60E51C2F2CB
:1068C000000101220A7000210160704710B582B0FA
:1068D000002143F640020191C4F20202136840F223
:1068E000004443F0020313601268C4F2000402F093
:1068F00002020192019A20222160626040F6405219
:10690000C0F20302B2FBF0F0616240F2A311013861
:10691000A162E0620120E0601D2004210022FDF759
:106920002FFB1D20FDF71CFB206840F001002060BC
:1069300002B010BD10B50220FAF74EFEB0F58B7F05
:1069400007D840F2CC51C2F20001002200200A8098
:1069500010BD40F62C7188426CD849F6EA1C002222
:10696000C0F60A0C0CEB8203B3F9061081422BDC53
:10697000B3F90A1081422ADCB3F90E10814229DCF6
:10698000B3F91210814228DCB3F91610814227DCDA
:10699000B3F91A10814226DCB3F91E10814225DCBE
:1069A000B3F92210814224DCB3F92610814223DCA2
:1069B000B3F92A10814222DCB3F92E10814221DC86
:1069C0000B32212ACED1BCE78BB201321CE08BB254
:1069D000023219E08BB2033216E08BB2043213E0BC
:1069E0008BB2053210E08BB206320DE08BB207326B
:1069F0000AE08BB2083207E08BB2093204E08BB2B6
:106A00000A3201E08BB20B3219B20CEB82033CF874
:106A1000224033F9022C081A891A00F0FBFF0146C4
:106A20004FF4FA7001F046F8201A00B2B0F5FA5FA0
:106A30007FF787AF40F2CC51C2F200010888421CB8
:106A400093B20020B3F5FA6F84BF012000220A80C0
:106A500010BD000040F60450C2F20000006870470C
:106A600010B582B0002143F640020191C4F2020247
:106A700013684FF0804443F001031360126802F082
:106A800001020192019A4BF60052C0F20152B2FB90
:106A9000F0F00C22C4F2000221609161D161106219
:106AA000012010601C2002210022FDF769FA1C2041
:106AB000FDF756FA206840F00100206002B010BDDA
:106AC00080B5FFF7C7FF4CF6CD41CCF6CC41A0FB1B
:106AD0000112D10801EB8101A0EB410009283FD848
